{
  "contractName": "Bank",
  "abi": [
    {
      "constant": false,
      "inputs": [],
      "name": "renounceOwnership",
      "outputs": [],
      "payable": false,
      "stateMutability": "nonpayable",
      "type": "function"
    },
    {
      "constant": true,
      "inputs": [],
      "name": "ETH",
      "outputs": [
        {
          "name": "",
          "type": "address"
        }
      ],
      "payable": false,
      "stateMutability": "view",
      "type": "function"
    },
    {
      "constant": true,
      "inputs": [],
      "name": "owner",
      "outputs": [
        {
          "name": "",
          "type": "address"
        }
      ],
      "payable": false,
      "stateMutability": "view",
      "type": "function"
    },
    {
      "constant": true,
      "inputs": [],
      "name": "isOwner",
      "outputs": [
        {
          "name": "",
          "type": "bool"
        }
      ],
      "payable": false,
      "stateMutability": "view",
      "type": "function"
    },
    {
      "constant": true,
      "inputs": [
        {
          "name": "",
          "type": "address"
        }
      ],
      "name": "approved",
      "outputs": [
        {
          "name": "",
          "type": "bool"
        }
      ],
      "payable": false,
      "stateMutability": "view",
      "type": "function"
    },
    {
      "constant": false,
      "inputs": [
        {
          "name": "newOwner",
          "type": "address"
        }
      ],
      "name": "transferOwnership",
      "outputs": [],
      "payable": false,
      "stateMutability": "nonpayable",
      "type": "function"
    },
    {
      "anonymous": false,
      "inputs": [
        {
          "indexed": true,
          "name": "previousOwner",
          "type": "address"
        },
        {
          "indexed": true,
          "name": "newOwner",
          "type": "address"
        }
      ],
      "name": "OwnershipTransferred",
      "type": "event"
    },
    {
      "constant": false,
      "inputs": [
        {
          "name": "token",
          "type": "address"
        },
        {
          "name": "amount",
          "type": "uint256"
        }
      ],
      "name": "deposit",
      "outputs": [],
      "payable": true,
      "stateMutability": "payable",
      "type": "function"
    },
    {
      "constant": false,
      "inputs": [
        {
          "name": "token",
          "type": "address"
        },
        {
          "name": "amount",
          "type": "uint256"
        }
      ],
      "name": "withdraw",
      "outputs": [],
      "payable": false,
      "stateMutability": "nonpayable",
      "type": "function"
    },
    {
      "constant": false,
      "inputs": [
        {
          "name": "token",
          "type": "address"
        },
        {
          "name": "amount",
          "type": "uint256"
        }
      ],
      "name": "borrow",
      "outputs": [],
      "payable": false,
      "stateMutability": "nonpayable",
      "type": "function"
    },
    {
      "constant": false,
      "inputs": [
        {
          "name": "token",
          "type": "address"
        },
        {
          "name": "who",
          "type": "address"
        },
        {
          "name": "amount",
          "type": "uint256"
        }
      ],
      "name": "borrowFor",
      "outputs": [],
      "payable": false,
      "stateMutability": "nonpayable",
      "type": "function"
    },
    {
      "constant": false,
      "inputs": [
        {
          "name": "token",
          "type": "address"
        },
        {
          "name": "amount",
          "type": "uint256"
        }
      ],
      "name": "repay",
      "outputs": [],
      "payable": true,
      "stateMutability": "payable",
      "type": "function"
    },
    {
      "constant": false,
      "inputs": [
        {
          "name": "borrower",
          "type": "address"
        }
      ],
      "name": "addBorrower",
      "outputs": [],
      "payable": false,
      "stateMutability": "nonpayable",
      "type": "function"
    },
    {
      "constant": false,
      "inputs": [
        {
          "name": "borrower",
          "type": "address"
        }
      ],
      "name": "removeBorrower",
      "outputs": [],
      "payable": false,
      "stateMutability": "nonpayable",
      "type": "function"
    },
    {
      "constant": true,
      "inputs": [
        {
          "name": "token",
          "type": "address"
        }
      ],
      "name": "totalSupplyOf",
      "outputs": [
        {
          "name": "balance",
          "type": "uint256"
        }
      ],
      "payable": false,
      "stateMutability": "view",
      "type": "function"
    }
  ],
  "bytecode": "0x608060405260006100146100b760201b60201c565b9050806000806101000a81548173ffffffffffffffffffffffffffffffffffffffff021916908373ffffffffffffffffffffffffffffffffffffffff1602179055508073ffffffffffffffffffffffffffffffffffffffff16600073ffffffffffffffffffffffffffffffffffffffff167f8be0079c531659141344cd1fd0a4f28419497f9722a3daafe3b4186f6b6457e060405160405180910390a3506100bf565b600033905090565b61111a806100ce6000396000f3fe6080604052600436106100dd5760003560e01c80638da5cb5b1161007f578063d8b964e611610059578063d8b964e6146103fe578063e3a8e29c14610467578063f2fde38b146104b8578063f3fef3a314610509576100dd565b80638da5cb5b146103135780638f32d59b1461036a578063cf9530d014610399576100dd565b80634b8a3529116100bb5780634b8a3529146101f9578063715018a61461025457806376c7fc551461026b5780638322fff2146102bc576100dd565b806322867d78146100e2578063308804411461013057806347e7ef24146101ab575b600080fd5b61012e600480360360408110156100f857600080fd5b81019080803573ffffffffffffffffffffffffffffffffffffffff16906020019092919080359060200190929190505050610564565b005b34801561013c57600080fd5b506101a96004803603606081101561015357600080fd5b81019080803573ffffffffffffffffffffffffffffffffffffffff169060200190929190803573ffffffffffffffffffffffffffffffffffffffff16906020019092919080359060200190929190505050610575565b005b6101f7600480360360408110156101c157600080fd5b81019080803573ffffffffffffffffffffffffffffffffffffffff169060200190929190803590602001909291905050506105e3565b005b34801561020557600080fd5b506102526004803603604081101561021c57600080fd5b81019080803573ffffffffffffffffffffffffffffffffffffffff1690602001909291908035906020019092919050505061066e565b005b34801561026057600080fd5b506102696106da565b005b34801561027757600080fd5b506102ba6004803603602081101561028e57600080fd5b81019080803573ffffffffffffffffffffffffffffffffffffffff169060200190929190505050610813565b005b3480156102c857600080fd5b506102d16108e8565b604051808273ffffffffffffffffffffffffffffffffffffffff1673ffffffffffffffffffffffffffffffffffffffff16815260200191505060405180910390f35b34801561031f57600080fd5b506103286108ed565b604051808273ffffffffffffffffffffffffffffffffffffffff1673ffffffffffffffffffffffffffffffffffffffff16815260200191505060405180910390f35b34801561037657600080fd5b5061037f610916565b604051808215151515815260200191505060405180910390f35b3480156103a557600080fd5b506103e8600480360360208110156103bc57600080fd5b81019080803573ffffffffffffffffffffffffffffffffffffffff169060200190929190505050610974565b6040518082815260200191505060405180910390f35b34801561040a57600080fd5b5061044d6004803603602081101561042157600080fd5b81019080803573ffffffffffffffffffffffffffffffffffffffff169060200190929190505050610a89565b604051808215151515815260200191505060405180910390f35b34801561047357600080fd5b506104b66004803603602081101561048a57600080fd5b81019080803573ffffffffffffffffffffffffffffffffffffffff169060200190929190505050610aa9565b005b3480156104c457600080fd5b50610507600480360360208110156104db57600080fd5b81019080803573ffffffffffffffffffffffffffffffffffffffff169060200190929190505050610b7d565b005b34801561051557600080fd5b506105626004803603604081101561052c57600080fd5b81019080803573ffffffffffffffffffffffffffffffffffffffff16906020019092919080359060200190929190505050610c03565b005b61057082333084610c8d565b505050565b60011515600160003373ffffffffffffffffffffffffffffffffffffffff1673ffffffffffffffffffffffffffffffffffffffff16815260200190815260200160002060009054906101000a900460ff161515146105d257600080fd5b6105dd838383610e1d565b50505050565b6105eb610916565b61065d576040517f08c379a00000000000000000000000000000000000000000000000000000000081526004018080602001828103825260208152602001807f4f776e61626c653a2063616c6c6572206973206e6f7420746865206f776e657281525060200191505060405180910390fd5b61066982333084610c8d565b505050565b60011515600160003373ffffffffffffffffffffffffffffffffffffffff1673ffffffffffffffffffffffffffffffffffffffff16815260200190815260200160002060009054906101000a900460ff161515146106cb57600080fd5b6106d6823383610575565b5050565b6106e2610916565b610754576040517f08c379a00000000000000000000000000000000000000000000000000000000081526004018080602001828103825260208152602001807f4f776e61626c653a2063616c6c6572206973206e6f7420746865206f776e657281525060200191505060405180910390fd5b600073ffffffffffffffffffffffffffffffffffffffff166000809054906101000a900473ffffffffffffffffffffffffffffffffffffffff1673ffffffffffffffffffffffffffffffffffffffff167f8be0079c531659141344cd1fd0a4f28419497f9722a3daafe3b4186f6b6457e060405160405180910390a360008060006101000a81548173ffffffffffffffffffffffffffffffffffffffff021916908373ffffffffffffffffffffffffffffffffffffffff160217905550565b61081b610916565b61088d576040517f08c379a00000000000000000000000000000000000000000000000000000000081526004018080602001828103825260208152602001807f4f776e61626c653a2063616c6c6572206973206e6f7420746865206f776e657281525060200191505060405180910390fd5b6000600160008373ffffffffffffffffffffffffffffffffffffffff1673ffffffffffffffffffffffffffffffffffffffff16815260200190815260200160002060006101000a81548160ff02191690831515021790555050565b600081565b60008060009054906101000a900473ffffffffffffffffffffffffffffffffffffffff16905090565b60008060009054906101000a900473ffffffffffffffffffffffffffffffffffffffff1673ffffffffffffffffffffffffffffffffffffffff16610958610f7c565b73ffffffffffffffffffffffffffffffffffffffff1614905090565b60008073ffffffffffffffffffffffffffffffffffffffff168273ffffffffffffffffffffffffffffffffffffffff1614156109c9573073ffffffffffffffffffffffffffffffffffffffff16319050610a84565b8173ffffffffffffffffffffffffffffffffffffffff166370a08231306040518263ffffffff1660e01b8152600401808273ffffffffffffffffffffffffffffffffffffffff1673ffffffffffffffffffffffffffffffffffffffff16815260200191505060206040518083038186803b158015610a4657600080fd5b505afa158015610a5a573d6000803e3d6000fd5b505050506040513d6020811015610a7057600080fd5b810190808051906020019092919050505090505b919050565b60016020528060005260406000206000915054906101000a900460ff1681565b610ab1610916565b610b23576040517f08c379a00000000000000000000000000000000000000000000000000000000081526004018080602001828103825260208152602001807f4f776e61626c653a2063616c6c6572206973206e6f7420746865206f776e657281525060200191505060405180910390fd5b60018060008373ffffffffffffffffffffffffffffffffffffffff1673ffffffffffffffffffffffffffffffffffffffff16815260200190815260200160002060006101000a81548160ff02191690831515021790555050565b610b85610916565b610bf7576040517f08c379a00000000000000000000000000000000000000000000000000000000081526004018080602001828103825260208152602001807f4f776e61626c653a2063616c6c6572206973206e6f7420746865206f776e657281525060200191505060405180910390fd5b610c0081610f84565b50565b610c0b610916565b610c7d576040517f08c379a00000000000000000000000000000000000000000000000000000000081526004018080602001828103825260208152602001807f4f776e61626c653a2063616c6c6572206973206e6f7420746865206f776e657281525060200191505060405180910390fd5b610c88823383610e1d565b505050565b60008073ffffffffffffffffffffffffffffffffffffffff168573ffffffffffffffffffffffffffffffffffffffff16148015610cc957508134145b80610cd45750600034145b610cdd57600080fd5b600073ffffffffffffffffffffffffffffffffffffffff168573ffffffffffffffffffffffffffffffffffffffff1614610e11578473ffffffffffffffffffffffffffffffffffffffff166323b872dd8585856040518463ffffffff1660e01b8152600401808473ffffffffffffffffffffffffffffffffffffffff1673ffffffffffffffffffffffffffffffffffffffff1681526020018373ffffffffffffffffffffffffffffffffffffffff1673ffffffffffffffffffffffffffffffffffffffff1681526020018281526020019350505050602060405180830381600087803b158015610dcc57600080fd5b505af1158015610de0573d6000803e3d6000fd5b505050506040513d6020811015610df657600080fd5b8101908080519060200190929190505050610e1057600080fd5b5b60019050949350505050565b60008073ffffffffffffffffffffffffffffffffffffffff168473ffffffffffffffffffffffffffffffffffffffff161415610ea55760008390508073ffffffffffffffffffffffffffffffffffffffff166108fc849081150290604051600060405180830381858888f19350505050158015610e9e573d6000803e3d6000fd5b5050610f71565b8373ffffffffffffffffffffffffffffffffffffffff1663a9059cbb84846040518363ffffffff1660e01b8152600401808373ffffffffffffffffffffffffffffffffffffffff1673ffffffffffffffffffffffffffffffffffffffff16815260200182815260200192505050602060405180830381600087803b158015610f2c57600080fd5b505af1158015610f40573d6000803e3d6000fd5b505050506040513d6020811015610f5657600080fd5b8101908080519060200190929190505050610f7057600080fd5b5b600190509392505050565b600033905090565b600073ffffffffffffffffffffffffffffffffffffffff168173ffffffffffffffffffffffffffffffffffffffff16141561100a576040517f08c379a00000000000000000000000000000000000000000000000000000000081526004018080602001828103825260268152602001806110c96026913960400191505060405180910390fd5b8073ffffffffffffffffffffffffffffffffffffffff166000809054906101000a900473ffffffffffffffffffffffffffffffffffffffff1673ffffffffffffffffffffffffffffffffffffffff167f8be0079c531659141344cd1fd0a4f28419497f9722a3daafe3b4186f6b6457e060405160405180910390a3806000806101000a81548173ffffffffffffffffffffffffffffffffffffffff021916908373ffffffffffffffffffffffffffffffffffffffff1602179055505056fe4f776e61626c653a206e6577206f776e657220697320746865207a65726f2061646472657373a165627a7a72305820f2ae90d438bfbc7da5b489df319884f2123b0fc4c7aa76b877da87136f90f0070029",
  "source": "// Modified from Marble: https://github.com/marbleprotocol/flash-lending\n/*\n  Copyright 2018 Contra Labs Inc.\n  Licensed under the Apache License, Version 2.0 (the \"License\");\n  you may not use this file except in compliance with the License.\n  You may obtain a copy of the License at\n  http://www.apache.org/licenses/LICENSE-2.0\n  Unless required by applicable law or agreed to in writing, software\n  distributed under the License is distributed on an \"AS IS\" BASIS,\n  WITHOUT WARRANTIES OR CONDITIONS OF ANY KIND, either express or implied.\n  See the License for the specific language governing permissions and\n  limitations under the License.\n*/\n\npragma solidity >=0.4.21 <0.6.0;\n\nimport \"../openzeppelin-solidity/Ownable.sol\";\nimport \"../openzeppelin-solidity/SafeMath.sol\";\nimport \"./Transfer.sol\";\n\n// @title Bank: Accept deposits and allow approved contracts to borrow Ether and ERC20 tokens.\n// @author Rich McAteer <rich@marble.org>, Max Wolff <max@marble.org>\ncontract Bank is Ownable, Transfer {\n    using SafeMath for uint256;\n\n    // Borrower => Approved\n    mapping (address => bool) public approved;\n\n    modifier onlyApproved() {\n        require(approved[msg.sender] == true);\n        _;\n    }\n\n    /**\n    * @dev Deposit tokens to the bank.\n    * @param token Address of token to deposit. 0x0 for ETH\n    * @param amount Amount of token to deposit.\n    */\n    function deposit(address token, uint256 amount) external onlyOwner payable {\n        transferFrom(token, msg.sender, address(this), amount);\n    }\n\n    /**\n    * @dev Withdraw tokens from the bank.\n    * @param token Address of token to withdraw. 0x0 for ETH\n    * @param amount Amount of token to withdraw.\n    */\n    function withdraw(address token, uint256 amount) external onlyOwner {\n        transfer(token, msg.sender, amount);\n    }\n\n    /**\n    * @dev Borrow tokens from the bank.\n    * @param token Address of token to borrow. 0x0 for ETH\n    * @param amount Amount of token to borrow.\n    */\n    function borrow(address token, uint256 amount) external onlyApproved {\n        borrowFor(token, msg.sender, amount);\n    }\n\n    /**\n    * @dev Borrow tokens from the bank on behalf of another account.\n    * @param token Address of token to borrow. 0x0 for ETH\n    * @param who Address to send borrowed amount to.\n    * @param amount Amount of token to borrow.\n    */\n    function borrowFor(address token, address who, uint256 amount) public onlyApproved {\n        transfer(token, who, amount);\n    }\n\n    /**\n    * @dev Repay tokens to the bank.\n    * @param token Address of token to repay. 0x0 for ETH\n    * @param amount Amount of token to repay.\n    */\n    function repay(address token, uint256 amount) external payable {\n        transferFrom(token, msg.sender, address(this), amount);\n    }\n\n    /**\n    * @dev Approve a new borrower.\n    * @param borrower Address of new borrower.\n    */\n    function addBorrower(address borrower) external onlyOwner {\n        approved[borrower] = true;\n    }\n\n    /**\n    * @dev Revoke approval of a borrower.\n    * @param borrower Address of borrower to revoke.\n    */\n    function removeBorrower(address borrower) external onlyOwner {\n        approved[borrower] = false;\n    }\n\n    /**\n    * @dev Gets balance of bank.\n    * @param token Address of token to calculate total supply of.\n    */\n    function totalSupplyOf(address token) public view returns (uint256 balance) {\n        if (token == ETH) {\n            return address(this).balance;\n        } else {\n            return ERC20(token).balanceOf(address(this));\n        }\n    }\n\n}\n",
  "sourcePath": "/Users/Karim 1/Desktop/atomicoptions/contracts/lib/flash-lending/Bank.sol",
  "compiler": {
    "name": "solc",
    "version": "0.5.8+commit.23d335f2.Emscripten.clang"
  },
  "schemaVersion": "3.0.16",
  "updatedAt": "2019-12-17T19:06:29.658Z",
  "devdoc": {
    "methods": {
      "addBorrower(address)": {
        "details": "Approve a new borrower.",
        "params": {
          "borrower": "Address of new borrower."
        }
      },
      "borrow(address,uint256)": {
        "details": "Borrow tokens from the bank.",
        "params": {
          "amount": "Amount of token to borrow.",
          "token": "Address of token to borrow. 0x0 for ETH"
        }
      },
      "borrowFor(address,address,uint256)": {
        "details": "Borrow tokens from the bank on behalf of another account.",
        "params": {
          "amount": "Amount of token to borrow.",
          "token": "Address of token to borrow. 0x0 for ETH",
          "who": "Address to send borrowed amount to."
        }
      },
      "deposit(address,uint256)": {
        "details": "Deposit tokens to the bank.",
        "params": {
          "amount": "Amount of token to deposit.",
          "token": "Address of token to deposit. 0x0 for ETH"
        }
      },
      "isOwner()": {
        "details": "Returns true if the caller is the current owner."
      },
      "owner()": {
        "details": "Returns the address of the current owner."
      },
      "removeBorrower(address)": {
        "details": "Revoke approval of a borrower.",
        "params": {
          "borrower": "Address of borrower to revoke."
        }
      },
      "renounceOwnership()": {
        "details": "Leaves the contract without owner. It will not be possible to call `onlyOwner` functions anymore. Can only be called by the current owner.     * NOTE: Renouncing ownership will leave the contract without an owner, thereby removing any functionality that is only available to the owner."
      },
      "repay(address,uint256)": {
        "details": "Repay tokens to the bank.",
        "params": {
          "amount": "Amount of token to repay.",
          "token": "Address of token to repay. 0x0 for ETH"
        }
      },
      "totalSupplyOf(address)": {
        "details": "Gets balance of bank.",
        "params": {
          "token": "Address of token to calculate total supply of."
        }
      },
      "transferOwnership(address)": {
        "details": "Transfers ownership of the contract to a new account (`newOwner`). Can only be called by the current owner."
      },
      "withdraw(address,uint256)": {
        "details": "Withdraw tokens from the bank.",
        "params": {
          "amount": "Amount of token to withdraw.",
          "token": "Address of token to withdraw. 0x0 for ETH"
        }
      }
    }
  },
  "userdoc": {
    "methods": {}
  }
}