{
  "contractName": "DerivativeCommon",
  "abi": [
    {
      "constant": true,
      "inputs": [],
      "name": "STATE_EXPIRED",
      "outputs": [
        {
          "name": "",
          "type": "uint256"
        }
      ],
      "payable": false,
      "stateMutability": "view",
      "type": "function"
    },
    {
      "constant": true,
      "inputs": [],
      "name": "STATE_INITIALIZED",
      "outputs": [
        {
          "name": "",
          "type": "uint256"
        }
      ],
      "payable": false,
      "stateMutability": "view",
      "type": "function"
    },
    {
      "constant": true,
      "inputs": [],
      "name": "STATE_EXERCISED",
      "outputs": [
        {
          "name": "",
          "type": "uint256"
        }
      ],
      "payable": false,
      "stateMutability": "view",
      "type": "function"
    },
    {
      "constant": true,
      "inputs": [],
      "name": "issuer",
      "outputs": [
        {
          "name": "",
          "type": "address"
        }
      ],
      "payable": false,
      "stateMutability": "view",
      "type": "function"
    },
    {
      "constant": true,
      "inputs": [],
      "name": "asset",
      "outputs": [
        {
          "name": "",
          "type": "address"
        }
      ],
      "payable": false,
      "stateMutability": "view",
      "type": "function"
    },
    {
      "constant": true,
      "inputs": [],
      "name": "base",
      "outputs": [
        {
          "name": "",
          "type": "address"
        }
      ],
      "payable": false,
      "stateMutability": "view",
      "type": "function"
    },
    {
      "constant": true,
      "inputs": [],
      "name": "STATE_COLLATERALIZED",
      "outputs": [
        {
          "name": "",
          "type": "uint256"
        }
      ],
      "payable": false,
      "stateMutability": "view",
      "type": "function"
    },
    {
      "constant": true,
      "inputs": [],
      "name": "asset_addr",
      "outputs": [
        {
          "name": "",
          "type": "address"
        }
      ],
      "payable": false,
      "stateMutability": "view",
      "type": "function"
    },
    {
      "constant": true,
      "inputs": [],
      "name": "buyer",
      "outputs": [
        {
          "name": "",
          "type": "address"
        }
      ],
      "payable": false,
      "stateMutability": "view",
      "type": "function"
    },
    {
      "constant": true,
      "inputs": [],
      "name": "maturity_time",
      "outputs": [
        {
          "name": "",
          "type": "uint256"
        }
      ],
      "payable": false,
      "stateMutability": "view",
      "type": "function"
    },
    {
      "constant": true,
      "inputs": [],
      "name": "base_addr",
      "outputs": [
        {
          "name": "",
          "type": "address"
        }
      ],
      "payable": false,
      "stateMutability": "view",
      "type": "function"
    },
    {
      "constant": true,
      "inputs": [],
      "name": "state",
      "outputs": [
        {
          "name": "",
          "type": "uint256"
        }
      ],
      "payable": false,
      "stateMutability": "view",
      "type": "function"
    },
    {
      "constant": true,
      "inputs": [],
      "name": "volume",
      "outputs": [
        {
          "name": "",
          "type": "uint256"
        }
      ],
      "payable": false,
      "stateMutability": "view",
      "type": "function"
    },
    {
      "constant": true,
      "inputs": [],
      "name": "STATE_ACTIVE",
      "outputs": [
        {
          "name": "",
          "type": "uint256"
        }
      ],
      "payable": false,
      "stateMutability": "view",
      "type": "function"
    },
    {
      "constant": true,
      "inputs": [],
      "name": "STATE_UNINITIALIZED",
      "outputs": [
        {
          "name": "",
          "type": "uint256"
        }
      ],
      "payable": false,
      "stateMutability": "view",
      "type": "function"
    },
    {
      "constant": true,
      "inputs": [],
      "name": "fee",
      "outputs": [
        {
          "name": "",
          "type": "uint256"
        }
      ],
      "payable": false,
      "stateMutability": "view",
      "type": "function"
    },
    {
      "inputs": [
        {
          "name": "_issuer",
          "type": "address"
        },
        {
          "name": "_buyer",
          "type": "address"
        },
        {
          "name": "_base_addr",
          "type": "address"
        },
        {
          "name": "_asset_addr",
          "type": "address"
        },
        {
          "name": "_fee",
          "type": "uint256"
        },
        {
          "name": "_volume",
          "type": "uint256"
        },
        {
          "name": "_maturity_time",
          "type": "uint256"
        }
      ],
      "payable": false,
      "stateMutability": "nonpayable",
      "type": "constructor"
    },
    {
      "constant": false,
      "inputs": [],
      "name": "collateralize",
      "outputs": [],
      "payable": false,
      "stateMutability": "nonpayable",
      "type": "function"
    }
  ],
  "bytecode": "0x608060405234801561001057600080fd5b5060405160e080610971833981018060405260e081101561003057600080fd5b81019080805190602001909291908051906020019092919080519060200190929190805190602001909291908051906020019092919080519060200190929190805190602001909291905050508373ffffffffffffffffffffffffffffffffffffffff168573ffffffffffffffffffffffffffffffffffffffff1614156100b657600080fd5b866000806101000a81548173ffffffffffffffffffffffffffffffffffffffff021916908373ffffffffffffffffffffffffffffffffffffffff16021790555085600160006101000a81548173ffffffffffffffffffffffffffffffffffffffff021916908373ffffffffffffffffffffffffffffffffffffffff16021790555084600260006101000a81548173ffffffffffffffffffffffffffffffffffffffff021916908373ffffffffffffffffffffffffffffffffffffffff16021790555083600360006101000a81548173ffffffffffffffffffffffffffffffffffffffff021916908373ffffffffffffffffffffffffffffffffffffffff16021790555082600481905550816005819055508060068190555084600860006101000a81548173ffffffffffffffffffffffffffffffffffffffff021916908373ffffffffffffffffffffffffffffffffffffffff16021790555083600960006101000a81548173ffffffffffffffffffffffffffffffffffffffff021916908373ffffffffffffffffffffffffffffffffffffffff1602179055506001600781905550505050505050506107038061026e6000396000f3fe608060405234801561001057600080fd5b506004361061010b5760003560e01c80637150d8ae116100a2578063c618a1e411610071578063c618a1e414610380578063c80c07381461039e578063d34ab68d146103bc578063ddca3f43146103da578063eef9a8d5146103f85761010b565b80637150d8ae146102b0578063879a031a146102fa578063a77f559914610318578063c19d93fb146103625761010b565b806338d52e0f116100de57806338d52e0f146101b45780635001f3b5146101fe5780635ab533ac146102485780635f727189146102665761010b565b80630fa9f5e11461011057806314b80ae61461012e57806319d83c711461014c5780631d1438481461016a575b600080fd5b610118610402565b6040518082815260200191505060405180910390f35b610136610407565b6040518082815260200191505060405180910390f35b61015461040c565b6040518082815260200191505060405180910390f35b610172610411565b604051808273ffffffffffffffffffffffffffffffffffffffff1673ffffffffffffffffffffffffffffffffffffffff16815260200191505060405180910390f35b6101bc610436565b604051808273ffffffffffffffffffffffffffffffffffffffff1673ffffffffffffffffffffffffffffffffffffffff16815260200191505060405180910390f35b61020661045c565b604051808273ffffffffffffffffffffffffffffffffffffffff1673ffffffffffffffffffffffffffffffffffffffff16815260200191505060405180910390f35b610250610482565b6040518082815260200191505060405180910390f35b61026e610487565b604051808273ffffffffffffffffffffffffffffffffffffffff1673ffffffffffffffffffffffffffffffffffffffff16815260200191505060405180910390f35b6102b86104ad565b604051808273ffffffffffffffffffffffffffffffffffffffff1673ffffffffffffffffffffffffffffffffffffffff16815260200191505060405180910390f35b6103026104d3565b6040518082815260200191505060405180910390f35b6103206104d9565b604051808273ffffffffffffffffffffffffffffffffffffffff1673ffffffffffffffffffffffffffffffffffffffff16815260200191505060405180910390f35b61036a6104ff565b6040518082815260200191505060405180910390f35b610388610505565b6040518082815260200191505060405180910390f35b6103a661050b565b6040518082815260200191505060405180910390f35b6103c4610510565b6040518082815260200191505060405180910390f35b6103e2610515565b6040518082815260200191505060405180910390f35b61040061051b565b005b600581565b600181565b600481565b6000809054906101000a900473ffffffffffffffffffffffffffffffffffffffff1681565b600960009054906101000a900473ffffffffffffffffffffffffffffffffffffffff1681565b600860009054906101000a900473ffffffffffffffffffffffffffffffffffffffff1681565b600281565b600360009054906101000a900473ffffffffffffffffffffffffffffffffffffffff1681565b600160009054906101000a900473ffffffffffffffffffffffffffffffffffffffff1681565b60065481565b600260009054906101000a900473ffffffffffffffffffffffffffffffffffffffff1681565b60075481565b60055481565b600381565b600081565b60045481565b6000809054906101000a900473ffffffffffffffffffffffffffffffffffffffff1673ffffffffffffffffffffffffffffffffffffffff163373ffffffffffffffffffffffffffffffffffffffff161461057457600080fd5b60016007541461058357600080fd5b6000600960009054906101000a900473ffffffffffffffffffffffffffffffffffffffff1673ffffffffffffffffffffffffffffffffffffffff166323b872dd6000809054906101000a900473ffffffffffffffffffffffffffffffffffffffff16306005546040518463ffffffff1660e01b8152600401808473ffffffffffffffffffffffffffffffffffffffff1673ffffffffffffffffffffffffffffffffffffffff1681526020018373ffffffffffffffffffffffffffffffffffffffff1673ffffffffffffffffffffffffffffffffffffffff1681526020018281526020019350505050602060405180830381600087803b15801561068557600080fd5b505af1158015610699573d6000803e3d6000fd5b505050506040513d60208110156106af57600080fd5b81019080805190602001909291905050509050806106cc57600080fd5b60026007819055505056fea165627a7a72305820424a417afe931b4d8a0d108d2b26336d39cbf15100de9d73cc08f5223e1435a20029",
  "source": "pragma solidity >=0.4.21 <0.6.0;\n\nimport \"../../lib/ERC20.sol\";\n\n/**\n * @title DerivativeCommon\n * @dev Template for all Derivatives\n */\ncontract DerivativeCommon {\n  // // Basic information\n  // Buyer and issuer of the option\n  address public issuer;\n  address public buyer;\n  // Address of the base (that you pay), asset (being bought)\n  address public base_addr;\n  address public asset_addr;\n\n  // // Financial information\n  // Fee\n  uint256 public fee;\n  // Asset volume traded\n  uint256 public volume;\n  // Option can be exercised between maturity_time and expiry_time\n  // Forward can be withdrawn any time after maturity_time\n  uint256 public maturity_time;\n\n  // Contract states\n  uint256 public state;\n  uint256 public constant STATE_UNINITIALIZED = 0;\n  uint256 public constant STATE_INITIALIZED = 1;\n  uint256 public constant STATE_COLLATERALIZED = 2;\n  uint256 public constant STATE_ACTIVE = 3;\n  uint256 public constant STATE_EXERCISED = 4;\n  uint256 public constant STATE_EXPIRED = 5;\n\n  // // External contracts\n  // Callable base and asset ERC20s\n  ERC20 public base;\n  ERC20 public asset;\n\n  constructor(address _issuer, address _buyer,\n              address _base_addr, address _asset_addr,\n              uint256 _fee,\n              uint256 _volume,\n              uint256 _maturity_time) public {\n    require(_base_addr != _asset_addr);\n\n    issuer = _issuer;\n    buyer = _buyer;\n    base_addr = _base_addr;\n    asset_addr = _asset_addr;\n    fee = _fee;\n    volume = _volume;\n    maturity_time = _maturity_time;\n\n    base = ERC20(_base_addr);\n    asset = ERC20(_asset_addr);\n\n    state = STATE_INITIALIZED;\n  }\n\n  // // Collateralizes contract\n  function collateralize() public {\n    require(msg.sender == issuer);\n    require(state == STATE_INITIALIZED);\n\n    bool asset_transfer = asset.transferFrom(issuer, address(this), volume);\n    require(asset_transfer);\n\n    state = STATE_COLLATERALIZED;\n  }\n}\n",
  "sourcePath": "/Users/Karim/Desktop/atomicoptions/contracts/src/parent_contracts/DerivativeCommon.sol",
  "compiler": {
    "name": "solc",
    "version": "0.5.8+commit.23d335f2.Emscripten.clang"
  },
  "schemaVersion": "3.0.16",
  "updatedAt": "2019-10-15T22:56:09.051Z",
  "devdoc": {
    "details": "Template for all Derivatives",
    "methods": {},
    "title": "DerivativeCommon"
  },
  "userdoc": {
    "methods": {}
  }
}