{
  "contractName": "DerivativeCommon",
  "abi": [
    {
      "constant": true,
      "inputs": [],
      "name": "STATE_EXPIRED",
      "outputs": [
        {
          "name": "",
          "type": "uint256"
        }
      ],
      "payable": false,
      "stateMutability": "view",
      "type": "function"
    },
    {
      "constant": true,
      "inputs": [],
      "name": "STATE_INITIALIZED",
      "outputs": [
        {
          "name": "",
          "type": "uint256"
        }
      ],
      "payable": false,
      "stateMutability": "view",
      "type": "function"
    },
    {
      "constant": true,
      "inputs": [],
      "name": "STATE_EXERCISED",
      "outputs": [
        {
          "name": "",
          "type": "uint256"
        }
      ],
      "payable": false,
      "stateMutability": "view",
      "type": "function"
    },
    {
      "constant": true,
      "inputs": [],
      "name": "issuer",
      "outputs": [
        {
          "name": "",
          "type": "address"
        }
      ],
      "payable": false,
      "stateMutability": "view",
      "type": "function"
    },
    {
      "constant": true,
      "inputs": [],
      "name": "asset",
      "outputs": [
        {
          "name": "",
          "type": "address"
        }
      ],
      "payable": false,
      "stateMutability": "view",
      "type": "function"
    },
    {
      "constant": true,
      "inputs": [],
      "name": "base",
      "outputs": [
        {
          "name": "",
          "type": "address"
        }
      ],
      "payable": false,
      "stateMutability": "view",
      "type": "function"
    },
    {
      "constant": true,
      "inputs": [],
      "name": "STATE_COLLATERALIZED",
      "outputs": [
        {
          "name": "",
          "type": "uint256"
        }
      ],
      "payable": false,
      "stateMutability": "view",
      "type": "function"
    },
    {
      "constant": true,
      "inputs": [],
      "name": "asset_addr",
      "outputs": [
        {
          "name": "",
          "type": "address"
        }
      ],
      "payable": false,
      "stateMutability": "view",
      "type": "function"
    },
    {
      "constant": true,
      "inputs": [],
      "name": "buyer",
      "outputs": [
        {
          "name": "",
          "type": "address"
        }
      ],
      "payable": false,
      "stateMutability": "view",
      "type": "function"
    },
    {
      "constant": true,
      "inputs": [],
      "name": "maturity_time",
      "outputs": [
        {
          "name": "",
          "type": "uint256"
        }
      ],
      "payable": false,
      "stateMutability": "view",
      "type": "function"
    },
    {
      "constant": true,
      "inputs": [],
      "name": "base_addr",
      "outputs": [
        {
          "name": "",
          "type": "address"
        }
      ],
      "payable": false,
      "stateMutability": "view",
      "type": "function"
    },
    {
      "constant": true,
      "inputs": [],
      "name": "state",
      "outputs": [
        {
          "name": "",
          "type": "uint256"
        }
      ],
      "payable": false,
      "stateMutability": "view",
      "type": "function"
    },
    {
      "constant": true,
      "inputs": [],
      "name": "volume",
      "outputs": [
        {
          "name": "",
          "type": "uint256"
        }
      ],
      "payable": false,
      "stateMutability": "view",
      "type": "function"
    },
    {
      "constant": true,
      "inputs": [],
      "name": "STATE_ACTIVE",
      "outputs": [
        {
          "name": "",
          "type": "uint256"
        }
      ],
      "payable": false,
      "stateMutability": "view",
      "type": "function"
    },
    {
      "constant": true,
      "inputs": [],
      "name": "STATE_UNINITIALIZED",
      "outputs": [
        {
          "name": "",
          "type": "uint256"
        }
      ],
      "payable": false,
      "stateMutability": "view",
      "type": "function"
    },
    {
      "inputs": [
        {
          "name": "_issuer",
          "type": "address"
        },
        {
          "name": "_buyer",
          "type": "address"
        },
        {
          "name": "_base_addr",
          "type": "address"
        },
        {
          "name": "_asset_addr",
          "type": "address"
        },
        {
          "name": "_volume",
          "type": "uint256"
        },
        {
          "name": "_maturity_time",
          "type": "uint256"
        }
      ],
      "payable": false,
      "stateMutability": "nonpayable",
      "type": "constructor"
    },
    {
      "constant": false,
      "inputs": [],
      "name": "collateralize",
      "outputs": [],
      "payable": false,
      "stateMutability": "nonpayable",
      "type": "function"
    }
  ],
  "bytecode": "0x608060405234801561001057600080fd5b5060405160c080610930833981018060405260c081101561003057600080fd5b810190808051906020019092919080519060200190929190805190602001909291908051906020019092919080519060200190929190805190602001909291905050508273ffffffffffffffffffffffffffffffffffffffff168473ffffffffffffffffffffffffffffffffffffffff1614156100ac57600080fd5b856000806101000a81548173ffffffffffffffffffffffffffffffffffffffff021916908373ffffffffffffffffffffffffffffffffffffffff16021790555084600160006101000a81548173ffffffffffffffffffffffffffffffffffffffff021916908373ffffffffffffffffffffffffffffffffffffffff16021790555083600260006101000a81548173ffffffffffffffffffffffffffffffffffffffff021916908373ffffffffffffffffffffffffffffffffffffffff16021790555082600360006101000a81548173ffffffffffffffffffffffffffffffffffffffff021916908373ffffffffffffffffffffffffffffffffffffffff160217905550816004819055508060058190555083600760006101000a81548173ffffffffffffffffffffffffffffffffffffffff021916908373ffffffffffffffffffffffffffffffffffffffff16021790555082600860006101000a81548173ffffffffffffffffffffffffffffffffffffffff021916908373ffffffffffffffffffffffffffffffffffffffff16021790555060016006819055505050505050506106d48061025c6000396000f3fe608060405234801561001057600080fd5b50600436106101005760003560e01c80637150d8ae11610097578063c618a1e411610066578063c618a1e414610375578063c80c073814610393578063d34ab68d146103b1578063eef9a8d5146103cf57610100565b80637150d8ae146102a5578063879a031a146102ef578063a77f55991461030d578063c19d93fb1461035757610100565b806338d52e0f116100d357806338d52e0f146101a95780635001f3b5146101f35780635ab533ac1461023d5780635f7271891461025b57610100565b80630fa9f5e11461010557806314b80ae61461012357806319d83c71146101415780631d1438481461015f575b600080fd5b61010d6103d9565b6040518082815260200191505060405180910390f35b61012b6103de565b6040518082815260200191505060405180910390f35b6101496103e3565b6040518082815260200191505060405180910390f35b6101676103e8565b604051808273ffffffffffffffffffffffffffffffffffffffff1673ffffffffffffffffffffffffffffffffffffffff16815260200191505060405180910390f35b6101b161040d565b604051808273ffffffffffffffffffffffffffffffffffffffff1673ffffffffffffffffffffffffffffffffffffffff16815260200191505060405180910390f35b6101fb610433565b604051808273ffffffffffffffffffffffffffffffffffffffff1673ffffffffffffffffffffffffffffffffffffffff16815260200191505060405180910390f35b610245610459565b6040518082815260200191505060405180910390f35b61026361045e565b604051808273ffffffffffffffffffffffffffffffffffffffff1673ffffffffffffffffffffffffffffffffffffffff16815260200191505060405180910390f35b6102ad610484565b604051808273ffffffffffffffffffffffffffffffffffffffff1673ffffffffffffffffffffffffffffffffffffffff16815260200191505060405180910390f35b6102f76104aa565b6040518082815260200191505060405180910390f35b6103156104b0565b604051808273ffffffffffffffffffffffffffffffffffffffff1673ffffffffffffffffffffffffffffffffffffffff16815260200191505060405180910390f35b61035f6104d6565b6040518082815260200191505060405180910390f35b61037d6104dc565b6040518082815260200191505060405180910390f35b61039b6104e2565b6040518082815260200191505060405180910390f35b6103b96104e7565b6040518082815260200191505060405180910390f35b6103d76104ec565b005b600581565b600181565b600481565b6000809054906101000a900473ffffffffffffffffffffffffffffffffffffffff1681565b600860009054906101000a900473ffffffffffffffffffffffffffffffffffffffff1681565b600760009054906101000a900473ffffffffffffffffffffffffffffffffffffffff1681565b600281565b600360009054906101000a900473ffffffffffffffffffffffffffffffffffffffff1681565b600160009054906101000a900473ffffffffffffffffffffffffffffffffffffffff1681565b60055481565b600260009054906101000a900473ffffffffffffffffffffffffffffffffffffffff1681565b60065481565b60045481565b600381565b600081565b6000809054906101000a900473ffffffffffffffffffffffffffffffffffffffff1673ffffffffffffffffffffffffffffffffffffffff163373ffffffffffffffffffffffffffffffffffffffff161461054557600080fd5b60016006541461055457600080fd5b6000600860009054906101000a900473ffffffffffffffffffffffffffffffffffffffff1673ffffffffffffffffffffffffffffffffffffffff166323b872dd6000809054906101000a900473ffffffffffffffffffffffffffffffffffffffff16306004546040518463ffffffff1660e01b8152600401808473ffffffffffffffffffffffffffffffffffffffff1673ffffffffffffffffffffffffffffffffffffffff1681526020018373ffffffffffffffffffffffffffffffffffffffff1673ffffffffffffffffffffffffffffffffffffffff1681526020018281526020019350505050602060405180830381600087803b15801561065657600080fd5b505af115801561066a573d6000803e3d6000fd5b505050506040513d602081101561068057600080fd5b810190808051906020019092919050505090508061069d57600080fd5b60026006819055505056fea165627a7a72305820719ea376454200687e755b0af2360138c937ef68f128cd873e641317fba941c50029",
  "source": "pragma solidity >=0.4.21 <0.6.0;\n\nimport \"../../lib/ERC20.sol\";\n\n/**\n * @title DerivativeCommon\n * @dev Template for all Derivatives\n */\ncontract DerivativeCommon {\n  // // Basic information\n  // Buyer and issuer of the option\n  address public issuer;\n  address public buyer;\n  // Address of the base (that you pay), asset (being bought)\n  address public base_addr;\n  address public asset_addr;\n\n  // // Financial information\n  // Asset volume traded\n  uint256 public volume;\n  // Option can be exercised between maturity_time and expiry_time\n  // Forward can be withdrawn any time after maturity_time\n  uint256 public maturity_time;\n\n  // Contract states\n  uint256 public state;\n  uint256 public constant STATE_UNINITIALIZED = 0;\n  uint256 public constant STATE_INITIALIZED = 1;\n  uint256 public constant STATE_COLLATERALIZED = 2;\n  uint256 public constant STATE_ACTIVE = 3;\n  uint256 public constant STATE_EXERCISED = 4;\n  uint256 public constant STATE_EXPIRED = 5;\n\n  // // External contracts\n  // Callable base and asset ERC20s\n  ERC20 public base;\n  ERC20 public asset;\n\n  constructor(address _issuer, address _buyer,\n              address _base_addr, address _asset_addr,\n              uint256 _volume,\n              uint256 _maturity_time) public {\n    require(_base_addr != _asset_addr);\n\n    issuer = _issuer;\n    buyer = _buyer;\n    base_addr = _base_addr;\n    asset_addr = _asset_addr;\n    volume = _volume;\n    maturity_time = _maturity_time;\n\n    base = ERC20(_base_addr);\n    asset = ERC20(_asset_addr);\n\n    state = STATE_INITIALIZED;\n  }\n\n  // // Collateralizes contract\n  function collateralize() public {\n    require(msg.sender == issuer);\n    require(state == STATE_INITIALIZED);\n\n    bool asset_transfer = asset.transferFrom(issuer, address(this), volume);\n    require(asset_transfer);\n\n    state = STATE_COLLATERALIZED;\n  }\n}\n",
  "sourcePath": "/Users/Karim/Desktop/atomicoptions/contracts/src/parent_contracts/DerivativeCommon.sol",
  "compiler": {
    "name": "solc",
    "version": "0.5.8+commit.23d335f2.Emscripten.clang"
  },
  "schemaVersion": "3.0.16",
  "updatedAt": "2019-10-16T16:48:41.024Z",
  "devdoc": {
    "details": "Template for all Derivatives",
    "methods": {},
    "title": "DerivativeCommon"
  },
  "userdoc": {
    "methods": {}
  }
}