{
  "contractName": "FlashLender",
  "abi": [
    {
      "constant": true,
      "inputs": [],
      "name": "version",
      "outputs": [
        {
          "name": "",
          "type": "string"
        }
      ],
      "payable": false,
      "stateMutability": "view",
      "type": "function"
    },
    {
      "constant": false,
      "inputs": [],
      "name": "renounceOwnership",
      "outputs": [],
      "payable": false,
      "stateMutability": "nonpayable",
      "type": "function"
    },
    {
      "constant": true,
      "inputs": [],
      "name": "bank",
      "outputs": [
        {
          "name": "",
          "type": "address"
        }
      ],
      "payable": false,
      "stateMutability": "view",
      "type": "function"
    },
    {
      "constant": true,
      "inputs": [],
      "name": "owner",
      "outputs": [
        {
          "name": "",
          "type": "address"
        }
      ],
      "payable": false,
      "stateMutability": "view",
      "type": "function"
    },
    {
      "constant": true,
      "inputs": [],
      "name": "isOwner",
      "outputs": [
        {
          "name": "",
          "type": "bool"
        }
      ],
      "payable": false,
      "stateMutability": "view",
      "type": "function"
    },
    {
      "constant": true,
      "inputs": [],
      "name": "fee",
      "outputs": [
        {
          "name": "",
          "type": "uint256"
        }
      ],
      "payable": false,
      "stateMutability": "view",
      "type": "function"
    },
    {
      "constant": false,
      "inputs": [
        {
          "name": "newOwner",
          "type": "address"
        }
      ],
      "name": "transferOwnership",
      "outputs": [],
      "payable": false,
      "stateMutability": "nonpayable",
      "type": "function"
    },
    {
      "inputs": [
        {
          "name": "_bank",
          "type": "address"
        },
        {
          "name": "_fee",
          "type": "uint256"
        }
      ],
      "payable": false,
      "stateMutability": "nonpayable",
      "type": "constructor"
    },
    {
      "anonymous": false,
      "inputs": [
        {
          "indexed": true,
          "name": "previousOwner",
          "type": "address"
        },
        {
          "indexed": true,
          "name": "newOwner",
          "type": "address"
        }
      ],
      "name": "OwnershipTransferred",
      "type": "event"
    },
    {
      "constant": false,
      "inputs": [
        {
          "name": "token",
          "type": "address"
        },
        {
          "name": "amount",
          "type": "uint256"
        },
        {
          "name": "dest",
          "type": "address"
        },
        {
          "name": "data",
          "type": "bytes"
        }
      ],
      "name": "borrow",
      "outputs": [
        {
          "name": "",
          "type": "bool"
        }
      ],
      "payable": false,
      "stateMutability": "nonpayable",
      "type": "function"
    },
    {
      "constant": false,
      "inputs": [
        {
          "name": "_bank",
          "type": "address"
        }
      ],
      "name": "setBank",
      "outputs": [],
      "payable": false,
      "stateMutability": "nonpayable",
      "type": "function"
    },
    {
      "constant": false,
      "inputs": [
        {
          "name": "_fee",
          "type": "uint256"
        }
      ],
      "name": "setFee",
      "outputs": [],
      "payable": false,
      "stateMutability": "nonpayable",
      "type": "function"
    }
  ],
  "bytecode": "0x60806040526040518060400160405280600381526020017f302e3100000000000000000000000000000000000000000000000000000000008152506002908051906020019061004f9291906101a6565b5034801561005c57600080fd5b50604051604080620010f78339810180604052604081101561007d57600080fd5b810190808051906020019092919080519060200190929190505050600160008190555060006100b061019e60201b60201c565b905080600160006101000a81548173ffffffffffffffffffffffffffffffffffffffff021916908373ffffffffffffffffffffffffffffffffffffffff1602179055508073ffffffffffffffffffffffffffffffffffffffff16600073ffffffffffffffffffffffffffffffffffffffff167f8be0079c531659141344cd1fd0a4f28419497f9722a3daafe3b4186f6b6457e060405160405180910390a35081600360006101000a81548173ffffffffffffffffffffffffffffffffffffffff021916908373ffffffffffffffffffffffffffffffffffffffff16021790555080600481905550505061024b565b600033905090565b828054600181600116156101000203166002900490600052602060002090601f016020900481019282601f106101e757805160ff1916838001178555610215565b82800160010185558215610215579182015b828111156102145782518255916020019190600101906101f9565b5b5090506102229190610226565b5090565b61024891905b8082111561024457600081600090555060010161022c565b5090565b90565b610e9c806200025b6000396000f3fe608060405234801561001057600080fd5b506004361061009e5760003560e01c80638da5cb5b116100665780638da5cb5b146101ec5780638f32d59b14610236578063c046d9b514610258578063ddca3f4314610333578063f2fde38b146103515761009e565b8063090d23b9146100a357806354fd4d50146100e757806369fe0e2d1461016a578063715018a61461019857806376cdb03b146101a2575b600080fd5b6100e5600480360360208110156100b957600080fd5b81019080803573ffffffffffffffffffffffffffffffffffffffff169060200190929190505050610395565b005b6100ef610453565b6040518080602001828103825283818151815260200191508051906020019080838360005b8381101561012f578082015181840152602081019050610114565b50505050905090810190601f16801561015c5780820380516001836020036101000a031916815260200191505b509250505060405180910390f35b6101966004803603602081101561018057600080fd5b81019080803590602001909291905050506104f1565b005b6101a0610575565b005b6101aa6106b0565b604051808273ffffffffffffffffffffffffffffffffffffffff1673ffffffffffffffffffffffffffffffffffffffff16815260200191505060405180910390f35b6101f46106d6565b604051808273ffffffffffffffffffffffffffffffffffffffff1673ffffffffffffffffffffffffffffffffffffffff16815260200191505060405180910390f35b61023e610700565b604051808215151515815260200191505060405180910390f35b6103196004803603608081101561026e57600080fd5b81019080803573ffffffffffffffffffffffffffffffffffffffff16906020019092919080359060200190929190803573ffffffffffffffffffffffffffffffffffffffff169060200190929190803590602001906401000000008111156102d557600080fd5b8201836020820111156102e757600080fd5b8035906020019184600183028401116401000000008311171561030957600080fd5b909192939192939050505061075f565b604051808215151515815260200191505060405180910390f35b61033b610c0c565b6040518082815260200191505060405180910390f35b6103936004803603602081101561036757600080fd5b81019080803573ffffffffffffffffffffffffffffffffffffffff169060200190929190505050610c12565b005b61039d610700565b61040f576040517f08c379a00000000000000000000000000000000000000000000000000000000081526004018080602001828103825260208152602001807f4f776e61626c653a2063616c6c6572206973206e6f7420746865206f776e657281525060200191505060405180910390fd5b80600360006101000a81548173ffffffffffffffffffffffffffffffffffffffff021916908373ffffffffffffffffffffffffffffffffffffffff16021790555050565b60028054600181600116156101000203166002900480601f0160208091040260200160405190810160405280929190818152602001828054600181600116156101000203166002900480156104e95780601f106104be576101008083540402835291602001916104e9565b820191906000526020600020905b8154815290600101906020018083116104cc57829003601f168201915b505050505081565b6104f9610700565b61056b576040517f08c379a00000000000000000000000000000000000000000000000000000000081526004018080602001828103825260208152602001807f4f776e61626c653a2063616c6c6572206973206e6f7420746865206f776e657281525060200191505060405180910390fd5b8060048190555050565b61057d610700565b6105ef576040517f08c379a00000000000000000000000000000000000000000000000000000000081526004018080602001828103825260208152602001807f4f776e61626c653a2063616c6c6572206973206e6f7420746865206f776e657281525060200191505060405180910390fd5b600073ffffffffffffffffffffffffffffffffffffffff16600160009054906101000a900473ffffffffffffffffffffffffffffffffffffffff1673ffffffffffffffffffffffffffffffffffffffff167f8be0079c531659141344cd1fd0a4f28419497f9722a3daafe3b4186f6b6457e060405160405180910390a36000600160006101000a81548173ffffffffffffffffffffffffffffffffffffffff021916908373ffffffffffffffffffffffffffffffffffffffff160217905550565b600360009054906101000a900473ffffffffffffffffffffffffffffffffffffffff1681565b6000600160009054906101000a900473ffffffffffffffffffffffffffffffffffffffff16905090565b6000600160009054906101000a900473ffffffffffffffffffffffffffffffffffffffff1673ffffffffffffffffffffffffffffffffffffffff16610743610c98565b73ffffffffffffffffffffffffffffffffffffffff1614905090565b60006001600080828254019250508190555060008054905086866000600360009054906101000a900473ffffffffffffffffffffffffffffffffffffffff16905060008173ffffffffffffffffffffffffffffffffffffffff1663cf9530d0856040518263ffffffff1660e01b8152600401808273ffffffffffffffffffffffffffffffffffffffff1673ffffffffffffffffffffffffffffffffffffffff16815260200191505060206040518083038186803b15801561081f57600080fd5b505afa158015610833573d6000803e3d6000fd5b505050506040513d602081101561084957600080fd5b81019080805190602001909291905050509050600061088d670de0b6b3a764000061087f60045487610ca090919063ffffffff16565b610ccf90919063ffffffff16565b9050600360009054906101000a900473ffffffffffffffffffffffffffffffffffffffff1673ffffffffffffffffffffffffffffffffffffffff1663308804418d338e6040518463ffffffff1660e01b8152600401808473ffffffffffffffffffffffffffffffffffffffff1673ffffffffffffffffffffffffffffffffffffffff1681526020018373ffffffffffffffffffffffffffffffffffffffff1673ffffffffffffffffffffffffffffffffffffffff1681526020018281526020019350505050600060405180830381600087803b15801561096c57600080fd5b505af1158015610980573d6000803e3d6000fd5b505050503373ffffffffffffffffffffffffffffffffffffffff16637b0f6f188d8d8d8d8d6040518663ffffffff1660e01b8152600401808673ffffffffffffffffffffffffffffffffffffffff1673ffffffffffffffffffffffffffffffffffffffff1681526020018581526020018473ffffffffffffffffffffffffffffffffffffffff1673ffffffffffffffffffffffffffffffffffffffff168152602001806020018281038252848482818152602001925080828437600081840152601f19601f8201169050808301925050509650505050505050602060405180830381600087803b158015610a7357600080fd5b505af1158015610a87573d6000803e3d6000fd5b505050506040513d6020811015610a9d57600080fd5b81019080805190602001909291905050509650610ac38183610ce890919063ffffffff16565b8373ffffffffffffffffffffffffffffffffffffffff1663cf9530d0876040518263ffffffff1660e01b8152600401808273ffffffffffffffffffffffffffffffffffffffff1673ffffffffffffffffffffffffffffffffffffffff16815260200191505060206040518083038186803b158015610b4057600080fd5b505afa158015610b54573d6000803e3d6000fd5b505050506040513d6020811015610b6a57600080fd5b81019080805190602001909291905050501015610b8657600080fd5b50505050506000548114610c02576040517f08c379a000000000000000000000000000000000000000000000000000000000815260040180806020018281038252601f8152602001807f5265656e7472616e637947756172643a207265656e7472616e742063616c6c0081525060200191505060405180910390fd5b5095945050505050565b60045481565b610c1a610700565b610c8c576040517f08c379a00000000000000000000000000000000000000000000000000000000081526004018080602001828103825260208152602001807f4f776e61626c653a2063616c6c6572206973206e6f7420746865206f776e657281525060200191505060405180910390fd5b610c9581610d04565b50565b600033905090565b60008082840290506000841480610cbf575082848281610cbc57fe5b04145b610cc557fe5b8091505092915050565b600080828481610cdb57fe5b0490508091505092915050565b600080828401905083811015610cfa57fe5b8091505092915050565b600073ffffffffffffffffffffffffffffffffffffffff168173ffffffffffffffffffffffffffffffffffffffff161415610d8a576040517f08c379a0000000000000000000000000000000000000000000000000000000008152600401808060200182810382526026815260200180610e4b6026913960400191505060405180910390fd5b8073ffffffffffffffffffffffffffffffffffffffff16600160009054906101000a900473ffffffffffffffffffffffffffffffffffffffff1673ffffffffffffffffffffffffffffffffffffffff167f8be0079c531659141344cd1fd0a4f28419497f9722a3daafe3b4186f6b6457e060405160405180910390a380600160006101000a81548173ffffffffffffffffffffffffffffffffffffffff021916908373ffffffffffffffffffffffffffffffffffffffff1602179055505056fe4f776e61626c653a206e6577206f776e657220697320746865207a65726f2061646472657373a165627a7a723058209c3668bb2034060073753db43978d7684a78022e199b04dbb3acb35af91940de0029",
  "source": "// Modified from Marble: https://github.com/marbleprotocol/flash-lending\n/*\n  Copyright 2018 Contra Labs Inc.\n  Licensed under the Apache License, Version 2.0 (the \"License\");\n  you may not use this file except in compliance with the License.\n  You may obtain a copy of the License at\n  http://www.apache.org/licenses/LICENSE-2.0\n  Unless required by applicable law or agreed to in writing, software\n  distributed under the License is distributed on an \"AS IS\" BASIS,\n  WITHOUT WARRANTIES OR CONDITIONS OF ANY KIND, either express or implied.\n  See the License for the specific language governing permissions and\n  limitations under the License.\n*/\n\npragma solidity >=0.4.21 <0.6.0;\n\nimport \"../openzeppelin-solidity/ERC20.sol\";\nimport \"../openzeppelin-solidity/SafeMath.sol\";\nimport \"../openzeppelin-solidity/ReentrancyGuard.sol\";\nimport \"../openzeppelin-solidity/Ownable.sol\";\nimport \"./interface/IBank.sol\";\nimport \"./interface/IArbitrage.sol\";\n\n// @title FlashLender: Borrow from the bank and enforce repayment by the end of transaction execution.\n// @author Rich McAteer <rich@marble.org>, Max Wolff <max@marble.org>\ncontract FlashLender is ReentrancyGuard, Ownable {\n    using SafeMath for uint256;\n\n    string public version = '0.1';\n    address public bank;\n    uint256 public fee;\n\n    /**\n    * @dev Verify that the borrowed tokens are returned to the bank plus a fee by the end of transaction execution.\n    * @param token Address of the token to for arbitrage. 0x0 for Ether.\n    * @param amount Amount borrowed.\n    */\n    modifier isArbitrage(address token, uint256 amount) {\n        IBank memBank = IBank(bank);\n        uint256 balance = memBank.totalSupplyOf(token);\n        uint256 feeAmount = amount.mul(fee).div(10 ** 18);\n        _;\n        require(memBank.totalSupplyOf(token) >= (balance.add(feeAmount)));\n    }\n\n    constructor(address _bank, uint256 _fee) public {\n        bank = _bank;\n        fee = _fee;\n    }\n\n    /**\n    * @dev Borrow from the bank on behalf of an arbitrage contract and execute the arbitrage contract's callback function.\n    * @param token Address of the token to borrow. 0x0 for Ether.\n    * @param amount Amount to borrow.\n    * @param dest Address of the account to receive arbitrage profits.\n    * @param data The data to execute the arbitrage trade.\n    */\n    function borrow(\n        address token,\n        uint256 amount,\n        address dest,\n        bytes calldata data\n    )\n        external\n        nonReentrant\n        isArbitrage(token, amount)\n        returns (bool)\n    {\n        // Borrow from the bank and send to the arbitrageur.\n        IBank(bank).borrowFor(token, msg.sender, amount);\n        // Call the arbitrageur's execute arbitrage method.\n        return IArbitrage(msg.sender).executeArbitrage(token, amount, dest, data);\n    }\n\n    /**\n    * @dev Allow the owner to set the bank address.\n    * @param _bank Address of the bank.\n    */\n    function setBank(address _bank) external onlyOwner {\n        bank = _bank;\n    }\n\n    /**\n    * @dev Allow the owner to set the fee.\n    * @param _fee Fee to borrow, as a percentage of principal borrowed. 18 decimals of precision (e.g., 10^18 = 100% fee).\n    */\n    function setFee(uint256 _fee) external onlyOwner {\n        fee = _fee;\n    }\n\n}\n",
  "sourcePath": "/Users/Karim/Desktop/atomicoptions/contracts/lib/flash-lending/FlashLender.sol",
  "compiler": {
    "name": "solc",
    "version": "0.5.8+commit.23d335f2.Emscripten.clang"
  },
  "schemaVersion": "3.0.16",
  "updatedAt": "2019-11-11T18:42:59.700Z",
  "devdoc": {
    "methods": {
      "borrow(address,uint256,address,bytes)": {
        "details": "Borrow from the bank on behalf of an arbitrage contract and execute the arbitrage contract's callback function.",
        "params": {
          "amount": "Amount to borrow.",
          "data": "The data to execute the arbitrage trade.",
          "dest": "Address of the account to receive arbitrage profits.",
          "token": "Address of the token to borrow. 0x0 for Ether."
        }
      },
      "isOwner()": {
        "details": "Returns true if the caller is the current owner."
      },
      "owner()": {
        "details": "Returns the address of the current owner."
      },
      "renounceOwnership()": {
        "details": "Leaves the contract without owner. It will not be possible to call `onlyOwner` functions anymore. Can only be called by the current owner.     * NOTE: Renouncing ownership will leave the contract without an owner, thereby removing any functionality that is only available to the owner."
      },
      "setBank(address)": {
        "details": "Allow the owner to set the bank address.",
        "params": {
          "_bank": "Address of the bank."
        }
      },
      "setFee(uint256)": {
        "details": "Allow the owner to set the fee.",
        "params": {
          "_fee": "Fee to borrow, as a percentage of principal borrowed. 18 decimals of precision (e.g., 10^18 = 100% fee)."
        }
      },
      "transferOwnership(address)": {
        "details": "Transfers ownership of the contract to a new account (`newOwner`). Can only be called by the current owner."
      }
    }
  },
  "userdoc": {
    "methods": {}
  }
}