{
  "contractName": "ForwardFactory",
  "abi": [
    {
      "constant": true,
      "inputs": [
        {
          "name": "",
          "type": "address"
        }
      ],
      "name": "created_forwards",
      "outputs": [
        {
          "name": "",
          "type": "bool"
        }
      ],
      "payable": false,
      "stateMutability": "view",
      "type": "function"
    },
    {
      "anonymous": false,
      "inputs": [
        {
          "indexed": false,
          "name": "forward",
          "type": "address"
        }
      ],
      "name": "NewForward",
      "type": "event"
    },
    {
      "constant": false,
      "inputs": [
        {
          "name": "_issuer",
          "type": "address"
        },
        {
          "name": "_buyer",
          "type": "address"
        },
        {
          "name": "_base_addr",
          "type": "address"
        },
        {
          "name": "_asset_addr",
          "type": "address"
        },
        {
          "name": "_strike_price_base",
          "type": "uint256"
        },
        {
          "name": "_strike_price_quote",
          "type": "uint256"
        },
        {
          "name": "_volume",
          "type": "uint256"
        },
        {
          "name": "_maturity_time",
          "type": "uint256"
        }
      ],
      "name": "create_forward",
      "outputs": [
        {
          "name": "",
          "type": "address"
        }
      ],
      "payable": false,
      "stateMutability": "nonpayable",
      "type": "function"
    },
    {
      "constant": true,
      "inputs": [
        {
          "name": "created_forward_address",
          "type": "address"
        }
      ],
      "name": "get_created_forward",
      "outputs": [
        {
          "name": "",
          "type": "bool"
        }
      ],
      "payable": false,
      "stateMutability": "view",
      "type": "function"
    }
  ],
  "bytecode": "0x608060405234801561001057600080fd5b5061172c806100206000396000f3fe608060405234801561001057600080fd5b50600436106100415760003560e01c80630e8ecbd614610046578063b1790f2b14610153578063cbd94cc4146101af575b600080fd5b610111600480360361010081101561005d57600080fd5b81019080803573ffffffffffffffffffffffffffffffffffffffff169060200190929190803573ffffffffffffffffffffffffffffffffffffffff169060200190929190803573ffffffffffffffffffffffffffffffffffffffff169060200190929190803573ffffffffffffffffffffffffffffffffffffffff1690602001909291908035906020019092919080359060200190929190803590602001909291908035906020019092919050505061020b565b604051808273ffffffffffffffffffffffffffffffffffffffff1673ffffffffffffffffffffffffffffffffffffffff16815260200191505060405180910390f35b6101956004803603602081101561016957600080fd5b81019080803573ffffffffffffffffffffffffffffffffffffffff1690602001909291905050506103f6565b604051808215151515815260200191505060405180910390f35b6101f1600480360360208110156101c557600080fd5b81019080803573ffffffffffffffffffffffffffffffffffffffff169060200190929190505050610416565b604051808215151515815260200191505060405180910390f35b60008089898989898989896040516102229061046b565b808973ffffffffffffffffffffffffffffffffffffffff1673ffffffffffffffffffffffffffffffffffffffff1681526020018873ffffffffffffffffffffffffffffffffffffffff1673ffffffffffffffffffffffffffffffffffffffff1681526020018773ffffffffffffffffffffffffffffffffffffffff1673ffffffffffffffffffffffffffffffffffffffff1681526020018673ffffffffffffffffffffffffffffffffffffffff1673ffffffffffffffffffffffffffffffffffffffff16815260200185815260200184815260200183815260200182815260200198505050505050505050604051809103906000f080158015610329573d6000803e3d6000fd5b50905060016000808373ffffffffffffffffffffffffffffffffffffffff1673ffffffffffffffffffffffffffffffffffffffff16815260200190815260200160002060006101000a81548160ff0219169083151502179055507fe9613a40bfe0ade98a4ecc63fa5e211f73f0bc3d06cec968e46760e65160fdc381604051808273ffffffffffffffffffffffffffffffffffffffff1673ffffffffffffffffffffffffffffffffffffffff16815260200191505060405180910390a18091505098975050505050505050565b60006020528060005260406000206000915054906101000a900460ff1681565b60008060008373ffffffffffffffffffffffffffffffffffffffff1673ffffffffffffffffffffffffffffffffffffffff16815260200190815260200160002060009054906101000a900460ff169050919050565b611288806104798339019056fe608060405234801561001057600080fd5b5060405161010080611288833981018060405261010081101561003257600080fd5b8101908080519060200190929190805190602001909291908051906020019092919080519060200190929190805190602001909291908051906020019092919080519060200190929190805190602001909291905050508787878785858273ffffffffffffffffffffffffffffffffffffffff168473ffffffffffffffffffffffffffffffffffffffff1614156100c857600080fd5b856000806101000a81548173ffffffffffffffffffffffffffffffffffffffff021916908373ffffffffffffffffffffffffffffffffffffffff16021790555084600160006101000a81548173ffffffffffffffffffffffffffffffffffffffff021916908373ffffffffffffffffffffffffffffffffffffffff16021790555083600260006101000a81548173ffffffffffffffffffffffffffffffffffffffff021916908373ffffffffffffffffffffffffffffffffffffffff16021790555082600360006101000a81548173ffffffffffffffffffffffffffffffffffffffff021916908373ffffffffffffffffffffffffffffffffffffffff160217905550816004819055508060058190555083600760006101000a81548173ffffffffffffffffffffffffffffffffffffffff021916908373ffffffffffffffffffffffffffffffffffffffff16021790555082600860006101000a81548173ffffffffffffffffffffffffffffffffffffffff021916908373ffffffffffffffffffffffffffffffffffffffff16021790555060016006819055505050505050508360098190555082600a81905550600a54600954600454028161028857fe5b04600b819055505050505050505050610fe2806102a66000396000f3fe608060405234801561001057600080fd5b506004361061014d5760003560e01c806360583488116100c3578063c19d93fb1161007c578063c19d93fb14610504578063c618a1e414610522578063c80c073814610540578063d34ab68d1461055e578063e1b8d40f1461057c578063eef9a8d51461059a5761014d565b806360583488146103245780637150d8ae1461042a57806379599f9614610474578063879a031a1461047e578063a77f55991461049c578063ba221585146104e65761014d565b806319d83c711161011557806319d83c71146101c05780631d143848146101de57806338d52e0f146102285780635001f3b5146102725780635ab533ac146102bc5780635f727189146102da5761014d565b80630f15f4c0146101525780630fa9f5e11461015c57806311da60b41461017a57806314b80ae61461018457806316b81844146101a2575b600080fd5b61015a6105a4565b005b610164610762565b6040518082815260200191505060405180910390f35b610182610767565b005b61018c610a7d565b6040518082815260200191505060405180910390f35b6101aa610a82565b6040518082815260200191505060405180910390f35b6101c8610a88565b6040518082815260200191505060405180910390f35b6101e6610a8d565b604051808273ffffffffffffffffffffffffffffffffffffffff1673ffffffffffffffffffffffffffffffffffffffff16815260200191505060405180910390f35b610230610ab2565b604051808273ffffffffffffffffffffffffffffffffffffffff1673ffffffffffffffffffffffffffffffffffffffff16815260200191505060405180910390f35b61027a610ad8565b604051808273ffffffffffffffffffffffffffffffffffffffff1673ffffffffffffffffffffffffffffffffffffffff16815260200191505060405180910390f35b6102c4610afe565b6040518082815260200191505060405180910390f35b6102e2610b03565b604051808273ffffffffffffffffffffffffffffffffffffffff1673ffffffffffffffffffffffffffffffffffffffff16815260200191505060405180910390f35b61032c610b29565b604051808a73ffffffffffffffffffffffffffffffffffffffff1673ffffffffffffffffffffffffffffffffffffffff1681526020018973ffffffffffffffffffffffffffffffffffffffff1673ffffffffffffffffffffffffffffffffffffffff1681526020018873ffffffffffffffffffffffffffffffffffffffff1673ffffffffffffffffffffffffffffffffffffffff1681526020018773ffffffffffffffffffffffffffffffffffffffff1673ffffffffffffffffffffffffffffffffffffffff168152602001868152602001858152602001848152602001838152602001828152602001995050505050505050505060405180910390f35b610432610bee565b604051808273ffffffffffffffffffffffffffffffffffffffff1673ffffffffffffffffffffffffffffffffffffffff16815260200191505060405180910390f35b61047c610c14565b005b610486610dac565b6040518082815260200191505060405180910390f35b6104a4610db2565b604051808273ffffffffffffffffffffffffffffffffffffffff1673ffffffffffffffffffffffffffffffffffffffff16815260200191505060405180910390f35b6104ee610dd8565b6040518082815260200191505060405180910390f35b61050c610dde565b6040518082815260200191505060405180910390f35b61052a610de4565b6040518082815260200191505060405180910390f35b610548610dea565b6040518082815260200191505060405180910390f35b610566610def565b6040518082815260200191505060405180910390f35b610584610df4565b6040518082815260200191505060405180910390f35b6105a2610dfa565b005b600160009054906101000a900473ffffffffffffffffffffffffffffffffffffffff1673ffffffffffffffffffffffffffffffffffffffff163373ffffffffffffffffffffffffffffffffffffffff16146105fe57600080fd5b60026006541461060d57600080fd5b6000600760009054906101000a900473ffffffffffffffffffffffffffffffffffffffff1673ffffffffffffffffffffffffffffffffffffffff166323b872dd600160009054906101000a900473ffffffffffffffffffffffffffffffffffffffff1630600b546040518463ffffffff1660e01b8152600401808473ffffffffffffffffffffffffffffffffffffffff1673ffffffffffffffffffffffffffffffffffffffff1681526020018373ffffffffffffffffffffffffffffffffffffffff1673ffffffffffffffffffffffffffffffffffffffff1681526020018281526020019350505050602060405180830381600087803b15801561071057600080fd5b505af1158015610724573d6000803e3d6000fd5b505050506040513d602081101561073a57600080fd5b810190808051906020019092919050505090508061075757600080fd5b600360068190555050565b600581565b600160009054906101000a900473ffffffffffffffffffffffffffffffffffffffff1673ffffffffffffffffffffffffffffffffffffffff163373ffffffffffffffffffffffffffffffffffffffff16148061080f57506000809054906101000a900473ffffffffffffffffffffffffffffffffffffffff1673ffffffffffffffffffffffffffffffffffffffff163373ffffffffffffffffffffffffffffffffffffffff16145b61081857600080fd5b42600554111561082757600080fd5b60006004541161083657600080fd5b6000600860009054906101000a900473ffffffffffffffffffffffffffffffffffffffff1673ffffffffffffffffffffffffffffffffffffffff1663a9059cbb600160009054906101000a900473ffffffffffffffffffffffffffffffffffffffff166004546040518363ffffffff1660e01b8152600401808373ffffffffffffffffffffffffffffffffffffffff1673ffffffffffffffffffffffffffffffffffffffff16815260200182815260200192505050602060405180830381600087803b15801561090557600080fd5b505af1158015610919573d6000803e3d6000fd5b505050506040513d602081101561092f57600080fd5b810190808051906020019092919050505090508061094c57600080fd5b6000600760009054906101000a900473ffffffffffffffffffffffffffffffffffffffff1673ffffffffffffffffffffffffffffffffffffffff1663a9059cbb6000809054906101000a900473ffffffffffffffffffffffffffffffffffffffff16600b546040518363ffffffff1660e01b8152600401808373ffffffffffffffffffffffffffffffffffffffff1673ffffffffffffffffffffffffffffffffffffffff16815260200182815260200192505050602060405180830381600087803b158015610a1a57600080fd5b505af1158015610a2e573d6000803e3d6000fd5b505050506040513d6020811015610a4457600080fd5b8101908080519060200190929190505050905080610a6157600080fd5b60006004819055506000600b8190555060056006819055505050565b600181565b600b5481565b600481565b6000809054906101000a900473ffffffffffffffffffffffffffffffffffffffff1681565b600860009054906101000a900473ffffffffffffffffffffffffffffffffffffffff1681565b600760009054906101000a900473ffffffffffffffffffffffffffffffffffffffff1681565b600281565b600360009054906101000a900473ffffffffffffffffffffffffffffffffffffffff1681565b60008060008060008060008060008060009054906101000a900473ffffffffffffffffffffffffffffffffffffffff16600160009054906101000a900473ffffffffffffffffffffffffffffffffffffffff16600260009054906101000a900473ffffffffffffffffffffffffffffffffffffffff16600360009054906101000a900473ffffffffffffffffffffffffffffffffffffffff16600954600a54600454600554600654985098509850985098509850985098509850909192939495969798565b600160009054906101000a900473ffffffffffffffffffffffffffffffffffffffff1681565b6000809054906101000a900473ffffffffffffffffffffffffffffffffffffffff1673ffffffffffffffffffffffffffffffffffffffff163373ffffffffffffffffffffffffffffffffffffffff1614610c6d57600080fd5b600260065414610c7c57600080fd5b60056006541415610c8c57600080fd5b6000600860009054906101000a900473ffffffffffffffffffffffffffffffffffffffff1673ffffffffffffffffffffffffffffffffffffffff1663a9059cbb6000809054906101000a900473ffffffffffffffffffffffffffffffffffffffff166004546040518363ffffffff1660e01b8152600401808373ffffffffffffffffffffffffffffffffffffffff1673ffffffffffffffffffffffffffffffffffffffff16815260200182815260200192505050602060405180830381600087803b158015610d5a57600080fd5b505af1158015610d6e573d6000803e3d6000fd5b505050506040513d6020811015610d8457600080fd5b8101908080519060200190929190505050905080610da157600080fd5b600560068190555050565b60055481565b600260009054906101000a900473ffffffffffffffffffffffffffffffffffffffff1681565b60095481565b60065481565b60045481565b600381565b600081565b600a5481565b6000809054906101000a900473ffffffffffffffffffffffffffffffffffffffff1673ffffffffffffffffffffffffffffffffffffffff163373ffffffffffffffffffffffffffffffffffffffff1614610e5357600080fd5b600160065414610e6257600080fd5b6000600860009054906101000a900473ffffffffffffffffffffffffffffffffffffffff1673ffffffffffffffffffffffffffffffffffffffff166323b872dd6000809054906101000a900473ffffffffffffffffffffffffffffffffffffffff16306004546040518463ffffffff1660e01b8152600401808473ffffffffffffffffffffffffffffffffffffffff1673ffffffffffffffffffffffffffffffffffffffff1681526020018373ffffffffffffffffffffffffffffffffffffffff1673ffffffffffffffffffffffffffffffffffffffff1681526020018281526020019350505050602060405180830381600087803b158015610f6457600080fd5b505af1158015610f78573d6000803e3d6000fd5b505050506040513d6020811015610f8e57600080fd5b8101908080519060200190929190505050905080610fab57600080fd5b60026006819055505056fea165627a7a7230582048728aca83ee49d3083373d052f78ca2ada353cfe3b41ab39fd2619f26e41bea0029a165627a7a72305820d3f7bcff23f5135d25302fa5ae1829ee4c65ea425d55f6a26b736ed4b6fd16360029",
  "source": "pragma solidity >=0.4.21 <0.6.0;\n\nimport \"../forwards/Forward.sol\";\n\ncontract ForwardFactory {\n  event NewForward(address forward);\n\n  mapping(address => bool) public created_forwards;\n\n  function create_forward(address _issuer, address _buyer,\n                          address _base_addr, address _asset_addr,\n                          uint256 _strike_price_base, uint256 _strike_price_quote,\n                          uint256 _volume,\n                          uint256 _maturity_time)\n      public returns (address) {\n    Forward forward = new Forward(_issuer, _buyer,\n                                  _base_addr, _asset_addr,\n                                  _strike_price_base, _strike_price_quote,\n                                  _volume,\n                                  _maturity_time);\n    created_forwards[address(forward)] = true;\n    emit NewForward(address(forward));\n    return address(forward);\n  }\n\n  function get_created_forward(address created_forward_address) public view returns (bool) {\n    return created_forwards[created_forward_address];\n  }\n}\n",
  "sourcePath": "/Users/Karim/Desktop/atomicoptions/contracts/src/factories/ForwardFactory.sol",
  "compiler": {
    "name": "solc",
    "version": "0.5.8+commit.23d335f2.Emscripten.clang"
  },
  "schemaVersion": "3.0.16",
  "updatedAt": "2019-10-16T16:48:40.979Z",
  "devdoc": {
    "methods": {}
  },
  "userdoc": {
    "methods": {}
  }
}