{
  "contractName": "Forward",
  "abi": [
    {
      "constant": true,
      "inputs": [],
      "name": "STATE_EXPIRED",
      "outputs": [
        {
          "name": "",
          "type": "uint256"
        }
      ],
      "payable": false,
      "stateMutability": "view",
      "type": "function"
    },
    {
      "constant": true,
      "inputs": [],
      "name": "STATE_INITIALIZED",
      "outputs": [
        {
          "name": "",
          "type": "uint256"
        }
      ],
      "payable": false,
      "stateMutability": "view",
      "type": "function"
    },
    {
      "constant": true,
      "inputs": [],
      "name": "base_volume",
      "outputs": [
        {
          "name": "",
          "type": "uint256"
        }
      ],
      "payable": false,
      "stateMutability": "view",
      "type": "function"
    },
    {
      "constant": true,
      "inputs": [],
      "name": "STATE_EXERCISED",
      "outputs": [
        {
          "name": "",
          "type": "uint256"
        }
      ],
      "payable": false,
      "stateMutability": "view",
      "type": "function"
    },
    {
      "constant": true,
      "inputs": [],
      "name": "issuer",
      "outputs": [
        {
          "name": "",
          "type": "address"
        }
      ],
      "payable": false,
      "stateMutability": "view",
      "type": "function"
    },
    {
      "constant": false,
      "inputs": [
        {
          "name": "_to",
          "type": "address"
        }
      ],
      "name": "transfer_issuer",
      "outputs": [],
      "payable": false,
      "stateMutability": "nonpayable",
      "type": "function"
    },
    {
      "constant": true,
      "inputs": [],
      "name": "asset",
      "outputs": [
        {
          "name": "",
          "type": "address"
        }
      ],
      "payable": false,
      "stateMutability": "view",
      "type": "function"
    },
    {
      "constant": true,
      "inputs": [],
      "name": "base",
      "outputs": [
        {
          "name": "",
          "type": "address"
        }
      ],
      "payable": false,
      "stateMutability": "view",
      "type": "function"
    },
    {
      "constant": true,
      "inputs": [],
      "name": "STATE_COLLATERALIZED",
      "outputs": [
        {
          "name": "",
          "type": "uint256"
        }
      ],
      "payable": false,
      "stateMutability": "view",
      "type": "function"
    },
    {
      "constant": true,
      "inputs": [],
      "name": "asset_addr",
      "outputs": [
        {
          "name": "",
          "type": "address"
        }
      ],
      "payable": false,
      "stateMutability": "view",
      "type": "function"
    },
    {
      "constant": true,
      "inputs": [],
      "name": "buyer",
      "outputs": [
        {
          "name": "",
          "type": "address"
        }
      ],
      "payable": false,
      "stateMutability": "view",
      "type": "function"
    },
    {
      "constant": true,
      "inputs": [],
      "name": "maturity_time",
      "outputs": [
        {
          "name": "",
          "type": "uint256"
        }
      ],
      "payable": false,
      "stateMutability": "view",
      "type": "function"
    },
    {
      "constant": true,
      "inputs": [],
      "name": "base_addr",
      "outputs": [
        {
          "name": "",
          "type": "address"
        }
      ],
      "payable": false,
      "stateMutability": "view",
      "type": "function"
    },
    {
      "constant": true,
      "inputs": [],
      "name": "strike_price_base",
      "outputs": [
        {
          "name": "",
          "type": "uint256"
        }
      ],
      "payable": false,
      "stateMutability": "view",
      "type": "function"
    },
    {
      "constant": true,
      "inputs": [],
      "name": "state",
      "outputs": [
        {
          "name": "",
          "type": "uint256"
        }
      ],
      "payable": false,
      "stateMutability": "view",
      "type": "function"
    },
    {
      "constant": true,
      "inputs": [],
      "name": "volume",
      "outputs": [
        {
          "name": "",
          "type": "uint256"
        }
      ],
      "payable": false,
      "stateMutability": "view",
      "type": "function"
    },
    {
      "constant": true,
      "inputs": [],
      "name": "STATE_ACTIVE",
      "outputs": [
        {
          "name": "",
          "type": "uint256"
        }
      ],
      "payable": false,
      "stateMutability": "view",
      "type": "function"
    },
    {
      "constant": true,
      "inputs": [],
      "name": "STATE_UNINITIALIZED",
      "outputs": [
        {
          "name": "",
          "type": "uint256"
        }
      ],
      "payable": false,
      "stateMutability": "view",
      "type": "function"
    },
    {
      "constant": false,
      "inputs": [
        {
          "name": "_to",
          "type": "address"
        }
      ],
      "name": "transfer_buyer",
      "outputs": [],
      "payable": false,
      "stateMutability": "nonpayable",
      "type": "function"
    },
    {
      "constant": true,
      "inputs": [],
      "name": "strike_price_quote",
      "outputs": [
        {
          "name": "",
          "type": "uint256"
        }
      ],
      "payable": false,
      "stateMutability": "view",
      "type": "function"
    },
    {
      "constant": false,
      "inputs": [],
      "name": "collateralize",
      "outputs": [],
      "payable": false,
      "stateMutability": "nonpayable",
      "type": "function"
    },
    {
      "inputs": [
        {
          "name": "_issuer",
          "type": "address"
        },
        {
          "name": "_buyer",
          "type": "address"
        },
        {
          "name": "_base_addr",
          "type": "address"
        },
        {
          "name": "_asset_addr",
          "type": "address"
        },
        {
          "name": "_strike_price_base",
          "type": "uint256"
        },
        {
          "name": "_strike_price_quote",
          "type": "uint256"
        },
        {
          "name": "_volume",
          "type": "uint256"
        },
        {
          "name": "_maturity_time",
          "type": "uint256"
        }
      ],
      "payable": false,
      "stateMutability": "nonpayable",
      "type": "constructor"
    },
    {
      "constant": false,
      "inputs": [],
      "name": "activate",
      "outputs": [],
      "payable": false,
      "stateMutability": "nonpayable",
      "type": "function"
    },
    {
      "constant": false,
      "inputs": [],
      "name": "settle",
      "outputs": [],
      "payable": false,
      "stateMutability": "nonpayable",
      "type": "function"
    },
    {
      "constant": false,
      "inputs": [],
      "name": "expire",
      "outputs": [],
      "payable": false,
      "stateMutability": "nonpayable",
      "type": "function"
    },
    {
      "constant": true,
      "inputs": [],
      "name": "get_info",
      "outputs": [
        {
          "name": "",
          "type": "address"
        },
        {
          "name": "",
          "type": "address"
        },
        {
          "name": "",
          "type": "address"
        },
        {
          "name": "",
          "type": "address"
        },
        {
          "name": "",
          "type": "uint256"
        },
        {
          "name": "",
          "type": "uint256"
        },
        {
          "name": "",
          "type": "uint256"
        },
        {
          "name": "",
          "type": "uint256"
        },
        {
          "name": "",
          "type": "uint256"
        },
        {
          "name": "",
          "type": "uint256"
        }
      ],
      "payable": false,
      "stateMutability": "view",
      "type": "function"
    }
  ],
  "bytecode": "0x608060405234801561001057600080fd5b506040516101008061147e833981018060405261010081101561003257600080fd5b8101908080519060200190929190805190602001909291908051906020019092919080519060200190929190805190602001909291908051906020019092919080519060200190929190805190602001909291905050508787878785858273ffffffffffffffffffffffffffffffffffffffff168473ffffffffffffffffffffffffffffffffffffffff1614156100c857600080fd5b856000806101000a81548173ffffffffffffffffffffffffffffffffffffffff021916908373ffffffffffffffffffffffffffffffffffffffff16021790555084600160006101000a81548173ffffffffffffffffffffffffffffffffffffffff021916908373ffffffffffffffffffffffffffffffffffffffff16021790555083600260006101000a81548173ffffffffffffffffffffffffffffffffffffffff021916908373ffffffffffffffffffffffffffffffffffffffff16021790555082600360006101000a81548173ffffffffffffffffffffffffffffffffffffffff021916908373ffffffffffffffffffffffffffffffffffffffff160217905550816004819055508060058190555083600760006101000a81548173ffffffffffffffffffffffffffffffffffffffff021916908373ffffffffffffffffffffffffffffffffffffffff16021790555082600860006101000a81548173ffffffffffffffffffffffffffffffffffffffff021916908373ffffffffffffffffffffffffffffffffffffffff16021790555060016006819055505050505050508360098190555082600a81905550600a54600954600454028161028857fe5b04600b8190555050505050505050506111d8806102a66000396000f3fe608060405234801561001057600080fd5b50600436106101735760003560e01c806360583488116100de578063c19d93fb11610097578063d34ab68d11610071578063d34ab68d146105cf578063ddb0c86c146105ed578063e1b8d40f14610631578063eef9a8d51461064f57610173565b8063c19d93fb14610575578063c618a1e414610593578063c80c0738146105b157610173565b8063605834881461038e5780637150d8ae1461049b57806379599f96146104e5578063879a031a146104ef578063a77f55991461050d578063ba2215851461055757610173565b80631d143848116101305780631d1438481461020457806335fe77021461024e57806338d52e0f146102925780635001f3b5146102dc5780635ab533ac146103265780635f7271891461034457610173565b80630f15f4c0146101785780630fa9f5e11461018257806311da60b4146101a057806314b80ae6146101aa57806316b81844146101c857806319d83c71146101e6575b600080fd5b610180610659565b005b61018a610817565b6040518082815260200191505060405180910390f35b6101a861081c565b005b6101b2610b32565b6040518082815260200191505060405180910390f35b6101d0610b37565b6040518082815260200191505060405180910390f35b6101ee610b3d565b6040518082815260200191505060405180910390f35b61020c610b42565b604051808273ffffffffffffffffffffffffffffffffffffffff1673ffffffffffffffffffffffffffffffffffffffff16815260200191505060405180910390f35b6102906004803603602081101561026457600080fd5b81019080803573ffffffffffffffffffffffffffffffffffffffff169060200190929190505050610b67565b005b61029a610c03565b604051808273ffffffffffffffffffffffffffffffffffffffff1673ffffffffffffffffffffffffffffffffffffffff16815260200191505060405180910390f35b6102e4610c29565b604051808273ffffffffffffffffffffffffffffffffffffffff1673ffffffffffffffffffffffffffffffffffffffff16815260200191505060405180910390f35b61032e610c4f565b6040518082815260200191505060405180910390f35b61034c610c54565b604051808273ffffffffffffffffffffffffffffffffffffffff1673ffffffffffffffffffffffffffffffffffffffff16815260200191505060405180910390f35b610396610c7a565b604051808b73ffffffffffffffffffffffffffffffffffffffff1673ffffffffffffffffffffffffffffffffffffffff1681526020018a73ffffffffffffffffffffffffffffffffffffffff1673ffffffffffffffffffffffffffffffffffffffff1681526020018973ffffffffffffffffffffffffffffffffffffffff1673ffffffffffffffffffffffffffffffffffffffff1681526020018873ffffffffffffffffffffffffffffffffffffffff1673ffffffffffffffffffffffffffffffffffffffff1681526020018781526020018681526020018581526020018481526020018381526020018281526020019a505050505050505050505060405180910390f35b6104a3610d46565b604051808273ffffffffffffffffffffffffffffffffffffffff1673ffffffffffffffffffffffffffffffffffffffff16815260200191505060405180910390f35b6104ed610d6c565b005b6104f7610f04565b6040518082815260200191505060405180910390f35b610515610f0a565b604051808273ffffffffffffffffffffffffffffffffffffffff1673ffffffffffffffffffffffffffffffffffffffff16815260200191505060405180910390f35b61055f610f30565b6040518082815260200191505060405180910390f35b61057d610f36565b6040518082815260200191505060405180910390f35b61059b610f3c565b6040518082815260200191505060405180910390f35b6105b9610f42565b6040518082815260200191505060405180910390f35b6105d7610f47565b6040518082815260200191505060405180910390f35b61062f6004803603602081101561060357600080fd5b81019080803573ffffffffffffffffffffffffffffffffffffffff169060200190929190505050610f4c565b005b610639610fea565b6040518082815260200191505060405180910390f35b610657610ff0565b005b600160009054906101000a900473ffffffffffffffffffffffffffffffffffffffff1673ffffffffffffffffffffffffffffffffffffffff163373ffffffffffffffffffffffffffffffffffffffff16146106b357600080fd5b6002600654146106c257600080fd5b6000600760009054906101000a900473ffffffffffffffffffffffffffffffffffffffff1673ffffffffffffffffffffffffffffffffffffffff166323b872dd600160009054906101000a900473ffffffffffffffffffffffffffffffffffffffff1630600b546040518463ffffffff1660e01b8152600401808473ffffffffffffffffffffffffffffffffffffffff1673ffffffffffffffffffffffffffffffffffffffff1681526020018373ffffffffffffffffffffffffffffffffffffffff1673ffffffffffffffffffffffffffffffffffffffff1681526020018281526020019350505050602060405180830381600087803b1580156107c557600080fd5b505af11580156107d9573d6000803e3d6000fd5b505050506040513d60208110156107ef57600080fd5b810190808051906020019092919050505090508061080c57600080fd5b600360068190555050565b600581565b600160009054906101000a900473ffffffffffffffffffffffffffffffffffffffff1673ffffffffffffffffffffffffffffffffffffffff163373ffffffffffffffffffffffffffffffffffffffff1614806108c457506000809054906101000a900473ffffffffffffffffffffffffffffffffffffffff1673ffffffffffffffffffffffffffffffffffffffff163373ffffffffffffffffffffffffffffffffffffffff16145b6108cd57600080fd5b4260055411156108dc57600080fd5b6000600454116108eb57600080fd5b6000600860009054906101000a900473ffffffffffffffffffffffffffffffffffffffff1673ffffffffffffffffffffffffffffffffffffffff1663a9059cbb600160009054906101000a900473ffffffffffffffffffffffffffffffffffffffff166004546040518363ffffffff1660e01b8152600401808373ffffffffffffffffffffffffffffffffffffffff1673ffffffffffffffffffffffffffffffffffffffff16815260200182815260200192505050602060405180830381600087803b1580156109ba57600080fd5b505af11580156109ce573d6000803e3d6000fd5b505050506040513d60208110156109e457600080fd5b8101908080519060200190929190505050905080610a0157600080fd5b6000600760009054906101000a900473ffffffffffffffffffffffffffffffffffffffff1673ffffffffffffffffffffffffffffffffffffffff1663a9059cbb6000809054906101000a900473ffffffffffffffffffffffffffffffffffffffff16600b546040518363ffffffff1660e01b8152600401808373ffffffffffffffffffffffffffffffffffffffff1673ffffffffffffffffffffffffffffffffffffffff16815260200182815260200192505050602060405180830381600087803b158015610acf57600080fd5b505af1158015610ae3573d6000803e3d6000fd5b505050506040513d6020811015610af957600080fd5b8101908080519060200190929190505050905080610b1657600080fd5b60006004819055506000600b8190555060056006819055505050565b600181565b600b5481565b600481565b6000809054906101000a900473ffffffffffffffffffffffffffffffffffffffff1681565b6000809054906101000a900473ffffffffffffffffffffffffffffffffffffffff1673ffffffffffffffffffffffffffffffffffffffff163373ffffffffffffffffffffffffffffffffffffffff1614610bc057600080fd5b806000806101000a81548173ffffffffffffffffffffffffffffffffffffffff021916908373ffffffffffffffffffffffffffffffffffffffff16021790555050565b600860009054906101000a900473ffffffffffffffffffffffffffffffffffffffff1681565b600760009054906101000a900473ffffffffffffffffffffffffffffffffffffffff1681565b600281565b600360009054906101000a900473ffffffffffffffffffffffffffffffffffffffff1681565b6000806000806000806000806000806000809054906101000a900473ffffffffffffffffffffffffffffffffffffffff16600160009054906101000a900473ffffffffffffffffffffffffffffffffffffffff16600260009054906101000a900473ffffffffffffffffffffffffffffffffffffffff16600360009054906101000a900473ffffffffffffffffffffffffffffffffffffffff16600954600a54600454600b54600554600654995099509950995099509950995099509950995090919293949596979899565b600160009054906101000a900473ffffffffffffffffffffffffffffffffffffffff1681565b6000809054906101000a900473ffffffffffffffffffffffffffffffffffffffff1673ffffffffffffffffffffffffffffffffffffffff163373ffffffffffffffffffffffffffffffffffffffff1614610dc557600080fd5b600260065414610dd457600080fd5b60056006541415610de457600080fd5b6000600860009054906101000a900473ffffffffffffffffffffffffffffffffffffffff1673ffffffffffffffffffffffffffffffffffffffff1663a9059cbb6000809054906101000a900473ffffffffffffffffffffffffffffffffffffffff166004546040518363ffffffff1660e01b8152600401808373ffffffffffffffffffffffffffffffffffffffff1673ffffffffffffffffffffffffffffffffffffffff16815260200182815260200192505050602060405180830381600087803b158015610eb257600080fd5b505af1158015610ec6573d6000803e3d6000fd5b505050506040513d6020811015610edc57600080fd5b8101908080519060200190929190505050905080610ef957600080fd5b600560068190555050565b60055481565b600260009054906101000a900473ffffffffffffffffffffffffffffffffffffffff1681565b60095481565b60065481565b60045481565b600381565b600081565b600160009054906101000a900473ffffffffffffffffffffffffffffffffffffffff1673ffffffffffffffffffffffffffffffffffffffff163373ffffffffffffffffffffffffffffffffffffffff1614610fa657600080fd5b80600160006101000a81548173ffffffffffffffffffffffffffffffffffffffff021916908373ffffffffffffffffffffffffffffffffffffffff16021790555050565b600a5481565b6000809054906101000a900473ffffffffffffffffffffffffffffffffffffffff1673ffffffffffffffffffffffffffffffffffffffff163373ffffffffffffffffffffffffffffffffffffffff161461104957600080fd5b60016006541461105857600080fd5b6000600860009054906101000a900473ffffffffffffffffffffffffffffffffffffffff1673ffffffffffffffffffffffffffffffffffffffff166323b872dd6000809054906101000a900473ffffffffffffffffffffffffffffffffffffffff16306004546040518463ffffffff1660e01b8152600401808473ffffffffffffffffffffffffffffffffffffffff1673ffffffffffffffffffffffffffffffffffffffff1681526020018373ffffffffffffffffffffffffffffffffffffffff1673ffffffffffffffffffffffffffffffffffffffff1681526020018281526020019350505050602060405180830381600087803b15801561115a57600080fd5b505af115801561116e573d6000803e3d6000fd5b505050506040513d602081101561118457600080fd5b81019080805190602001909291905050509050806111a157600080fd5b60026006819055505056fea165627a7a723058203fc569bae0f3675a1d930b00e5fc8cc7c3e44ab8b2bb4275bf39eb227fdbac950029",
  "source": "pragma solidity >=0.4.21 <0.6.0;\n\nimport \"../../lib/openzeppelin-solidity/ERC20.sol\";\nimport \"../parent_contracts/DerivativeCommon.sol\";\n\n/**\n * @title Forward\n * @dev Basic Forward\n */\ncontract Forward is DerivativeCommon {\n  // // Strike price [i.e. (strike_price_quote * base_volume) / strike_price_base  = asset_volume]\n  uint256 public strike_price_base;\n  uint256 public strike_price_quote;\n\n  // Volume of the base token held\n  uint256 public base_volume;\n\n  constructor(address _issuer, address _buyer,\n              address _base_addr, address _asset_addr,\n              uint256 _strike_price_base, uint256 _strike_price_quote,\n              uint256 _volume,\n              uint256 _maturity_time)\n    DerivativeCommon(_issuer, _buyer,\n                    _base_addr, _asset_addr,\n                    _volume,\n                    _maturity_time) public {\n    strike_price_base = _strike_price_base;\n    strike_price_quote = _strike_price_quote;\n    base_volume = (volume * strike_price_base) / strike_price_quote;\n  }\n\n  function activate() public {\n    require(msg.sender == buyer);\n    require(state == STATE_COLLATERALIZED);\n    bool base_transfer = base.transferFrom(buyer, address(this), base_volume);\n    require(base_transfer);\n\n    state = STATE_ACTIVE;\n  }\n\n  // Executes the forward trade\n  function settle() public {\n    require((msg.sender == buyer) || (msg.sender == issuer));\n    require(maturity_time <= block.timestamp);\n    require(volume > 0);\n\n    bool asset_transfer = asset.transfer(buyer, volume);\n    require(asset_transfer);\n    bool base_transfer = base.transfer(issuer, base_volume);\n    require(base_transfer);\n\n    volume = 0;\n    base_volume = 0;\n\n    state = STATE_EXPIRED;\n  }\n\n  // In a forward, only really useful for aborting\n  // Conditions and call mostly kept consistent with OptionCommon\n  function expire() public {\n    require(msg.sender == issuer);\n    require(state == STATE_COLLATERALIZED);\n    require(state != STATE_EXPIRED);\n\n    bool asset_transfer = asset.transfer(issuer, volume);\n    require(asset_transfer);\n\n    state = STATE_EXPIRED;\n  }\n\n  // Returns all information about the contract in one go\n  function get_info() public view returns (address, address, address, address,\n                                            uint256, uint256,\n                                            uint256, uint256,\n                                            uint256, uint256) {\n    return(issuer, buyer, base_addr, asset_addr,\n            strike_price_base, strike_price_quote,\n            volume, base_volume,\n            maturity_time, state);\n  }\n}\n",
  "sourcePath": "/Users/Karim/Desktop/atomicoptions/contracts/src/forwards/Forward.sol",
  "compiler": {
    "name": "solc",
    "version": "0.5.8+commit.23d335f2.Emscripten.clang"
  },
  "schemaVersion": "3.0.16",
  "updatedAt": "2019-11-11T18:42:59.783Z",
  "devdoc": {
    "details": "Basic Forward",
    "methods": {},
    "title": "Forward"
  },
  "userdoc": {
    "methods": {}
  }
}