{
  "contractName": "IndivisibleCommon",
  "abi": [
    {
      "constant": true,
      "inputs": [],
      "name": "STATE_EXPIRED",
      "outputs": [
        {
          "name": "",
          "type": "uint256"
        }
      ],
      "payable": false,
      "stateMutability": "view",
      "type": "function"
    },
    {
      "constant": true,
      "inputs": [],
      "name": "STATE_INITIALIZED",
      "outputs": [
        {
          "name": "",
          "type": "uint256"
        }
      ],
      "payable": false,
      "stateMutability": "view",
      "type": "function"
    },
    {
      "constant": true,
      "inputs": [],
      "name": "STATE_EXERCISED",
      "outputs": [
        {
          "name": "",
          "type": "uint256"
        }
      ],
      "payable": false,
      "stateMutability": "view",
      "type": "function"
    },
    {
      "constant": true,
      "inputs": [],
      "name": "issuer",
      "outputs": [
        {
          "name": "",
          "type": "address"
        }
      ],
      "payable": false,
      "stateMutability": "view",
      "type": "function"
    },
    {
      "constant": true,
      "inputs": [],
      "name": "asset",
      "outputs": [
        {
          "name": "",
          "type": "address"
        }
      ],
      "payable": false,
      "stateMutability": "view",
      "type": "function"
    },
    {
      "constant": true,
      "inputs": [],
      "name": "base",
      "outputs": [
        {
          "name": "",
          "type": "address"
        }
      ],
      "payable": false,
      "stateMutability": "view",
      "type": "function"
    },
    {
      "constant": true,
      "inputs": [],
      "name": "STATE_COLLATERALIZED",
      "outputs": [
        {
          "name": "",
          "type": "uint256"
        }
      ],
      "payable": false,
      "stateMutability": "view",
      "type": "function"
    },
    {
      "constant": true,
      "inputs": [],
      "name": "asset_addr",
      "outputs": [
        {
          "name": "",
          "type": "address"
        }
      ],
      "payable": false,
      "stateMutability": "view",
      "type": "function"
    },
    {
      "constant": true,
      "inputs": [],
      "name": "buyer",
      "outputs": [
        {
          "name": "",
          "type": "address"
        }
      ],
      "payable": false,
      "stateMutability": "view",
      "type": "function"
    },
    {
      "constant": true,
      "inputs": [],
      "name": "maturity_time",
      "outputs": [
        {
          "name": "",
          "type": "uint256"
        }
      ],
      "payable": false,
      "stateMutability": "view",
      "type": "function"
    },
    {
      "constant": false,
      "inputs": [],
      "name": "pay_fee",
      "outputs": [],
      "payable": false,
      "stateMutability": "nonpayable",
      "type": "function"
    },
    {
      "constant": true,
      "inputs": [],
      "name": "base_addr",
      "outputs": [
        {
          "name": "",
          "type": "address"
        }
      ],
      "payable": false,
      "stateMutability": "view",
      "type": "function"
    },
    {
      "constant": true,
      "inputs": [],
      "name": "state",
      "outputs": [
        {
          "name": "",
          "type": "uint256"
        }
      ],
      "payable": false,
      "stateMutability": "view",
      "type": "function"
    },
    {
      "constant": true,
      "inputs": [],
      "name": "volume",
      "outputs": [
        {
          "name": "",
          "type": "uint256"
        }
      ],
      "payable": false,
      "stateMutability": "view",
      "type": "function"
    },
    {
      "constant": true,
      "inputs": [],
      "name": "STATE_ACTIVE",
      "outputs": [
        {
          "name": "",
          "type": "uint256"
        }
      ],
      "payable": false,
      "stateMutability": "view",
      "type": "function"
    },
    {
      "constant": true,
      "inputs": [],
      "name": "STATE_UNINITIALIZED",
      "outputs": [
        {
          "name": "",
          "type": "uint256"
        }
      ],
      "payable": false,
      "stateMutability": "view",
      "type": "function"
    },
    {
      "constant": true,
      "inputs": [],
      "name": "fee",
      "outputs": [
        {
          "name": "",
          "type": "uint256"
        }
      ],
      "payable": false,
      "stateMutability": "view",
      "type": "function"
    },
    {
      "constant": false,
      "inputs": [],
      "name": "collateralize",
      "outputs": [],
      "payable": false,
      "stateMutability": "nonpayable",
      "type": "function"
    },
    {
      "constant": true,
      "inputs": [],
      "name": "expiry_time",
      "outputs": [
        {
          "name": "",
          "type": "uint256"
        }
      ],
      "payable": false,
      "stateMutability": "view",
      "type": "function"
    },
    {
      "constant": false,
      "inputs": [],
      "name": "expire",
      "outputs": [],
      "payable": false,
      "stateMutability": "nonpayable",
      "type": "function"
    }
  ],
  "bytecode": "0x608060405234801561001057600080fd5b50610b09806100206000396000f3fe608060405234801561001057600080fd5b506004361061012c5760003560e01c8063879a031a116100ad578063c80c073811610071578063c80c0738146103d3578063d34ab68d146103f1578063ddca3f431461040f578063eef9a8d51461042d578063fe3f3b81146104375761012c565b8063879a031a146103255780639f771e1e14610343578063a77f55991461034d578063c19d93fb14610397578063c618a1e4146103b55761012c565b80635001f3b5116100f45780635001f3b51461021f5780635ab533ac146102695780635f727189146102875780637150d8ae146102d157806379599f961461031b5761012c565b80630fa9f5e11461013157806314b80ae61461014f57806319d83c711461016d5780631d1438481461018b57806338d52e0f146101d5575b600080fd5b610139610455565b6040518082815260200191505060405180910390f35b61015761045a565b6040518082815260200191505060405180910390f35b61017561045f565b6040518082815260200191505060405180910390f35b610193610464565b604051808273ffffffffffffffffffffffffffffffffffffffff1673ffffffffffffffffffffffffffffffffffffffff16815260200191505060405180910390f35b6101dd610489565b604051808273ffffffffffffffffffffffffffffffffffffffff1673ffffffffffffffffffffffffffffffffffffffff16815260200191505060405180910390f35b6102276104af565b604051808273ffffffffffffffffffffffffffffffffffffffff1673ffffffffffffffffffffffffffffffffffffffff16815260200191505060405180910390f35b6102716104d5565b6040518082815260200191505060405180910390f35b61028f6104da565b604051808273ffffffffffffffffffffffffffffffffffffffff1673ffffffffffffffffffffffffffffffffffffffff16815260200191505060405180910390f35b6102d9610500565b604051808273ffffffffffffffffffffffffffffffffffffffff1673ffffffffffffffffffffffffffffffffffffffff16815260200191505060405180910390f35b610323610526565b005b61032d6106d8565b6040518082815260200191505060405180910390f35b61034b6106de565b005b6103556108cb565b604051808273ffffffffffffffffffffffffffffffffffffffff1673ffffffffffffffffffffffffffffffffffffffff16815260200191505060405180910390f35b61039f6108f1565b6040518082815260200191505060405180910390f35b6103bd6108f7565b6040518082815260200191505060405180910390f35b6103db6108fd565b6040518082815260200191505060405180910390f35b6103f9610902565b6040518082815260200191505060405180910390f35b610417610907565b6040518082815260200191505060405180910390f35b61043561090d565b005b61043f610ad7565b6040518082815260200191505060405180910390f35b600581565b600181565b600481565b6000809054906101000a900473ffffffffffffffffffffffffffffffffffffffff1681565b600a60009054906101000a900473ffffffffffffffffffffffffffffffffffffffff1681565b600960009054906101000a900473ffffffffffffffffffffffffffffffffffffffff1681565b600281565b600360009054906101000a900473ffffffffffffffffffffffffffffffffffffffff1681565b600160009054906101000a900473ffffffffffffffffffffffffffffffffffffffff1681565b6000809054906101000a900473ffffffffffffffffffffffffffffffffffffffff1673ffffffffffffffffffffffffffffffffffffffff163373ffffffffffffffffffffffffffffffffffffffff161461057f57600080fd5b4260075411158061059257506002600854145b8061059f57506000600554145b6105a857600080fd5b600560085414156105b857600080fd5b6000600a60009054906101000a900473ffffffffffffffffffffffffffffffffffffffff1673ffffffffffffffffffffffffffffffffffffffff1663a9059cbb6000809054906101000a900473ffffffffffffffffffffffffffffffffffffffff166005546040518363ffffffff1660e01b8152600401808373ffffffffffffffffffffffffffffffffffffffff1673ffffffffffffffffffffffffffffffffffffffff16815260200182815260200192505050602060405180830381600087803b15801561068657600080fd5b505af115801561069a573d6000803e3d6000fd5b505050506040513d60208110156106b057600080fd5b81019080805190602001909291905050509050806106cd57600080fd5b600560088190555050565b60065481565b600160009054906101000a900473ffffffffffffffffffffffffffffffffffffffff1673ffffffffffffffffffffffffffffffffffffffff163373ffffffffffffffffffffffffffffffffffffffff161461073857600080fd5b60026008541461074757600080fd5b426007541161075557600080fd5b6000600960009054906101000a900473ffffffffffffffffffffffffffffffffffffffff1673ffffffffffffffffffffffffffffffffffffffff166323b872dd600160009054906101000a900473ffffffffffffffffffffffffffffffffffffffff166000809054906101000a900473ffffffffffffffffffffffffffffffffffffffff166004546040518463ffffffff1660e01b8152600401808473ffffffffffffffffffffffffffffffffffffffff1673ffffffffffffffffffffffffffffffffffffffff1681526020018373ffffffffffffffffffffffffffffffffffffffff1673ffffffffffffffffffffffffffffffffffffffff1681526020018281526020019350505050602060405180830381600087803b15801561087957600080fd5b505af115801561088d573d6000803e3d6000fd5b505050506040513d60208110156108a357600080fd5b81019080805190602001909291905050509050806108c057600080fd5b600360088190555050565b600260009054906101000a900473ffffffffffffffffffffffffffffffffffffffff1681565b60085481565b60055481565b600381565b600081565b60045481565b6000809054906101000a900473ffffffffffffffffffffffffffffffffffffffff1673ffffffffffffffffffffffffffffffffffffffff163373ffffffffffffffffffffffffffffffffffffffff161461096657600080fd5b60016008541461097557600080fd5b426007541161098357600080fd5b6000600a60009054906101000a900473ffffffffffffffffffffffffffffffffffffffff1673ffffffffffffffffffffffffffffffffffffffff166323b872dd6000809054906101000a900473ffffffffffffffffffffffffffffffffffffffff16306005546040518463ffffffff1660e01b8152600401808473ffffffffffffffffffffffffffffffffffffffff1673ffffffffffffffffffffffffffffffffffffffff1681526020018373ffffffffffffffffffffffffffffffffffffffff1673ffffffffffffffffffffffffffffffffffffffff1681526020018281526020019350505050602060405180830381600087803b158015610a8557600080fd5b505af1158015610a99573d6000803e3d6000fd5b505050506040513d6020811015610aaf57600080fd5b8101908080519060200190929190505050905080610acc57600080fd5b600260088190555050565b6007548156fea165627a7a723058203765ffe1cc3026b7c3feebb8868fab4595fed9d3d2d01e19a089cef748fa21950029",
  "source": "pragma solidity >=0.4.21 <0.6.0;\n\nimport \"./OptionCommon.sol\";\n\n/**\n * @title IndivisibleCommon\n * @dev Template for StandardOption, SilentOption\n */\ncontract IndivisibleCommon is OptionCommon {\n  function exercise_internal(uint256 base_volume_exercised,\n                              uint256 asset_volume_exercised) internal {\n    require((expiry_time > block.timestamp) && (maturity_time <= block.timestamp));\n    require((state == STATE_ACTIVE) || (state == STATE_EXERCISED));\n    require(base_volume_exercised > 0);\n    require((asset_volume_exercised > 0) && (asset_volume_exercised <= volume));\n\n    bool base_transfer = base.transferFrom(buyer, issuer, base_volume_exercised);\n    require(base_transfer);\n    bool asset_transfer = asset.transfer(buyer, asset_volume_exercised);\n    require(asset_transfer);\n\n    volume = volume - asset_volume_exercised;\n\n    state = STATE_EXERCISED;\n  }\n\n  function expire() public {\n    require(msg.sender == issuer);\n    require((expiry_time <= block.timestamp) ||\n            (state == STATE_COLLATERALIZED) ||\n            (volume == 0));\n    require(state != STATE_EXPIRED);\n\n    bool asset_transfer = asset.transfer(issuer, volume);\n    require(asset_transfer);\n\n    state = STATE_EXPIRED;\n  }\n}\n",
  "sourcePath": "/Users/Karim/Desktop/atomicoptions/contracts/v0-2/parent_contracts/IndivisibleCommon.sol",
  "compiler": {
    "name": "solc",
    "version": "0.5.8+commit.23d335f2.Emscripten.clang"
  },
  "schemaVersion": "3.0.16",
  "updatedAt": "2019-10-14T17:26:10.392Z",
  "devdoc": {
    "details": "Template for StandardOption, SilentOption",
    "methods": {},
    "title": "IndivisibleCommon"
  },
  "userdoc": {
    "methods": {}
  }
}