{
  "contractName": "ManagedForward",
  "abi": [
    {
      "constant": true,
      "inputs": [],
      "name": "unmatched_base_volume",
      "outputs": [
        {
          "name": "",
          "type": "uint256"
        }
      ],
      "payable": false,
      "stateMutability": "view",
      "type": "function"
    },
    {
      "constant": true,
      "inputs": [],
      "name": "issuer_portfolio_addr",
      "outputs": [
        {
          "name": "",
          "type": "address"
        }
      ],
      "payable": false,
      "stateMutability": "view",
      "type": "function"
    },
    {
      "constant": true,
      "inputs": [],
      "name": "STATE_EXPIRED",
      "outputs": [
        {
          "name": "",
          "type": "uint256"
        }
      ],
      "payable": false,
      "stateMutability": "view",
      "type": "function"
    },
    {
      "constant": true,
      "inputs": [],
      "name": "STATE_INITIALIZED",
      "outputs": [
        {
          "name": "",
          "type": "uint256"
        }
      ],
      "payable": false,
      "stateMutability": "view",
      "type": "function"
    },
    {
      "constant": true,
      "inputs": [],
      "name": "base_volume",
      "outputs": [
        {
          "name": "",
          "type": "uint256"
        }
      ],
      "payable": false,
      "stateMutability": "view",
      "type": "function"
    },
    {
      "constant": true,
      "inputs": [],
      "name": "STATE_EXERCISED",
      "outputs": [
        {
          "name": "",
          "type": "uint256"
        }
      ],
      "payable": false,
      "stateMutability": "view",
      "type": "function"
    },
    {
      "constant": true,
      "inputs": [],
      "name": "issuer",
      "outputs": [
        {
          "name": "",
          "type": "address"
        }
      ],
      "payable": false,
      "stateMutability": "view",
      "type": "function"
    },
    {
      "constant": true,
      "inputs": [],
      "name": "asset",
      "outputs": [
        {
          "name": "",
          "type": "address"
        }
      ],
      "payable": false,
      "stateMutability": "view",
      "type": "function"
    },
    {
      "constant": true,
      "inputs": [],
      "name": "asset_matched_addr",
      "outputs": [
        {
          "name": "",
          "type": "address"
        }
      ],
      "payable": false,
      "stateMutability": "view",
      "type": "function"
    },
    {
      "constant": true,
      "inputs": [],
      "name": "base",
      "outputs": [
        {
          "name": "",
          "type": "address"
        }
      ],
      "payable": false,
      "stateMutability": "view",
      "type": "function"
    },
    {
      "constant": true,
      "inputs": [],
      "name": "STATE_COLLATERALIZED",
      "outputs": [
        {
          "name": "",
          "type": "uint256"
        }
      ],
      "payable": false,
      "stateMutability": "view",
      "type": "function"
    },
    {
      "constant": true,
      "inputs": [],
      "name": "asset_addr",
      "outputs": [
        {
          "name": "",
          "type": "address"
        }
      ],
      "payable": false,
      "stateMutability": "view",
      "type": "function"
    },
    {
      "constant": true,
      "inputs": [],
      "name": "unmatched_asset_volume",
      "outputs": [
        {
          "name": "",
          "type": "uint256"
        }
      ],
      "payable": false,
      "stateMutability": "view",
      "type": "function"
    },
    {
      "constant": true,
      "inputs": [],
      "name": "buyer",
      "outputs": [
        {
          "name": "",
          "type": "address"
        }
      ],
      "payable": false,
      "stateMutability": "view",
      "type": "function"
    },
    {
      "constant": true,
      "inputs": [],
      "name": "issuer_portfolio",
      "outputs": [
        {
          "name": "",
          "type": "address"
        }
      ],
      "payable": false,
      "stateMutability": "view",
      "type": "function"
    },
    {
      "constant": true,
      "inputs": [],
      "name": "maturity_time",
      "outputs": [
        {
          "name": "",
          "type": "uint256"
        }
      ],
      "payable": false,
      "stateMutability": "view",
      "type": "function"
    },
    {
      "constant": true,
      "inputs": [],
      "name": "base_addr",
      "outputs": [
        {
          "name": "",
          "type": "address"
        }
      ],
      "payable": false,
      "stateMutability": "view",
      "type": "function"
    },
    {
      "constant": true,
      "inputs": [],
      "name": "strike_price_base",
      "outputs": [
        {
          "name": "",
          "type": "uint256"
        }
      ],
      "payable": false,
      "stateMutability": "view",
      "type": "function"
    },
    {
      "constant": true,
      "inputs": [],
      "name": "base_matched_addr",
      "outputs": [
        {
          "name": "",
          "type": "address"
        }
      ],
      "payable": false,
      "stateMutability": "view",
      "type": "function"
    },
    {
      "constant": true,
      "inputs": [],
      "name": "factory_addr",
      "outputs": [
        {
          "name": "",
          "type": "address"
        }
      ],
      "payable": false,
      "stateMutability": "view",
      "type": "function"
    },
    {
      "constant": true,
      "inputs": [],
      "name": "state",
      "outputs": [
        {
          "name": "",
          "type": "uint256"
        }
      ],
      "payable": false,
      "stateMutability": "view",
      "type": "function"
    },
    {
      "constant": true,
      "inputs": [],
      "name": "factory",
      "outputs": [
        {
          "name": "",
          "type": "address"
        }
      ],
      "payable": false,
      "stateMutability": "view",
      "type": "function"
    },
    {
      "constant": true,
      "inputs": [],
      "name": "volume",
      "outputs": [
        {
          "name": "",
          "type": "uint256"
        }
      ],
      "payable": false,
      "stateMutability": "view",
      "type": "function"
    },
    {
      "constant": true,
      "inputs": [],
      "name": "buyer_portfolio",
      "outputs": [
        {
          "name": "",
          "type": "address"
        }
      ],
      "payable": false,
      "stateMutability": "view",
      "type": "function"
    },
    {
      "constant": true,
      "inputs": [],
      "name": "STATE_ACTIVE",
      "outputs": [
        {
          "name": "",
          "type": "uint256"
        }
      ],
      "payable": false,
      "stateMutability": "view",
      "type": "function"
    },
    {
      "constant": true,
      "inputs": [],
      "name": "STATE_UNINITIALIZED",
      "outputs": [
        {
          "name": "",
          "type": "uint256"
        }
      ],
      "payable": false,
      "stateMutability": "view",
      "type": "function"
    },
    {
      "constant": true,
      "inputs": [],
      "name": "strike_price_quote",
      "outputs": [
        {
          "name": "",
          "type": "uint256"
        }
      ],
      "payable": false,
      "stateMutability": "view",
      "type": "function"
    },
    {
      "constant": true,
      "inputs": [],
      "name": "buyer_portfolio_addr",
      "outputs": [
        {
          "name": "",
          "type": "address"
        }
      ],
      "payable": false,
      "stateMutability": "view",
      "type": "function"
    },
    {
      "inputs": [
        {
          "name": "_issuer",
          "type": "address"
        },
        {
          "name": "_buyer",
          "type": "address"
        },
        {
          "name": "_base_addr",
          "type": "address"
        },
        {
          "name": "_asset_addr",
          "type": "address"
        },
        {
          "name": "_strike_price_base",
          "type": "uint256"
        },
        {
          "name": "_strike_price_quote",
          "type": "uint256"
        },
        {
          "name": "_volume",
          "type": "uint256"
        },
        {
          "name": "_maturity_time",
          "type": "uint256"
        },
        {
          "name": "_issuer_portfolio_addr",
          "type": "address"
        },
        {
          "name": "_buyer_portfolio_addr",
          "type": "address"
        }
      ],
      "payable": false,
      "stateMutability": "nonpayable",
      "type": "constructor"
    },
    {
      "constant": false,
      "inputs": [],
      "name": "collateralize",
      "outputs": [],
      "payable": false,
      "stateMutability": "nonpayable",
      "type": "function"
    },
    {
      "constant": false,
      "inputs": [],
      "name": "collateralize_from_portfolio",
      "outputs": [],
      "payable": false,
      "stateMutability": "nonpayable",
      "type": "function"
    },
    {
      "constant": false,
      "inputs": [
        {
          "name": "_matched_addr",
          "type": "address"
        }
      ],
      "name": "collateralize_from_match",
      "outputs": [],
      "payable": false,
      "stateMutability": "nonpayable",
      "type": "function"
    },
    {
      "constant": false,
      "inputs": [],
      "name": "activate",
      "outputs": [],
      "payable": false,
      "stateMutability": "nonpayable",
      "type": "function"
    },
    {
      "constant": false,
      "inputs": [],
      "name": "activate_from_portfolio",
      "outputs": [],
      "payable": false,
      "stateMutability": "nonpayable",
      "type": "function"
    },
    {
      "constant": false,
      "inputs": [
        {
          "name": "_matched_addr",
          "type": "address"
        }
      ],
      "name": "activate_from_match",
      "outputs": [],
      "payable": false,
      "stateMutability": "nonpayable",
      "type": "function"
    },
    {
      "constant": false,
      "inputs": [],
      "name": "settle",
      "outputs": [],
      "payable": false,
      "stateMutability": "nonpayable",
      "type": "function"
    },
    {
      "constant": false,
      "inputs": [],
      "name": "force_settle",
      "outputs": [
        {
          "name": "",
          "type": "bool"
        }
      ],
      "payable": false,
      "stateMutability": "nonpayable",
      "type": "function"
    },
    {
      "constant": false,
      "inputs": [],
      "name": "expire",
      "outputs": [],
      "payable": false,
      "stateMutability": "nonpayable",
      "type": "function"
    },
    {
      "constant": false,
      "inputs": [
        {
          "name": "value",
          "type": "uint256"
        }
      ],
      "name": "set_unmatched_base_volume",
      "outputs": [],
      "payable": false,
      "stateMutability": "nonpayable",
      "type": "function"
    },
    {
      "constant": false,
      "inputs": [
        {
          "name": "value",
          "type": "uint256"
        }
      ],
      "name": "set_unmatched_asset_volume",
      "outputs": [],
      "payable": false,
      "stateMutability": "nonpayable",
      "type": "function"
    },
    {
      "constant": true,
      "inputs": [],
      "name": "get_info",
      "outputs": [
        {
          "name": "",
          "type": "address"
        },
        {
          "name": "",
          "type": "address"
        },
        {
          "name": "",
          "type": "address"
        },
        {
          "name": "",
          "type": "address"
        },
        {
          "name": "",
          "type": "uint256"
        },
        {
          "name": "",
          "type": "uint256"
        },
        {
          "name": "",
          "type": "uint256"
        },
        {
          "name": "",
          "type": "uint256"
        },
        {
          "name": "",
          "type": "uint256"
        }
      ],
      "payable": false,
      "stateMutability": "view",
      "type": "function"
    },
    {
      "constant": true,
      "inputs": [],
      "name": "get_portfolio_info",
      "outputs": [
        {
          "name": "",
          "type": "address"
        },
        {
          "name": "",
          "type": "address"
        },
        {
          "name": "",
          "type": "uint256"
        },
        {
          "name": "",
          "type": "uint256"
        },
        {
          "name": "",
          "type": "address"
        },
        {
          "name": "",
          "type": "address"
        }
      ],
      "payable": false,
      "stateMutability": "view",
      "type": "function"
    }
  ],
  "bytecode": "0x60806040523480156200001157600080fd5b5060405161014080620030ea83398101806040526101408110156200003557600080fd5b81019080805190602001909291908051906020019092919080519060200190929190805190602001909291908051906020019092919080519060200190929190805190602001909291908051906020019092919080519060200190929190805190602001909291905050508989898987878273ffffffffffffffffffffffffffffffffffffffff168473ffffffffffffffffffffffffffffffffffffffff161415620000e057600080fd5b856000806101000a81548173ffffffffffffffffffffffffffffffffffffffff021916908373ffffffffffffffffffffffffffffffffffffffff16021790555084600160006101000a81548173ffffffffffffffffffffffffffffffffffffffff021916908373ffffffffffffffffffffffffffffffffffffffff16021790555083600260006101000a81548173ffffffffffffffffffffffffffffffffffffffff021916908373ffffffffffffffffffffffffffffffffffffffff16021790555082600360006101000a81548173ffffffffffffffffffffffffffffffffffffffff021916908373ffffffffffffffffffffffffffffffffffffffff160217905550816004819055508060058190555083600760006101000a81548173ffffffffffffffffffffffffffffffffffffffff021916908373ffffffffffffffffffffffffffffffffffffffff16021790555082600860006101000a81548173ffffffffffffffffffffffffffffffffffffffff021916908373ffffffffffffffffffffffffffffffffffffffff16021790555060016006819055505050505050508560098190555084600a81905550600a546009546004540281620002a157fe5b04600b8190555033600c60006101000a81548173ffffffffffffffffffffffffffffffffffffffff021916908373ffffffffffffffffffffffffffffffffffffffff160217905550600c60009054906101000a900473ffffffffffffffffffffffffffffffffffffffff16600d60006101000a81548173ffffffffffffffffffffffffffffffffffffffff021916908373ffffffffffffffffffffffffffffffffffffffff16021790555081600e60006101000a81548173ffffffffffffffffffffffffffffffffffffffff021916908373ffffffffffffffffffffffffffffffffffffffff16021790555080600f60006101000a81548173ffffffffffffffffffffffffffffffffffffffff021916908373ffffffffffffffffffffffffffffffffffffffff160217905550600e60009054906101000a900473ffffffffffffffffffffffffffffffffffffffff16601060006101000a81548173ffffffffffffffffffffffffffffffffffffffff021916908373ffffffffffffffffffffffffffffffffffffffff160217905550600f60009054906101000a900473ffffffffffffffffffffffffffffffffffffffff16601160006101000a81548173ffffffffffffffffffffffffffffffffffffffff021916908373ffffffffffffffffffffffffffffffffffffffff160217905550600a546009546004540281620004a657fe5b04600b81905550600454601381905550600b5460128190555050505050505050505050612c1180620004d96000396000f3fe608060405234801561001057600080fd5b50600436106102535760003560e01c80636d792ed211610146578063c19d93fb116100c3578063c80c073811610087578063c80c073814610a89578063d34ab68d14610aa7578063d935fdd814610ac5578063e1b8d40f14610acf578063eb34c84914610aed578063eef9a8d514610b3757610253565b8063c19d93fb1461098b578063c45a0155146109a9578063c618a1e4146109f3578063c75fb27c14610a11578063c7853a8b14610a5b57610253565b8063a77f55991161010a578063a77f55991461086d578063b019923d146108b7578063ba221585146108d9578063bbcd5e67146108f7578063bf4cf4ff1461094157610253565b80636d792ed2146106c05780637150d8ae146107b157806379599f96146107fb57806379cae90b14610805578063879a031a1461084f57610253565b80633e304b7c116101d45780635b463c91116101985780635b463c911461051a5780635c8ed540146105485780635f72718914610552578063605834881461059c57806362fcb823146106a257610253565b80633e304b7c146103e057806341607d2b1461042a5780635001f3b51461046e578063567dbbd0146104b85780635ab533ac146104fc57610253565b806314b80ae61161021b57806314b80ae6146102f257806316b818441461031057806319d83c711461032e5780631d1438481461034c57806338d52e0f1461039657610253565b806302b2c2b014610258578063086598ab146102765780630f15f4c0146102c05780630fa9f5e1146102ca57806311da60b4146102e8575b600080fd5b610260610b41565b6040518082815260200191505060405180910390f35b61027e610b47565b604051808273ffffffffffffffffffffffffffffffffffffffff1673ffffffffffffffffffffffffffffffffffffffff16815260200191505060405180910390f35b6102c8610b6d565b005b6102d2610d4d565b6040518082815260200191505060405180910390f35b6102f0610d52565b005b6102fa611672565b6040518082815260200191505060405180910390f35b610318611677565b6040518082815260200191505060405180910390f35b61033661167d565b6040518082815260200191505060405180910390f35b610354611682565b604051808273ffffffffffffffffffffffffffffffffffffffff1673ffffffffffffffffffffffffffffffffffffffff16815260200191505060405180910390f35b61039e6116a7565b604051808273ffffffffffffffffffffffffffffffffffffffff1673ffffffffffffffffffffffffffffffffffffffff16815260200191505060405180910390f35b6103e86116cd565b604051808273ffffffffffffffffffffffffffffffffffffffff1673ffffffffffffffffffffffffffffffffffffffff16815260200191505060405180910390f35b61046c6004803603602081101561044057600080fd5b81019080803573ffffffffffffffffffffffffffffffffffffffff1690602001909291905050506116f3565b005b61047661199b565b604051808273ffffffffffffffffffffffffffffffffffffffff1673ffffffffffffffffffffffffffffffffffffffff16815260200191505060405180910390f35b6104fa600480360360208110156104ce57600080fd5b81019080803573ffffffffffffffffffffffffffffffffffffffff1690602001909291905050506119c1565b005b610504611c68565b6040518082815260200191505060405180910390f35b6105466004803603602081101561053057600080fd5b8101908080359060200190929190505050611c6d565b005b610550611cd1565b005b61055a611f3b565b604051808273ffffffffffffffffffffffffffffffffffffffff1673ffffffffffffffffffffffffffffffffffffffff16815260200191505060405180910390f35b6105a4611f61565b604051808a73ffffffffffffffffffffffffffffffffffffffff1673ffffffffffffffffffffffffffffffffffffffff1681526020018973ffffffffffffffffffffffffffffffffffffffff1673ffffffffffffffffffffffffffffffffffffffff1681526020018873ffffffffffffffffffffffffffffffffffffffff1673ffffffffffffffffffffffffffffffffffffffff1681526020018773ffffffffffffffffffffffffffffffffffffffff1673ffffffffffffffffffffffffffffffffffffffff168152602001868152602001858152602001848152602001838152602001828152602001995050505050505050505060405180910390f35b6106aa612026565b6040518082815260200191505060405180910390f35b6106c861202c565b604051808773ffffffffffffffffffffffffffffffffffffffff1673ffffffffffffffffffffffffffffffffffffffff1681526020018673ffffffffffffffffffffffffffffffffffffffff1673ffffffffffffffffffffffffffffffffffffffff1681526020018581526020018481526020018373ffffffffffffffffffffffffffffffffffffffff1673ffffffffffffffffffffffffffffffffffffffff1681526020018273ffffffffffffffffffffffffffffffffffffffff1673ffffffffffffffffffffffffffffffffffffffff168152602001965050505050505060405180910390f35b6107b96120db565b604051808273ffffffffffffffffffffffffffffffffffffffff1673ffffffffffffffffffffffffffffffffffffffff16815260200191505060405180910390f35b610803612101565b005b61080d612482565b604051808273ffffffffffffffffffffffffffffffffffffffff1673ffffffffffffffffffffffffffffffffffffffff16815260200191505060405180910390f35b6108576124a8565b6040518082815260200191505060405180910390f35b6108756124ae565b604051808273ffffffffffffffffffffffffffffffffffffffff1673ffffffffffffffffffffffffffffffffffffffff16815260200191505060405180910390f35b6108bf6124d4565b604051808215151515815260200191505060405180910390f35b6108e161253d565b6040518082815260200191505060405180910390f35b6108ff612543565b604051808273ffffffffffffffffffffffffffffffffffffffff1673ffffffffffffffffffffffffffffffffffffffff16815260200191505060405180910390f35b610949612569565b604051808273ffffffffffffffffffffffffffffffffffffffff1673ffffffffffffffffffffffffffffffffffffffff16815260200191505060405180910390f35b61099361258f565b6040518082815260200191505060405180910390f35b6109b1612595565b604051808273ffffffffffffffffffffffffffffffffffffffff1673ffffffffffffffffffffffffffffffffffffffff16815260200191505060405180910390f35b6109fb6125bb565b6040518082815260200191505060405180910390f35b610a196125c1565b604051808273ffffffffffffffffffffffffffffffffffffffff1673ffffffffffffffffffffffffffffffffffffffff16815260200191505060405180910390f35b610a8760048036036020811015610a7157600080fd5b81019080803590602001909291905050506125e7565b005b610a9161264b565b6040518082815260200191505060405180910390f35b610aaf612650565b6040518082815260200191505060405180910390f35b610acd612655565b005b610ad76128be565b6040518082815260200191505060405180910390f35b610af56128c4565b604051808273ffffffffffffffffffffffffffffffffffffffff1673ffffffffffffffffffffffffffffffffffffffff16815260200191505060405180910390f35b610b3f6128ea565b005b60125481565b600e60009054906101000a900473ffffffffffffffffffffffffffffffffffffffff1681565b600160009054906101000a900473ffffffffffffffffffffffffffffffffffffffff1673ffffffffffffffffffffffffffffffffffffffff163373ffffffffffffffffffffffffffffffffffffffff1614610bc757600080fd5b600260065414610bd657600080fd5b6000600760009054906101000a900473ffffffffffffffffffffffffffffffffffffffff1673ffffffffffffffffffffffffffffffffffffffff166323b872dd600160009054906101000a900473ffffffffffffffffffffffffffffffffffffffff16600f60009054906101000a900473ffffffffffffffffffffffffffffffffffffffff16600b546040518463ffffffff1660e01b8152600401808473ffffffffffffffffffffffffffffffffffffffff1673ffffffffffffffffffffffffffffffffffffffff1681526020018373ffffffffffffffffffffffffffffffffffffffff1673ffffffffffffffffffffffffffffffffffffffff1681526020018281526020019350505050602060405180830381600087803b158015610cfb57600080fd5b505af1158015610d0f573d6000803e3d6000fd5b505050506040513d6020811015610d2557600080fd5b8101908080519060200190929190505050905080610d4257600080fd5b600360068190555050565b600581565b426005541115610d6157600080fd5b600060045411610d7057600080fd5b6000601060009054906101000a900473ffffffffffffffffffffffffffffffffffffffff1673ffffffffffffffffffffffffffffffffffffffff166314627962600360009054906101000a900473ffffffffffffffffffffffffffffffffffffffff166004546040518363ffffffff1660e01b8152600401808373ffffffffffffffffffffffffffffffffffffffff1673ffffffffffffffffffffffffffffffffffffffff16815260200182815260200192505050602060405180830381600087803b158015610e3f57600080fd5b505af1158015610e53573d6000803e3d6000fd5b505050506040513d6020811015610e6957600080fd5b8101908080519060200190929190505050905080610e8657600080fd5b6000601160009054906101000a900473ffffffffffffffffffffffffffffffffffffffff1673ffffffffffffffffffffffffffffffffffffffff166314627962600260009054906101000a900473ffffffffffffffffffffffffffffffffffffffff16600b546040518363ffffffff1660e01b8152600401808373ffffffffffffffffffffffffffffffffffffffff1673ffffffffffffffffffffffffffffffffffffffff16815260200182815260200192505050602060405180830381600087803b158015610f5557600080fd5b505af1158015610f69573d6000803e3d6000fd5b505050506040513d6020811015610f7f57600080fd5b8101908080519060200190929190505050905080610f9c57600080fd5b6000600860009054906101000a900473ffffffffffffffffffffffffffffffffffffffff1673ffffffffffffffffffffffffffffffffffffffff166323b872dd600e60009054906101000a900473ffffffffffffffffffffffffffffffffffffffff16600f60009054906101000a900473ffffffffffffffffffffffffffffffffffffffff166004546040518463ffffffff1660e01b8152600401808473ffffffffffffffffffffffffffffffffffffffff1673ffffffffffffffffffffffffffffffffffffffff1681526020018373ffffffffffffffffffffffffffffffffffffffff1673ffffffffffffffffffffffffffffffffffffffff1681526020018281526020019350505050602060405180830381600087803b1580156110c157600080fd5b505af11580156110d5573d6000803e3d6000fd5b505050506040513d60208110156110eb57600080fd5b810190808051906020019092919050505090508061110857600080fd5b6000600760009054906101000a900473ffffffffffffffffffffffffffffffffffffffff1673ffffffffffffffffffffffffffffffffffffffff166323b872dd600f60009054906101000a900473ffffffffffffffffffffffffffffffffffffffff16600e60009054906101000a900473ffffffffffffffffffffffffffffffffffffffff16600b546040518463ffffffff1660e01b8152600401808473ffffffffffffffffffffffffffffffffffffffff1673ffffffffffffffffffffffffffffffffffffffff1681526020018373ffffffffffffffffffffffffffffffffffffffff1673ffffffffffffffffffffffffffffffffffffffff1681526020018281526020019350505050602060405180830381600087803b15801561122d57600080fd5b505af1158015611241573d6000803e3d6000fd5b505050506040513d602081101561125757600080fd5b810190808051906020019092919050505090508061127457600080fd5b6000601060009054906101000a900473ffffffffffffffffffffffffffffffffffffffff1673ffffffffffffffffffffffffffffffffffffffff16639ab849ea600260009054906101000a900473ffffffffffffffffffffffffffffffffffffffff166040518263ffffffff1660e01b8152600401808273ffffffffffffffffffffffffffffffffffffffff1673ffffffffffffffffffffffffffffffffffffffff16815260200191505060206040518083038186803b15801561133757600080fd5b505afa15801561134b573d6000803e3d6000fd5b505050506040513d602081101561136157600080fd5b81019080805190602001909291905050509050601060009054906101000a900473ffffffffffffffffffffffffffffffffffffffff1673ffffffffffffffffffffffffffffffffffffffff166302e4c75c600260009054906101000a900473ffffffffffffffffffffffffffffffffffffffff1660125484016040518363ffffffff1660e01b8152600401808373ffffffffffffffffffffffffffffffffffffffff1673ffffffffffffffffffffffffffffffffffffffff16815260200182815260200192505050600060405180830381600087803b15801561144357600080fd5b505af1158015611457573d6000803e3d6000fd5b505050506000601160009054906101000a900473ffffffffffffffffffffffffffffffffffffffff1673ffffffffffffffffffffffffffffffffffffffff16639ab849ea600360009054906101000a900473ffffffffffffffffffffffffffffffffffffffff166040518263ffffffff1660e01b8152600401808273ffffffffffffffffffffffffffffffffffffffff1673ffffffffffffffffffffffffffffffffffffffff16815260200191505060206040518083038186803b15801561151e57600080fd5b505afa158015611532573d6000803e3d6000fd5b505050506040513d602081101561154857600080fd5b81019080805190602001909291905050509050601160009054906101000a900473ffffffffffffffffffffffffffffffffffffffff1673ffffffffffffffffffffffffffffffffffffffff166302e4c75c600360009054906101000a900473ffffffffffffffffffffffffffffffffffffffff1660135484016040518363ffffffff1660e01b8152600401808373ffffffffffffffffffffffffffffffffffffffff1673ffffffffffffffffffffffffffffffffffffffff16815260200182815260200192505050600060405180830381600087803b15801561162a57600080fd5b505af115801561163e573d6000803e3d6000fd5b5050505060006004819055506000600b81905550600060138190555060006012819055506005600681905550505050505050565b600181565b600b5481565b600481565b6000809054906101000a900473ffffffffffffffffffffffffffffffffffffffff1681565b600860009054906101000a900473ffffffffffffffffffffffffffffffffffffffff1681565b601460009054906101000a900473ffffffffffffffffffffffffffffffffffffffff1681565b600160009054906101000a900473ffffffffffffffffffffffffffffffffffffffff1673ffffffffffffffffffffffffffffffffffffffff163373ffffffffffffffffffffffffffffffffffffffff161461174d57600080fd5b600d60009054906101000a900473ffffffffffffffffffffffffffffffffffffffff1673ffffffffffffffffffffffffffffffffffffffff1663cbd94cc4826040518263ffffffff1660e01b8152600401808273ffffffffffffffffffffffffffffffffffffffff1673ffffffffffffffffffffffffffffffffffffffff16815260200191505060206040518083038186803b1580156117ec57600080fd5b505afa158015611800573d6000803e3d6000fd5b505050506040513d602081101561181657600080fd5b810190808051906020019092919050505061183057600080fd5b6000601160009054906101000a900473ffffffffffffffffffffffffffffffffffffffff1673ffffffffffffffffffffffffffffffffffffffff1663c2bc745030846040518363ffffffff1660e01b8152600401808373ffffffffffffffffffffffffffffffffffffffff1673ffffffffffffffffffffffffffffffffffffffff1681526020018273ffffffffffffffffffffffffffffffffffffffff1673ffffffffffffffffffffffffffffffffffffffff16815260200192505050602060405180830381600087803b15801561190757600080fd5b505af115801561191b573d6000803e3d6000fd5b505050506040513d602081101561193157600080fd5b810190808051906020019092919050505090508061194e57600080fd5b81601560006101000a81548173ffffffffffffffffffffffffffffffffffffffff021916908373ffffffffffffffffffffffffffffffffffffffff160217905550611997611cd1565b5050565b600760009054906101000a900473ffffffffffffffffffffffffffffffffffffffff1681565b6000809054906101000a900473ffffffffffffffffffffffffffffffffffffffff1673ffffffffffffffffffffffffffffffffffffffff163373ffffffffffffffffffffffffffffffffffffffff1614611a1a57600080fd5b600d60009054906101000a900473ffffffffffffffffffffffffffffffffffffffff1673ffffffffffffffffffffffffffffffffffffffff1663cbd94cc4826040518263ffffffff1660e01b8152600401808273ffffffffffffffffffffffffffffffffffffffff1673ffffffffffffffffffffffffffffffffffffffff16815260200191505060206040518083038186803b158015611ab957600080fd5b505afa158015611acd573d6000803e3d6000fd5b505050506040513d6020811015611ae357600080fd5b8101908080519060200190929190505050611afd57600080fd5b6000601060009054906101000a900473ffffffffffffffffffffffffffffffffffffffff1673ffffffffffffffffffffffffffffffffffffffff166358ec5c0430846040518363ffffffff1660e01b8152600401808373ffffffffffffffffffffffffffffffffffffffff1673ffffffffffffffffffffffffffffffffffffffff1681526020018273ffffffffffffffffffffffffffffffffffffffff1673ffffffffffffffffffffffffffffffffffffffff16815260200192505050602060405180830381600087803b158015611bd457600080fd5b505af1158015611be8573d6000803e3d6000fd5b505050506040513d6020811015611bfe57600080fd5b8101908080519060200190929190505050905080611c1b57600080fd5b81601460006101000a81548173ffffffffffffffffffffffffffffffffffffffff021916908373ffffffffffffffffffffffffffffffffffffffff160217905550611c64612655565b5050565b600281565b600e60009054906101000a900473ffffffffffffffffffffffffffffffffffffffff1673ffffffffffffffffffffffffffffffffffffffff163373ffffffffffffffffffffffffffffffffffffffff1614611cc757600080fd5b8060128190555050565b600160009054906101000a900473ffffffffffffffffffffffffffffffffffffffff1673ffffffffffffffffffffffffffffffffffffffff163373ffffffffffffffffffffffffffffffffffffffff1614611d2b57600080fd5b600260065414611d3a57600080fd5b6000601160009054906101000a900473ffffffffffffffffffffffffffffffffffffffff1673ffffffffffffffffffffffffffffffffffffffff16639ab849ea600260009054906101000a900473ffffffffffffffffffffffffffffffffffffffff166040518263ffffffff1660e01b8152600401808273ffffffffffffffffffffffffffffffffffffffff1673ffffffffffffffffffffffffffffffffffffffff16815260200191505060206040518083038186803b158015611dfd57600080fd5b505afa158015611e11573d6000803e3d6000fd5b505050506040513d6020811015611e2757600080fd5b81019080805190602001909291905050509050600b54811015611e4957600080fd5b601160009054906101000a900473ffffffffffffffffffffffffffffffffffffffff1673ffffffffffffffffffffffffffffffffffffffff166302e4c75c600260009054906101000a900473ffffffffffffffffffffffffffffffffffffffff16600b5484036040518363ffffffff1660e01b8152600401808373ffffffffffffffffffffffffffffffffffffffff1673ffffffffffffffffffffffffffffffffffffffff16815260200182815260200192505050600060405180830381600087803b158015611f1857600080fd5b505af1158015611f2c573d6000803e3d6000fd5b50505050600360068190555050565b600360009054906101000a900473ffffffffffffffffffffffffffffffffffffffff1681565b60008060008060008060008060008060009054906101000a900473ffffffffffffffffffffffffffffffffffffffff16600160009054906101000a900473ffffffffffffffffffffffffffffffffffffffff16600260009054906101000a900473ffffffffffffffffffffffffffffffffffffffff16600360009054906101000a900473ffffffffffffffffffffffffffffffffffffffff16600954600a54600454600554600654985098509850985098509850985098509850909192939495969798565b60135481565b600080600080600080600e60009054906101000a900473ffffffffffffffffffffffffffffffffffffffff16600f60009054906101000a900473ffffffffffffffffffffffffffffffffffffffff16601254601354601460009054906101000a900473ffffffffffffffffffffffffffffffffffffffff16601560009054906101000a900473ffffffffffffffffffffffffffffffffffffffff16955095509550955095509550909192939495565b600160009054906101000a900473ffffffffffffffffffffffffffffffffffffffff1681565b6000809054906101000a900473ffffffffffffffffffffffffffffffffffffffff1673ffffffffffffffffffffffffffffffffffffffff163373ffffffffffffffffffffffffffffffffffffffff161461215a57600080fd5b60026006541461216957600080fd5b6005600654141561217957600080fd5b6000600860009054906101000a900473ffffffffffffffffffffffffffffffffffffffff1673ffffffffffffffffffffffffffffffffffffffff1663a9059cbb600e60009054906101000a900473ffffffffffffffffffffffffffffffffffffffff166004546040518363ffffffff1660e01b8152600401808373ffffffffffffffffffffffffffffffffffffffff1673ffffffffffffffffffffffffffffffffffffffff16815260200182815260200192505050602060405180830381600087803b15801561224857600080fd5b505af115801561225c573d6000803e3d6000fd5b505050506040513d602081101561227257600080fd5b810190808051906020019092919050505090508061228f57600080fd5b6000601060009054906101000a900473ffffffffffffffffffffffffffffffffffffffff1673ffffffffffffffffffffffffffffffffffffffff16639ab849ea600360009054906101000a900473ffffffffffffffffffffffffffffffffffffffff166040518263ffffffff1660e01b8152600401808273ffffffffffffffffffffffffffffffffffffffff1673ffffffffffffffffffffffffffffffffffffffff16815260200191505060206040518083038186803b15801561235257600080fd5b505afa158015612366573d6000803e3d6000fd5b505050506040513d602081101561237c57600080fd5b81019080805190602001909291905050509050601060009054906101000a900473ffffffffffffffffffffffffffffffffffffffff1673ffffffffffffffffffffffffffffffffffffffff166302e4c75c600360009054906101000a900473ffffffffffffffffffffffffffffffffffffffff1660045484016040518363ffffffff1660e01b8152600401808373ffffffffffffffffffffffffffffffffffffffff1673ffffffffffffffffffffffffffffffffffffffff16815260200182815260200192505050600060405180830381600087803b15801561245e57600080fd5b505af1158015612472573d6000803e3d6000fd5b5050505060056006819055505050565b601060009054906101000a900473ffffffffffffffffffffffffffffffffffffffff1681565b60055481565b600260009054906101000a900473ffffffffffffffffffffffffffffffffffffffff1681565b6000612501601560009054906101000a900473ffffffffffffffffffffffffffffffffffffffff16612ac8565b5061252d601460009054906101000a900473ffffffffffffffffffffffffffffffffffffffff16612ac8565b50612536610d52565b6001905090565b60095481565b601560009054906101000a900473ffffffffffffffffffffffffffffffffffffffff1681565b600c60009054906101000a900473ffffffffffffffffffffffffffffffffffffffff1681565b60065481565b600d60009054906101000a900473ffffffffffffffffffffffffffffffffffffffff1681565b60045481565b601160009054906101000a900473ffffffffffffffffffffffffffffffffffffffff1681565b600f60009054906101000a900473ffffffffffffffffffffffffffffffffffffffff1673ffffffffffffffffffffffffffffffffffffffff163373ffffffffffffffffffffffffffffffffffffffff161461264157600080fd5b8060138190555050565b600381565b600081565b6000809054906101000a900473ffffffffffffffffffffffffffffffffffffffff1673ffffffffffffffffffffffffffffffffffffffff163373ffffffffffffffffffffffffffffffffffffffff16146126ae57600080fd5b6001600654146126bd57600080fd5b6000601060009054906101000a900473ffffffffffffffffffffffffffffffffffffffff1673ffffffffffffffffffffffffffffffffffffffff16639ab849ea600360009054906101000a900473ffffffffffffffffffffffffffffffffffffffff166040518263ffffffff1660e01b8152600401808273ffffffffffffffffffffffffffffffffffffffff1673ffffffffffffffffffffffffffffffffffffffff16815260200191505060206040518083038186803b15801561278057600080fd5b505afa158015612794573d6000803e3d6000fd5b505050506040513d60208110156127aa57600080fd5b810190808051906020019092919050505090506004548110156127cc57600080fd5b601060009054906101000a900473ffffffffffffffffffffffffffffffffffffffff1673ffffffffffffffffffffffffffffffffffffffff166302e4c75c600360009054906101000a900473ffffffffffffffffffffffffffffffffffffffff1660045484036040518363ffffffff1660e01b8152600401808373ffffffffffffffffffffffffffffffffffffffff1673ffffffffffffffffffffffffffffffffffffffff16815260200182815260200192505050600060405180830381600087803b15801561289b57600080fd5b505af11580156128af573d6000803e3d6000fd5b50505050600260068190555050565b600a5481565b600f60009054906101000a900473ffffffffffffffffffffffffffffffffffffffff1681565b6000809054906101000a900473ffffffffffffffffffffffffffffffffffffffff1673ffffffffffffffffffffffffffffffffffffffff163373ffffffffffffffffffffffffffffffffffffffff161461294357600080fd5b60016006541461295257600080fd5b6000600860009054906101000a900473ffffffffffffffffffffffffffffffffffffffff1673ffffffffffffffffffffffffffffffffffffffff166323b872dd6000809054906101000a900473ffffffffffffffffffffffffffffffffffffffff16600e60009054906101000a900473ffffffffffffffffffffffffffffffffffffffff166004546040518463ffffffff1660e01b8152600401808473ffffffffffffffffffffffffffffffffffffffff1673ffffffffffffffffffffffffffffffffffffffff1681526020018373ffffffffffffffffffffffffffffffffffffffff1673ffffffffffffffffffffffffffffffffffffffff1681526020018281526020019350505050602060405180830381600087803b158015612a7657600080fd5b505af1158015612a8a573d6000803e3d6000fd5b505050506040513d6020811015612aa057600080fd5b8101908080519060200190929190505050905080612abd57600080fd5b600260068190555050565b60008082905060058173ffffffffffffffffffffffffffffffffffffffff1663c19d93fb6040518163ffffffff1660e01b815260040160206040518083038186803b158015612b1657600080fd5b505afa158015612b2a573d6000803e3d6000fd5b505050506040513d6020811015612b4057600080fd5b810190808051906020019092919050505014612bdb578073ffffffffffffffffffffffffffffffffffffffff1663b019923d6040518163ffffffff1660e01b8152600401602060405180830381600087803b158015612b9e57600080fd5b505af1158015612bb2573d6000803e3d6000fd5b505050506040513d6020811015612bc857600080fd5b8101908080519060200190929190505050505b600191505091905056fea165627a7a723058204f44c9dcd9c9dc0832b4b2381680f8706b546f7a8abda6b2d3e75cb0993f03200029",
  "source": "pragma solidity >=0.4.21 <0.6.0;\n\nimport \"../../lib/ERC20.sol\";\nimport \"../parent_contracts/DerivativeCommon.sol\";\nimport \"../auxiliary/Portfolio.sol\";\nimport \"../factories/ManagedForwardFactory.sol\";\n\n/**\n * @title ManagedForward\n * @dev Forward contract managed by Portfolio\n */\ncontract ManagedForward is DerivativeCommon {\n  // // Strike price [i.e. (strike_price_quote * base_volume) / strike_price_base  = asset_volume]\n  uint256 public strike_price_base;\n  uint256 public strike_price_quote;\n\n  // Volume of the base token held\n  uint256 public base_volume;\n\n  // Factory Info\n  address public factory_addr;\n  ManagedForwardFactory public factory;\n\n  // // Address of Issuer and Buyer portfolios\n  address public issuer_portfolio_addr;\n  address public buyer_portfolio_addr;\n\n  // Instances of Issuer and Buyer Portfolios\n  Portfolio public issuer_portfolio;\n  Portfolio public buyer_portfolio;\n\n  // Unmatched base and asset volumes\n  uint256 public unmatched_base_volume;\n  uint256 public unmatched_asset_volume;\n\n  // The addresses of the contract this was matched against\n  address public asset_matched_addr;\n  address public base_matched_addr;\n\n  constructor(address _issuer, address _buyer,\n              address _base_addr, address _asset_addr,\n              uint256 _strike_price_base, uint256 _strike_price_quote,\n              uint256 _volume,\n              uint256 _maturity_time,\n              address _issuer_portfolio_addr, address _buyer_portfolio_addr)\n    DerivativeCommon(_issuer, _buyer,\n                    _base_addr, _asset_addr,\n                    _volume,\n                    _maturity_time) public {\n    strike_price_base = _strike_price_base;\n    strike_price_quote = _strike_price_quote;\n    base_volume = (volume * strike_price_base) / strike_price_quote;\n\n    factory_addr = msg.sender;\n    factory = ManagedForwardFactory(factory_addr);\n\n    issuer_portfolio_addr = _issuer_portfolio_addr;\n    buyer_portfolio_addr = _buyer_portfolio_addr;\n    issuer_portfolio = Portfolio(issuer_portfolio_addr);\n    buyer_portfolio = Portfolio(buyer_portfolio_addr);\n    base_volume = (volume * strike_price_base) / strike_price_quote;\n\n    unmatched_asset_volume = volume;\n    unmatched_base_volume = base_volume;\n  }\n\n  // // Collateralizes contract\n  // Collateralizes from wallet\n  function collateralize() public {\n    require(msg.sender == issuer);\n    require(state == STATE_INITIALIZED);\n\n    bool asset_transfer = asset.transferFrom(issuer, issuer_portfolio_addr, volume);\n    require(asset_transfer);\n\n    state = STATE_COLLATERALIZED;\n  }\n\n  // Collateralizes from portfolio\n  function collateralize_from_portfolio() public {\n    require(msg.sender == issuer);\n    require(state == STATE_INITIALIZED);\n\n    uint256 asset_available = issuer_portfolio.get_volume_available(asset_addr);\n    require(asset_available >= volume);\n    issuer_portfolio.set_volume_available(asset_addr, asset_available - volume);\n\n    state = STATE_COLLATERALIZED;\n  }\n\n  // Collateralize this forward using the payoff from another forward\n  function collateralize_from_match(address _matched_addr) public {\n    require(msg.sender == issuer);\n    require(factory.get_created_forward(_matched_addr));\n    bool match_collateralized = issuer_portfolio.match_collateralize(address(this), _matched_addr);\n    require(match_collateralized);\n    asset_matched_addr = _matched_addr;\n    collateralize_from_portfolio();\n  }\n\n  function activate() public {\n    require(msg.sender == buyer);\n    require(state == STATE_COLLATERALIZED);\n\n    bool base_transfer = base.transferFrom(buyer, buyer_portfolio_addr, base_volume);\n    require(base_transfer);\n\n    state = STATE_ACTIVE;\n  }\n\n  function activate_from_portfolio() public {\n    require(msg.sender == buyer);\n    require(state == STATE_COLLATERALIZED);\n\n    uint256 base_available = buyer_portfolio.get_volume_available(base_addr);\n    require(base_available >= base_volume);\n    buyer_portfolio.set_volume_available(base_addr, base_available - base_volume);\n\n    state = STATE_ACTIVE;\n  }\n\n  function activate_from_match(address _matched_addr) public {\n    require(msg.sender == buyer);\n    require(factory.get_created_forward(_matched_addr));\n    bool match_activated = buyer_portfolio.match_activate(address(this), _matched_addr);\n    require(match_activated);\n    base_matched_addr = _matched_addr;\n    activate_from_portfolio();\n  }\n\n  // Executes the forward trade\n  function settle() public {\n    require(maturity_time <= block.timestamp);\n    require(volume > 0);\n\n    bool issuer_approve = issuer_portfolio.approve_managed_forward(asset_addr, volume);\n    require(issuer_approve);\n    bool buyer_approve = buyer_portfolio.approve_managed_forward(base_addr, base_volume);\n    require(buyer_approve);\n    bool asset_transfer = asset.transferFrom(issuer_portfolio_addr, buyer_portfolio_addr, volume);\n    require(asset_transfer);\n    bool base_transfer = base.transferFrom(buyer_portfolio_addr, issuer_portfolio_addr, base_volume);\n    require(base_transfer);\n\n    uint256 portfolio_base_available = issuer_portfolio.get_volume_available(base_addr);\n    issuer_portfolio.set_volume_available(base_addr, portfolio_base_available + unmatched_base_volume);\n    uint256 portfolio_asset_available = buyer_portfolio.get_volume_available(asset_addr);\n    buyer_portfolio.set_volume_available(asset_addr, portfolio_asset_available + unmatched_asset_volume);\n\n    volume = 0;\n    base_volume = 0;\n    unmatched_asset_volume = 0;\n    unmatched_base_volume = 0;\n\n    state = STATE_EXPIRED;\n  }\n\n  // Internal logic for force_settle\n  function force_settle_internal(address matched_addr) internal returns (bool) {\n    ManagedForward matched = ManagedForward(matched_addr);\n    if (matched.state() != STATE_EXPIRED) {\n      matched.force_settle();\n    }\n    return true;\n  }\n\n  // Settles every dependency until this contract can settle\n  // Basically a depth-first-search to settle the contract\n  function force_settle() public returns (bool) {\n    force_settle_internal(base_matched_addr);\n    force_settle_internal(asset_matched_addr);\n    settle();\n    return true;\n  }\n\n  // In a forward, only really useful for aborting\n  // Conditions and call mostly kept consistent with OptionCommon\n  function expire() public {\n    require(msg.sender == issuer);\n    require(state == STATE_COLLATERALIZED);\n    require(state != STATE_EXPIRED);\n\n    bool asset_transfer = asset.transfer(issuer_portfolio_addr, volume);\n    require(asset_transfer);\n    uint256 portfolio_asset_available = issuer_portfolio.get_volume_available(asset_addr);\n    issuer_portfolio.set_volume_available(asset_addr, portfolio_asset_available + volume);\n\n    state = STATE_EXPIRED;\n  }\n\n  function set_unmatched_base_volume(uint value) public {\n    require(msg.sender == issuer_portfolio_addr);\n    unmatched_base_volume = value;\n  }\n\n  function set_unmatched_asset_volume(uint value) public {\n    require(msg.sender == buyer_portfolio_addr);\n    unmatched_asset_volume = value;\n  }\n\n  // Returns standard information about the contract in one go\n  function get_info() public view returns (address, address, address, address,\n                                            uint256, uint256,\n                                            uint256, uint256, uint256) {\n    return(issuer, buyer, base_addr, asset_addr,\n            strike_price_base, strike_price_quote,\n            volume, maturity_time, state);\n  }\n\n  // Returns all portfolio information in one go\n  function get_portfolio_info() public view returns (address, address,\n                                                      uint256, uint256,\n                                                      address, address) {\n    return(issuer_portfolio_addr, buyer_portfolio_addr,\n            unmatched_base_volume, unmatched_asset_volume,\n            asset_matched_addr, base_matched_addr);\n  }\n}\n",
  "sourcePath": "/Users/Karim/Desktop/atomicoptions/contracts/src/forwards/ManagedForward.sol",
  "compiler": {
    "name": "solc",
    "version": "0.5.8+commit.23d335f2.Emscripten.clang"
  },
  "schemaVersion": "3.0.16",
  "updatedAt": "2019-10-21T22:46:06.613Z",
  "devdoc": {
    "details": "Forward contract managed by Portfolio",
    "methods": {},
    "title": "ManagedForward"
  },
  "userdoc": {
    "methods": {}
  }
}