{
  "contractName": "ManagedForwardFactory",
  "abi": [
    {
      "constant": true,
      "inputs": [
        {
          "name": "",
          "type": "address"
        }
      ],
      "name": "created_managed_forwards",
      "outputs": [
        {
          "name": "",
          "type": "bool"
        }
      ],
      "payable": false,
      "stateMutability": "view",
      "type": "function"
    },
    {
      "anonymous": false,
      "inputs": [
        {
          "indexed": false,
          "name": "managed_forward",
          "type": "address"
        }
      ],
      "name": "NewManagedForward",
      "type": "event"
    },
    {
      "constant": false,
      "inputs": [
        {
          "name": "_issuer",
          "type": "address"
        },
        {
          "name": "_buyer",
          "type": "address"
        },
        {
          "name": "_base_addr",
          "type": "address"
        },
        {
          "name": "_asset_addr",
          "type": "address"
        },
        {
          "name": "_strike_price_base",
          "type": "uint256"
        },
        {
          "name": "_strike_price_quote",
          "type": "uint256"
        },
        {
          "name": "_volume",
          "type": "uint256"
        },
        {
          "name": "_maturity_time",
          "type": "uint256"
        },
        {
          "name": "_issuer_portfolio_addr",
          "type": "address"
        },
        {
          "name": "_buyer_portfolio_addr",
          "type": "address"
        }
      ],
      "name": "create_managed_forward",
      "outputs": [
        {
          "name": "",
          "type": "address"
        }
      ],
      "payable": false,
      "stateMutability": "nonpayable",
      "type": "function"
    },
    {
      "constant": true,
      "inputs": [
        {
          "name": "created_forward_address",
          "type": "address"
        }
      ],
      "name": "get_created_forward",
      "outputs": [
        {
          "name": "",
          "type": "bool"
        }
      ],
      "payable": false,
      "stateMutability": "view",
      "type": "function"
    }
  ],
  "bytecode": "0x608060405234801561001057600080fd5b50613462806100206000396000f3fe608060405234801561001057600080fd5b50600436106100415760003560e01c80637c72237c14610046578063b23eefea146100a2578063cbd94cc4146101ef575b600080fd5b6100886004803603602081101561005c57600080fd5b81019080803573ffffffffffffffffffffffffffffffffffffffff16906020019092919050505061024b565b604051808215151515815260200191505060405180910390f35b6101ad60048036036101408110156100b957600080fd5b81019080803573ffffffffffffffffffffffffffffffffffffffff169060200190929190803573ffffffffffffffffffffffffffffffffffffffff169060200190929190803573ffffffffffffffffffffffffffffffffffffffff169060200190929190803573ffffffffffffffffffffffffffffffffffffffff16906020019092919080359060200190929190803590602001909291908035906020019092919080359060200190929190803573ffffffffffffffffffffffffffffffffffffffff169060200190929190803573ffffffffffffffffffffffffffffffffffffffff16906020019092919050505061026b565b604051808273ffffffffffffffffffffffffffffffffffffffff1673ffffffffffffffffffffffffffffffffffffffff16815260200191505060405180910390f35b6102316004803603602081101561020557600080fd5b81019080803573ffffffffffffffffffffffffffffffffffffffff1690602001909291905050506104c0565b604051808215151515815260200191505060405180910390f35b60006020528060005260406000206000915054906101000a900460ff1681565b6000808b8b8b8b8b8b8b8b8b8b60405161028490610515565b808b73ffffffffffffffffffffffffffffffffffffffff1673ffffffffffffffffffffffffffffffffffffffff1681526020018a73ffffffffffffffffffffffffffffffffffffffff1673ffffffffffffffffffffffffffffffffffffffff1681526020018973ffffffffffffffffffffffffffffffffffffffff1673ffffffffffffffffffffffffffffffffffffffff1681526020018873ffffffffffffffffffffffffffffffffffffffff1673ffffffffffffffffffffffffffffffffffffffff1681526020018781526020018681526020018581526020018481526020018373ffffffffffffffffffffffffffffffffffffffff1673ffffffffffffffffffffffffffffffffffffffff1681526020018273ffffffffffffffffffffffffffffffffffffffff1673ffffffffffffffffffffffffffffffffffffffff1681526020019a5050505050505050505050604051809103906000f0801580156103f1573d6000803e3d6000fd5b50905060016000808373ffffffffffffffffffffffffffffffffffffffff1673ffffffffffffffffffffffffffffffffffffffff16815260200190815260200160002060006101000a81548160ff0219169083151502179055507fa81f8a3be862db507d1adce23fe1089d807c1f12490f8d6e771b60101f13d96981604051808273ffffffffffffffffffffffffffffffffffffffff1673ffffffffffffffffffffffffffffffffffffffff16815260200191505060405180910390a1809150509a9950505050505050505050565b60008060008373ffffffffffffffffffffffffffffffffffffffff1673ffffffffffffffffffffffffffffffffffffffff16815260200190815260200160002060009054906101000a900460ff169050919050565b612f14806105238339019056fe60806040523480156200001157600080fd5b506040516101408062002f1483398101806040526101408110156200003557600080fd5b81019080805190602001909291908051906020019092919080519060200190929190805190602001909291908051906020019092919080519060200190929190805190602001909291908051906020019092919080519060200190929190805190602001909291905050508989898987878273ffffffffffffffffffffffffffffffffffffffff168473ffffffffffffffffffffffffffffffffffffffff161415620000e057600080fd5b856000806101000a81548173ffffffffffffffffffffffffffffffffffffffff021916908373ffffffffffffffffffffffffffffffffffffffff16021790555084600160006101000a81548173ffffffffffffffffffffffffffffffffffffffff021916908373ffffffffffffffffffffffffffffffffffffffff16021790555083600260006101000a81548173ffffffffffffffffffffffffffffffffffffffff021916908373ffffffffffffffffffffffffffffffffffffffff16021790555082600360006101000a81548173ffffffffffffffffffffffffffffffffffffffff021916908373ffffffffffffffffffffffffffffffffffffffff160217905550816004819055508060058190555083600760006101000a81548173ffffffffffffffffffffffffffffffffffffffff021916908373ffffffffffffffffffffffffffffffffffffffff16021790555082600860006101000a81548173ffffffffffffffffffffffffffffffffffffffff021916908373ffffffffffffffffffffffffffffffffffffffff16021790555060016006819055505050505050508560098190555084600a81905550600a546009546004540281620002a157fe5b04600b8190555033600c60006101000a81548173ffffffffffffffffffffffffffffffffffffffff021916908373ffffffffffffffffffffffffffffffffffffffff160217905550600c60009054906101000a900473ffffffffffffffffffffffffffffffffffffffff16600d60006101000a81548173ffffffffffffffffffffffffffffffffffffffff021916908373ffffffffffffffffffffffffffffffffffffffff16021790555081600e60006101000a81548173ffffffffffffffffffffffffffffffffffffffff021916908373ffffffffffffffffffffffffffffffffffffffff16021790555080600f60006101000a81548173ffffffffffffffffffffffffffffffffffffffff021916908373ffffffffffffffffffffffffffffffffffffffff160217905550600e60009054906101000a900473ffffffffffffffffffffffffffffffffffffffff16601060006101000a81548173ffffffffffffffffffffffffffffffffffffffff021916908373ffffffffffffffffffffffffffffffffffffffff160217905550600f60009054906101000a900473ffffffffffffffffffffffffffffffffffffffff16601160006101000a81548173ffffffffffffffffffffffffffffffffffffffff021916908373ffffffffffffffffffffffffffffffffffffffff160217905550600a546009546004540281620004a657fe5b04600b81905550600454601381905550600b5460128190555050505050505050505050612a3b80620004d96000396000f3fe608060405234801561001057600080fd5b50600436106102485760003560e01c80637150d8ae1161013b578063c45a0155116100b8578063d34ab68d1161007c578063d34ab68d14610996578063d935fdd8146109b4578063e1b8d40f146109be578063eb34c849146109dc578063eef9a8d514610a2657610248565b8063c45a015514610898578063c618a1e4146108e2578063c75fb27c14610900578063c7853a8b1461094a578063c80c07381461097857610248565b8063b019923d116100ff578063b019923d146107a6578063ba221585146107c8578063bbcd5e67146107e6578063bf4cf4ff14610830578063c19d93fb1461087a57610248565b80637150d8ae146106a057806379599f96146106ea57806379cae90b146106f4578063879a031a1461073e578063a77f55991461075c57610248565b80633e304b7c116101c95780635b463c911161018d5780635b463c911461050f5780635c8ed5401461053d5780635f7271891461054757806362fcb823146105915780636d792ed2146105af57610248565b80633e304b7c146103d557806341607d2b1461041f5780635001f3b514610463578063567dbbd0146104ad5780635ab533ac146104f157610248565b806314b80ae61161021057806314b80ae6146102e757806316b818441461030557806319d83c71146103235780631d1438481461034157806338d52e0f1461038b57610248565b806302b2c2b01461024d578063086598ab1461026b5780630f15f4c0146102b55780630fa9f5e1146102bf57806311da60b4146102dd575b600080fd5b610255610a30565b6040518082815260200191505060405180910390f35b610273610a36565b604051808273ffffffffffffffffffffffffffffffffffffffff1673ffffffffffffffffffffffffffffffffffffffff16815260200191505060405180910390f35b6102bd610a5c565b005b6102c7610c3c565b6040518082815260200191505060405180910390f35b6102e5610c41565b005b6102ef611561565b6040518082815260200191505060405180910390f35b61030d611566565b6040518082815260200191505060405180910390f35b61032b61156c565b6040518082815260200191505060405180910390f35b610349611571565b604051808273ffffffffffffffffffffffffffffffffffffffff1673ffffffffffffffffffffffffffffffffffffffff16815260200191505060405180910390f35b610393611596565b604051808273ffffffffffffffffffffffffffffffffffffffff1673ffffffffffffffffffffffffffffffffffffffff16815260200191505060405180910390f35b6103dd6115bc565b604051808273ffffffffffffffffffffffffffffffffffffffff1673ffffffffffffffffffffffffffffffffffffffff16815260200191505060405180910390f35b6104616004803603602081101561043557600080fd5b81019080803573ffffffffffffffffffffffffffffffffffffffff1690602001909291905050506115e2565b005b61046b61188a565b604051808273ffffffffffffffffffffffffffffffffffffffff1673ffffffffffffffffffffffffffffffffffffffff16815260200191505060405180910390f35b6104ef600480360360208110156104c357600080fd5b81019080803573ffffffffffffffffffffffffffffffffffffffff1690602001909291905050506118b0565b005b6104f9611b57565b6040518082815260200191505060405180910390f35b61053b6004803603602081101561052557600080fd5b8101908080359060200190929190505050611b5c565b005b610545611bc0565b005b61054f611e2a565b604051808273ffffffffffffffffffffffffffffffffffffffff1673ffffffffffffffffffffffffffffffffffffffff16815260200191505060405180910390f35b610599611e50565b6040518082815260200191505060405180910390f35b6105b7611e56565b604051808773ffffffffffffffffffffffffffffffffffffffff1673ffffffffffffffffffffffffffffffffffffffff1681526020018673ffffffffffffffffffffffffffffffffffffffff1673ffffffffffffffffffffffffffffffffffffffff1681526020018581526020018481526020018373ffffffffffffffffffffffffffffffffffffffff1673ffffffffffffffffffffffffffffffffffffffff1681526020018273ffffffffffffffffffffffffffffffffffffffff1673ffffffffffffffffffffffffffffffffffffffff168152602001965050505050505060405180910390f35b6106a8611f05565b604051808273ffffffffffffffffffffffffffffffffffffffff1673ffffffffffffffffffffffffffffffffffffffff16815260200191505060405180910390f35b6106f2611f2b565b005b6106fc6122ac565b604051808273ffffffffffffffffffffffffffffffffffffffff1673ffffffffffffffffffffffffffffffffffffffff16815260200191505060405180910390f35b6107466122d2565b6040518082815260200191505060405180910390f35b6107646122d8565b604051808273ffffffffffffffffffffffffffffffffffffffff1673ffffffffffffffffffffffffffffffffffffffff16815260200191505060405180910390f35b6107ae6122fe565b604051808215151515815260200191505060405180910390f35b6107d0612367565b6040518082815260200191505060405180910390f35b6107ee61236d565b604051808273ffffffffffffffffffffffffffffffffffffffff1673ffffffffffffffffffffffffffffffffffffffff16815260200191505060405180910390f35b610838612393565b604051808273ffffffffffffffffffffffffffffffffffffffff1673ffffffffffffffffffffffffffffffffffffffff16815260200191505060405180910390f35b6108826123b9565b6040518082815260200191505060405180910390f35b6108a06123bf565b604051808273ffffffffffffffffffffffffffffffffffffffff1673ffffffffffffffffffffffffffffffffffffffff16815260200191505060405180910390f35b6108ea6123e5565b6040518082815260200191505060405180910390f35b6109086123eb565b604051808273ffffffffffffffffffffffffffffffffffffffff1673ffffffffffffffffffffffffffffffffffffffff16815260200191505060405180910390f35b6109766004803603602081101561096057600080fd5b8101908080359060200190929190505050612411565b005b610980612475565b6040518082815260200191505060405180910390f35b61099e61247a565b6040518082815260200191505060405180910390f35b6109bc61247f565b005b6109c66126e8565b6040518082815260200191505060405180910390f35b6109e46126ee565b604051808273ffffffffffffffffffffffffffffffffffffffff1673ffffffffffffffffffffffffffffffffffffffff16815260200191505060405180910390f35b610a2e612714565b005b60125481565b600e60009054906101000a900473ffffffffffffffffffffffffffffffffffffffff1681565b600160009054906101000a900473ffffffffffffffffffffffffffffffffffffffff1673ffffffffffffffffffffffffffffffffffffffff163373ffffffffffffffffffffffffffffffffffffffff1614610ab657600080fd5b600260065414610ac557600080fd5b6000600760009054906101000a900473ffffffffffffffffffffffffffffffffffffffff1673ffffffffffffffffffffffffffffffffffffffff166323b872dd600160009054906101000a900473ffffffffffffffffffffffffffffffffffffffff16600f60009054906101000a900473ffffffffffffffffffffffffffffffffffffffff16600b546040518463ffffffff1660e01b8152600401808473ffffffffffffffffffffffffffffffffffffffff1673ffffffffffffffffffffffffffffffffffffffff1681526020018373ffffffffffffffffffffffffffffffffffffffff1673ffffffffffffffffffffffffffffffffffffffff1681526020018281526020019350505050602060405180830381600087803b158015610bea57600080fd5b505af1158015610bfe573d6000803e3d6000fd5b505050506040513d6020811015610c1457600080fd5b8101908080519060200190929190505050905080610c3157600080fd5b600360068190555050565b600581565b426005541115610c5057600080fd5b600060045411610c5f57600080fd5b6000601060009054906101000a900473ffffffffffffffffffffffffffffffffffffffff1673ffffffffffffffffffffffffffffffffffffffff166314627962600360009054906101000a900473ffffffffffffffffffffffffffffffffffffffff166004546040518363ffffffff1660e01b8152600401808373ffffffffffffffffffffffffffffffffffffffff1673ffffffffffffffffffffffffffffffffffffffff16815260200182815260200192505050602060405180830381600087803b158015610d2e57600080fd5b505af1158015610d42573d6000803e3d6000fd5b505050506040513d6020811015610d5857600080fd5b8101908080519060200190929190505050905080610d7557600080fd5b6000601160009054906101000a900473ffffffffffffffffffffffffffffffffffffffff1673ffffffffffffffffffffffffffffffffffffffff166314627962600260009054906101000a900473ffffffffffffffffffffffffffffffffffffffff16600b546040518363ffffffff1660e01b8152600401808373ffffffffffffffffffffffffffffffffffffffff1673ffffffffffffffffffffffffffffffffffffffff16815260200182815260200192505050602060405180830381600087803b158015610e4457600080fd5b505af1158015610e58573d6000803e3d6000fd5b505050506040513d6020811015610e6e57600080fd5b8101908080519060200190929190505050905080610e8b57600080fd5b6000600860009054906101000a900473ffffffffffffffffffffffffffffffffffffffff1673ffffffffffffffffffffffffffffffffffffffff166323b872dd600e60009054906101000a900473ffffffffffffffffffffffffffffffffffffffff16600f60009054906101000a900473ffffffffffffffffffffffffffffffffffffffff166004546040518463ffffffff1660e01b8152600401808473ffffffffffffffffffffffffffffffffffffffff1673ffffffffffffffffffffffffffffffffffffffff1681526020018373ffffffffffffffffffffffffffffffffffffffff1673ffffffffffffffffffffffffffffffffffffffff1681526020018281526020019350505050602060405180830381600087803b158015610fb057600080fd5b505af1158015610fc4573d6000803e3d6000fd5b505050506040513d6020811015610fda57600080fd5b8101908080519060200190929190505050905080610ff757600080fd5b6000600760009054906101000a900473ffffffffffffffffffffffffffffffffffffffff1673ffffffffffffffffffffffffffffffffffffffff166323b872dd600f60009054906101000a900473ffffffffffffffffffffffffffffffffffffffff16600e60009054906101000a900473ffffffffffffffffffffffffffffffffffffffff16600b546040518463ffffffff1660e01b8152600401808473ffffffffffffffffffffffffffffffffffffffff1673ffffffffffffffffffffffffffffffffffffffff1681526020018373ffffffffffffffffffffffffffffffffffffffff1673ffffffffffffffffffffffffffffffffffffffff1681526020018281526020019350505050602060405180830381600087803b15801561111c57600080fd5b505af1158015611130573d6000803e3d6000fd5b505050506040513d602081101561114657600080fd5b810190808051906020019092919050505090508061116357600080fd5b6000601060009054906101000a900473ffffffffffffffffffffffffffffffffffffffff1673ffffffffffffffffffffffffffffffffffffffff16639ab849ea600260009054906101000a900473ffffffffffffffffffffffffffffffffffffffff166040518263ffffffff1660e01b8152600401808273ffffffffffffffffffffffffffffffffffffffff1673ffffffffffffffffffffffffffffffffffffffff16815260200191505060206040518083038186803b15801561122657600080fd5b505afa15801561123a573d6000803e3d6000fd5b505050506040513d602081101561125057600080fd5b81019080805190602001909291905050509050601060009054906101000a900473ffffffffffffffffffffffffffffffffffffffff1673ffffffffffffffffffffffffffffffffffffffff166302e4c75c600260009054906101000a900473ffffffffffffffffffffffffffffffffffffffff1660125484016040518363ffffffff1660e01b8152600401808373ffffffffffffffffffffffffffffffffffffffff1673ffffffffffffffffffffffffffffffffffffffff16815260200182815260200192505050600060405180830381600087803b15801561133257600080fd5b505af1158015611346573d6000803e3d6000fd5b505050506000601160009054906101000a900473ffffffffffffffffffffffffffffffffffffffff1673ffffffffffffffffffffffffffffffffffffffff16639ab849ea600360009054906101000a900473ffffffffffffffffffffffffffffffffffffffff166040518263ffffffff1660e01b8152600401808273ffffffffffffffffffffffffffffffffffffffff1673ffffffffffffffffffffffffffffffffffffffff16815260200191505060206040518083038186803b15801561140d57600080fd5b505afa158015611421573d6000803e3d6000fd5b505050506040513d602081101561143757600080fd5b81019080805190602001909291905050509050601160009054906101000a900473ffffffffffffffffffffffffffffffffffffffff1673ffffffffffffffffffffffffffffffffffffffff166302e4c75c600360009054906101000a900473ffffffffffffffffffffffffffffffffffffffff1660135484016040518363ffffffff1660e01b8152600401808373ffffffffffffffffffffffffffffffffffffffff1673ffffffffffffffffffffffffffffffffffffffff16815260200182815260200192505050600060405180830381600087803b15801561151957600080fd5b505af115801561152d573d6000803e3d6000fd5b5050505060006004819055506000600b81905550600060138190555060006012819055506005600681905550505050505050565b600181565b600b5481565b600481565b6000809054906101000a900473ffffffffffffffffffffffffffffffffffffffff1681565b600860009054906101000a900473ffffffffffffffffffffffffffffffffffffffff1681565b601460009054906101000a900473ffffffffffffffffffffffffffffffffffffffff1681565b600160009054906101000a900473ffffffffffffffffffffffffffffffffffffffff1673ffffffffffffffffffffffffffffffffffffffff163373ffffffffffffffffffffffffffffffffffffffff161461163c57600080fd5b600d60009054906101000a900473ffffffffffffffffffffffffffffffffffffffff1673ffffffffffffffffffffffffffffffffffffffff1663cbd94cc4826040518263ffffffff1660e01b8152600401808273ffffffffffffffffffffffffffffffffffffffff1673ffffffffffffffffffffffffffffffffffffffff16815260200191505060206040518083038186803b1580156116db57600080fd5b505afa1580156116ef573d6000803e3d6000fd5b505050506040513d602081101561170557600080fd5b810190808051906020019092919050505061171f57600080fd5b6000601160009054906101000a900473ffffffffffffffffffffffffffffffffffffffff1673ffffffffffffffffffffffffffffffffffffffff1663c2bc745030846040518363ffffffff1660e01b8152600401808373ffffffffffffffffffffffffffffffffffffffff1673ffffffffffffffffffffffffffffffffffffffff1681526020018273ffffffffffffffffffffffffffffffffffffffff1673ffffffffffffffffffffffffffffffffffffffff16815260200192505050602060405180830381600087803b1580156117f657600080fd5b505af115801561180a573d6000803e3d6000fd5b505050506040513d602081101561182057600080fd5b810190808051906020019092919050505090508061183d57600080fd5b81601560006101000a81548173ffffffffffffffffffffffffffffffffffffffff021916908373ffffffffffffffffffffffffffffffffffffffff160217905550611886611bc0565b5050565b600760009054906101000a900473ffffffffffffffffffffffffffffffffffffffff1681565b6000809054906101000a900473ffffffffffffffffffffffffffffffffffffffff1673ffffffffffffffffffffffffffffffffffffffff163373ffffffffffffffffffffffffffffffffffffffff161461190957600080fd5b600d60009054906101000a900473ffffffffffffffffffffffffffffffffffffffff1673ffffffffffffffffffffffffffffffffffffffff1663cbd94cc4826040518263ffffffff1660e01b8152600401808273ffffffffffffffffffffffffffffffffffffffff1673ffffffffffffffffffffffffffffffffffffffff16815260200191505060206040518083038186803b1580156119a857600080fd5b505afa1580156119bc573d6000803e3d6000fd5b505050506040513d60208110156119d257600080fd5b81019080805190602001909291905050506119ec57600080fd5b6000601060009054906101000a900473ffffffffffffffffffffffffffffffffffffffff1673ffffffffffffffffffffffffffffffffffffffff166358ec5c0430846040518363ffffffff1660e01b8152600401808373ffffffffffffffffffffffffffffffffffffffff1673ffffffffffffffffffffffffffffffffffffffff1681526020018273ffffffffffffffffffffffffffffffffffffffff1673ffffffffffffffffffffffffffffffffffffffff16815260200192505050602060405180830381600087803b158015611ac357600080fd5b505af1158015611ad7573d6000803e3d6000fd5b505050506040513d6020811015611aed57600080fd5b8101908080519060200190929190505050905080611b0a57600080fd5b81601460006101000a81548173ffffffffffffffffffffffffffffffffffffffff021916908373ffffffffffffffffffffffffffffffffffffffff160217905550611b5361247f565b5050565b600281565b600e60009054906101000a900473ffffffffffffffffffffffffffffffffffffffff1673ffffffffffffffffffffffffffffffffffffffff163373ffffffffffffffffffffffffffffffffffffffff1614611bb657600080fd5b8060128190555050565b600160009054906101000a900473ffffffffffffffffffffffffffffffffffffffff1673ffffffffffffffffffffffffffffffffffffffff163373ffffffffffffffffffffffffffffffffffffffff1614611c1a57600080fd5b600260065414611c2957600080fd5b6000601160009054906101000a900473ffffffffffffffffffffffffffffffffffffffff1673ffffffffffffffffffffffffffffffffffffffff16639ab849ea600260009054906101000a900473ffffffffffffffffffffffffffffffffffffffff166040518263ffffffff1660e01b8152600401808273ffffffffffffffffffffffffffffffffffffffff1673ffffffffffffffffffffffffffffffffffffffff16815260200191505060206040518083038186803b158015611cec57600080fd5b505afa158015611d00573d6000803e3d6000fd5b505050506040513d6020811015611d1657600080fd5b81019080805190602001909291905050509050600b54811015611d3857600080fd5b601160009054906101000a900473ffffffffffffffffffffffffffffffffffffffff1673ffffffffffffffffffffffffffffffffffffffff166302e4c75c600260009054906101000a900473ffffffffffffffffffffffffffffffffffffffff16600b5484036040518363ffffffff1660e01b8152600401808373ffffffffffffffffffffffffffffffffffffffff1673ffffffffffffffffffffffffffffffffffffffff16815260200182815260200192505050600060405180830381600087803b158015611e0757600080fd5b505af1158015611e1b573d6000803e3d6000fd5b50505050600360068190555050565b600360009054906101000a900473ffffffffffffffffffffffffffffffffffffffff1681565b60135481565b600080600080600080600e60009054906101000a900473ffffffffffffffffffffffffffffffffffffffff16600f60009054906101000a900473ffffffffffffffffffffffffffffffffffffffff16601254601354601460009054906101000a900473ffffffffffffffffffffffffffffffffffffffff16601560009054906101000a900473ffffffffffffffffffffffffffffffffffffffff16955095509550955095509550909192939495565b600160009054906101000a900473ffffffffffffffffffffffffffffffffffffffff1681565b6000809054906101000a900473ffffffffffffffffffffffffffffffffffffffff1673ffffffffffffffffffffffffffffffffffffffff163373ffffffffffffffffffffffffffffffffffffffff1614611f8457600080fd5b600260065414611f9357600080fd5b60056006541415611fa357600080fd5b6000600860009054906101000a900473ffffffffffffffffffffffffffffffffffffffff1673ffffffffffffffffffffffffffffffffffffffff1663a9059cbb600e60009054906101000a900473ffffffffffffffffffffffffffffffffffffffff166004546040518363ffffffff1660e01b8152600401808373ffffffffffffffffffffffffffffffffffffffff1673ffffffffffffffffffffffffffffffffffffffff16815260200182815260200192505050602060405180830381600087803b15801561207257600080fd5b505af1158015612086573d6000803e3d6000fd5b505050506040513d602081101561209c57600080fd5b81019080805190602001909291905050509050806120b957600080fd5b6000601060009054906101000a900473ffffffffffffffffffffffffffffffffffffffff1673ffffffffffffffffffffffffffffffffffffffff16639ab849ea600360009054906101000a900473ffffffffffffffffffffffffffffffffffffffff166040518263ffffffff1660e01b8152600401808273ffffffffffffffffffffffffffffffffffffffff1673ffffffffffffffffffffffffffffffffffffffff16815260200191505060206040518083038186803b15801561217c57600080fd5b505afa158015612190573d6000803e3d6000fd5b505050506040513d60208110156121a657600080fd5b81019080805190602001909291905050509050601060009054906101000a900473ffffffffffffffffffffffffffffffffffffffff1673ffffffffffffffffffffffffffffffffffffffff166302e4c75c600360009054906101000a900473ffffffffffffffffffffffffffffffffffffffff1660045484016040518363ffffffff1660e01b8152600401808373ffffffffffffffffffffffffffffffffffffffff1673ffffffffffffffffffffffffffffffffffffffff16815260200182815260200192505050600060405180830381600087803b15801561228857600080fd5b505af115801561229c573d6000803e3d6000fd5b5050505060056006819055505050565b601060009054906101000a900473ffffffffffffffffffffffffffffffffffffffff1681565b60055481565b600260009054906101000a900473ffffffffffffffffffffffffffffffffffffffff1681565b600061232b601560009054906101000a900473ffffffffffffffffffffffffffffffffffffffff166128f2565b50612357601460009054906101000a900473ffffffffffffffffffffffffffffffffffffffff166128f2565b50612360610c41565b6001905090565b60095481565b601560009054906101000a900473ffffffffffffffffffffffffffffffffffffffff1681565b600c60009054906101000a900473ffffffffffffffffffffffffffffffffffffffff1681565b60065481565b600d60009054906101000a900473ffffffffffffffffffffffffffffffffffffffff1681565b60045481565b601160009054906101000a900473ffffffffffffffffffffffffffffffffffffffff1681565b600f60009054906101000a900473ffffffffffffffffffffffffffffffffffffffff1673ffffffffffffffffffffffffffffffffffffffff163373ffffffffffffffffffffffffffffffffffffffff161461246b57600080fd5b8060138190555050565b600381565b600081565b6000809054906101000a900473ffffffffffffffffffffffffffffffffffffffff1673ffffffffffffffffffffffffffffffffffffffff163373ffffffffffffffffffffffffffffffffffffffff16146124d857600080fd5b6001600654146124e757600080fd5b6000601060009054906101000a900473ffffffffffffffffffffffffffffffffffffffff1673ffffffffffffffffffffffffffffffffffffffff16639ab849ea600360009054906101000a900473ffffffffffffffffffffffffffffffffffffffff166040518263ffffffff1660e01b8152600401808273ffffffffffffffffffffffffffffffffffffffff1673ffffffffffffffffffffffffffffffffffffffff16815260200191505060206040518083038186803b1580156125aa57600080fd5b505afa1580156125be573d6000803e3d6000fd5b505050506040513d60208110156125d457600080fd5b810190808051906020019092919050505090506004548110156125f657600080fd5b601060009054906101000a900473ffffffffffffffffffffffffffffffffffffffff1673ffffffffffffffffffffffffffffffffffffffff166302e4c75c600360009054906101000a900473ffffffffffffffffffffffffffffffffffffffff1660045484036040518363ffffffff1660e01b8152600401808373ffffffffffffffffffffffffffffffffffffffff1673ffffffffffffffffffffffffffffffffffffffff16815260200182815260200192505050600060405180830381600087803b1580156126c557600080fd5b505af11580156126d9573d6000803e3d6000fd5b50505050600260068190555050565b600a5481565b600f60009054906101000a900473ffffffffffffffffffffffffffffffffffffffff1681565b6000809054906101000a900473ffffffffffffffffffffffffffffffffffffffff1673ffffffffffffffffffffffffffffffffffffffff163373ffffffffffffffffffffffffffffffffffffffff161461276d57600080fd5b60016006541461277c57600080fd5b6000600860009054906101000a900473ffffffffffffffffffffffffffffffffffffffff1673ffffffffffffffffffffffffffffffffffffffff166323b872dd6000809054906101000a900473ffffffffffffffffffffffffffffffffffffffff16600e60009054906101000a900473ffffffffffffffffffffffffffffffffffffffff166004546040518463ffffffff1660e01b8152600401808473ffffffffffffffffffffffffffffffffffffffff1673ffffffffffffffffffffffffffffffffffffffff1681526020018373ffffffffffffffffffffffffffffffffffffffff1673ffffffffffffffffffffffffffffffffffffffff1681526020018281526020019350505050602060405180830381600087803b1580156128a057600080fd5b505af11580156128b4573d6000803e3d6000fd5b505050506040513d60208110156128ca57600080fd5b81019080805190602001909291905050509050806128e757600080fd5b600260068190555050565b60008082905060058173ffffffffffffffffffffffffffffffffffffffff1663c19d93fb6040518163ffffffff1660e01b815260040160206040518083038186803b15801561294057600080fd5b505afa158015612954573d6000803e3d6000fd5b505050506040513d602081101561296a57600080fd5b810190808051906020019092919050505014612a05578073ffffffffffffffffffffffffffffffffffffffff1663b019923d6040518163ffffffff1660e01b8152600401602060405180830381600087803b1580156129c857600080fd5b505af11580156129dc573d6000803e3d6000fd5b505050506040513d60208110156129f257600080fd5b8101908080519060200190929190505050505b600191505091905056fea165627a7a72305820f39c7bc6083f27a4920fd83dc80a5a68fea5a146116b624b2d90f6b560c4ea300029a165627a7a72305820fbf953ae7cee385b28f3d7b51d9e5b4a8d3e11ed4568fae6ee9325709795816d0029",
  "source": "pragma solidity >=0.4.21 <0.6.0;\n\nimport \"../forwards/ManagedForward.sol\";\n\ncontract ManagedForwardFactory {\n  event NewManagedForward(address managed_forward);\n\n  mapping(address => bool) public created_managed_forwards;\n\n  function create_managed_forward(address _issuer, address _buyer,\n                                  address _base_addr, address _asset_addr,\n                                  uint256 _strike_price_base, uint256 _strike_price_quote,\n                                  uint256 _volume,\n                                  uint256 _maturity_time,\n                                  address _issuer_portfolio_addr, address _buyer_portfolio_addr)\n      public returns (address) {\n    ManagedForward managed_forward = new ManagedForward(_issuer, _buyer,\n                                                        _base_addr, _asset_addr,\n                                                        _strike_price_base, _strike_price_quote,\n                                                        _volume,\n                                                        _maturity_time,\n                                                        _issuer_portfolio_addr, _buyer_portfolio_addr);\n    created_managed_forwards[address(managed_forward)] = true;\n    emit NewManagedForward(address(managed_forward));\n    return address(managed_forward);\n  }\n\n  function get_created_forward(address created_forward_address) public view returns (bool) {\n    return created_managed_forwards[created_forward_address];\n  }\n}\n",
  "sourcePath": "/Users/Karim/Desktop/atomicoptions/contracts/src/factories/ManagedForwardFactory.sol",
  "compiler": {
    "name": "solc",
    "version": "0.5.8+commit.23d335f2.Emscripten.clang"
  },
  "schemaVersion": "3.0.16",
  "updatedAt": "2019-10-17T19:46:40.027Z",
  "devdoc": {
    "methods": {}
  },
  "userdoc": {
    "methods": {}
  }
}