{
  "contractName": "Option",
  "abi": [
    {
      "constant": true,
      "inputs": [],
      "name": "STATE_EXPIRED",
      "outputs": [
        {
          "name": "",
          "type": "uint256"
        }
      ],
      "payable": false,
      "stateMutability": "view",
      "type": "function"
    },
    {
      "constant": true,
      "inputs": [],
      "name": "STATE_INITIALIZED",
      "outputs": [
        {
          "name": "",
          "type": "uint256"
        }
      ],
      "payable": false,
      "stateMutability": "view",
      "type": "function"
    },
    {
      "constant": true,
      "inputs": [],
      "name": "STATE_EXERCISED",
      "outputs": [
        {
          "name": "",
          "type": "uint256"
        }
      ],
      "payable": false,
      "stateMutability": "view",
      "type": "function"
    },
    {
      "constant": true,
      "inputs": [],
      "name": "issuer",
      "outputs": [
        {
          "name": "",
          "type": "address"
        }
      ],
      "payable": false,
      "stateMutability": "view",
      "type": "function"
    },
    {
      "constant": false,
      "inputs": [
        {
          "name": "_to",
          "type": "address"
        }
      ],
      "name": "transfer_issuer",
      "outputs": [],
      "payable": false,
      "stateMutability": "nonpayable",
      "type": "function"
    },
    {
      "constant": true,
      "inputs": [],
      "name": "asset",
      "outputs": [
        {
          "name": "",
          "type": "address"
        }
      ],
      "payable": false,
      "stateMutability": "view",
      "type": "function"
    },
    {
      "constant": true,
      "inputs": [],
      "name": "base",
      "outputs": [
        {
          "name": "",
          "type": "address"
        }
      ],
      "payable": false,
      "stateMutability": "view",
      "type": "function"
    },
    {
      "constant": true,
      "inputs": [],
      "name": "STATE_COLLATERALIZED",
      "outputs": [
        {
          "name": "",
          "type": "uint256"
        }
      ],
      "payable": false,
      "stateMutability": "view",
      "type": "function"
    },
    {
      "constant": true,
      "inputs": [],
      "name": "asset_addr",
      "outputs": [
        {
          "name": "",
          "type": "address"
        }
      ],
      "payable": false,
      "stateMutability": "view",
      "type": "function"
    },
    {
      "constant": true,
      "inputs": [],
      "name": "buyer",
      "outputs": [
        {
          "name": "",
          "type": "address"
        }
      ],
      "payable": false,
      "stateMutability": "view",
      "type": "function"
    },
    {
      "constant": false,
      "inputs": [],
      "name": "expire",
      "outputs": [],
      "payable": false,
      "stateMutability": "nonpayable",
      "type": "function"
    },
    {
      "constant": true,
      "inputs": [],
      "name": "maturity_time",
      "outputs": [
        {
          "name": "",
          "type": "uint256"
        }
      ],
      "payable": false,
      "stateMutability": "view",
      "type": "function"
    },
    {
      "constant": false,
      "inputs": [],
      "name": "pay_fee",
      "outputs": [],
      "payable": false,
      "stateMutability": "nonpayable",
      "type": "function"
    },
    {
      "constant": true,
      "inputs": [],
      "name": "base_addr",
      "outputs": [
        {
          "name": "",
          "type": "address"
        }
      ],
      "payable": false,
      "stateMutability": "view",
      "type": "function"
    },
    {
      "constant": true,
      "inputs": [],
      "name": "strike_price_base",
      "outputs": [
        {
          "name": "",
          "type": "uint256"
        }
      ],
      "payable": false,
      "stateMutability": "view",
      "type": "function"
    },
    {
      "constant": true,
      "inputs": [],
      "name": "state",
      "outputs": [
        {
          "name": "",
          "type": "uint256"
        }
      ],
      "payable": false,
      "stateMutability": "view",
      "type": "function"
    },
    {
      "constant": true,
      "inputs": [],
      "name": "volume",
      "outputs": [
        {
          "name": "",
          "type": "uint256"
        }
      ],
      "payable": false,
      "stateMutability": "view",
      "type": "function"
    },
    {
      "constant": true,
      "inputs": [],
      "name": "STATE_ACTIVE",
      "outputs": [
        {
          "name": "",
          "type": "uint256"
        }
      ],
      "payable": false,
      "stateMutability": "view",
      "type": "function"
    },
    {
      "constant": true,
      "inputs": [],
      "name": "STATE_UNINITIALIZED",
      "outputs": [
        {
          "name": "",
          "type": "uint256"
        }
      ],
      "payable": false,
      "stateMutability": "view",
      "type": "function"
    },
    {
      "constant": false,
      "inputs": [
        {
          "name": "_to",
          "type": "address"
        }
      ],
      "name": "transfer_buyer",
      "outputs": [],
      "payable": false,
      "stateMutability": "nonpayable",
      "type": "function"
    },
    {
      "constant": true,
      "inputs": [],
      "name": "fee",
      "outputs": [
        {
          "name": "",
          "type": "uint256"
        }
      ],
      "payable": false,
      "stateMutability": "view",
      "type": "function"
    },
    {
      "constant": true,
      "inputs": [],
      "name": "strike_price_quote",
      "outputs": [
        {
          "name": "",
          "type": "uint256"
        }
      ],
      "payable": false,
      "stateMutability": "view",
      "type": "function"
    },
    {
      "constant": false,
      "inputs": [],
      "name": "collateralize",
      "outputs": [],
      "payable": false,
      "stateMutability": "nonpayable",
      "type": "function"
    },
    {
      "constant": true,
      "inputs": [],
      "name": "expiry_time",
      "outputs": [
        {
          "name": "",
          "type": "uint256"
        }
      ],
      "payable": false,
      "stateMutability": "view",
      "type": "function"
    },
    {
      "inputs": [
        {
          "name": "_issuer",
          "type": "address"
        },
        {
          "name": "_buyer",
          "type": "address"
        },
        {
          "name": "_base_addr",
          "type": "address"
        },
        {
          "name": "_asset_addr",
          "type": "address"
        },
        {
          "name": "_fee",
          "type": "uint256"
        },
        {
          "name": "_strike_price_base",
          "type": "uint256"
        },
        {
          "name": "_strike_price_quote",
          "type": "uint256"
        },
        {
          "name": "_volume",
          "type": "uint256"
        },
        {
          "name": "_maturity_time",
          "type": "uint256"
        },
        {
          "name": "_expiry_time",
          "type": "uint256"
        }
      ],
      "payable": false,
      "stateMutability": "nonpayable",
      "type": "constructor"
    },
    {
      "constant": false,
      "inputs": [
        {
          "name": "strike_price_base",
          "type": "uint256"
        },
        {
          "name": "strike_price_quote",
          "type": "uint256"
        },
        {
          "name": "salt",
          "type": "bytes32"
        },
        {
          "name": "asset_volume_exercised",
          "type": "uint256"
        }
      ],
      "name": "exercise_from_asset",
      "outputs": [],
      "payable": false,
      "stateMutability": "nonpayable",
      "type": "function"
    },
    {
      "constant": false,
      "inputs": [
        {
          "name": "asset_volume_exercised",
          "type": "uint256"
        }
      ],
      "name": "exercise_from_asset",
      "outputs": [],
      "payable": false,
      "stateMutability": "nonpayable",
      "type": "function"
    },
    {
      "constant": false,
      "inputs": [
        {
          "name": "strike_price_base",
          "type": "uint256"
        },
        {
          "name": "strike_price_quote",
          "type": "uint256"
        },
        {
          "name": "salt",
          "type": "bytes32"
        },
        {
          "name": "base_volume_exercised",
          "type": "uint256"
        }
      ],
      "name": "exercise_from_base",
      "outputs": [],
      "payable": false,
      "stateMutability": "nonpayable",
      "type": "function"
    },
    {
      "constant": false,
      "inputs": [
        {
          "name": "base_volume_exercised",
          "type": "uint256"
        }
      ],
      "name": "exercise_from_base",
      "outputs": [],
      "payable": false,
      "stateMutability": "nonpayable",
      "type": "function"
    },
    {
      "constant": true,
      "inputs": [],
      "name": "get_info",
      "outputs": [
        {
          "name": "",
          "type": "address"
        },
        {
          "name": "",
          "type": "address"
        },
        {
          "name": "",
          "type": "address"
        },
        {
          "name": "",
          "type": "address"
        },
        {
          "name": "",
          "type": "uint256"
        },
        {
          "name": "",
          "type": "uint256"
        },
        {
          "name": "",
          "type": "uint256"
        },
        {
          "name": "",
          "type": "uint256"
        },
        {
          "name": "",
          "type": "uint256"
        },
        {
          "name": "",
          "type": "uint256"
        },
        {
          "name": "",
          "type": "uint256"
        }
      ],
      "payable": false,
      "stateMutability": "view",
      "type": "function"
    }
  ],
  "bytecode": "0x608060405234801561001057600080fd5b50604051610140806117a6833981018060405261014081101561003257600080fd5b810190808051906020019092919080519060200190929190805190602001909291908051906020019092919080519060200190929190805190602001909291908051906020019092919080519060200190929190805190602001909291908051906020019092919050505089898989898787878787878786868273ffffffffffffffffffffffffffffffffffffffff168473ffffffffffffffffffffffffffffffffffffffff1614156100e457600080fd5b856000806101000a81548173ffffffffffffffffffffffffffffffffffffffff021916908373ffffffffffffffffffffffffffffffffffffffff16021790555084600160006101000a81548173ffffffffffffffffffffffffffffffffffffffff021916908373ffffffffffffffffffffffffffffffffffffffff16021790555083600260006101000a81548173ffffffffffffffffffffffffffffffffffffffff021916908373ffffffffffffffffffffffffffffffffffffffff16021790555082600360006101000a81548173ffffffffffffffffffffffffffffffffffffffff021916908373ffffffffffffffffffffffffffffffffffffffff160217905550816004819055508060058190555083600760006101000a81548173ffffffffffffffffffffffffffffffffffffffff021916908373ffffffffffffffffffffffffffffffffffffffff16021790555082600860006101000a81548173ffffffffffffffffffffffffffffffffffffffff021916908373ffffffffffffffffffffffffffffffffffffffff16021790555060016006819055505050505050508473ffffffffffffffffffffffffffffffffffffffff168673ffffffffffffffffffffffffffffffffffffffff1614156102be57600080fd5b42811180156102cc57508181115b6102d557600080fd5b8360098190555080600a81905550505050505050505084600b8190555083600c8190555050505050505050505050611494806103126000396000f3fe608060405234801561001057600080fd5b50600436106101cf5760003560e01c8063879a031a11610104578063c618a1e4116100a2578063ddca3f4311610071578063ddca3f4314610760578063e1b8d40f1461077e578063eef9a8d51461079c578063fe3f3b81146107a6576101cf565b8063c618a1e4146106c2578063c80c0738146106e0578063d34ab68d146106fe578063ddb0c86c1461071c576101cf565b80639f771e1e116100de5780639f771e1e14610632578063a77f55991461063c578063ba22158514610686578063c19d93fb146106a4576101cf565b8063879a031a146105b857806396f5a49f146105d65780639ce0c9bd14610604576101cf565b80635ab533ac116101715780637150d8ae1161014b5780637150d8ae146104cc57806379599f96146105165780637adce17514610520578063809629281461056c576101cf565b80635ab533ac146103505780635f7271891461036e57806360583488146103b8576101cf565b80631d143848116101ad5780631d1438481461022e57806335fe77021461027857806338d52e0f146102bc5780635001f3b514610306576101cf565b80630fa9f5e1146101d457806314b80ae6146101f257806319d83c7114610210575b600080fd5b6101dc6107c4565b6040518082815260200191505060405180910390f35b6101fa6107c9565b6040518082815260200191505060405180910390f35b6102186107ce565b6040518082815260200191505060405180910390f35b6102366107d3565b604051808273ffffffffffffffffffffffffffffffffffffffff1673ffffffffffffffffffffffffffffffffffffffff16815260200191505060405180910390f35b6102ba6004803603602081101561028e57600080fd5b81019080803573ffffffffffffffffffffffffffffffffffffffff1690602001909291905050506107f8565b005b6102c4610894565b604051808273ffffffffffffffffffffffffffffffffffffffff1673ffffffffffffffffffffffffffffffffffffffff16815260200191505060405180910390f35b61030e6108ba565b604051808273ffffffffffffffffffffffffffffffffffffffff1673ffffffffffffffffffffffffffffffffffffffff16815260200191505060405180910390f35b6103586108e0565b6040518082815260200191505060405180910390f35b6103766108e5565b604051808273ffffffffffffffffffffffffffffffffffffffff1673ffffffffffffffffffffffffffffffffffffffff16815260200191505060405180910390f35b6103c061090b565b604051808c73ffffffffffffffffffffffffffffffffffffffff1673ffffffffffffffffffffffffffffffffffffffff1681526020018b73ffffffffffffffffffffffffffffffffffffffff1673ffffffffffffffffffffffffffffffffffffffff1681526020018a73ffffffffffffffffffffffffffffffffffffffff1673ffffffffffffffffffffffffffffffffffffffff1681526020018973ffffffffffffffffffffffffffffffffffffffff1673ffffffffffffffffffffffffffffffffffffffff1681526020018881526020018781526020018681526020018581526020018481526020018381526020018281526020019b50505050505050505050505060405180910390f35b6104d46109df565b604051808273ffffffffffffffffffffffffffffffffffffffff1673ffffffffffffffffffffffffffffffffffffffff16815260200191505060405180910390f35b61051e610a05565b005b61056a6004803603608081101561053657600080fd5b8101908080359060200190929190803590602001909291908035906020019092919080359060200190929190505050610bb7565b005b6105b66004803603608081101561058257600080fd5b8101908080359060200190929190803590602001909291908035906020019092919080359060200190929190505050610bc8565b005b6105c0610bd9565b6040518082815260200191505060405180910390f35b610602600480360360208110156105ec57600080fd5b8101908080359060200190929190505050610bdf565b005b6106306004803603602081101561061a57600080fd5b8101908080359060200190929190505050610c5b565b005b61063a610cd7565b005b610644610ec4565b604051808273ffffffffffffffffffffffffffffffffffffffff1673ffffffffffffffffffffffffffffffffffffffff16815260200191505060405180910390f35b61068e610eea565b6040518082815260200191505060405180910390f35b6106ac610ef0565b6040518082815260200191505060405180910390f35b6106ca610ef6565b6040518082815260200191505060405180910390f35b6106e8610efc565b6040518082815260200191505060405180910390f35b610706610f01565b6040518082815260200191505060405180910390f35b61075e6004803603602081101561073257600080fd5b81019080803573ffffffffffffffffffffffffffffffffffffffff169060200190929190505050610f06565b005b610768610fa4565b6040518082815260200191505060405180910390f35b610786610faa565b6040518082815260200191505060405180910390f35b6107a4610fb0565b005b6107ae61116c565b6040518082815260200191505060405180910390f35b600581565b600181565b600481565b6000809054906101000a900473ffffffffffffffffffffffffffffffffffffffff1681565b6000809054906101000a900473ffffffffffffffffffffffffffffffffffffffff1673ffffffffffffffffffffffffffffffffffffffff163373ffffffffffffffffffffffffffffffffffffffff161461085157600080fd5b806000806101000a81548173ffffffffffffffffffffffffffffffffffffffff021916908373ffffffffffffffffffffffffffffffffffffffff16021790555050565b600860009054906101000a900473ffffffffffffffffffffffffffffffffffffffff1681565b600760009054906101000a900473ffffffffffffffffffffffffffffffffffffffff1681565b600281565b600360009054906101000a900473ffffffffffffffffffffffffffffffffffffffff1681565b60008060008060008060008060008060008060009054906101000a900473ffffffffffffffffffffffffffffffffffffffff16600160009054906101000a900473ffffffffffffffffffffffffffffffffffffffff16600260009054906101000a900473ffffffffffffffffffffffffffffffffffffffff16600360009054906101000a900473ffffffffffffffffffffffffffffffffffffffff16600954600b54600c54600454600554600a546006549a509a509a509a509a509a509a509a509a509a509a50909192939495969798999a565b600160009054906101000a900473ffffffffffffffffffffffffffffffffffffffff1681565b6000809054906101000a900473ffffffffffffffffffffffffffffffffffffffff1673ffffffffffffffffffffffffffffffffffffffff163373ffffffffffffffffffffffffffffffffffffffff1614610a5e57600080fd5b42600a54111580610a7157506002600654145b80610a7e57506000600454145b610a8757600080fd5b60056006541415610a9757600080fd5b6000600860009054906101000a900473ffffffffffffffffffffffffffffffffffffffff1673ffffffffffffffffffffffffffffffffffffffff1663a9059cbb6000809054906101000a900473ffffffffffffffffffffffffffffffffffffffff166004546040518363ffffffff1660e01b8152600401808373ffffffffffffffffffffffffffffffffffffffff1673ffffffffffffffffffffffffffffffffffffffff16815260200182815260200192505050602060405180830381600087803b158015610b6557600080fd5b505af1158015610b79573d6000803e3d6000fd5b505050506040513d6020811015610b8f57600080fd5b8101908080519060200190929190505050905080610bac57600080fd5b600560068190555050565b6000610bc257600080fd5b50505050565b6000610bd357600080fd5b50505050565b60055481565b600160009054906101000a900473ffffffffffffffffffffffffffffffffffffffff1673ffffffffffffffffffffffffffffffffffffffff163373ffffffffffffffffffffffffffffffffffffffff1614610c3957600080fd5b6000600c54600b54830281610c4a57fe5b049050610c578183611172565b5050565b600160009054906101000a900473ffffffffffffffffffffffffffffffffffffffff1673ffffffffffffffffffffffffffffffffffffffff163373ffffffffffffffffffffffffffffffffffffffff1614610cb557600080fd5b6000600b54600c54830281610cc657fe5b049050610cd38282611172565b5050565b600160009054906101000a900473ffffffffffffffffffffffffffffffffffffffff1673ffffffffffffffffffffffffffffffffffffffff163373ffffffffffffffffffffffffffffffffffffffff1614610d3157600080fd5b600260065414610d4057600080fd5b42600a5411610d4e57600080fd5b6000600760009054906101000a900473ffffffffffffffffffffffffffffffffffffffff1673ffffffffffffffffffffffffffffffffffffffff166323b872dd600160009054906101000a900473ffffffffffffffffffffffffffffffffffffffff166000809054906101000a900473ffffffffffffffffffffffffffffffffffffffff166009546040518463ffffffff1660e01b8152600401808473ffffffffffffffffffffffffffffffffffffffff1673ffffffffffffffffffffffffffffffffffffffff1681526020018373ffffffffffffffffffffffffffffffffffffffff1673ffffffffffffffffffffffffffffffffffffffff1681526020018281526020019350505050602060405180830381600087803b158015610e7257600080fd5b505af1158015610e86573d6000803e3d6000fd5b505050506040513d6020811015610e9c57600080fd5b8101908080519060200190929190505050905080610eb957600080fd5b600360068190555050565b600260009054906101000a900473ffffffffffffffffffffffffffffffffffffffff1681565b600b5481565b60065481565b60045481565b600381565b600081565b600160009054906101000a900473ffffffffffffffffffffffffffffffffffffffff1673ffffffffffffffffffffffffffffffffffffffff163373ffffffffffffffffffffffffffffffffffffffff1614610f6057600080fd5b80600160006101000a81548173ffffffffffffffffffffffffffffffffffffffff021916908373ffffffffffffffffffffffffffffffffffffffff16021790555050565b60095481565b600c5481565b6000809054906101000a900473ffffffffffffffffffffffffffffffffffffffff1673ffffffffffffffffffffffffffffffffffffffff163373ffffffffffffffffffffffffffffffffffffffff161461100957600080fd5b60016006541461101857600080fd5b6000600860009054906101000a900473ffffffffffffffffffffffffffffffffffffffff1673ffffffffffffffffffffffffffffffffffffffff166323b872dd6000809054906101000a900473ffffffffffffffffffffffffffffffffffffffff16306004546040518463ffffffff1660e01b8152600401808473ffffffffffffffffffffffffffffffffffffffff1673ffffffffffffffffffffffffffffffffffffffff1681526020018373ffffffffffffffffffffffffffffffffffffffff1673ffffffffffffffffffffffffffffffffffffffff1681526020018281526020019350505050602060405180830381600087803b15801561111a57600080fd5b505af115801561112e573d6000803e3d6000fd5b505050506040513d602081101561114457600080fd5b810190808051906020019092919050505090508061116157600080fd5b600260068190555050565b600a5481565b42600a5411801561118557504260055411155b61118e57600080fd5b600360065414806111a157506004600654145b6111aa57600080fd5b600082116111b757600080fd5b6000811180156111c957506004548111155b6111d257600080fd5b6000600760009054906101000a900473ffffffffffffffffffffffffffffffffffffffff1673ffffffffffffffffffffffffffffffffffffffff166323b872dd600160009054906101000a900473ffffffffffffffffffffffffffffffffffffffff166000809054906101000a900473ffffffffffffffffffffffffffffffffffffffff16866040518463ffffffff1660e01b8152600401808473ffffffffffffffffffffffffffffffffffffffff1673ffffffffffffffffffffffffffffffffffffffff1681526020018373ffffffffffffffffffffffffffffffffffffffff1673ffffffffffffffffffffffffffffffffffffffff1681526020018281526020019350505050602060405180830381600087803b1580156112f457600080fd5b505af1158015611308573d6000803e3d6000fd5b505050506040513d602081101561131e57600080fd5b810190808051906020019092919050505090508061133b57600080fd5b6000600860009054906101000a900473ffffffffffffffffffffffffffffffffffffffff1673ffffffffffffffffffffffffffffffffffffffff1663a9059cbb600160009054906101000a900473ffffffffffffffffffffffffffffffffffffffff16856040518363ffffffff1660e01b8152600401808373ffffffffffffffffffffffffffffffffffffffff1673ffffffffffffffffffffffffffffffffffffffff16815260200182815260200192505050602060405180830381600087803b15801561140857600080fd5b505af115801561141c573d6000803e3d6000fd5b505050506040513d602081101561143257600080fd5b810190808051906020019092919050505090508061144f57600080fd5b826004540360048190555060046006819055505050505056fea165627a7a72305820df762e7868913ab4249e6995a1bb0eada2f01ab736b2d35b8b5a611c9de31b550029",
  "source": "pragma solidity >=0.4.21 <0.6.0;\n\nimport \"../../lib/openzeppelin-solidity/ERC20.sol\";\nimport \"../parent_contracts/OptionCommon.sol\";\n\n/**\n * @title Option\n * @dev Basic Option\n */\ncontract Option is OptionCommon {\n  // // Strike price [i.e. (strike_price_quote * base_volume) / strike_price_base  = asset_volume]\n  uint256 public strike_price_base;\n  uint256 public strike_price_quote;\n\n  constructor(address _issuer, address _buyer,\n              address _base_addr, address _asset_addr,\n              uint256 _fee,\n              uint256 _strike_price_base, uint256 _strike_price_quote,\n              uint256 _volume,\n              uint256 _maturity_time, uint256 _expiry_time)\n    OptionCommon(_issuer, _buyer,\n                  _base_addr, _asset_addr,\n                  _fee,\n                  _volume,\n                  _maturity_time, _expiry_time) public {\n    strike_price_base = _strike_price_base;\n    strike_price_quote = _strike_price_quote;\n  }\n\n  // // Exercise wrappers: can only be called by buyer.\n  // Specify how many to buy\n  function exercise_from_asset(uint256 asset_volume_exercised) public {\n    require(msg.sender == buyer);\n\n    uint256 base_volume_exercised = (asset_volume_exercised * strike_price_base) / strike_price_quote;\n\n    exercise_internal(base_volume_exercised, asset_volume_exercised);\n  }\n\n  // Specify how many to sell\n  function exercise_from_base(uint256 base_volume_exercised) public {\n    require(msg.sender == buyer);\n\n    uint256 asset_volume_exercised = (base_volume_exercised * strike_price_quote) / strike_price_base;\n\n    exercise_internal(base_volume_exercised, asset_volume_exercised);\n  }\n\n  // Returns all information about the contract in one go\n  function get_info() public view returns (address, address, address, address,\n                                            uint256, uint256, uint256,\n                                            uint256, uint256, uint256, uint256) {\n    return(issuer, buyer, base_addr, asset_addr,\n            fee, strike_price_base, strike_price_quote,\n            volume, maturity_time, expiry_time, state);\n  }\n}\n",
  "sourcePath": "/Users/Karim/Desktop/atomicoptions/contracts/src/options/Option.sol",
  "compiler": {
    "name": "solc",
    "version": "0.5.8+commit.23d335f2.Emscripten.clang"
  },
  "schemaVersion": "3.0.16",
  "updatedAt": "2019-11-11T18:42:59.833Z",
  "devdoc": {
    "details": "Basic Option",
    "methods": {},
    "title": "Option"
  },
  "userdoc": {
    "methods": {}
  }
}