{
  "contractName": "OptionFactory",
  "abi": [
    {
      "anonymous": false,
      "inputs": [
        {
          "indexed": false,
          "name": "option",
          "type": "address"
        }
      ],
      "name": "NewOption",
      "type": "event"
    },
    {
      "constant": false,
      "inputs": [
        {
          "name": "_issuer",
          "type": "address"
        },
        {
          "name": "_buyer",
          "type": "address"
        },
        {
          "name": "_base_addr",
          "type": "address"
        },
        {
          "name": "_asset_addr",
          "type": "address"
        },
        {
          "name": "_fee",
          "type": "uint256"
        },
        {
          "name": "_strike_price_base",
          "type": "uint256"
        },
        {
          "name": "_strike_price_quote",
          "type": "uint256"
        },
        {
          "name": "_volume",
          "type": "uint256"
        },
        {
          "name": "_maturity_time",
          "type": "uint256"
        },
        {
          "name": "_expiry_time",
          "type": "uint256"
        }
      ],
      "name": "create_option",
      "outputs": [
        {
          "name": "",
          "type": "address"
        }
      ],
      "payable": false,
      "stateMutability": "nonpayable",
      "type": "function"
    }
  ],
  "bytecode": "0x608060405234801561001057600080fd5b50611803806100206000396000f3fe608060405234801561001057600080fd5b506004361061002b5760003560e01c80631910eb7614610030575b600080fd5b61010f600480360361014081101561004757600080fd5b81019080803573ffffffffffffffffffffffffffffffffffffffff169060200190929190803573ffffffffffffffffffffffffffffffffffffffff169060200190929190803573ffffffffffffffffffffffffffffffffffffffff169060200190929190803573ffffffffffffffffffffffffffffffffffffffff169060200190929190803590602001909291908035906020019092919080359060200190929190803590602001909291908035906020019092919080359060200190929190505050610151565b604051808273ffffffffffffffffffffffffffffffffffffffff1673ffffffffffffffffffffffffffffffffffffffff16815260200191505060405180910390f35b6000808b8b8b8b8b8b8b8b8b8b60405161016a906102f7565b808b73ffffffffffffffffffffffffffffffffffffffff1673ffffffffffffffffffffffffffffffffffffffff1681526020018a73ffffffffffffffffffffffffffffffffffffffff1673ffffffffffffffffffffffffffffffffffffffff1681526020018973ffffffffffffffffffffffffffffffffffffffff1673ffffffffffffffffffffffffffffffffffffffff1681526020018873ffffffffffffffffffffffffffffffffffffffff1673ffffffffffffffffffffffffffffffffffffffff1681526020018781526020018681526020018581526020018481526020018381526020018281526020019a5050505050505050505050604051809103906000f08015801561027f573d6000803e3d6000fd5b5090507f927c4ca180dbb5c7c47fbea3d98025d87248119df45da897c7d00fcca433f83781604051808273ffffffffffffffffffffffffffffffffffffffff1673ffffffffffffffffffffffffffffffffffffffff16815260200191505060405180910390a1809150509a9950505050505050505050565b6114d3806103058339019056fe608060405234801561001057600080fd5b50604051610140806114d3833981018060405261014081101561003257600080fd5b81019080805190602001909291908051906020019092919080519060200190929190805190602001909291908051906020019092919080519060200190929190805190602001909291908051906020019092919080519060200190929190805190602001909291905050508989898989878787878787878787878373ffffffffffffffffffffffffffffffffffffffff168573ffffffffffffffffffffffffffffffffffffffff1614156100e557600080fd5b866000806101000a81548173ffffffffffffffffffffffffffffffffffffffff021916908373ffffffffffffffffffffffffffffffffffffffff16021790555085600160006101000a81548173ffffffffffffffffffffffffffffffffffffffff021916908373ffffffffffffffffffffffffffffffffffffffff16021790555084600260006101000a81548173ffffffffffffffffffffffffffffffffffffffff021916908373ffffffffffffffffffffffffffffffffffffffff16021790555083600360006101000a81548173ffffffffffffffffffffffffffffffffffffffff021916908373ffffffffffffffffffffffffffffffffffffffff16021790555082600481905550816005819055508060068190555084600860006101000a81548173ffffffffffffffffffffffffffffffffffffffff021916908373ffffffffffffffffffffffffffffffffffffffff16021790555083600960006101000a81548173ffffffffffffffffffffffffffffffffffffffff021916908373ffffffffffffffffffffffffffffffffffffffff1602179055506001600781905550505050505050508473ffffffffffffffffffffffffffffffffffffffff168673ffffffffffffffffffffffffffffffffffffffff1614156102c757600080fd5b42811180156102d557508181115b6102de57600080fd5b80600e81905550505050505050505084600f8190555083601081905550505050505050505050506111bf806103146000396000f3fe608060405234801561001057600080fd5b50600436106101735760003560e01c806396f5a49f116100de578063c618a1e411610097578063ddca3f4311610071578063ddca3f43146105e4578063e1b8d40f14610602578063eef9a8d514610620578063fe3f3b811461062a57610173565b8063c618a1e41461058a578063c80c0738146105a8578063d34ab68d146105c657610173565b806396f5a49f1461049e5780639ce0c9bd146104cc5780639f771e1e146104fa578063a77f559914610504578063ba2215851461054e578063c19d93fb1461056c57610173565b80635ab533ac116101305780635ab533ac146102b05780635f727189146102ce57806360583488146103185780637150d8ae1461042c57806379599f9614610476578063879a031a1461048057610173565b80630fa9f5e11461017857806314b80ae61461019657806319d83c71146101b45780631d143848146101d257806338d52e0f1461021c5780635001f3b514610266575b600080fd5b610180610648565b6040518082815260200191505060405180910390f35b61019e61064d565b6040518082815260200191505060405180910390f35b6101bc610652565b6040518082815260200191505060405180910390f35b6101da610657565b604051808273ffffffffffffffffffffffffffffffffffffffff1673ffffffffffffffffffffffffffffffffffffffff16815260200191505060405180910390f35b61022461067d565b604051808273ffffffffffffffffffffffffffffffffffffffff1673ffffffffffffffffffffffffffffffffffffffff16815260200191505060405180910390f35b61026e6106a3565b604051808273ffffffffffffffffffffffffffffffffffffffff1673ffffffffffffffffffffffffffffffffffffffff16815260200191505060405180910390f35b6102b86106c9565b6040518082815260200191505060405180910390f35b6102d66106ce565b604051808273ffffffffffffffffffffffffffffffffffffffff1673ffffffffffffffffffffffffffffffffffffffff16815260200191505060405180910390f35b6103206106f4565b604051808c73ffffffffffffffffffffffffffffffffffffffff1673ffffffffffffffffffffffffffffffffffffffff1681526020018b73ffffffffffffffffffffffffffffffffffffffff1673ffffffffffffffffffffffffffffffffffffffff1681526020018a73ffffffffffffffffffffffffffffffffffffffff1673ffffffffffffffffffffffffffffffffffffffff1681526020018973ffffffffffffffffffffffffffffffffffffffff1673ffffffffffffffffffffffffffffffffffffffff1681526020018881526020018781526020018681526020018581526020018481526020018381526020018281526020019b50505050505050505050505060405180910390f35b6104346107c9565b604051808273ffffffffffffffffffffffffffffffffffffffff1673ffffffffffffffffffffffffffffffffffffffff16815260200191505060405180910390f35b61047e6107ef565b005b6104886109a3565b6040518082815260200191505060405180910390f35b6104ca600480360360208110156104b457600080fd5b81019080803590602001909291905050506109a9565b005b6104f8600480360360208110156104e257600080fd5b8101908080359060200190929190505050610a25565b005b610502610a9e565b005b61050c610c8c565b604051808273ffffffffffffffffffffffffffffffffffffffff1673ffffffffffffffffffffffffffffffffffffffff16815260200191505060405180910390f35b610556610cb2565b6040518082815260200191505060405180910390f35b610574610cb8565b6040518082815260200191505060405180910390f35b610592610cbe565b6040518082815260200191505060405180910390f35b6105b0610cc4565b6040518082815260200191505060405180910390f35b6105ce610cc9565b6040518082815260200191505060405180910390f35b6105ec610cce565b6040518082815260200191505060405180910390f35b61060a610cd4565b6040518082815260200191505060405180910390f35b610628610cda565b005b610632610e96565b6040518082815260200191505060405180910390f35b600581565b600181565b600481565b600a60009054906101000a900473ffffffffffffffffffffffffffffffffffffffff1681565b600960009054906101000a900473ffffffffffffffffffffffffffffffffffffffff1681565b600860009054906101000a900473ffffffffffffffffffffffffffffffffffffffff1681565b600281565b600d60009054906101000a900473ffffffffffffffffffffffffffffffffffffffff1681565b6000806000806000806000806000806000600a60009054906101000a900473ffffffffffffffffffffffffffffffffffffffff16600b60009054906101000a900473ffffffffffffffffffffffffffffffffffffffff16600c60009054906101000a900473ffffffffffffffffffffffffffffffffffffffff16600d60009054906101000a900473ffffffffffffffffffffffffffffffffffffffff16600454600f54601054600554600654600e546007549a509a509a509a509a509a509a509a509a509a509a50909192939495969798999a565b600b60009054906101000a900473ffffffffffffffffffffffffffffffffffffffff1681565b600a60009054906101000a900473ffffffffffffffffffffffffffffffffffffffff1673ffffffffffffffffffffffffffffffffffffffff163373ffffffffffffffffffffffffffffffffffffffff161461084957600080fd5b42600e5411158061085c57506002600754145b8061086957506000600554145b61087257600080fd5b6005600754141561088257600080fd5b6000600960009054906101000a900473ffffffffffffffffffffffffffffffffffffffff1673ffffffffffffffffffffffffffffffffffffffff1663a9059cbb600a60009054906101000a900473ffffffffffffffffffffffffffffffffffffffff166005546040518363ffffffff1660e01b8152600401808373ffffffffffffffffffffffffffffffffffffffff1673ffffffffffffffffffffffffffffffffffffffff16815260200182815260200192505050602060405180830381600087803b15801561095157600080fd5b505af1158015610965573d6000803e3d6000fd5b505050506040513d602081101561097b57600080fd5b810190808051906020019092919050505090508061099857600080fd5b600560078190555050565b60065481565b600b60009054906101000a900473ffffffffffffffffffffffffffffffffffffffff1673ffffffffffffffffffffffffffffffffffffffff163373ffffffffffffffffffffffffffffffffffffffff1614610a0357600080fd5b6000601054600f54830281610a1457fe5b049050610a218183610e9c565b5050565b600b60009054906101000a900473ffffffffffffffffffffffffffffffffffffffff1673ffffffffffffffffffffffffffffffffffffffff163373ffffffffffffffffffffffffffffffffffffffff1614610a7c57fe5b6000600f54601054830281610a8d57fe5b049050610a9a8282610e9c565b5050565b600b60009054906101000a900473ffffffffffffffffffffffffffffffffffffffff1673ffffffffffffffffffffffffffffffffffffffff163373ffffffffffffffffffffffffffffffffffffffff1614610af857600080fd5b600260075414610b0757600080fd5b42600e5411610b1557600080fd5b6000600860009054906101000a900473ffffffffffffffffffffffffffffffffffffffff1673ffffffffffffffffffffffffffffffffffffffff166323b872dd600b60009054906101000a900473ffffffffffffffffffffffffffffffffffffffff16600a60009054906101000a900473ffffffffffffffffffffffffffffffffffffffff166004546040518463ffffffff1660e01b8152600401808473ffffffffffffffffffffffffffffffffffffffff1673ffffffffffffffffffffffffffffffffffffffff1681526020018373ffffffffffffffffffffffffffffffffffffffff1673ffffffffffffffffffffffffffffffffffffffff1681526020018281526020019350505050602060405180830381600087803b158015610c3a57600080fd5b505af1158015610c4e573d6000803e3d6000fd5b505050506040513d6020811015610c6457600080fd5b8101908080519060200190929190505050905080610c8157600080fd5b600360078190555050565b600c60009054906101000a900473ffffffffffffffffffffffffffffffffffffffff1681565b600f5481565b60075481565b60055481565b600381565b600081565b60045481565b60105481565b6000809054906101000a900473ffffffffffffffffffffffffffffffffffffffff1673ffffffffffffffffffffffffffffffffffffffff163373ffffffffffffffffffffffffffffffffffffffff1614610d3357600080fd5b600160075414610d4257600080fd5b6000600960009054906101000a900473ffffffffffffffffffffffffffffffffffffffff1673ffffffffffffffffffffffffffffffffffffffff166323b872dd6000809054906101000a900473ffffffffffffffffffffffffffffffffffffffff16306005546040518463ffffffff1660e01b8152600401808473ffffffffffffffffffffffffffffffffffffffff1673ffffffffffffffffffffffffffffffffffffffff1681526020018373ffffffffffffffffffffffffffffffffffffffff1673ffffffffffffffffffffffffffffffffffffffff1681526020018281526020019350505050602060405180830381600087803b158015610e4457600080fd5b505af1158015610e58573d6000803e3d6000fd5b505050506040513d6020811015610e6e57600080fd5b8101908080519060200190929190505050905080610e8b57600080fd5b600260078190555050565b600e5481565b42600e54118015610eaf57504260065411155b610eb857600080fd5b60036007541480610ecb57506004600754145b610ed457600080fd5b60008211610ee157600080fd5b600081118015610ef357506005548111155b610efc57600080fd5b6000600860009054906101000a900473ffffffffffffffffffffffffffffffffffffffff1673ffffffffffffffffffffffffffffffffffffffff166323b872dd600b60009054906101000a900473ffffffffffffffffffffffffffffffffffffffff16600a60009054906101000a900473ffffffffffffffffffffffffffffffffffffffff16866040518463ffffffff1660e01b8152600401808473ffffffffffffffffffffffffffffffffffffffff1673ffffffffffffffffffffffffffffffffffffffff1681526020018373ffffffffffffffffffffffffffffffffffffffff1673ffffffffffffffffffffffffffffffffffffffff1681526020018281526020019350505050602060405180830381600087803b15801561101f57600080fd5b505af1158015611033573d6000803e3d6000fd5b505050506040513d602081101561104957600080fd5b810190808051906020019092919050505090508061106657600080fd5b6000600960009054906101000a900473ffffffffffffffffffffffffffffffffffffffff1673ffffffffffffffffffffffffffffffffffffffff1663a9059cbb600b60009054906101000a900473ffffffffffffffffffffffffffffffffffffffff16856040518363ffffffff1660e01b8152600401808373ffffffffffffffffffffffffffffffffffffffff1673ffffffffffffffffffffffffffffffffffffffff16815260200182815260200192505050602060405180830381600087803b15801561113357600080fd5b505af1158015611147573d6000803e3d6000fd5b505050506040513d602081101561115d57600080fd5b810190808051906020019092919050505090508061117a57600080fd5b826005540360058190555060046007819055505050505056fea165627a7a7230582073c208d8f114d368f92f0734165a5e4cb8f22729b16157d0792b8dcc6591d7f10029a165627a7a7230582059ae1836ff6b21283e26d5c685339a2bfc9ff926b8aaa6cc9fb25ca4b5ae2bb60029",
  "source": "pragma solidity >=0.4.21 <0.6.0;\n\nimport \"../options/Option.sol\";\n\ncontract OptionFactory {\n  event NewOption(address option);\n  function create_option(address _issuer, address _buyer,\n                          address _base_addr, address _asset_addr,\n                          uint256 _fee,\n                          uint256 _strike_price_base, uint256 _strike_price_quote,\n                          uint256 _volume,\n                          uint256 _maturity_time, uint256 _expiry_time)\n      public returns (address) {\n    Option option = new Option(_issuer, _buyer,\n                                _base_addr, _asset_addr,\n                                _fee,\n                                _strike_price_base, _strike_price_quote,\n                                _volume,\n                                _maturity_time, _expiry_time);\n    emit NewOption(address(option));\n    return address(option);\n  }\n}\n",
  "sourcePath": "/Users/Karim/Desktop/atomicoptions/contracts/src/factories/OptionFactory.sol",
  "compiler": {
    "name": "solc",
    "version": "0.5.8+commit.23d335f2.Emscripten.clang"
  },
  "schemaVersion": "3.0.16",
  "updatedAt": "2019-10-16T02:35:29.018Z",
  "devdoc": {
    "methods": {}
  },
  "userdoc": {
    "methods": {}
  }
}