{
  "contractName": "OptionFactory",
  "abi": [
    {
      "anonymous": false,
      "inputs": [
        {
          "indexed": false,
          "name": "option",
          "type": "address"
        }
      ],
      "name": "NewOption",
      "type": "event"
    },
    {
      "constant": false,
      "inputs": [
        {
          "name": "_issuer",
          "type": "address"
        },
        {
          "name": "_buyer",
          "type": "address"
        },
        {
          "name": "_base_addr",
          "type": "address"
        },
        {
          "name": "_asset_addr",
          "type": "address"
        },
        {
          "name": "_fee",
          "type": "uint256"
        },
        {
          "name": "_strike_price_base",
          "type": "uint256"
        },
        {
          "name": "_strike_price_quote",
          "type": "uint256"
        },
        {
          "name": "_volume",
          "type": "uint256"
        },
        {
          "name": "_maturity_time",
          "type": "uint256"
        },
        {
          "name": "_expiry_time",
          "type": "uint256"
        }
      ],
      "name": "create_option",
      "outputs": [
        {
          "name": "",
          "type": "address"
        }
      ],
      "payable": false,
      "stateMutability": "nonpayable",
      "type": "function"
    }
  ],
  "bytecode": "0x608060405234801561001057600080fd5b506117c4806100206000396000f3fe608060405234801561001057600080fd5b506004361061002b5760003560e01c80631910eb7614610030575b600080fd5b61010f600480360361014081101561004757600080fd5b81019080803573ffffffffffffffffffffffffffffffffffffffff169060200190929190803573ffffffffffffffffffffffffffffffffffffffff169060200190929190803573ffffffffffffffffffffffffffffffffffffffff169060200190929190803573ffffffffffffffffffffffffffffffffffffffff169060200190929190803590602001909291908035906020019092919080359060200190929190803590602001909291908035906020019092919080359060200190929190505050610151565b604051808273ffffffffffffffffffffffffffffffffffffffff1673ffffffffffffffffffffffffffffffffffffffff16815260200191505060405180910390f35b6000808b8b8b8b8b8b8b8b8b8b60405161016a906102f7565b808b73ffffffffffffffffffffffffffffffffffffffff1673ffffffffffffffffffffffffffffffffffffffff1681526020018a73ffffffffffffffffffffffffffffffffffffffff1673ffffffffffffffffffffffffffffffffffffffff1681526020018973ffffffffffffffffffffffffffffffffffffffff1673ffffffffffffffffffffffffffffffffffffffff1681526020018873ffffffffffffffffffffffffffffffffffffffff1673ffffffffffffffffffffffffffffffffffffffff1681526020018781526020018681526020018581526020018481526020018381526020018281526020019a5050505050505050505050604051809103906000f08015801561027f573d6000803e3d6000fd5b5090507f927c4ca180dbb5c7c47fbea3d98025d87248119df45da897c7d00fcca433f83781604051808273ffffffffffffffffffffffffffffffffffffffff1673ffffffffffffffffffffffffffffffffffffffff16815260200191505060405180910390a1809150509a9950505050505050505050565b611494806103058339019056fe608060405234801561001057600080fd5b5060405161014080611494833981018060405261014081101561003257600080fd5b810190808051906020019092919080519060200190929190805190602001909291908051906020019092919080519060200190929190805190602001909291908051906020019092919080519060200190929190805190602001909291908051906020019092919050505089898989898787878473ffffffffffffffffffffffffffffffffffffffff168673ffffffffffffffffffffffffffffffffffffffff1614156100de57600080fd5b42811180156100ec57508181115b6100f557600080fd5b876000806101000a81548173ffffffffffffffffffffffffffffffffffffffff021916908373ffffffffffffffffffffffffffffffffffffffff16021790555086600160006101000a81548173ffffffffffffffffffffffffffffffffffffffff021916908373ffffffffffffffffffffffffffffffffffffffff16021790555085600260006101000a81548173ffffffffffffffffffffffffffffffffffffffff021916908373ffffffffffffffffffffffffffffffffffffffff16021790555084600360006101000a81548173ffffffffffffffffffffffffffffffffffffffff021916908373ffffffffffffffffffffffffffffffffffffffff1602179055508360048190555082600581905550816006819055508060078190555085600960006101000a81548173ffffffffffffffffffffffffffffffffffffffff021916908373ffffffffffffffffffffffffffffffffffffffff16021790555084600a60006101000a81548173ffffffffffffffffffffffffffffffffffffffff021916908373ffffffffffffffffffffffffffffffffffffffff1602179055506001600881905550505050505050505084600b8190555083600c81905550505050505050505050506111c7806102cd6000396000f3fe608060405234801561001057600080fd5b50600436106101735760003560e01c806396f5a49f116100de578063c618a1e411610097578063ddca3f4311610071578063ddca3f43146105e4578063e1b8d40f14610602578063eef9a8d514610620578063fe3f3b811461062a57610173565b8063c618a1e41461058a578063c80c0738146105a8578063d34ab68d146105c657610173565b806396f5a49f1461049e5780639ce0c9bd146104cc5780639f771e1e146104fa578063a77f559914610504578063ba2215851461054e578063c19d93fb1461056c57610173565b80635ab533ac116101305780635ab533ac146102b05780635f727189146102ce57806360583488146103185780637150d8ae1461042c57806379599f9614610476578063879a031a1461048057610173565b80630fa9f5e11461017857806314b80ae61461019657806319d83c71146101b45780631d143848146101d257806338d52e0f1461021c5780635001f3b514610266575b600080fd5b610180610648565b6040518082815260200191505060405180910390f35b61019e61064d565b6040518082815260200191505060405180910390f35b6101bc610652565b6040518082815260200191505060405180910390f35b6101da610657565b604051808273ffffffffffffffffffffffffffffffffffffffff1673ffffffffffffffffffffffffffffffffffffffff16815260200191505060405180910390f35b61022461067c565b604051808273ffffffffffffffffffffffffffffffffffffffff1673ffffffffffffffffffffffffffffffffffffffff16815260200191505060405180910390f35b61026e6106a2565b604051808273ffffffffffffffffffffffffffffffffffffffff1673ffffffffffffffffffffffffffffffffffffffff16815260200191505060405180910390f35b6102b86106c8565b6040518082815260200191505060405180910390f35b6102d66106cd565b604051808273ffffffffffffffffffffffffffffffffffffffff1673ffffffffffffffffffffffffffffffffffffffff16815260200191505060405180910390f35b6103206106f3565b604051808c73ffffffffffffffffffffffffffffffffffffffff1673ffffffffffffffffffffffffffffffffffffffff1681526020018b73ffffffffffffffffffffffffffffffffffffffff1673ffffffffffffffffffffffffffffffffffffffff1681526020018a73ffffffffffffffffffffffffffffffffffffffff1673ffffffffffffffffffffffffffffffffffffffff1681526020018973ffffffffffffffffffffffffffffffffffffffff1673ffffffffffffffffffffffffffffffffffffffff1681526020018881526020018781526020018681526020018581526020018481526020018381526020018281526020019b50505050505050505050505060405180910390f35b6104346107c7565b604051808273ffffffffffffffffffffffffffffffffffffffff1673ffffffffffffffffffffffffffffffffffffffff16815260200191505060405180910390f35b61047e6107ed565b005b61048861099f565b6040518082815260200191505060405180910390f35b6104ca600480360360208110156104b457600080fd5b81019080803590602001909291905050506109a5565b005b6104f8600480360360208110156104e257600080fd5b8101908080359060200190929190505050610a21565b005b610502610a9a565b005b61050c610c87565b604051808273ffffffffffffffffffffffffffffffffffffffff1673ffffffffffffffffffffffffffffffffffffffff16815260200191505060405180910390f35b610556610cad565b6040518082815260200191505060405180910390f35b610574610cb3565b6040518082815260200191505060405180910390f35b610592610cb9565b6040518082815260200191505060405180910390f35b6105b0610cbf565b6040518082815260200191505060405180910390f35b6105ce610cc4565b6040518082815260200191505060405180910390f35b6105ec610cc9565b6040518082815260200191505060405180910390f35b61060a610ccf565b6040518082815260200191505060405180910390f35b610628610cd5565b005b610632610e9f565b6040518082815260200191505060405180910390f35b600581565b600181565b600481565b6000809054906101000a900473ffffffffffffffffffffffffffffffffffffffff1681565b600a60009054906101000a900473ffffffffffffffffffffffffffffffffffffffff1681565b600960009054906101000a900473ffffffffffffffffffffffffffffffffffffffff1681565b600281565b600360009054906101000a900473ffffffffffffffffffffffffffffffffffffffff1681565b60008060008060008060008060008060008060009054906101000a900473ffffffffffffffffffffffffffffffffffffffff16600160009054906101000a900473ffffffffffffffffffffffffffffffffffffffff16600260009054906101000a900473ffffffffffffffffffffffffffffffffffffffff16600360009054906101000a900473ffffffffffffffffffffffffffffffffffffffff16600454600b54600c546005546006546007546008549a509a509a509a509a509a509a509a509a509a509a50909192939495969798999a565b600160009054906101000a900473ffffffffffffffffffffffffffffffffffffffff1681565b6000809054906101000a900473ffffffffffffffffffffffffffffffffffffffff1673ffffffffffffffffffffffffffffffffffffffff163373ffffffffffffffffffffffffffffffffffffffff161461084657600080fd5b4260075411158061085957506002600854145b8061086657506000600554145b61086f57600080fd5b6005600854141561087f57600080fd5b6000600a60009054906101000a900473ffffffffffffffffffffffffffffffffffffffff1673ffffffffffffffffffffffffffffffffffffffff1663a9059cbb6000809054906101000a900473ffffffffffffffffffffffffffffffffffffffff166005546040518363ffffffff1660e01b8152600401808373ffffffffffffffffffffffffffffffffffffffff1673ffffffffffffffffffffffffffffffffffffffff16815260200182815260200192505050602060405180830381600087803b15801561094d57600080fd5b505af1158015610961573d6000803e3d6000fd5b505050506040513d602081101561097757600080fd5b810190808051906020019092919050505090508061099457600080fd5b600560088190555050565b60065481565b600160009054906101000a900473ffffffffffffffffffffffffffffffffffffffff1673ffffffffffffffffffffffffffffffffffffffff163373ffffffffffffffffffffffffffffffffffffffff16146109ff57600080fd5b6000600c54600b54830281610a1057fe5b049050610a1d8183610ea5565b5050565b600160009054906101000a900473ffffffffffffffffffffffffffffffffffffffff1673ffffffffffffffffffffffffffffffffffffffff163373ffffffffffffffffffffffffffffffffffffffff1614610a7857fe5b6000600b54600c54830281610a8957fe5b049050610a968282610ea5565b5050565b600160009054906101000a900473ffffffffffffffffffffffffffffffffffffffff1673ffffffffffffffffffffffffffffffffffffffff163373ffffffffffffffffffffffffffffffffffffffff1614610af457600080fd5b600260085414610b0357600080fd5b4260075411610b1157600080fd5b6000600960009054906101000a900473ffffffffffffffffffffffffffffffffffffffff1673ffffffffffffffffffffffffffffffffffffffff166323b872dd600160009054906101000a900473ffffffffffffffffffffffffffffffffffffffff166000809054906101000a900473ffffffffffffffffffffffffffffffffffffffff166004546040518463ffffffff1660e01b8152600401808473ffffffffffffffffffffffffffffffffffffffff1673ffffffffffffffffffffffffffffffffffffffff1681526020018373ffffffffffffffffffffffffffffffffffffffff1673ffffffffffffffffffffffffffffffffffffffff1681526020018281526020019350505050602060405180830381600087803b158015610c3557600080fd5b505af1158015610c49573d6000803e3d6000fd5b505050506040513d6020811015610c5f57600080fd5b8101908080519060200190929190505050905080610c7c57600080fd5b600360088190555050565b600260009054906101000a900473ffffffffffffffffffffffffffffffffffffffff1681565b600b5481565b60085481565b60055481565b600381565b600081565b60045481565b600c5481565b6000809054906101000a900473ffffffffffffffffffffffffffffffffffffffff1673ffffffffffffffffffffffffffffffffffffffff163373ffffffffffffffffffffffffffffffffffffffff1614610d2e57600080fd5b600160085414610d3d57600080fd5b4260075411610d4b57600080fd5b6000600a60009054906101000a900473ffffffffffffffffffffffffffffffffffffffff1673ffffffffffffffffffffffffffffffffffffffff166323b872dd6000809054906101000a900473ffffffffffffffffffffffffffffffffffffffff16306005546040518463ffffffff1660e01b8152600401808473ffffffffffffffffffffffffffffffffffffffff1673ffffffffffffffffffffffffffffffffffffffff1681526020018373ffffffffffffffffffffffffffffffffffffffff1673ffffffffffffffffffffffffffffffffffffffff1681526020018281526020019350505050602060405180830381600087803b158015610e4d57600080fd5b505af1158015610e61573d6000803e3d6000fd5b505050506040513d6020811015610e7757600080fd5b8101908080519060200190929190505050905080610e9457600080fd5b600260088190555050565b60075481565b42600754118015610eb857504260065411155b610ec157600080fd5b60036008541480610ed457506004600854145b610edd57600080fd5b60008211610eea57600080fd5b600081118015610efc57506005548111155b610f0557600080fd5b6000600960009054906101000a900473ffffffffffffffffffffffffffffffffffffffff1673ffffffffffffffffffffffffffffffffffffffff166323b872dd600160009054906101000a900473ffffffffffffffffffffffffffffffffffffffff166000809054906101000a900473ffffffffffffffffffffffffffffffffffffffff16866040518463ffffffff1660e01b8152600401808473ffffffffffffffffffffffffffffffffffffffff1673ffffffffffffffffffffffffffffffffffffffff1681526020018373ffffffffffffffffffffffffffffffffffffffff1673ffffffffffffffffffffffffffffffffffffffff1681526020018281526020019350505050602060405180830381600087803b15801561102757600080fd5b505af115801561103b573d6000803e3d6000fd5b505050506040513d602081101561105157600080fd5b810190808051906020019092919050505090508061106e57600080fd5b6000600a60009054906101000a900473ffffffffffffffffffffffffffffffffffffffff1673ffffffffffffffffffffffffffffffffffffffff1663a9059cbb600160009054906101000a900473ffffffffffffffffffffffffffffffffffffffff16856040518363ffffffff1660e01b8152600401808373ffffffffffffffffffffffffffffffffffffffff1673ffffffffffffffffffffffffffffffffffffffff16815260200182815260200192505050602060405180830381600087803b15801561113b57600080fd5b505af115801561114f573d6000803e3d6000fd5b505050506040513d602081101561116557600080fd5b810190808051906020019092919050505090508061118257600080fd5b826005540360058190555060046008819055505050505056fea165627a7a723058208b423a929bcf13ab2916c3bf65457c3ac506490bc54f46a21af96bf576aff4d50029a165627a7a72305820a198f8fc442917d49ce06ee471e524cb10c7ad6e6b078d42a2882b9448b2f6a60029",
  "source": "pragma solidity >=0.4.21 <0.6.0;\n\nimport \"../options/Option.sol\";\n\ncontract OptionFactory {\n  event NewOption(address option);\n  function create_option(address _issuer, address _buyer,\n                          address _base_addr, address _asset_addr,\n                          uint256 _fee,\n                          uint256 _strike_price_base, uint256 _strike_price_quote,\n                          uint256 _volume,\n                          uint256 _maturity_time, uint256 _expiry_time)\n      public returns (address) {\n    Option option = new Option(_issuer, _buyer,\n                                _base_addr, _asset_addr,\n                                _fee,\n                                _strike_price_base, _strike_price_quote,\n                                _volume,\n                                _maturity_time, _expiry_time);\n    emit NewOption(address(option));\n    return address(option);\n  }\n}\n",
  "sourcePath": "/Users/Karim/Desktop/atomicoptions/contracts/v0-2/factories/OptionFactory.sol",
  "compiler": {
    "name": "solc",
    "version": "0.5.8+commit.23d335f2.Emscripten.clang"
  },
  "schemaVersion": "3.0.16",
  "updatedAt": "2019-10-14T21:22:54.943Z",
  "devdoc": {
    "methods": {}
  },
  "userdoc": {
    "methods": {}
  }
}