{
  "contractName": "OptionCommon",
  "abi": [
    {
      "constant": true,
      "inputs": [],
      "name": "STATE_EXPIRED",
      "outputs": [
        {
          "name": "",
          "type": "uint256"
        }
      ],
      "payable": false,
      "stateMutability": "view",
      "type": "function"
    },
    {
      "constant": true,
      "inputs": [],
      "name": "STATE_INITIALIZED",
      "outputs": [
        {
          "name": "",
          "type": "uint256"
        }
      ],
      "payable": false,
      "stateMutability": "view",
      "type": "function"
    },
    {
      "constant": true,
      "inputs": [],
      "name": "STATE_EXERCISED",
      "outputs": [
        {
          "name": "",
          "type": "uint256"
        }
      ],
      "payable": false,
      "stateMutability": "view",
      "type": "function"
    },
    {
      "constant": true,
      "inputs": [],
      "name": "issuer",
      "outputs": [
        {
          "name": "",
          "type": "address"
        }
      ],
      "payable": false,
      "stateMutability": "view",
      "type": "function"
    },
    {
      "constant": false,
      "inputs": [
        {
          "name": "_to",
          "type": "address"
        }
      ],
      "name": "transfer_issuer",
      "outputs": [],
      "payable": false,
      "stateMutability": "nonpayable",
      "type": "function"
    },
    {
      "constant": true,
      "inputs": [],
      "name": "asset",
      "outputs": [
        {
          "name": "",
          "type": "address"
        }
      ],
      "payable": false,
      "stateMutability": "view",
      "type": "function"
    },
    {
      "constant": true,
      "inputs": [],
      "name": "base",
      "outputs": [
        {
          "name": "",
          "type": "address"
        }
      ],
      "payable": false,
      "stateMutability": "view",
      "type": "function"
    },
    {
      "constant": true,
      "inputs": [],
      "name": "STATE_COLLATERALIZED",
      "outputs": [
        {
          "name": "",
          "type": "uint256"
        }
      ],
      "payable": false,
      "stateMutability": "view",
      "type": "function"
    },
    {
      "constant": true,
      "inputs": [],
      "name": "asset_addr",
      "outputs": [
        {
          "name": "",
          "type": "address"
        }
      ],
      "payable": false,
      "stateMutability": "view",
      "type": "function"
    },
    {
      "constant": true,
      "inputs": [],
      "name": "buyer",
      "outputs": [
        {
          "name": "",
          "type": "address"
        }
      ],
      "payable": false,
      "stateMutability": "view",
      "type": "function"
    },
    {
      "constant": true,
      "inputs": [],
      "name": "maturity_time",
      "outputs": [
        {
          "name": "",
          "type": "uint256"
        }
      ],
      "payable": false,
      "stateMutability": "view",
      "type": "function"
    },
    {
      "constant": true,
      "inputs": [],
      "name": "base_addr",
      "outputs": [
        {
          "name": "",
          "type": "address"
        }
      ],
      "payable": false,
      "stateMutability": "view",
      "type": "function"
    },
    {
      "constant": true,
      "inputs": [],
      "name": "state",
      "outputs": [
        {
          "name": "",
          "type": "uint256"
        }
      ],
      "payable": false,
      "stateMutability": "view",
      "type": "function"
    },
    {
      "constant": true,
      "inputs": [],
      "name": "volume",
      "outputs": [
        {
          "name": "",
          "type": "uint256"
        }
      ],
      "payable": false,
      "stateMutability": "view",
      "type": "function"
    },
    {
      "constant": true,
      "inputs": [],
      "name": "STATE_ACTIVE",
      "outputs": [
        {
          "name": "",
          "type": "uint256"
        }
      ],
      "payable": false,
      "stateMutability": "view",
      "type": "function"
    },
    {
      "constant": true,
      "inputs": [],
      "name": "STATE_UNINITIALIZED",
      "outputs": [
        {
          "name": "",
          "type": "uint256"
        }
      ],
      "payable": false,
      "stateMutability": "view",
      "type": "function"
    },
    {
      "constant": false,
      "inputs": [
        {
          "name": "_to",
          "type": "address"
        }
      ],
      "name": "transfer_buyer",
      "outputs": [],
      "payable": false,
      "stateMutability": "nonpayable",
      "type": "function"
    },
    {
      "constant": true,
      "inputs": [],
      "name": "fee",
      "outputs": [
        {
          "name": "",
          "type": "uint256"
        }
      ],
      "payable": false,
      "stateMutability": "view",
      "type": "function"
    },
    {
      "constant": false,
      "inputs": [],
      "name": "collateralize",
      "outputs": [],
      "payable": false,
      "stateMutability": "nonpayable",
      "type": "function"
    },
    {
      "constant": true,
      "inputs": [],
      "name": "expiry_time",
      "outputs": [
        {
          "name": "",
          "type": "uint256"
        }
      ],
      "payable": false,
      "stateMutability": "view",
      "type": "function"
    },
    {
      "inputs": [
        {
          "name": "_issuer",
          "type": "address"
        },
        {
          "name": "_buyer",
          "type": "address"
        },
        {
          "name": "_base_addr",
          "type": "address"
        },
        {
          "name": "_asset_addr",
          "type": "address"
        },
        {
          "name": "_fee",
          "type": "uint256"
        },
        {
          "name": "_volume",
          "type": "uint256"
        },
        {
          "name": "_maturity_time",
          "type": "uint256"
        },
        {
          "name": "_expiry_time",
          "type": "uint256"
        }
      ],
      "payable": false,
      "stateMutability": "nonpayable",
      "type": "constructor"
    },
    {
      "constant": false,
      "inputs": [],
      "name": "pay_fee",
      "outputs": [],
      "payable": false,
      "stateMutability": "nonpayable",
      "type": "function"
    },
    {
      "constant": false,
      "inputs": [],
      "name": "expire",
      "outputs": [],
      "payable": false,
      "stateMutability": "nonpayable",
      "type": "function"
    },
    {
      "constant": false,
      "inputs": [
        {
          "name": "strike_price_base",
          "type": "uint256"
        },
        {
          "name": "strike_price_quote",
          "type": "uint256"
        },
        {
          "name": "salt",
          "type": "bytes32"
        },
        {
          "name": "asset_volume_exercised",
          "type": "uint256"
        }
      ],
      "name": "exercise_from_asset",
      "outputs": [],
      "payable": false,
      "stateMutability": "nonpayable",
      "type": "function"
    },
    {
      "constant": false,
      "inputs": [
        {
          "name": "asset_volume_exercised",
          "type": "uint256"
        }
      ],
      "name": "exercise_from_asset",
      "outputs": [],
      "payable": false,
      "stateMutability": "nonpayable",
      "type": "function"
    },
    {
      "constant": false,
      "inputs": [
        {
          "name": "strike_price_base",
          "type": "uint256"
        },
        {
          "name": "strike_price_quote",
          "type": "uint256"
        },
        {
          "name": "salt",
          "type": "bytes32"
        },
        {
          "name": "base_volume_exercised",
          "type": "uint256"
        }
      ],
      "name": "exercise_from_base",
      "outputs": [],
      "payable": false,
      "stateMutability": "nonpayable",
      "type": "function"
    },
    {
      "constant": false,
      "inputs": [
        {
          "name": "base_volume_exercised",
          "type": "uint256"
        }
      ],
      "name": "exercise_from_base",
      "outputs": [],
      "payable": false,
      "stateMutability": "nonpayable",
      "type": "function"
    }
  ],
  "bytecode": "0x608060405234801561001057600080fd5b506040516101008061112f833981018060405261010081101561003257600080fd5b8101908080519060200190929190805190602001909291908051906020019092919080519060200190929190805190602001909291908051906020019092919080519060200190929190805190602001909291905050508787878786868273ffffffffffffffffffffffffffffffffffffffff168473ffffffffffffffffffffffffffffffffffffffff1614156100c857600080fd5b856000806101000a81548173ffffffffffffffffffffffffffffffffffffffff021916908373ffffffffffffffffffffffffffffffffffffffff16021790555084600160006101000a81548173ffffffffffffffffffffffffffffffffffffffff021916908373ffffffffffffffffffffffffffffffffffffffff16021790555083600260006101000a81548173ffffffffffffffffffffffffffffffffffffffff021916908373ffffffffffffffffffffffffffffffffffffffff16021790555082600360006101000a81548173ffffffffffffffffffffffffffffffffffffffff021916908373ffffffffffffffffffffffffffffffffffffffff160217905550816004819055508060058190555083600760006101000a81548173ffffffffffffffffffffffffffffffffffffffff021916908373ffffffffffffffffffffffffffffffffffffffff16021790555082600860006101000a81548173ffffffffffffffffffffffffffffffffffffffff021916908373ffffffffffffffffffffffffffffffffffffffff16021790555060016006819055505050505050508473ffffffffffffffffffffffffffffffffffffffff168673ffffffffffffffffffffffffffffffffffffffff1614156102a257600080fd5b42811180156102b057508181115b6102b957600080fd5b8360098190555080600a819055505050505050505050610e51806102de6000396000f3fe608060405234801561001057600080fd5b506004361061018e5760003560e01c8063879a031a116100de578063c618a1e411610097578063ddb0c86c11610071578063ddb0c86c146105a9578063ddca3f43146105ed578063eef9a8d51461060b578063fe3f3b81146106155761018e565b8063c618a1e41461054f578063c80c07381461056d578063d34ab68d1461058b5761018e565b8063879a031a1461046357806396f5a49f146104815780639ce0c9bd146104af5780639f771e1e146104dd578063a77f5599146104e7578063c19d93fb146105315761018e565b80635001f3b51161014b5780637150d8ae116101255780637150d8ae1461037757806379599f96146103c15780637adce175146103cb57806380962928146104175761018e565b80635001f3b5146102c55780635ab533ac1461030f5780635f7271891461032d5761018e565b80630fa9f5e11461019357806314b80ae6146101b157806319d83c71146101cf5780631d143848146101ed57806335fe77021461023757806338d52e0f1461027b575b600080fd5b61019b610633565b6040518082815260200191505060405180910390f35b6101b9610638565b6040518082815260200191505060405180910390f35b6101d761063d565b6040518082815260200191505060405180910390f35b6101f5610642565b604051808273ffffffffffffffffffffffffffffffffffffffff1673ffffffffffffffffffffffffffffffffffffffff16815260200191505060405180910390f35b6102796004803603602081101561024d57600080fd5b81019080803573ffffffffffffffffffffffffffffffffffffffff169060200190929190505050610667565b005b610283610703565b604051808273ffffffffffffffffffffffffffffffffffffffff1673ffffffffffffffffffffffffffffffffffffffff16815260200191505060405180910390f35b6102cd610729565b604051808273ffffffffffffffffffffffffffffffffffffffff1673ffffffffffffffffffffffffffffffffffffffff16815260200191505060405180910390f35b61031761074f565b6040518082815260200191505060405180910390f35b610335610754565b604051808273ffffffffffffffffffffffffffffffffffffffff1673ffffffffffffffffffffffffffffffffffffffff16815260200191505060405180910390f35b61037f61077a565b604051808273ffffffffffffffffffffffffffffffffffffffff1673ffffffffffffffffffffffffffffffffffffffff16815260200191505060405180910390f35b6103c96107a0565b005b610415600480360360808110156103e157600080fd5b8101908080359060200190929190803590602001909291908035906020019092919080359060200190929190505050610952565b005b6104616004803603608081101561042d57600080fd5b8101908080359060200190929190803590602001909291908035906020019092919080359060200190929190505050610963565b005b61046b610974565b6040518082815260200191505060405180910390f35b6104ad6004803603602081101561049757600080fd5b810190808035906020019092919050505061097a565b005b6104db600480360360208110156104c557600080fd5b8101908080359060200190929190505050610988565b005b6104e5610996565b005b6104ef610b83565b604051808273ffffffffffffffffffffffffffffffffffffffff1673ffffffffffffffffffffffffffffffffffffffff16815260200191505060405180910390f35b610539610ba9565b6040518082815260200191505060405180910390f35b610557610baf565b6040518082815260200191505060405180910390f35b610575610bb5565b6040518082815260200191505060405180910390f35b610593610bba565b6040518082815260200191505060405180910390f35b6105eb600480360360208110156105bf57600080fd5b81019080803573ffffffffffffffffffffffffffffffffffffffff169060200190929190505050610bbf565b005b6105f5610c5d565b6040518082815260200191505060405180910390f35b610613610c63565b005b61061d610e1f565b6040518082815260200191505060405180910390f35b600581565b600181565b600481565b6000809054906101000a900473ffffffffffffffffffffffffffffffffffffffff1681565b6000809054906101000a900473ffffffffffffffffffffffffffffffffffffffff1673ffffffffffffffffffffffffffffffffffffffff163373ffffffffffffffffffffffffffffffffffffffff16146106c057600080fd5b806000806101000a81548173ffffffffffffffffffffffffffffffffffffffff021916908373ffffffffffffffffffffffffffffffffffffffff16021790555050565b600860009054906101000a900473ffffffffffffffffffffffffffffffffffffffff1681565b600760009054906101000a900473ffffffffffffffffffffffffffffffffffffffff1681565b600281565b600360009054906101000a900473ffffffffffffffffffffffffffffffffffffffff1681565b600160009054906101000a900473ffffffffffffffffffffffffffffffffffffffff1681565b6000809054906101000a900473ffffffffffffffffffffffffffffffffffffffff1673ffffffffffffffffffffffffffffffffffffffff163373ffffffffffffffffffffffffffffffffffffffff16146107f957600080fd5b42600a5411158061080c57506002600654145b8061081957506000600454145b61082257600080fd5b6005600654141561083257600080fd5b6000600860009054906101000a900473ffffffffffffffffffffffffffffffffffffffff1673ffffffffffffffffffffffffffffffffffffffff1663a9059cbb6000809054906101000a900473ffffffffffffffffffffffffffffffffffffffff166004546040518363ffffffff1660e01b8152600401808373ffffffffffffffffffffffffffffffffffffffff1673ffffffffffffffffffffffffffffffffffffffff16815260200182815260200192505050602060405180830381600087803b15801561090057600080fd5b505af1158015610914573d6000803e3d6000fd5b505050506040513d602081101561092a57600080fd5b810190808051906020019092919050505090508061094757600080fd5b600560068190555050565b600061095d57600080fd5b50505050565b600061096e57600080fd5b50505050565b60055481565b600061098557600080fd5b50565b600061099357600080fd5b50565b600160009054906101000a900473ffffffffffffffffffffffffffffffffffffffff1673ffffffffffffffffffffffffffffffffffffffff163373ffffffffffffffffffffffffffffffffffffffff16146109f057600080fd5b6002600654146109ff57600080fd5b42600a5411610a0d57600080fd5b6000600760009054906101000a900473ffffffffffffffffffffffffffffffffffffffff1673ffffffffffffffffffffffffffffffffffffffff166323b872dd600160009054906101000a900473ffffffffffffffffffffffffffffffffffffffff166000809054906101000a900473ffffffffffffffffffffffffffffffffffffffff166009546040518463ffffffff1660e01b8152600401808473ffffffffffffffffffffffffffffffffffffffff1673ffffffffffffffffffffffffffffffffffffffff1681526020018373ffffffffffffffffffffffffffffffffffffffff1673ffffffffffffffffffffffffffffffffffffffff1681526020018281526020019350505050602060405180830381600087803b158015610b3157600080fd5b505af1158015610b45573d6000803e3d6000fd5b505050506040513d6020811015610b5b57600080fd5b8101908080519060200190929190505050905080610b7857600080fd5b600360068190555050565b600260009054906101000a900473ffffffffffffffffffffffffffffffffffffffff1681565b60065481565b60045481565b600381565b600081565b600160009054906101000a900473ffffffffffffffffffffffffffffffffffffffff1673ffffffffffffffffffffffffffffffffffffffff163373ffffffffffffffffffffffffffffffffffffffff1614610c1957600080fd5b80600160006101000a81548173ffffffffffffffffffffffffffffffffffffffff021916908373ffffffffffffffffffffffffffffffffffffffff16021790555050565b60095481565b6000809054906101000a900473ffffffffffffffffffffffffffffffffffffffff1673ffffffffffffffffffffffffffffffffffffffff163373ffffffffffffffffffffffffffffffffffffffff1614610cbc57600080fd5b600160065414610ccb57600080fd5b6000600860009054906101000a900473ffffffffffffffffffffffffffffffffffffffff1673ffffffffffffffffffffffffffffffffffffffff166323b872dd6000809054906101000a900473ffffffffffffffffffffffffffffffffffffffff16306004546040518463ffffffff1660e01b8152600401808473ffffffffffffffffffffffffffffffffffffffff1673ffffffffffffffffffffffffffffffffffffffff1681526020018373ffffffffffffffffffffffffffffffffffffffff1673ffffffffffffffffffffffffffffffffffffffff1681526020018281526020019350505050602060405180830381600087803b158015610dcd57600080fd5b505af1158015610de1573d6000803e3d6000fd5b505050506040513d6020811015610df757600080fd5b8101908080519060200190929190505050905080610e1457600080fd5b600260068190555050565b600a548156fea165627a7a7230582052c4eaf42ab857a4d4f400049bbc81980dc6ccae230e5d8b8a3668a31734d1340029",
  "source": "pragma solidity >=0.4.21 <0.6.0;\n\nimport \"../../lib/openzeppelin-solidity/ERC20.sol\";\nimport \"./DerivativeCommon.sol\";\n\n/**\n * @title OptionCommon\n * @dev Template for entire Option family\n */\ncontract OptionCommon is DerivativeCommon {\n  // // Financial information\n  // Fee\n  uint256 public fee;\n  // Option can be exercised between maturity_time (declared in DerivativeCommon) and expiry_time\n  uint256 public expiry_time;\n\n  constructor(address _issuer, address _buyer,\n              address _base_addr, address _asset_addr,\n              uint256 _fee,\n              uint256 _volume,\n              uint256 _maturity_time, uint256 _expiry_time)\n    DerivativeCommon(_issuer, _buyer,\n                    _base_addr, _asset_addr,\n                    _volume,\n                    _maturity_time) public {\n    require(_base_addr != _asset_addr);\n    require((_expiry_time > block.timestamp) && (_expiry_time > _maturity_time));\n\n    fee = _fee;\n    expiry_time = _expiry_time;\n  }\n\n  // // Pays fee to issuer\n  function pay_fee() public {\n    require(msg.sender == buyer);\n    require(state == STATE_COLLATERALIZED);\n    require(expiry_time > block.timestamp);\n\n    bool base_transfer = base.transferFrom(buyer, issuer, fee);\n    require(base_transfer);\n\n    state = STATE_ACTIVE;\n  }\n\n  function exercise_internal(uint256 base_volume_exercised,\n                              uint256 asset_volume_exercised) internal {\n    require((expiry_time > block.timestamp) && (maturity_time <= block.timestamp));\n    require((state == STATE_ACTIVE) || (state == STATE_EXERCISED));\n    require(base_volume_exercised > 0);\n    require((asset_volume_exercised > 0) && (asset_volume_exercised <= volume));\n\n    bool base_transfer = base.transferFrom(buyer, issuer, base_volume_exercised);\n    require(base_transfer);\n    bool asset_transfer = asset.transfer(buyer, asset_volume_exercised);\n    require(asset_transfer);\n\n    volume = volume - asset_volume_exercised;\n\n    state = STATE_EXERCISED;\n  }\n\n  function expire() public {\n    require(msg.sender == issuer);\n    require((expiry_time <= block.timestamp) ||\n            (state == STATE_COLLATERALIZED) ||\n            (volume == 0));\n    require(state != STATE_EXPIRED);\n\n    bool asset_transfer = asset.transfer(issuer, volume);\n    require(asset_transfer);\n\n    state = STATE_EXPIRED;\n  }\n\n  // // Exercise wrappers: required for abstraction\n  // Should all throw errors\n  function exercise_from_asset(uint256 asset_volume_exercised) public {\n    require(false);\n  }\n\n  function exercise_from_base(uint256 base_volume_exercised) public {\n    require(false);\n  }\n\n  function exercise_from_asset(uint256 strike_price_base,\n                                uint256 strike_price_quote,\n                                bytes32 salt,\n                                uint256 asset_volume_exercised) public {\n    require(false);\n  }\n\n  function exercise_from_base(uint256 strike_price_base,\n                              uint256 strike_price_quote,\n                              bytes32 salt,\n                              uint256 base_volume_exercised) public {\n    require(false);\n  }\n}\n",
  "sourcePath": "/Users/Karim/Desktop/atomicoptions/contracts/src/parent_contracts/OptionCommon.sol",
  "compiler": {
    "name": "solc",
    "version": "0.5.8+commit.23d335f2.Emscripten.clang"
  },
  "schemaVersion": "3.0.16",
  "updatedAt": "2019-11-11T18:42:59.860Z",
  "devdoc": {
    "details": "Template for entire Option family",
    "methods": {},
    "title": "OptionCommon"
  },
  "userdoc": {
    "methods": {}
  }
}