{
  "contractName": "Portfolio",
  "abi": [
    {
      "constant": true,
      "inputs": [],
      "name": "managed_forward_factory_addr",
      "outputs": [
        {
          "name": "",
          "type": "address"
        }
      ],
      "payable": false,
      "stateMutability": "view",
      "type": "function"
    },
    {
      "constant": true,
      "inputs": [
        {
          "name": "",
          "type": "address"
        }
      ],
      "name": "my_forward_indices",
      "outputs": [
        {
          "name": "",
          "type": "uint256"
        }
      ],
      "payable": false,
      "stateMutability": "view",
      "type": "function"
    },
    {
      "constant": true,
      "inputs": [],
      "name": "asset_addr",
      "outputs": [
        {
          "name": "",
          "type": "address"
        }
      ],
      "payable": false,
      "stateMutability": "view",
      "type": "function"
    },
    {
      "constant": true,
      "inputs": [],
      "name": "managed_forward_factory",
      "outputs": [
        {
          "name": "",
          "type": "address"
        }
      ],
      "payable": false,
      "stateMutability": "view",
      "type": "function"
    },
    {
      "constant": true,
      "inputs": [],
      "name": "owner",
      "outputs": [
        {
          "name": "",
          "type": "address"
        }
      ],
      "payable": false,
      "stateMutability": "view",
      "type": "function"
    },
    {
      "constant": true,
      "inputs": [],
      "name": "base_addr",
      "outputs": [
        {
          "name": "",
          "type": "address"
        }
      ],
      "payable": false,
      "stateMutability": "view",
      "type": "function"
    },
    {
      "constant": true,
      "inputs": [
        {
          "name": "",
          "type": "address"
        }
      ],
      "name": "volume_available",
      "outputs": [
        {
          "name": "",
          "type": "uint256"
        }
      ],
      "payable": false,
      "stateMutability": "view",
      "type": "function"
    },
    {
      "constant": true,
      "inputs": [
        {
          "name": "",
          "type": "uint256"
        }
      ],
      "name": "my_forwards",
      "outputs": [
        {
          "name": "",
          "type": "address"
        }
      ],
      "payable": false,
      "stateMutability": "view",
      "type": "function"
    },
    {
      "inputs": [
        {
          "name": "_base_addr",
          "type": "address"
        },
        {
          "name": "_asset_addr",
          "type": "address"
        },
        {
          "name": "_owner",
          "type": "address"
        },
        {
          "name": "_managed_forward_factory_addr",
          "type": "address"
        }
      ],
      "payable": false,
      "stateMutability": "nonpayable",
      "type": "constructor"
    },
    {
      "constant": false,
      "inputs": [
        {
          "name": "managed_forward_addr",
          "type": "address"
        }
      ],
      "name": "add_managed_forward",
      "outputs": [],
      "payable": false,
      "stateMutability": "nonpayable",
      "type": "function"
    },
    {
      "constant": false,
      "inputs": [
        {
          "name": "token_addr",
          "type": "address"
        },
        {
          "name": "value",
          "type": "uint256"
        }
      ],
      "name": "approve_managed_forward",
      "outputs": [
        {
          "name": "",
          "type": "bool"
        }
      ],
      "payable": false,
      "stateMutability": "nonpayable",
      "type": "function"
    },
    {
      "constant": false,
      "inputs": [
        {
          "name": "token_addr",
          "type": "address"
        },
        {
          "name": "value",
          "type": "uint256"
        }
      ],
      "name": "set_volume_available",
      "outputs": [],
      "payable": false,
      "stateMutability": "nonpayable",
      "type": "function"
    },
    {
      "constant": false,
      "inputs": [
        {
          "name": "new_fwd_addr",
          "type": "address"
        },
        {
          "name": "old_fwd_addr",
          "type": "address"
        }
      ],
      "name": "match_collateralize",
      "outputs": [
        {
          "name": "",
          "type": "bool"
        }
      ],
      "payable": false,
      "stateMutability": "nonpayable",
      "type": "function"
    },
    {
      "constant": false,
      "inputs": [
        {
          "name": "new_fwd_addr",
          "type": "address"
        },
        {
          "name": "old_fwd_addr",
          "type": "address"
        }
      ],
      "name": "match_activate",
      "outputs": [
        {
          "name": "",
          "type": "bool"
        }
      ],
      "payable": false,
      "stateMutability": "nonpayable",
      "type": "function"
    },
    {
      "constant": false,
      "inputs": [
        {
          "name": "token_addr",
          "type": "address"
        },
        {
          "name": "value",
          "type": "uint256"
        }
      ],
      "name": "deposit",
      "outputs": [],
      "payable": false,
      "stateMutability": "nonpayable",
      "type": "function"
    },
    {
      "constant": false,
      "inputs": [
        {
          "name": "token_addr",
          "type": "address"
        },
        {
          "name": "value",
          "type": "uint256"
        }
      ],
      "name": "withdraw",
      "outputs": [],
      "payable": false,
      "stateMutability": "nonpayable",
      "type": "function"
    },
    {
      "constant": true,
      "inputs": [
        {
          "name": "token_addr",
          "type": "address"
        }
      ],
      "name": "get_volume_available",
      "outputs": [
        {
          "name": "",
          "type": "uint256"
        }
      ],
      "payable": false,
      "stateMutability": "view",
      "type": "function"
    }
  ],
  "bytecode": "0x608060405234801561001057600080fd5b50604051608080612f278339810180604052608081101561003057600080fd5b81019080805190602001909291908051906020019092919080519060200190929190805190602001909291905050508273ffffffffffffffffffffffffffffffffffffffff168473ffffffffffffffffffffffffffffffffffffffff16141561009857600080fd5b836000806101000a81548173ffffffffffffffffffffffffffffffffffffffff021916908373ffffffffffffffffffffffffffffffffffffffff16021790555082600160006101000a81548173ffffffffffffffffffffffffffffffffffffffff021916908373ffffffffffffffffffffffffffffffffffffffff16021790555081600260006101000a81548173ffffffffffffffffffffffffffffffffffffffff021916908373ffffffffffffffffffffffffffffffffffffffff16021790555080600360006101000a81548173ffffffffffffffffffffffffffffffffffffffff021916908373ffffffffffffffffffffffffffffffffffffffff160217905550600360009054906101000a900473ffffffffffffffffffffffffffffffffffffffff16600460006101000a81548173ffffffffffffffffffffffffffffffffffffffff021916908373ffffffffffffffffffffffffffffffffffffffff1602179055506006600090806001815401808255809150509060018203906000526020600020016000909192909190916101000a81548173ffffffffffffffffffffffffffffffffffffffff021916908373ffffffffffffffffffffffffffffffffffffffff1602179055505050505050612caf806102786000396000f3fe608060405234801561001057600080fd5b50600436106100fe5760003560e01c80637d0922b611610097578063c2bc745011610066578063c2bc7450146104e7578063d3376c1d14610563578063e9fc07cd146105bb578063f3fef3a314610629576100fe565b80637d0922b6146103b15780638da5cb5b146103fb5780639ab849ea14610445578063a77f55991461049d576100fe565b80633ba99bf6116100d35780633ba99bf61461024557806347e7ef241461029d57806358ec5c04146102eb5780635f72718914610367576100fe565b806202aff014610103578062e9aa691461014d57806302e4c75c1461019157806314627962146101df575b600080fd5b61010b610677565b604051808273ffffffffffffffffffffffffffffffffffffffff1673ffffffffffffffffffffffffffffffffffffffff16815260200191505060405180910390f35b61018f6004803603602081101561016357600080fd5b81019080803573ffffffffffffffffffffffffffffffffffffffff16906020019092919050505061069d565b005b6101dd600480360360408110156101a757600080fd5b81019080803573ffffffffffffffffffffffffffffffffffffffff16906020019092919080359060200190929190505050610e76565b005b61022b600480360360408110156101f557600080fd5b81019080803573ffffffffffffffffffffffffffffffffffffffff16906020019092919080359060200190929190505050610f0a565b604051808215151515815260200191505060405180910390f35b6102876004803603602081101561025b57600080fd5b81019080803573ffffffffffffffffffffffffffffffffffffffff1690602001909291905050506110e4565b6040518082815260200191505060405180910390f35b6102e9600480360360408110156102b357600080fd5b81019080803573ffffffffffffffffffffffffffffffffffffffff169060200190929190803590602001909291905050506110fc565b005b61034d6004803603604081101561030157600080fd5b81019080803573ffffffffffffffffffffffffffffffffffffffff169060200190929190803573ffffffffffffffffffffffffffffffffffffffff1690602001909291905050506113b7565b604051808215151515815260200191505060405180910390f35b61036f611ee7565b604051808273ffffffffffffffffffffffffffffffffffffffff1673ffffffffffffffffffffffffffffffffffffffff16815260200191505060405180910390f35b6103b9611f0d565b604051808273ffffffffffffffffffffffffffffffffffffffff1673ffffffffffffffffffffffffffffffffffffffff16815260200191505060405180910390f35b610403611f33565b604051808273ffffffffffffffffffffffffffffffffffffffff1673ffffffffffffffffffffffffffffffffffffffff16815260200191505060405180910390f35b6104876004803603602081101561045b57600080fd5b81019080803573ffffffffffffffffffffffffffffffffffffffff169060200190929190505050611f59565b6040518082815260200191505060405180910390f35b6104a5611fa2565b604051808273ffffffffffffffffffffffffffffffffffffffff1673ffffffffffffffffffffffffffffffffffffffff16815260200191505060405180910390f35b610549600480360360408110156104fd57600080fd5b81019080803573ffffffffffffffffffffffffffffffffffffffff169060200190929190803573ffffffffffffffffffffffffffffffffffffffff169060200190929190505050611fc7565b604051808215151515815260200191505060405180910390f35b6105a56004803603602081101561057957600080fd5b81019080803573ffffffffffffffffffffffffffffffffffffffff169060200190929190505050612a0d565b6040518082815260200191505060405180910390f35b6105e7600480360360208110156105d157600080fd5b8101908080359060200190929190505050612a25565b604051808273ffffffffffffffffffffffffffffffffffffffff1673ffffffffffffffffffffffffffffffffffffffff16815260200191505060405180910390f35b6106756004803603604081101561063f57600080fd5b81019080803573ffffffffffffffffffffffffffffffffffffffff16906020019092919080359060200190929190505050612a61565b005b600360009054906101000a900473ffffffffffffffffffffffffffffffffffffffff1681565b600260009054906101000a900473ffffffffffffffffffffffffffffffffffffffff1673ffffffffffffffffffffffffffffffffffffffff163373ffffffffffffffffffffffffffffffffffffffff16146106f757600080fd5b6000600460009054906101000a900473ffffffffffffffffffffffffffffffffffffffff1673ffffffffffffffffffffffffffffffffffffffff1663cbd94cc4836040518263ffffffff1660e01b8152600401808273ffffffffffffffffffffffffffffffffffffffff1673ffffffffffffffffffffffffffffffffffffffff16815260200191505060206040518083038186803b15801561079857600080fd5b505afa1580156107ac573d6000803e3d6000fd5b505050506040513d60208110156107c257600080fd5b81019080805190602001909291905050509050806107df57600080fd5b600082905060008173ffffffffffffffffffffffffffffffffffffffff16631d1438486040518163ffffffff1660e01b815260040160206040518083038186803b15801561082c57600080fd5b505afa158015610840573d6000803e3d6000fd5b505050506040513d602081101561085657600080fd5b810190808051906020019092919050505073ffffffffffffffffffffffffffffffffffffffff16600260009054906101000a900473ffffffffffffffffffffffffffffffffffffffff1673ffffffffffffffffffffffffffffffffffffffff16148061098f57508173ffffffffffffffffffffffffffffffffffffffff16637150d8ae6040518163ffffffff1660e01b815260040160206040518083038186803b15801561090357600080fd5b505afa158015610917573d6000803e3d6000fd5b505050506040513d602081101561092d57600080fd5b810190808051906020019092919050505073ffffffffffffffffffffffffffffffffffffffff16600260009054906101000a900473ffffffffffffffffffffffffffffffffffffffff1673ffffffffffffffffffffffffffffffffffffffff16145b905060008273ffffffffffffffffffffffffffffffffffffffff1663086598ab6040518163ffffffff1660e01b815260040160206040518083038186803b1580156109d957600080fd5b505afa1580156109ed573d6000803e3d6000fd5b505050506040513d6020811015610a0357600080fd5b810190808051906020019092919050505073ffffffffffffffffffffffffffffffffffffffff163073ffffffffffffffffffffffffffffffffffffffff161480610af857508273ffffffffffffffffffffffffffffffffffffffff1663eb34c8496040518163ffffffff1660e01b815260040160206040518083038186803b158015610a8e57600080fd5b505afa158015610aa2573d6000803e3d6000fd5b505050506040513d6020811015610ab857600080fd5b810190808051906020019092919050505073ffffffffffffffffffffffffffffffffffffffff163073ffffffffffffffffffffffffffffffffffffffff16145b9050818015610b045750805b610b0d57600080fd5b60008373ffffffffffffffffffffffffffffffffffffffff1663a77f55996040518163ffffffff1660e01b815260040160206040518083038186803b158015610b5557600080fd5b505afa158015610b69573d6000803e3d6000fd5b505050506040513d6020811015610b7f57600080fd5b8101908080519060200190929190505050905060008473ffffffffffffffffffffffffffffffffffffffff16635f7271896040518163ffffffff1660e01b815260040160206040518083038186803b158015610bda57600080fd5b505afa158015610bee573d6000803e3d6000fd5b505050506040513d6020811015610c0457600080fd5b8101908080519060200190929190505050905060008273ffffffffffffffffffffffffffffffffffffffff166000809054906101000a900473ffffffffffffffffffffffffffffffffffffffff1673ffffffffffffffffffffffffffffffffffffffff161480610cc057508173ffffffffffffffffffffffffffffffffffffffff166000809054906101000a900473ffffffffffffffffffffffffffffffffffffffff1673ffffffffffffffffffffffffffffffffffffffff16145b905060008373ffffffffffffffffffffffffffffffffffffffff16600160009054906101000a900473ffffffffffffffffffffffffffffffffffffffff1673ffffffffffffffffffffffffffffffffffffffff161480610d6d57508273ffffffffffffffffffffffffffffffffffffffff16600160009054906101000a900473ffffffffffffffffffffffffffffffffffffffff1673ffffffffffffffffffffffffffffffffffffffff16145b9050818015610d795750805b8015610db157508273ffffffffffffffffffffffffffffffffffffffff168473ffffffffffffffffffffffffffffffffffffffff1614155b610dba57600080fd5b6000600160068b90806001815401808255809150509060018203906000526020600020016000909192909190916101000a81548173ffffffffffffffffffffffffffffffffffffffff021916908373ffffffffffffffffffffffffffffffffffffffff16021790555003905080600560008c73ffffffffffffffffffffffffffffffffffffffff1673ffffffffffffffffffffffffffffffffffffffff1681526020019081526020016000208190555050505050505050505050565b6000600560003373ffffffffffffffffffffffffffffffffffffffff1673ffffffffffffffffffffffffffffffffffffffff1681526020019081526020016000205411610ec257600080fd5b80600760008473ffffffffffffffffffffffffffffffffffffffff1673ffffffffffffffffffffffffffffffffffffffff168152602001908152602001600020819055505050565b60008060009054906101000a900473ffffffffffffffffffffffffffffffffffffffff1673ffffffffffffffffffffffffffffffffffffffff168373ffffffffffffffffffffffffffffffffffffffff161480610fb45750600160009054906101000a900473ffffffffffffffffffffffffffffffffffffffff1673ffffffffffffffffffffffffffffffffffffffff168373ffffffffffffffffffffffffffffffffffffffff16145b610fbd57600080fd5b6000600560003373ffffffffffffffffffffffffffffffffffffffff1673ffffffffffffffffffffffffffffffffffffffff168152602001908152602001600020541161100957600080fd5b60008373ffffffffffffffffffffffffffffffffffffffff1663095ea7b333856040518363ffffffff1660e01b8152600401808373ffffffffffffffffffffffffffffffffffffffff1673ffffffffffffffffffffffffffffffffffffffff16815260200182815260200192505050602060405180830381600087803b15801561109257600080fd5b505af11580156110a6573d6000803e3d6000fd5b505050506040513d60208110156110bc57600080fd5b81019080805190602001909291905050509050806110d957600080fd5b600191505092915050565b60056020528060005260406000206000915090505481565b600260009054906101000a900473ffffffffffffffffffffffffffffffffffffffff1673ffffffffffffffffffffffffffffffffffffffff163373ffffffffffffffffffffffffffffffffffffffff161461115657600080fd5b6000809054906101000a900473ffffffffffffffffffffffffffffffffffffffff1673ffffffffffffffffffffffffffffffffffffffff168273ffffffffffffffffffffffffffffffffffffffff1614806111fe5750600160009054906101000a900473ffffffffffffffffffffffffffffffffffffffff1673ffffffffffffffffffffffffffffffffffffffff168273ffffffffffffffffffffffffffffffffffffffff16145b61120757600080fd5b60008273ffffffffffffffffffffffffffffffffffffffff166323b872dd600260009054906101000a900473ffffffffffffffffffffffffffffffffffffffff1630856040518463ffffffff1660e01b8152600401808473ffffffffffffffffffffffffffffffffffffffff1673ffffffffffffffffffffffffffffffffffffffff1681526020018373ffffffffffffffffffffffffffffffffffffffff1673ffffffffffffffffffffffffffffffffffffffff1681526020018281526020019350505050602060405180830381600087803b1580156112e657600080fd5b505af11580156112fa573d6000803e3d6000fd5b505050506040513d602081101561131057600080fd5b810190808051906020019092919050505090508061132d57600080fd5b81600760008573ffffffffffffffffffffffffffffffffffffffff1673ffffffffffffffffffffffffffffffffffffffff1681526020019081526020016000205401600760008573ffffffffffffffffffffffffffffffffffffffff1673ffffffffffffffffffffffffffffffffffffffff16815260200190815260200160002081905550505050565b600080600560003373ffffffffffffffffffffffffffffffffffffffff1673ffffffffffffffffffffffffffffffffffffffff168152602001908152602001600020541161140457600080fd5b6000600560008573ffffffffffffffffffffffffffffffffffffffff1673ffffffffffffffffffffffffffffffffffffffff1681526020019081526020016000205411801561149257506000600560008473ffffffffffffffffffffffffffffffffffffffff1673ffffffffffffffffffffffffffffffffffffffff16815260200190815260200160002054115b61149b57600080fd5b600083905060008390508173ffffffffffffffffffffffffffffffffffffffff166314b80ae66040518163ffffffff1660e01b815260040160206040518083038186803b1580156114eb57600080fd5b505afa1580156114ff573d6000803e3d6000fd5b505050506040513d602081101561151557600080fd5b81019080805190602001909291905050508273ffffffffffffffffffffffffffffffffffffffff1663c19d93fb6040518163ffffffff1660e01b815260040160206040518083038186803b15801561156c57600080fd5b505afa158015611580573d6000803e3d6000fd5b505050506040513d602081101561159657600080fd5b8101908080519060200190929190505050146115b157600080fd5b8073ffffffffffffffffffffffffffffffffffffffff1663c80c07386040518163ffffffff1660e01b815260040160206040518083038186803b1580156115f757600080fd5b505afa15801561160b573d6000803e3d6000fd5b505050506040513d602081101561162157600080fd5b81019080805190602001909291905050508173ffffffffffffffffffffffffffffffffffffffff1663c19d93fb6040518163ffffffff1660e01b815260040160206040518083038186803b15801561167857600080fd5b505afa15801561168c573d6000803e3d6000fd5b505050506040513d60208110156116a257600080fd5b8101908080519060200190929190505050146116bd57600080fd5b8173ffffffffffffffffffffffffffffffffffffffff1663879a031a6040518163ffffffff1660e01b815260040160206040518083038186803b15801561170357600080fd5b505afa158015611717573d6000803e3d6000fd5b505050506040513d602081101561172d57600080fd5b81019080805190602001909291905050508173ffffffffffffffffffffffffffffffffffffffff1663879a031a6040518163ffffffff1660e01b815260040160206040518083038186803b15801561178457600080fd5b505afa158015611798573d6000803e3d6000fd5b505050506040513d60208110156117ae57600080fd5b810190808051906020019092919050505011156117ca57600080fd5b60008273ffffffffffffffffffffffffffffffffffffffff16635f7271896040518163ffffffff1660e01b815260040160206040518083038186803b15801561181257600080fd5b505afa158015611826573d6000803e3d6000fd5b505050506040513d602081101561183c57600080fd5b8101908080519060200190929190505050905060008273ffffffffffffffffffffffffffffffffffffffff16631d1438486040518163ffffffff1660e01b815260040160206040518083038186803b15801561189757600080fd5b505afa1580156118ab573d6000803e3d6000fd5b505050506040513d60208110156118c157600080fd5b810190808051906020019092919050505073ffffffffffffffffffffffffffffffffffffffff16600260009054906101000a900473ffffffffffffffffffffffffffffffffffffffff1673ffffffffffffffffffffffffffffffffffffffff161480156119d957508173ffffffffffffffffffffffffffffffffffffffff168373ffffffffffffffffffffffffffffffffffffffff1663a77f55996040518163ffffffff1660e01b815260040160206040518083038186803b15801561198657600080fd5b505afa15801561199a573d6000803e3d6000fd5b505050506040513d60208110156119b057600080fd5b810190808051906020019092919050505073ffffffffffffffffffffffffffffffffffffffff16145b905060008373ffffffffffffffffffffffffffffffffffffffff16637150d8ae6040518163ffffffff1660e01b815260040160206040518083038186803b158015611a2357600080fd5b505afa158015611a37573d6000803e3d6000fd5b505050506040513d6020811015611a4d57600080fd5b810190808051906020019092919050505073ffffffffffffffffffffffffffffffffffffffff16600260009054906101000a900473ffffffffffffffffffffffffffffffffffffffff1673ffffffffffffffffffffffffffffffffffffffff16148015611b6557508273ffffffffffffffffffffffffffffffffffffffff168473ffffffffffffffffffffffffffffffffffffffff16635f7271896040518163ffffffff1660e01b815260040160206040518083038186803b158015611b1257600080fd5b505afa158015611b26573d6000803e3d6000fd5b505050506040513d6020811015611b3c57600080fd5b810190808051906020019092919050505073ffffffffffffffffffffffffffffffffffffffff16145b90508180611b705750805b611b7957600080fd5b600082611c06578473ffffffffffffffffffffffffffffffffffffffff166362fcb8236040518163ffffffff1660e01b815260040160206040518083038186803b158015611bc657600080fd5b505afa158015611bda573d6000803e3d6000fd5b505050506040513d6020811015611bf057600080fd5b8101908080519060200190929190505050611c88565b8473ffffffffffffffffffffffffffffffffffffffff166302b2c2b06040518163ffffffff1660e01b815260040160206040518083038186803b158015611c4c57600080fd5b505afa158015611c60573d6000803e3d6000fd5b505050506040513d6020811015611c7657600080fd5b81019080805190602001909291905050505b905060008673ffffffffffffffffffffffffffffffffffffffff1663c618a1e46040518163ffffffff1660e01b815260040160206040518083038186803b158015611cd257600080fd5b505afa158015611ce6573d6000803e3d6000fd5b505050506040513d6020811015611cfc57600080fd5b810190808051906020019092919050505090506000828211611d1e5781611d20565b825b905080600760008a73ffffffffffffffffffffffffffffffffffffffff16635f7271896040518163ffffffff1660e01b815260040160206040518083038186803b158015611d6d57600080fd5b505afa158015611d81573d6000803e3d6000fd5b505050506040513d6020811015611d9757600080fd5b810190808051906020019092919050505073ffffffffffffffffffffffffffffffffffffffff1673ffffffffffffffffffffffffffffffffffffffff168152602001908152602001600020600082825401925050819055508415611e67578673ffffffffffffffffffffffffffffffffffffffff16635b463c918285036040518263ffffffff1660e01b815260040180828152602001915050600060405180830381600087803b158015611e4a57600080fd5b505af1158015611e5e573d6000803e3d6000fd5b50505050611ed5565b8673ffffffffffffffffffffffffffffffffffffffff1663c7853a8b8285036040518263ffffffff1660e01b815260040180828152602001915050600060405180830381600087803b158015611ebc57600080fd5b505af1158015611ed0573d6000803e3d6000fd5b505050505b60019850505050505050505092915050565b600160009054906101000a900473ffffffffffffffffffffffffffffffffffffffff1681565b600460009054906101000a900473ffffffffffffffffffffffffffffffffffffffff1681565b600260009054906101000a900473ffffffffffffffffffffffffffffffffffffffff1681565b6000600760008373ffffffffffffffffffffffffffffffffffffffff1673ffffffffffffffffffffffffffffffffffffffff168152602001908152602001600020549050919050565b6000809054906101000a900473ffffffffffffffffffffffffffffffffffffffff1681565b600080600560003373ffffffffffffffffffffffffffffffffffffffff1673ffffffffffffffffffffffffffffffffffffffff168152602001908152602001600020541161201457600080fd5b6000600560008573ffffffffffffffffffffffffffffffffffffffff1673ffffffffffffffffffffffffffffffffffffffff168152602001908152602001600020541180156120a257506000600560008473ffffffffffffffffffffffffffffffffffffffff1673ffffffffffffffffffffffffffffffffffffffff16815260200190815260200160002054115b6120ab57600080fd5b600083905060008390508173ffffffffffffffffffffffffffffffffffffffff16635ab533ac6040518163ffffffff1660e01b815260040160206040518083038186803b1580156120fb57600080fd5b505afa15801561210f573d6000803e3d6000fd5b505050506040513d602081101561212557600080fd5b81019080805190602001909291905050508273ffffffffffffffffffffffffffffffffffffffff1663c19d93fb6040518163ffffffff1660e01b815260040160206040518083038186803b15801561217c57600080fd5b505afa158015612190573d6000803e3d6000fd5b505050506040513d60208110156121a657600080fd5b8101908080519060200190929190505050146121c157600080fd5b8073ffffffffffffffffffffffffffffffffffffffff1663c80c07386040518163ffffffff1660e01b815260040160206040518083038186803b15801561220757600080fd5b505afa15801561221b573d6000803e3d6000fd5b505050506040513d602081101561223157600080fd5b81019080805190602001909291905050508173ffffffffffffffffffffffffffffffffffffffff1663c19d93fb6040518163ffffffff1660e01b815260040160206040518083038186803b15801561228857600080fd5b505afa15801561229c573d6000803e3d6000fd5b505050506040513d60208110156122b257600080fd5b8101908080519060200190929190505050146122cd57600080fd5b8173ffffffffffffffffffffffffffffffffffffffff1663879a031a6040518163ffffffff1660e01b815260040160206040518083038186803b15801561231357600080fd5b505afa158015612327573d6000803e3d6000fd5b505050506040513d602081101561233d57600080fd5b81019080805190602001909291905050508173ffffffffffffffffffffffffffffffffffffffff1663879a031a6040518163ffffffff1660e01b815260040160206040518083038186803b15801561239457600080fd5b505afa1580156123a8573d6000803e3d6000fd5b505050506040513d60208110156123be57600080fd5b810190808051906020019092919050505011156123da57600080fd5b60008273ffffffffffffffffffffffffffffffffffffffff1663a77f55996040518163ffffffff1660e01b815260040160206040518083038186803b15801561242257600080fd5b505afa158015612436573d6000803e3d6000fd5b505050506040513d602081101561244c57600080fd5b8101908080519060200190929190505050905060008273ffffffffffffffffffffffffffffffffffffffff16631d1438486040518163ffffffff1660e01b815260040160206040518083038186803b1580156124a757600080fd5b505afa1580156124bb573d6000803e3d6000fd5b505050506040513d60208110156124d157600080fd5b810190808051906020019092919050505073ffffffffffffffffffffffffffffffffffffffff16600260009054906101000a900473ffffffffffffffffffffffffffffffffffffffff1673ffffffffffffffffffffffffffffffffffffffff161480156125e957508173ffffffffffffffffffffffffffffffffffffffff168373ffffffffffffffffffffffffffffffffffffffff1663a77f55996040518163ffffffff1660e01b815260040160206040518083038186803b15801561259657600080fd5b505afa1580156125aa573d6000803e3d6000fd5b505050506040513d60208110156125c057600080fd5b810190808051906020019092919050505073ffffffffffffffffffffffffffffffffffffffff16145b905060008373ffffffffffffffffffffffffffffffffffffffff16637150d8ae6040518163ffffffff1660e01b815260040160206040518083038186803b15801561263357600080fd5b505afa158015612647573d6000803e3d6000fd5b505050506040513d602081101561265d57600080fd5b810190808051906020019092919050505073ffffffffffffffffffffffffffffffffffffffff16600260009054906101000a900473ffffffffffffffffffffffffffffffffffffffff1673ffffffffffffffffffffffffffffffffffffffff1614801561277557508273ffffffffffffffffffffffffffffffffffffffff168473ffffffffffffffffffffffffffffffffffffffff16635f7271896040518163ffffffff1660e01b815260040160206040518083038186803b15801561272257600080fd5b505afa158015612736573d6000803e3d6000fd5b505050506040513d602081101561274c57600080fd5b810190808051906020019092919050505073ffffffffffffffffffffffffffffffffffffffff16145b905081806127805750805b61278957600080fd5b600082612816578473ffffffffffffffffffffffffffffffffffffffff166362fcb8236040518163ffffffff1660e01b815260040160206040518083038186803b1580156127d657600080fd5b505afa1580156127ea573d6000803e3d6000fd5b505050506040513d602081101561280057600080fd5b8101908080519060200190929190505050612898565b8473ffffffffffffffffffffffffffffffffffffffff166302b2c2b06040518163ffffffff1660e01b815260040160206040518083038186803b15801561285c57600080fd5b505afa158015612870573d6000803e3d6000fd5b505050506040513d602081101561288657600080fd5b81019080805190602001909291905050505b905060008673ffffffffffffffffffffffffffffffffffffffff166316b818446040518163ffffffff1660e01b815260040160206040518083038186803b1580156128e257600080fd5b505afa1580156128f6573d6000803e3d6000fd5b505050506040513d602081101561290c57600080fd5b81019080805190602001909291905050509050600082821161292e5781612930565b825b905080600760008a73ffffffffffffffffffffffffffffffffffffffff1663a77f55996040518163ffffffff1660e01b815260040160206040518083038186803b15801561297d57600080fd5b505afa158015612991573d6000803e3d6000fd5b505050506040513d60208110156129a757600080fd5b810190808051906020019092919050505073ffffffffffffffffffffffffffffffffffffffff1673ffffffffffffffffffffffffffffffffffffffff16815260200190815260200160002060008282540192505081905550505050505050505092915050565b60076020528060005260406000206000915090505481565b60068181548110612a3257fe5b906000526020600020016000915054906101000a900473ffffffffffffffffffffffffffffffffffffffff1681565b600260009054906101000a900473ffffffffffffffffffffffffffffffffffffffff1673ffffffffffffffffffffffffffffffffffffffff163373ffffffffffffffffffffffffffffffffffffffff1614612abb57600080fd5b80600760008473ffffffffffffffffffffffffffffffffffffffff1673ffffffffffffffffffffffffffffffffffffffff168152602001908152602001600020541015612b0757600080fd5b60008273ffffffffffffffffffffffffffffffffffffffff1663a9059cbb600260009054906101000a900473ffffffffffffffffffffffffffffffffffffffff16846040518363ffffffff1660e01b8152600401808373ffffffffffffffffffffffffffffffffffffffff1673ffffffffffffffffffffffffffffffffffffffff16815260200182815260200192505050602060405180830381600087803b158015612bb257600080fd5b505af1158015612bc6573d6000803e3d6000fd5b505050506040513d6020811015612bdc57600080fd5b8101908080519060200190929190505050905080612bf957600080fd5b81600760008573ffffffffffffffffffffffffffffffffffffffff1673ffffffffffffffffffffffffffffffffffffffff1681526020019081526020016000205403600760008573ffffffffffffffffffffffffffffffffffffffff1673ffffffffffffffffffffffffffffffffffffffff1681526020019081526020016000208190555050505056fea165627a7a72305820819687842bc31ea6052e6dc7a486c51bcf253eb45953b29d07907f2e9f895cd70029",
  "source": "pragma solidity >=0.4.21 <0.6.0;\n\nimport \"../forwards/ManagedForward.sol\";\nimport \"../factories/ManagedForwardFactory.sol\";\n\ncontract Portfolio {\n\n  // The two tokens this portfolio matches trades on\n  address public base_addr;\n  address public asset_addr;\n\n  // Information on owner and where this portfolio's forwards are minted\n  address public owner;\n  address public managed_forward_factory_addr;\n  ManagedForwardFactory public managed_forward_factory;\n\n  // Map stores indices, list stores the actual forwards\n  mapping(address => uint256) public my_forward_indices;\n  address[] public my_forwards;\n\n  // How much volume of each token is available?\n  mapping(address => uint256) public volume_available;\n\n  constructor(address _base_addr, address _asset_addr,\n              address _owner, address _managed_forward_factory_addr) public {\n    require(_base_addr != _asset_addr);\n    base_addr = _base_addr;\n    asset_addr = _asset_addr;\n\n    owner = _owner;\n    managed_forward_factory_addr = _managed_forward_factory_addr;\n    managed_forward_factory = ManagedForwardFactory(managed_forward_factory_addr);\n    my_forwards.push(address(0));\n  }\n\n  function add_managed_forward(address managed_forward_addr) public {\n    require(msg.sender == owner);\n\n    bool is_from_factory = managed_forward_factory.get_created_forward(managed_forward_addr);\n    require(is_from_factory);\n\n    ManagedForward managed_forward = ManagedForward(managed_forward_addr);\n    bool owner_party = ((owner == managed_forward.issuer()) || (owner == managed_forward.buyer()));\n    bool portfolio_party = ((address(this) == managed_forward.issuer_portfolio_addr()) ||\n                            (address(this) == managed_forward.buyer_portfolio_addr()));\n    require(owner_party && portfolio_party);\n\n    address fwd_base_addr = managed_forward.base_addr();\n    address fwd_asset_addr = managed_forward.asset_addr();\n    bool my_base_traded = (base_addr == fwd_base_addr) || (base_addr == fwd_asset_addr);\n    bool my_asset_traded = (asset_addr == fwd_base_addr) || (asset_addr == fwd_asset_addr);\n    require(my_base_traded && my_asset_traded && (fwd_base_addr != fwd_asset_addr));\n\n    uint index = my_forwards.push(managed_forward_addr) - 1;\n    my_forward_indices[managed_forward_addr] = index;\n  }\n\n  function approve_managed_forward(address token_addr, uint256 value) public returns (bool) {\n    require(token_addr == base_addr || token_addr == asset_addr);\n    require(my_forward_indices[msg.sender] > 0);\n    bool approve_call = ERC20(token_addr).approve(msg.sender, value);\n    require(approve_call);\n    return true;\n  }\n\n  function set_volume_available(address token_addr, uint256 value) public {\n    require(my_forward_indices[msg.sender] > 0);\n    volume_available[token_addr] = value;\n  }\n\n  // // NOTE: Under new architecture, can't just match retroactively.\n\n  // old_fwd is already active, and pays out at the same time as or before new_fwd does, in new_fwd's asset currency\n  function match_collateralize(address new_fwd_addr, address old_fwd_addr) public returns (bool) {\n    require(my_forward_indices[msg.sender] > 0);\n    require((my_forward_indices[new_fwd_addr] > 0) && (my_forward_indices[old_fwd_addr] > 0));\n\n    ManagedForward new_fwd = ManagedForward(new_fwd_addr);\n    ManagedForward old_fwd = ManagedForward(old_fwd_addr);\n    // new_fwd is being collateralized\n    require(new_fwd.state() == new_fwd.STATE_INITIALIZED());\n    // old_fwd is already active\n    require(old_fwd.state() == old_fwd.STATE_ACTIVE());\n    // and pays out at the same time as or before new_fwd does\n    require(old_fwd.maturity_time() <= new_fwd.maturity_time());\n    // in new_fwd's asset currency\n    address new_asset = new_fwd.asset_addr();\n    bool base_to_asset = ((owner == old_fwd.issuer()) && (old_fwd.base_addr() == new_asset));\n    bool asset_to_asset = ((owner == old_fwd.buyer()) && (old_fwd.asset_addr() == new_asset));\n    require(base_to_asset || asset_to_asset);\n\n    // Credit you in advance with old_fwd's payout, up to a limit of new_fwd's volume\n    uint256 old_unmatched = (base_to_asset ?\n                            old_fwd.unmatched_base_volume() :\n                            old_fwd.unmatched_asset_volume());\n    uint256 new_volume = new_fwd.volume();\n    uint256 additional_credit = (new_volume > old_unmatched ?\n                                              old_unmatched :\n                                              new_volume);\n    volume_available[new_fwd.asset_addr()] += additional_credit;\n\n    // Update the old_fwd unmatched volume\n    if (base_to_asset) {\n      old_fwd.set_unmatched_base_volume(old_unmatched - additional_credit);\n    } else {\n      old_fwd.set_unmatched_asset_volume(old_unmatched - additional_credit);\n    }\n\n   return true;\n  }\n\n  // old_fwd is already active, and pays out at the same time as or before new_fwd does, in new_fwd's base currency\n  function match_activate(address new_fwd_addr, address old_fwd_addr) public returns (bool) {\n    require(my_forward_indices[msg.sender] > 0);\n    require((my_forward_indices[new_fwd_addr] > 0) && (my_forward_indices[old_fwd_addr] > 0));\n\n    ManagedForward new_fwd = ManagedForward(new_fwd_addr);\n    ManagedForward old_fwd = ManagedForward(old_fwd_addr);\n    // new_fwd is being activated\n    require(new_fwd.state() == new_fwd.STATE_COLLATERALIZED());\n    // old_fwd is already active\n    require(old_fwd.state() == old_fwd.STATE_ACTIVE());\n    // and pays out at the same time as or before new_fwd does\n    require(old_fwd.maturity_time() <= new_fwd.maturity_time());\n    // in new_fwd's base currency\n    address new_base = new_fwd.base_addr();\n    bool base_to_base = ((owner == old_fwd.issuer()) && (old_fwd.base_addr() == new_base));\n    bool asset_to_base = ((owner == old_fwd.buyer()) && (old_fwd.asset_addr() == new_base));\n    require(base_to_base || asset_to_base);\n\n    // Credit you in advance with old_fwd's payout, up to a limit of new_fwd's base_volume\n    uint256 old_unmatched = (base_to_base ?\n                            old_fwd.unmatched_base_volume() :\n                            old_fwd.unmatched_asset_volume());\n    uint256 new_volume = new_fwd.base_volume();\n    uint256 additional_credit = (new_volume > old_unmatched ?\n                                              old_unmatched :\n                                              new_volume);\n    volume_available[new_fwd.base_addr()] += additional_credit;\n  }\n\n  // Deposit a token into this Portfolio\n  function deposit(address token_addr, uint256 value) public {\n    require(msg.sender == owner);\n    require((token_addr == base_addr) || (token_addr == asset_addr));\n    bool token_transfer = ERC20(token_addr).transferFrom(owner, address(this), value);\n    require(token_transfer);\n    volume_available[token_addr] = volume_available[token_addr] + value;\n  }\n\n  // Withdraw a token from this Portfolio\n  function withdraw(address token_addr, uint256 value) public {\n    require(msg.sender == owner);\n    require(volume_available[token_addr] >= value);\n    bool token_transfer = ERC20(token_addr).transfer(owner, value);\n    require(token_transfer);\n    volume_available[token_addr] = volume_available[token_addr] - value;\n  }\n\n  function get_volume_available(address token_addr) public view returns (uint256) {\n    return volume_available[token_addr];\n  }\n}\n",
  "sourcePath": "/Users/Karim/Desktop/atomicoptions/contracts/src/auxiliary/Portfolio.sol",
  "compiler": {
    "name": "solc",
    "version": "0.5.8+commit.23d335f2.Emscripten.clang"
  },
  "schemaVersion": "3.0.16",
  "updatedAt": "2019-10-16T16:48:40.969Z",
  "devdoc": {
    "methods": {}
  },
  "userdoc": {
    "methods": {}
  }
}