{
  "contractName": "PortfolioFactory",
  "abi": [
    {
      "constant": true,
      "inputs": [
        {
          "name": "",
          "type": "address"
        }
      ],
      "name": "created_portfolios",
      "outputs": [
        {
          "name": "",
          "type": "bool"
        }
      ],
      "payable": false,
      "stateMutability": "view",
      "type": "function"
    },
    {
      "anonymous": false,
      "inputs": [
        {
          "indexed": false,
          "name": "portfolio",
          "type": "address"
        }
      ],
      "name": "NewPortfolio",
      "type": "event"
    },
    {
      "constant": false,
      "inputs": [
        {
          "name": "_base_addr",
          "type": "address"
        },
        {
          "name": "_asset_addr",
          "type": "address"
        },
        {
          "name": "_managed_forward_factory_addr",
          "type": "address"
        }
      ],
      "name": "create_portfolio",
      "outputs": [
        {
          "name": "",
          "type": "address"
        }
      ],
      "payable": false,
      "stateMutability": "nonpayable",
      "type": "function"
    }
  ],
  "bytecode": "0x608060405234801561001057600080fd5b506135b8806100206000396000f3fe608060405234801561001057600080fd5b50600436106100365760003560e01c80638bdf977d1461003b57806392d52774146100ff575b600080fd5b6100bd6004803603606081101561005157600080fd5b81019080803573ffffffffffffffffffffffffffffffffffffffff169060200190929190803573ffffffffffffffffffffffffffffffffffffffff169060200190929190803573ffffffffffffffffffffffffffffffffffffffff16906020019092919050505061015b565b604051808273ffffffffffffffffffffffffffffffffffffffff1673ffffffffffffffffffffffffffffffffffffffff16815260200191505060405180910390f35b6101416004803603602081101561011557600080fd5b81019080803573ffffffffffffffffffffffffffffffffffffffff169060200190929190505050610321565b604051808215151515815260200191505060405180910390f35b6000808484338560405161016e90610341565b808573ffffffffffffffffffffffffffffffffffffffff1673ffffffffffffffffffffffffffffffffffffffff1681526020018473ffffffffffffffffffffffffffffffffffffffff1673ffffffffffffffffffffffffffffffffffffffff1681526020018373ffffffffffffffffffffffffffffffffffffffff1673ffffffffffffffffffffffffffffffffffffffff1681526020018273ffffffffffffffffffffffffffffffffffffffff1673ffffffffffffffffffffffffffffffffffffffff168152602001945050505050604051809103906000f080158015610259573d6000803e3d6000fd5b50905060016000808373ffffffffffffffffffffffffffffffffffffffff1673ffffffffffffffffffffffffffffffffffffffff16815260200190815260200160002060006101000a81548160ff0219169083151502179055507f1a7f70db4a9f0c0170f00fbcaef4b38f5b0b84993ece8e212ef358df9a8c1a7481604051808273ffffffffffffffffffffffffffffffffffffffff1673ffffffffffffffffffffffffffffffffffffffff16815260200191505060405180910390a1809150509392505050565b60006020528060005260406000206000915054906101000a900460ff1681565b61323e8061034f8339019056fe608060405234801561001057600080fd5b5060405160808061323e8339810180604052608081101561003057600080fd5b81019080805190602001909291908051906020019092919080519060200190929190805190602001909291905050508273ffffffffffffffffffffffffffffffffffffffff168473ffffffffffffffffffffffffffffffffffffffff16141561009857600080fd5b836000806101000a81548173ffffffffffffffffffffffffffffffffffffffff021916908373ffffffffffffffffffffffffffffffffffffffff16021790555082600160006101000a81548173ffffffffffffffffffffffffffffffffffffffff021916908373ffffffffffffffffffffffffffffffffffffffff16021790555081600260006101000a81548173ffffffffffffffffffffffffffffffffffffffff021916908373ffffffffffffffffffffffffffffffffffffffff16021790555080600360006101000a81548173ffffffffffffffffffffffffffffffffffffffff021916908373ffffffffffffffffffffffffffffffffffffffff160217905550600360009054906101000a900473ffffffffffffffffffffffffffffffffffffffff16600460006101000a81548173ffffffffffffffffffffffffffffffffffffffff021916908373ffffffffffffffffffffffffffffffffffffffff1602179055506006600090806001815401808255809150509060018203906000526020600020016000909192909190916101000a81548173ffffffffffffffffffffffffffffffffffffffff021916908373ffffffffffffffffffffffffffffffffffffffff1602179055505050505050612fc6806102786000396000f3fe608060405234801561001057600080fd5b50600436106101145760003560e01c806360583488116100a2578063a77f559911610071578063a77f5599146105fc578063c2bc745014610646578063d3376c1d146106c2578063e9fc07cd1461071a578063f3fef3a31461078857610114565b8063605834881461041f5780637d0922b6146105105780638da5cb5b1461055a5780639ab849ea146105a457610114565b806324587910116100e9578063245879101461025b5780633ba99bf6146102b357806347e7ef241461030b57806358ec5c04146103595780635f727189146103d557610114565b806202aff014610119578062e9aa691461016357806302e4c75c146101a757806314627962146101f5575b600080fd5b6101216107d6565b604051808273ffffffffffffffffffffffffffffffffffffffff1673ffffffffffffffffffffffffffffffffffffffff16815260200191505060405180910390f35b6101a56004803603602081101561017957600080fd5b81019080803573ffffffffffffffffffffffffffffffffffffffff1690602001909291905050506107fc565b005b6101f3600480360360408110156101bd57600080fd5b81019080803573ffffffffffffffffffffffffffffffffffffffff16906020019092919080359060200190929190505050610fd5565b005b6102416004803603604081101561020b57600080fd5b81019080803573ffffffffffffffffffffffffffffffffffffffff16906020019092919080359060200190929190505050611069565b604051808215151515815260200191505060405180910390f35b61029d6004803603602081101561027157600080fd5b81019080803573ffffffffffffffffffffffffffffffffffffffff169060200190929190505050611243565b6040518082815260200191505060405180910390f35b6102f5600480360360208110156102c957600080fd5b81019080803573ffffffffffffffffffffffffffffffffffffffff16906020019092919050505061128c565b6040518082815260200191505060405180910390f35b6103576004803603604081101561032157600080fd5b81019080803573ffffffffffffffffffffffffffffffffffffffff169060200190929190803590602001909291905050506112a4565b005b6103bb6004803603604081101561036f57600080fd5b81019080803573ffffffffffffffffffffffffffffffffffffffff169060200190929190803573ffffffffffffffffffffffffffffffffffffffff16906020019092919050505061155f565b604051808215151515815260200191505060405180910390f35b6103dd61208f565b604051808273ffffffffffffffffffffffffffffffffffffffff1673ffffffffffffffffffffffffffffffffffffffff16815260200191505060405180910390f35b6104276120b5565b604051808773ffffffffffffffffffffffffffffffffffffffff1673ffffffffffffffffffffffffffffffffffffffff1681526020018673ffffffffffffffffffffffffffffffffffffffff1673ffffffffffffffffffffffffffffffffffffffff1681526020018573ffffffffffffffffffffffffffffffffffffffff1673ffffffffffffffffffffffffffffffffffffffff1681526020018473ffffffffffffffffffffffffffffffffffffffff1673ffffffffffffffffffffffffffffffffffffffff168152602001838152602001828152602001965050505050505060405180910390f35b610518612220565b604051808273ffffffffffffffffffffffffffffffffffffffff1673ffffffffffffffffffffffffffffffffffffffff16815260200191505060405180910390f35b610562612246565b604051808273ffffffffffffffffffffffffffffffffffffffff1673ffffffffffffffffffffffffffffffffffffffff16815260200191505060405180910390f35b6105e6600480360360208110156105ba57600080fd5b81019080803573ffffffffffffffffffffffffffffffffffffffff16906020019092919050505061226c565b6040518082815260200191505060405180910390f35b6106046122b5565b604051808273ffffffffffffffffffffffffffffffffffffffff1673ffffffffffffffffffffffffffffffffffffffff16815260200191505060405180910390f35b6106a86004803603604081101561065c57600080fd5b81019080803573ffffffffffffffffffffffffffffffffffffffff169060200190929190803573ffffffffffffffffffffffffffffffffffffffff1690602001909291905050506122da565b604051808215151515815260200191505060405180910390f35b610704600480360360208110156106d857600080fd5b81019080803573ffffffffffffffffffffffffffffffffffffffff169060200190929190505050612d24565b6040518082815260200191505060405180910390f35b6107466004803603602081101561073057600080fd5b8101908080359060200190929190505050612d3c565b604051808273ffffffffffffffffffffffffffffffffffffffff1673ffffffffffffffffffffffffffffffffffffffff16815260200191505060405180910390f35b6107d46004803603604081101561079e57600080fd5b81019080803573ffffffffffffffffffffffffffffffffffffffff16906020019092919080359060200190929190505050612d78565b005b600360009054906101000a900473ffffffffffffffffffffffffffffffffffffffff1681565b600260009054906101000a900473ffffffffffffffffffffffffffffffffffffffff1673ffffffffffffffffffffffffffffffffffffffff163373ffffffffffffffffffffffffffffffffffffffff161461085657600080fd5b6000600460009054906101000a900473ffffffffffffffffffffffffffffffffffffffff1673ffffffffffffffffffffffffffffffffffffffff1663cbd94cc4836040518263ffffffff1660e01b8152600401808273ffffffffffffffffffffffffffffffffffffffff1673ffffffffffffffffffffffffffffffffffffffff16815260200191505060206040518083038186803b1580156108f757600080fd5b505afa15801561090b573d6000803e3d6000fd5b505050506040513d602081101561092157600080fd5b810190808051906020019092919050505090508061093e57600080fd5b600082905060008173ffffffffffffffffffffffffffffffffffffffff16631d1438486040518163ffffffff1660e01b815260040160206040518083038186803b15801561098b57600080fd5b505afa15801561099f573d6000803e3d6000fd5b505050506040513d60208110156109b557600080fd5b810190808051906020019092919050505073ffffffffffffffffffffffffffffffffffffffff16600260009054906101000a900473ffffffffffffffffffffffffffffffffffffffff1673ffffffffffffffffffffffffffffffffffffffff161480610aee57508173ffffffffffffffffffffffffffffffffffffffff16637150d8ae6040518163ffffffff1660e01b815260040160206040518083038186803b158015610a6257600080fd5b505afa158015610a76573d6000803e3d6000fd5b505050506040513d6020811015610a8c57600080fd5b810190808051906020019092919050505073ffffffffffffffffffffffffffffffffffffffff16600260009054906101000a900473ffffffffffffffffffffffffffffffffffffffff1673ffffffffffffffffffffffffffffffffffffffff16145b905060008273ffffffffffffffffffffffffffffffffffffffff1663086598ab6040518163ffffffff1660e01b815260040160206040518083038186803b158015610b3857600080fd5b505afa158015610b4c573d6000803e3d6000fd5b505050506040513d6020811015610b6257600080fd5b810190808051906020019092919050505073ffffffffffffffffffffffffffffffffffffffff163073ffffffffffffffffffffffffffffffffffffffff161480610c5757508273ffffffffffffffffffffffffffffffffffffffff1663eb34c8496040518163ffffffff1660e01b815260040160206040518083038186803b158015610bed57600080fd5b505afa158015610c01573d6000803e3d6000fd5b505050506040513d6020811015610c1757600080fd5b810190808051906020019092919050505073ffffffffffffffffffffffffffffffffffffffff163073ffffffffffffffffffffffffffffffffffffffff16145b9050818015610c635750805b610c6c57600080fd5b60008373ffffffffffffffffffffffffffffffffffffffff1663a77f55996040518163ffffffff1660e01b815260040160206040518083038186803b158015610cb457600080fd5b505afa158015610cc8573d6000803e3d6000fd5b505050506040513d6020811015610cde57600080fd5b8101908080519060200190929190505050905060008473ffffffffffffffffffffffffffffffffffffffff16635f7271896040518163ffffffff1660e01b815260040160206040518083038186803b158015610d3957600080fd5b505afa158015610d4d573d6000803e3d6000fd5b505050506040513d6020811015610d6357600080fd5b8101908080519060200190929190505050905060008273ffffffffffffffffffffffffffffffffffffffff166000809054906101000a900473ffffffffffffffffffffffffffffffffffffffff1673ffffffffffffffffffffffffffffffffffffffff161480610e1f57508173ffffffffffffffffffffffffffffffffffffffff166000809054906101000a900473ffffffffffffffffffffffffffffffffffffffff1673ffffffffffffffffffffffffffffffffffffffff16145b905060008373ffffffffffffffffffffffffffffffffffffffff16600160009054906101000a900473ffffffffffffffffffffffffffffffffffffffff1673ffffffffffffffffffffffffffffffffffffffff161480610ecc57508273ffffffffffffffffffffffffffffffffffffffff16600160009054906101000a900473ffffffffffffffffffffffffffffffffffffffff1673ffffffffffffffffffffffffffffffffffffffff16145b9050818015610ed85750805b8015610f1057508273ffffffffffffffffffffffffffffffffffffffff168473ffffffffffffffffffffffffffffffffffffffff1614155b610f1957600080fd5b6000600160068b90806001815401808255809150509060018203906000526020600020016000909192909190916101000a81548173ffffffffffffffffffffffffffffffffffffffff021916908373ffffffffffffffffffffffffffffffffffffffff16021790555003905080600560008c73ffffffffffffffffffffffffffffffffffffffff1673ffffffffffffffffffffffffffffffffffffffff1681526020019081526020016000208190555050505050505050505050565b6000600560003373ffffffffffffffffffffffffffffffffffffffff1673ffffffffffffffffffffffffffffffffffffffff168152602001908152602001600020541161102157600080fd5b80600760008473ffffffffffffffffffffffffffffffffffffffff1673ffffffffffffffffffffffffffffffffffffffff168152602001908152602001600020819055505050565b60008060009054906101000a900473ffffffffffffffffffffffffffffffffffffffff1673ffffffffffffffffffffffffffffffffffffffff168373ffffffffffffffffffffffffffffffffffffffff1614806111135750600160009054906101000a900473ffffffffffffffffffffffffffffffffffffffff1673ffffffffffffffffffffffffffffffffffffffff168373ffffffffffffffffffffffffffffffffffffffff16145b61111c57600080fd5b6000600560003373ffffffffffffffffffffffffffffffffffffffff1673ffffffffffffffffffffffffffffffffffffffff168152602001908152602001600020541161116857600080fd5b60008373ffffffffffffffffffffffffffffffffffffffff1663095ea7b333856040518363ffffffff1660e01b8152600401808373ffffffffffffffffffffffffffffffffffffffff1673ffffffffffffffffffffffffffffffffffffffff16815260200182815260200192505050602060405180830381600087803b1580156111f157600080fd5b505af1158015611205573d6000803e3d6000fd5b505050506040513d602081101561121b57600080fd5b810190808051906020019092919050505090508061123857600080fd5b600191505092915050565b6000600560008373ffffffffffffffffffffffffffffffffffffffff1673ffffffffffffffffffffffffffffffffffffffff168152602001908152602001600020549050919050565b60056020528060005260406000206000915090505481565b600260009054906101000a900473ffffffffffffffffffffffffffffffffffffffff1673ffffffffffffffffffffffffffffffffffffffff163373ffffffffffffffffffffffffffffffffffffffff16146112fe57600080fd5b6000809054906101000a900473ffffffffffffffffffffffffffffffffffffffff1673ffffffffffffffffffffffffffffffffffffffff168273ffffffffffffffffffffffffffffffffffffffff1614806113a65750600160009054906101000a900473ffffffffffffffffffffffffffffffffffffffff1673ffffffffffffffffffffffffffffffffffffffff168273ffffffffffffffffffffffffffffffffffffffff16145b6113af57600080fd5b60008273ffffffffffffffffffffffffffffffffffffffff166323b872dd600260009054906101000a900473ffffffffffffffffffffffffffffffffffffffff1630856040518463ffffffff1660e01b8152600401808473ffffffffffffffffffffffffffffffffffffffff1673ffffffffffffffffffffffffffffffffffffffff1681526020018373ffffffffffffffffffffffffffffffffffffffff1673ffffffffffffffffffffffffffffffffffffffff1681526020018281526020019350505050602060405180830381600087803b15801561148e57600080fd5b505af11580156114a2573d6000803e3d6000fd5b505050506040513d60208110156114b857600080fd5b81019080805190602001909291905050509050806114d557600080fd5b81600760008573ffffffffffffffffffffffffffffffffffffffff1673ffffffffffffffffffffffffffffffffffffffff1681526020019081526020016000205401600760008573ffffffffffffffffffffffffffffffffffffffff1673ffffffffffffffffffffffffffffffffffffffff16815260200190815260200160002081905550505050565b600080600560003373ffffffffffffffffffffffffffffffffffffffff1673ffffffffffffffffffffffffffffffffffffffff16815260200190815260200160002054116115ac57600080fd5b6000600560008573ffffffffffffffffffffffffffffffffffffffff1673ffffffffffffffffffffffffffffffffffffffff1681526020019081526020016000205411801561163a57506000600560008473ffffffffffffffffffffffffffffffffffffffff1673ffffffffffffffffffffffffffffffffffffffff16815260200190815260200160002054115b61164357600080fd5b600083905060008390508173ffffffffffffffffffffffffffffffffffffffff166314b80ae66040518163ffffffff1660e01b815260040160206040518083038186803b15801561169357600080fd5b505afa1580156116a7573d6000803e3d6000fd5b505050506040513d60208110156116bd57600080fd5b81019080805190602001909291905050508273ffffffffffffffffffffffffffffffffffffffff1663c19d93fb6040518163ffffffff1660e01b815260040160206040518083038186803b15801561171457600080fd5b505afa158015611728573d6000803e3d6000fd5b505050506040513d602081101561173e57600080fd5b81019080805190602001909291905050501461175957600080fd5b8073ffffffffffffffffffffffffffffffffffffffff1663c80c07386040518163ffffffff1660e01b815260040160206040518083038186803b15801561179f57600080fd5b505afa1580156117b3573d6000803e3d6000fd5b505050506040513d60208110156117c957600080fd5b81019080805190602001909291905050508173ffffffffffffffffffffffffffffffffffffffff1663c19d93fb6040518163ffffffff1660e01b815260040160206040518083038186803b15801561182057600080fd5b505afa158015611834573d6000803e3d6000fd5b505050506040513d602081101561184a57600080fd5b81019080805190602001909291905050501461186557600080fd5b8173ffffffffffffffffffffffffffffffffffffffff1663879a031a6040518163ffffffff1660e01b815260040160206040518083038186803b1580156118ab57600080fd5b505afa1580156118bf573d6000803e3d6000fd5b505050506040513d60208110156118d557600080fd5b81019080805190602001909291905050508173ffffffffffffffffffffffffffffffffffffffff1663879a031a6040518163ffffffff1660e01b815260040160206040518083038186803b15801561192c57600080fd5b505afa158015611940573d6000803e3d6000fd5b505050506040513d602081101561195657600080fd5b8101908080519060200190929190505050111561197257600080fd5b60008273ffffffffffffffffffffffffffffffffffffffff16635f7271896040518163ffffffff1660e01b815260040160206040518083038186803b1580156119ba57600080fd5b505afa1580156119ce573d6000803e3d6000fd5b505050506040513d60208110156119e457600080fd5b8101908080519060200190929190505050905060008273ffffffffffffffffffffffffffffffffffffffff16631d1438486040518163ffffffff1660e01b815260040160206040518083038186803b158015611a3f57600080fd5b505afa158015611a53573d6000803e3d6000fd5b505050506040513d6020811015611a6957600080fd5b810190808051906020019092919050505073ffffffffffffffffffffffffffffffffffffffff16600260009054906101000a900473ffffffffffffffffffffffffffffffffffffffff1673ffffffffffffffffffffffffffffffffffffffff16148015611b8157508173ffffffffffffffffffffffffffffffffffffffff168373ffffffffffffffffffffffffffffffffffffffff1663a77f55996040518163ffffffff1660e01b815260040160206040518083038186803b158015611b2e57600080fd5b505afa158015611b42573d6000803e3d6000fd5b505050506040513d6020811015611b5857600080fd5b810190808051906020019092919050505073ffffffffffffffffffffffffffffffffffffffff16145b905060008373ffffffffffffffffffffffffffffffffffffffff16637150d8ae6040518163ffffffff1660e01b815260040160206040518083038186803b158015611bcb57600080fd5b505afa158015611bdf573d6000803e3d6000fd5b505050506040513d6020811015611bf557600080fd5b810190808051906020019092919050505073ffffffffffffffffffffffffffffffffffffffff16600260009054906101000a900473ffffffffffffffffffffffffffffffffffffffff1673ffffffffffffffffffffffffffffffffffffffff16148015611d0d57508273ffffffffffffffffffffffffffffffffffffffff168473ffffffffffffffffffffffffffffffffffffffff16635f7271896040518163ffffffff1660e01b815260040160206040518083038186803b158015611cba57600080fd5b505afa158015611cce573d6000803e3d6000fd5b505050506040513d6020811015611ce457600080fd5b810190808051906020019092919050505073ffffffffffffffffffffffffffffffffffffffff16145b90508180611d185750805b611d2157600080fd5b600082611dae578473ffffffffffffffffffffffffffffffffffffffff166362fcb8236040518163ffffffff1660e01b815260040160206040518083038186803b158015611d6e57600080fd5b505afa158015611d82573d6000803e3d6000fd5b505050506040513d6020811015611d9857600080fd5b8101908080519060200190929190505050611e30565b8473ffffffffffffffffffffffffffffffffffffffff166302b2c2b06040518163ffffffff1660e01b815260040160206040518083038186803b158015611df457600080fd5b505afa158015611e08573d6000803e3d6000fd5b505050506040513d6020811015611e1e57600080fd5b81019080805190602001909291905050505b905060008673ffffffffffffffffffffffffffffffffffffffff1663c618a1e46040518163ffffffff1660e01b815260040160206040518083038186803b158015611e7a57600080fd5b505afa158015611e8e573d6000803e3d6000fd5b505050506040513d6020811015611ea457600080fd5b810190808051906020019092919050505090506000828211611ec65781611ec8565b825b905080600760008a73ffffffffffffffffffffffffffffffffffffffff16635f7271896040518163ffffffff1660e01b815260040160206040518083038186803b158015611f1557600080fd5b505afa158015611f29573d6000803e3d6000fd5b505050506040513d6020811015611f3f57600080fd5b810190808051906020019092919050505073ffffffffffffffffffffffffffffffffffffffff1673ffffffffffffffffffffffffffffffffffffffff16815260200190815260200160002060008282540192505081905550841561200f578673ffffffffffffffffffffffffffffffffffffffff16635b463c918285036040518263ffffffff1660e01b815260040180828152602001915050600060405180830381600087803b158015611ff257600080fd5b505af1158015612006573d6000803e3d6000fd5b5050505061207d565b8673ffffffffffffffffffffffffffffffffffffffff1663c7853a8b8285036040518263ffffffff1660e01b815260040180828152602001915050600060405180830381600087803b15801561206457600080fd5b505af1158015612078573d6000803e3d6000fd5b505050505b60019850505050505050505092915050565b600160009054906101000a900473ffffffffffffffffffffffffffffffffffffffff1681565b6000806000806000806000809054906101000a900473ffffffffffffffffffffffffffffffffffffffff16600160009054906101000a900473ffffffffffffffffffffffffffffffffffffffff16600260009054906101000a900473ffffffffffffffffffffffffffffffffffffffff16600360009054906101000a900473ffffffffffffffffffffffffffffffffffffffff16600760008060009054906101000a900473ffffffffffffffffffffffffffffffffffffffff1673ffffffffffffffffffffffffffffffffffffffff1673ffffffffffffffffffffffffffffffffffffffff1681526020019081526020016000205460076000600160009054906101000a900473ffffffffffffffffffffffffffffffffffffffff1673ffffffffffffffffffffffffffffffffffffffff1673ffffffffffffffffffffffffffffffffffffffff16815260200190815260200160002054955095509550955095509550909192939495565b600460009054906101000a900473ffffffffffffffffffffffffffffffffffffffff1681565b600260009054906101000a900473ffffffffffffffffffffffffffffffffffffffff1681565b6000600760008373ffffffffffffffffffffffffffffffffffffffff1673ffffffffffffffffffffffffffffffffffffffff168152602001908152602001600020549050919050565b6000809054906101000a900473ffffffffffffffffffffffffffffffffffffffff1681565b600080600560003373ffffffffffffffffffffffffffffffffffffffff1673ffffffffffffffffffffffffffffffffffffffff168152602001908152602001600020541161232757600080fd5b6000600560008573ffffffffffffffffffffffffffffffffffffffff1673ffffffffffffffffffffffffffffffffffffffff168152602001908152602001600020541180156123b557506000600560008473ffffffffffffffffffffffffffffffffffffffff1673ffffffffffffffffffffffffffffffffffffffff16815260200190815260200160002054115b6123be57600080fd5b600083905060008390508173ffffffffffffffffffffffffffffffffffffffff16635ab533ac6040518163ffffffff1660e01b815260040160206040518083038186803b15801561240e57600080fd5b505afa158015612422573d6000803e3d6000fd5b505050506040513d602081101561243857600080fd5b81019080805190602001909291905050508273ffffffffffffffffffffffffffffffffffffffff1663c19d93fb6040518163ffffffff1660e01b815260040160206040518083038186803b15801561248f57600080fd5b505afa1580156124a3573d6000803e3d6000fd5b505050506040513d60208110156124b957600080fd5b8101908080519060200190929190505050146124d457600080fd5b8073ffffffffffffffffffffffffffffffffffffffff1663c80c07386040518163ffffffff1660e01b815260040160206040518083038186803b15801561251a57600080fd5b505afa15801561252e573d6000803e3d6000fd5b505050506040513d602081101561254457600080fd5b81019080805190602001909291905050508173ffffffffffffffffffffffffffffffffffffffff1663c19d93fb6040518163ffffffff1660e01b815260040160206040518083038186803b15801561259b57600080fd5b505afa1580156125af573d6000803e3d6000fd5b505050506040513d60208110156125c557600080fd5b8101908080519060200190929190505050146125e057600080fd5b8173ffffffffffffffffffffffffffffffffffffffff1663879a031a6040518163ffffffff1660e01b815260040160206040518083038186803b15801561262657600080fd5b505afa15801561263a573d6000803e3d6000fd5b505050506040513d602081101561265057600080fd5b81019080805190602001909291905050508173ffffffffffffffffffffffffffffffffffffffff1663879a031a6040518163ffffffff1660e01b815260040160206040518083038186803b1580156126a757600080fd5b505afa1580156126bb573d6000803e3d6000fd5b505050506040513d60208110156126d157600080fd5b810190808051906020019092919050505011156126ed57600080fd5b60008273ffffffffffffffffffffffffffffffffffffffff1663a77f55996040518163ffffffff1660e01b815260040160206040518083038186803b15801561273557600080fd5b505afa158015612749573d6000803e3d6000fd5b505050506040513d602081101561275f57600080fd5b8101908080519060200190929190505050905060008273ffffffffffffffffffffffffffffffffffffffff16631d1438486040518163ffffffff1660e01b815260040160206040518083038186803b1580156127ba57600080fd5b505afa1580156127ce573d6000803e3d6000fd5b505050506040513d60208110156127e457600080fd5b810190808051906020019092919050505073ffffffffffffffffffffffffffffffffffffffff16600260009054906101000a900473ffffffffffffffffffffffffffffffffffffffff1673ffffffffffffffffffffffffffffffffffffffff161480156128fc57508173ffffffffffffffffffffffffffffffffffffffff168373ffffffffffffffffffffffffffffffffffffffff1663a77f55996040518163ffffffff1660e01b815260040160206040518083038186803b1580156128a957600080fd5b505afa1580156128bd573d6000803e3d6000fd5b505050506040513d60208110156128d357600080fd5b810190808051906020019092919050505073ffffffffffffffffffffffffffffffffffffffff16145b905060008373ffffffffffffffffffffffffffffffffffffffff16637150d8ae6040518163ffffffff1660e01b815260040160206040518083038186803b15801561294657600080fd5b505afa15801561295a573d6000803e3d6000fd5b505050506040513d602081101561297057600080fd5b810190808051906020019092919050505073ffffffffffffffffffffffffffffffffffffffff16600260009054906101000a900473ffffffffffffffffffffffffffffffffffffffff1673ffffffffffffffffffffffffffffffffffffffff16148015612a8857508273ffffffffffffffffffffffffffffffffffffffff168473ffffffffffffffffffffffffffffffffffffffff16635f7271896040518163ffffffff1660e01b815260040160206040518083038186803b158015612a3557600080fd5b505afa158015612a49573d6000803e3d6000fd5b505050506040513d6020811015612a5f57600080fd5b810190808051906020019092919050505073ffffffffffffffffffffffffffffffffffffffff16145b90508180612a935750805b612a9c57600080fd5b600082612b29578473ffffffffffffffffffffffffffffffffffffffff166362fcb8236040518163ffffffff1660e01b815260040160206040518083038186803b158015612ae957600080fd5b505afa158015612afd573d6000803e3d6000fd5b505050506040513d6020811015612b1357600080fd5b8101908080519060200190929190505050612bab565b8473ffffffffffffffffffffffffffffffffffffffff166302b2c2b06040518163ffffffff1660e01b815260040160206040518083038186803b158015612b6f57600080fd5b505afa158015612b83573d6000803e3d6000fd5b505050506040513d6020811015612b9957600080fd5b81019080805190602001909291905050505b905060008673ffffffffffffffffffffffffffffffffffffffff166316b818446040518163ffffffff1660e01b815260040160206040518083038186803b158015612bf557600080fd5b505afa158015612c09573d6000803e3d6000fd5b505050506040513d6020811015612c1f57600080fd5b810190808051906020019092919050505090506000828211612c415781612c43565b825b905080600760008a73ffffffffffffffffffffffffffffffffffffffff1663a77f55996040518163ffffffff1660e01b815260040160206040518083038186803b158015612c9057600080fd5b505afa158015612ca4573d6000803e3d6000fd5b505050506040513d6020811015612cba57600080fd5b810190808051906020019092919050505073ffffffffffffffffffffffffffffffffffffffff1673ffffffffffffffffffffffffffffffffffffffff1681526020019081526020016000206000828254019250508190555060019850505050505050505092915050565b60076020528060005260406000206000915090505481565b60068181548110612d4957fe5b906000526020600020016000915054906101000a900473ffffffffffffffffffffffffffffffffffffffff1681565b600260009054906101000a900473ffffffffffffffffffffffffffffffffffffffff1673ffffffffffffffffffffffffffffffffffffffff163373ffffffffffffffffffffffffffffffffffffffff1614612dd257600080fd5b80600760008473ffffffffffffffffffffffffffffffffffffffff1673ffffffffffffffffffffffffffffffffffffffff168152602001908152602001600020541015612e1e57600080fd5b60008273ffffffffffffffffffffffffffffffffffffffff1663a9059cbb600260009054906101000a900473ffffffffffffffffffffffffffffffffffffffff16846040518363ffffffff1660e01b8152600401808373ffffffffffffffffffffffffffffffffffffffff1673ffffffffffffffffffffffffffffffffffffffff16815260200182815260200192505050602060405180830381600087803b158015612ec957600080fd5b505af1158015612edd573d6000803e3d6000fd5b505050506040513d6020811015612ef357600080fd5b8101908080519060200190929190505050905080612f1057600080fd5b81600760008573ffffffffffffffffffffffffffffffffffffffff1673ffffffffffffffffffffffffffffffffffffffff1681526020019081526020016000205403600760008573ffffffffffffffffffffffffffffffffffffffff1673ffffffffffffffffffffffffffffffffffffffff1681526020019081526020016000208190555050505056fea165627a7a72305820b51818358cf16f8bacfcb838a9047f6e188b0f19f084c6d771e38991cabb49260029a165627a7a72305820b0b9f0157477e09226b7a49258b38fbc5def7ab82b0dded32b5cdf7aab8cf87d0029",
  "source": "pragma solidity >=0.4.21 <0.6.0;\n\nimport \"../auxiliary/Portfolio.sol\";\n\ncontract PortfolioFactory {\n  event NewPortfolio(address portfolio);\n\n  mapping(address => bool) public created_portfolios;\n\n  function create_portfolio(address _base_addr, address _asset_addr,\n                            address _managed_forward_factory_addr) public returns (address) {\n    Portfolio portfolio = new Portfolio(_base_addr, _asset_addr, msg.sender, _managed_forward_factory_addr);\n    created_portfolios[address(portfolio)] = true;\n    emit NewPortfolio(address(portfolio));\n    return address(portfolio);\n  }\n}\n",
  "sourcePath": "/Users/Karim/Desktop/atomicoptions/contracts/src/factories/PortfolioFactory.sol",
  "compiler": {
    "name": "solc",
    "version": "0.5.8+commit.23d335f2.Emscripten.clang"
  },
  "schemaVersion": "3.0.16",
  "updatedAt": "2019-11-11T18:42:59.772Z",
  "devdoc": {
    "methods": {}
  },
  "userdoc": {
    "methods": {}
  }
}