{
  "contractName": "Portfolio",
  "abi": [
    {
      "constant": true,
      "inputs": [],
      "name": "managed_forward_factory_addr",
      "outputs": [
        {
          "name": "",
          "type": "address"
        }
      ],
      "payable": false,
      "stateMutability": "view",
      "type": "function"
    },
    {
      "constant": true,
      "inputs": [
        {
          "name": "",
          "type": "address"
        }
      ],
      "name": "my_forward_indices",
      "outputs": [
        {
          "name": "",
          "type": "uint256"
        }
      ],
      "payable": false,
      "stateMutability": "view",
      "type": "function"
    },
    {
      "constant": true,
      "inputs": [],
      "name": "asset_addr",
      "outputs": [
        {
          "name": "",
          "type": "address"
        }
      ],
      "payable": false,
      "stateMutability": "view",
      "type": "function"
    },
    {
      "constant": true,
      "inputs": [],
      "name": "managed_forward_factory",
      "outputs": [
        {
          "name": "",
          "type": "address"
        }
      ],
      "payable": false,
      "stateMutability": "view",
      "type": "function"
    },
    {
      "constant": true,
      "inputs": [],
      "name": "owner",
      "outputs": [
        {
          "name": "",
          "type": "address"
        }
      ],
      "payable": false,
      "stateMutability": "view",
      "type": "function"
    },
    {
      "constant": true,
      "inputs": [],
      "name": "base_addr",
      "outputs": [
        {
          "name": "",
          "type": "address"
        }
      ],
      "payable": false,
      "stateMutability": "view",
      "type": "function"
    },
    {
      "constant": true,
      "inputs": [
        {
          "name": "",
          "type": "address"
        }
      ],
      "name": "volume_available",
      "outputs": [
        {
          "name": "",
          "type": "uint256"
        }
      ],
      "payable": false,
      "stateMutability": "view",
      "type": "function"
    },
    {
      "constant": true,
      "inputs": [
        {
          "name": "",
          "type": "uint256"
        }
      ],
      "name": "my_forwards",
      "outputs": [
        {
          "name": "",
          "type": "address"
        }
      ],
      "payable": false,
      "stateMutability": "view",
      "type": "function"
    },
    {
      "inputs": [
        {
          "name": "_base_addr",
          "type": "address"
        },
        {
          "name": "_asset_addr",
          "type": "address"
        },
        {
          "name": "_owner",
          "type": "address"
        },
        {
          "name": "_managed_forward_factory_addr",
          "type": "address"
        }
      ],
      "payable": false,
      "stateMutability": "nonpayable",
      "type": "constructor"
    },
    {
      "constant": false,
      "inputs": [
        {
          "name": "managed_forward_addr",
          "type": "address"
        }
      ],
      "name": "add_managed_forward",
      "outputs": [],
      "payable": false,
      "stateMutability": "nonpayable",
      "type": "function"
    },
    {
      "constant": false,
      "inputs": [
        {
          "name": "token_addr",
          "type": "address"
        },
        {
          "name": "value",
          "type": "uint256"
        }
      ],
      "name": "approve_managed_forward",
      "outputs": [
        {
          "name": "",
          "type": "bool"
        }
      ],
      "payable": false,
      "stateMutability": "nonpayable",
      "type": "function"
    },
    {
      "constant": false,
      "inputs": [
        {
          "name": "token_addr",
          "type": "address"
        },
        {
          "name": "value",
          "type": "uint256"
        }
      ],
      "name": "set_volume_available",
      "outputs": [],
      "payable": false,
      "stateMutability": "nonpayable",
      "type": "function"
    },
    {
      "constant": false,
      "inputs": [
        {
          "name": "new_fwd_addr",
          "type": "address"
        },
        {
          "name": "old_fwd_addr",
          "type": "address"
        }
      ],
      "name": "match_collateralize",
      "outputs": [
        {
          "name": "",
          "type": "bool"
        }
      ],
      "payable": false,
      "stateMutability": "nonpayable",
      "type": "function"
    },
    {
      "constant": false,
      "inputs": [
        {
          "name": "new_fwd_addr",
          "type": "address"
        },
        {
          "name": "old_fwd_addr",
          "type": "address"
        }
      ],
      "name": "match_activate",
      "outputs": [
        {
          "name": "",
          "type": "bool"
        }
      ],
      "payable": false,
      "stateMutability": "nonpayable",
      "type": "function"
    },
    {
      "constant": false,
      "inputs": [
        {
          "name": "token_addr",
          "type": "address"
        },
        {
          "name": "value",
          "type": "uint256"
        }
      ],
      "name": "deposit",
      "outputs": [],
      "payable": false,
      "stateMutability": "nonpayable",
      "type": "function"
    },
    {
      "constant": false,
      "inputs": [
        {
          "name": "token_addr",
          "type": "address"
        },
        {
          "name": "value",
          "type": "uint256"
        }
      ],
      "name": "withdraw",
      "outputs": [],
      "payable": false,
      "stateMutability": "nonpayable",
      "type": "function"
    },
    {
      "constant": true,
      "inputs": [
        {
          "name": "token_addr",
          "type": "address"
        }
      ],
      "name": "get_volume_available",
      "outputs": [
        {
          "name": "",
          "type": "uint256"
        }
      ],
      "payable": false,
      "stateMutability": "view",
      "type": "function"
    },
    {
      "constant": true,
      "inputs": [
        {
          "name": "forward_address",
          "type": "address"
        }
      ],
      "name": "get_forward_index",
      "outputs": [
        {
          "name": "",
          "type": "uint256"
        }
      ],
      "payable": false,
      "stateMutability": "view",
      "type": "function"
    }
  ],
  "bytecode": "0x608060405234801561001057600080fd5b50604051608080612fd38339810180604052608081101561003057600080fd5b81019080805190602001909291908051906020019092919080519060200190929190805190602001909291905050508273ffffffffffffffffffffffffffffffffffffffff168473ffffffffffffffffffffffffffffffffffffffff16141561009857600080fd5b836000806101000a81548173ffffffffffffffffffffffffffffffffffffffff021916908373ffffffffffffffffffffffffffffffffffffffff16021790555082600160006101000a81548173ffffffffffffffffffffffffffffffffffffffff021916908373ffffffffffffffffffffffffffffffffffffffff16021790555081600260006101000a81548173ffffffffffffffffffffffffffffffffffffffff021916908373ffffffffffffffffffffffffffffffffffffffff16021790555080600360006101000a81548173ffffffffffffffffffffffffffffffffffffffff021916908373ffffffffffffffffffffffffffffffffffffffff160217905550600360009054906101000a900473ffffffffffffffffffffffffffffffffffffffff16600460006101000a81548173ffffffffffffffffffffffffffffffffffffffff021916908373ffffffffffffffffffffffffffffffffffffffff1602179055506006600090806001815401808255809150509060018203906000526020600020016000909192909190916101000a81548173ffffffffffffffffffffffffffffffffffffffff021916908373ffffffffffffffffffffffffffffffffffffffff1602179055505050505050612d5b806102786000396000f3fe608060405234801561001057600080fd5b50600436106101095760003560e01c80635f727189116100a2578063a77f559911610071578063a77f559914610500578063c2bc74501461054a578063d3376c1d146105c6578063e9fc07cd1461061e578063f3fef3a31461068c57610109565b80635f727189146103ca5780637d0922b6146104145780638da5cb5b1461045e5780639ab849ea146104a857610109565b806324587910116100de57806324587910146102505780633ba99bf6146102a857806347e7ef241461030057806358ec5c041461034e57610109565b806202aff01461010e578062e9aa691461015857806302e4c75c1461019c57806314627962146101ea575b600080fd5b6101166106da565b604051808273ffffffffffffffffffffffffffffffffffffffff1673ffffffffffffffffffffffffffffffffffffffff16815260200191505060405180910390f35b61019a6004803603602081101561016e57600080fd5b81019080803573ffffffffffffffffffffffffffffffffffffffff169060200190929190505050610700565b005b6101e8600480360360408110156101b257600080fd5b81019080803573ffffffffffffffffffffffffffffffffffffffff16906020019092919080359060200190929190505050610ed9565b005b6102366004803603604081101561020057600080fd5b81019080803573ffffffffffffffffffffffffffffffffffffffff16906020019092919080359060200190929190505050610f6d565b604051808215151515815260200191505060405180910390f35b6102926004803603602081101561026657600080fd5b81019080803573ffffffffffffffffffffffffffffffffffffffff169060200190929190505050611147565b6040518082815260200191505060405180910390f35b6102ea600480360360208110156102be57600080fd5b81019080803573ffffffffffffffffffffffffffffffffffffffff169060200190929190505050611190565b6040518082815260200191505060405180910390f35b61034c6004803603604081101561031657600080fd5b81019080803573ffffffffffffffffffffffffffffffffffffffff169060200190929190803590602001909291905050506111a8565b005b6103b06004803603604081101561036457600080fd5b81019080803573ffffffffffffffffffffffffffffffffffffffff169060200190929190803573ffffffffffffffffffffffffffffffffffffffff169060200190929190505050611463565b604051808215151515815260200191505060405180910390f35b6103d2611f93565b604051808273ffffffffffffffffffffffffffffffffffffffff1673ffffffffffffffffffffffffffffffffffffffff16815260200191505060405180910390f35b61041c611fb9565b604051808273ffffffffffffffffffffffffffffffffffffffff1673ffffffffffffffffffffffffffffffffffffffff16815260200191505060405180910390f35b610466611fdf565b604051808273ffffffffffffffffffffffffffffffffffffffff1673ffffffffffffffffffffffffffffffffffffffff16815260200191505060405180910390f35b6104ea600480360360208110156104be57600080fd5b81019080803573ffffffffffffffffffffffffffffffffffffffff169060200190929190505050612005565b6040518082815260200191505060405180910390f35b61050861204e565b604051808273ffffffffffffffffffffffffffffffffffffffff1673ffffffffffffffffffffffffffffffffffffffff16815260200191505060405180910390f35b6105ac6004803603604081101561056057600080fd5b81019080803573ffffffffffffffffffffffffffffffffffffffff169060200190929190803573ffffffffffffffffffffffffffffffffffffffff169060200190929190505050612073565b604051808215151515815260200191505060405180910390f35b610608600480360360208110156105dc57600080fd5b81019080803573ffffffffffffffffffffffffffffffffffffffff169060200190929190505050612ab9565b6040518082815260200191505060405180910390f35b61064a6004803603602081101561063457600080fd5b8101908080359060200190929190505050612ad1565b604051808273ffffffffffffffffffffffffffffffffffffffff1673ffffffffffffffffffffffffffffffffffffffff16815260200191505060405180910390f35b6106d8600480360360408110156106a257600080fd5b81019080803573ffffffffffffffffffffffffffffffffffffffff16906020019092919080359060200190929190505050612b0d565b005b600360009054906101000a900473ffffffffffffffffffffffffffffffffffffffff1681565b600260009054906101000a900473ffffffffffffffffffffffffffffffffffffffff1673ffffffffffffffffffffffffffffffffffffffff163373ffffffffffffffffffffffffffffffffffffffff161461075a57600080fd5b6000600460009054906101000a900473ffffffffffffffffffffffffffffffffffffffff1673ffffffffffffffffffffffffffffffffffffffff1663cbd94cc4836040518263ffffffff1660e01b8152600401808273ffffffffffffffffffffffffffffffffffffffff1673ffffffffffffffffffffffffffffffffffffffff16815260200191505060206040518083038186803b1580156107fb57600080fd5b505afa15801561080f573d6000803e3d6000fd5b505050506040513d602081101561082557600080fd5b810190808051906020019092919050505090508061084257600080fd5b600082905060008173ffffffffffffffffffffffffffffffffffffffff16631d1438486040518163ffffffff1660e01b815260040160206040518083038186803b15801561088f57600080fd5b505afa1580156108a3573d6000803e3d6000fd5b505050506040513d60208110156108b957600080fd5b810190808051906020019092919050505073ffffffffffffffffffffffffffffffffffffffff16600260009054906101000a900473ffffffffffffffffffffffffffffffffffffffff1673ffffffffffffffffffffffffffffffffffffffff1614806109f257508173ffffffffffffffffffffffffffffffffffffffff16637150d8ae6040518163ffffffff1660e01b815260040160206040518083038186803b15801561096657600080fd5b505afa15801561097a573d6000803e3d6000fd5b505050506040513d602081101561099057600080fd5b810190808051906020019092919050505073ffffffffffffffffffffffffffffffffffffffff16600260009054906101000a900473ffffffffffffffffffffffffffffffffffffffff1673ffffffffffffffffffffffffffffffffffffffff16145b905060008273ffffffffffffffffffffffffffffffffffffffff1663086598ab6040518163ffffffff1660e01b815260040160206040518083038186803b158015610a3c57600080fd5b505afa158015610a50573d6000803e3d6000fd5b505050506040513d6020811015610a6657600080fd5b810190808051906020019092919050505073ffffffffffffffffffffffffffffffffffffffff163073ffffffffffffffffffffffffffffffffffffffff161480610b5b57508273ffffffffffffffffffffffffffffffffffffffff1663eb34c8496040518163ffffffff1660e01b815260040160206040518083038186803b158015610af157600080fd5b505afa158015610b05573d6000803e3d6000fd5b505050506040513d6020811015610b1b57600080fd5b810190808051906020019092919050505073ffffffffffffffffffffffffffffffffffffffff163073ffffffffffffffffffffffffffffffffffffffff16145b9050818015610b675750805b610b7057600080fd5b60008373ffffffffffffffffffffffffffffffffffffffff1663a77f55996040518163ffffffff1660e01b815260040160206040518083038186803b158015610bb857600080fd5b505afa158015610bcc573d6000803e3d6000fd5b505050506040513d6020811015610be257600080fd5b8101908080519060200190929190505050905060008473ffffffffffffffffffffffffffffffffffffffff16635f7271896040518163ffffffff1660e01b815260040160206040518083038186803b158015610c3d57600080fd5b505afa158015610c51573d6000803e3d6000fd5b505050506040513d6020811015610c6757600080fd5b8101908080519060200190929190505050905060008273ffffffffffffffffffffffffffffffffffffffff166000809054906101000a900473ffffffffffffffffffffffffffffffffffffffff1673ffffffffffffffffffffffffffffffffffffffff161480610d2357508173ffffffffffffffffffffffffffffffffffffffff166000809054906101000a900473ffffffffffffffffffffffffffffffffffffffff1673ffffffffffffffffffffffffffffffffffffffff16145b905060008373ffffffffffffffffffffffffffffffffffffffff16600160009054906101000a900473ffffffffffffffffffffffffffffffffffffffff1673ffffffffffffffffffffffffffffffffffffffff161480610dd057508273ffffffffffffffffffffffffffffffffffffffff16600160009054906101000a900473ffffffffffffffffffffffffffffffffffffffff1673ffffffffffffffffffffffffffffffffffffffff16145b9050818015610ddc5750805b8015610e1457508273ffffffffffffffffffffffffffffffffffffffff168473ffffffffffffffffffffffffffffffffffffffff1614155b610e1d57600080fd5b6000600160068b90806001815401808255809150509060018203906000526020600020016000909192909190916101000a81548173ffffffffffffffffffffffffffffffffffffffff021916908373ffffffffffffffffffffffffffffffffffffffff16021790555003905080600560008c73ffffffffffffffffffffffffffffffffffffffff1673ffffffffffffffffffffffffffffffffffffffff1681526020019081526020016000208190555050505050505050505050565b6000600560003373ffffffffffffffffffffffffffffffffffffffff1673ffffffffffffffffffffffffffffffffffffffff1681526020019081526020016000205411610f2557600080fd5b80600760008473ffffffffffffffffffffffffffffffffffffffff1673ffffffffffffffffffffffffffffffffffffffff168152602001908152602001600020819055505050565b60008060009054906101000a900473ffffffffffffffffffffffffffffffffffffffff1673ffffffffffffffffffffffffffffffffffffffff168373ffffffffffffffffffffffffffffffffffffffff1614806110175750600160009054906101000a900473ffffffffffffffffffffffffffffffffffffffff1673ffffffffffffffffffffffffffffffffffffffff168373ffffffffffffffffffffffffffffffffffffffff16145b61102057600080fd5b6000600560003373ffffffffffffffffffffffffffffffffffffffff1673ffffffffffffffffffffffffffffffffffffffff168152602001908152602001600020541161106c57600080fd5b60008373ffffffffffffffffffffffffffffffffffffffff1663095ea7b333856040518363ffffffff1660e01b8152600401808373ffffffffffffffffffffffffffffffffffffffff1673ffffffffffffffffffffffffffffffffffffffff16815260200182815260200192505050602060405180830381600087803b1580156110f557600080fd5b505af1158015611109573d6000803e3d6000fd5b505050506040513d602081101561111f57600080fd5b810190808051906020019092919050505090508061113c57600080fd5b600191505092915050565b6000600560008373ffffffffffffffffffffffffffffffffffffffff1673ffffffffffffffffffffffffffffffffffffffff168152602001908152602001600020549050919050565b60056020528060005260406000206000915090505481565b600260009054906101000a900473ffffffffffffffffffffffffffffffffffffffff1673ffffffffffffffffffffffffffffffffffffffff163373ffffffffffffffffffffffffffffffffffffffff161461120257600080fd5b6000809054906101000a900473ffffffffffffffffffffffffffffffffffffffff1673ffffffffffffffffffffffffffffffffffffffff168273ffffffffffffffffffffffffffffffffffffffff1614806112aa5750600160009054906101000a900473ffffffffffffffffffffffffffffffffffffffff1673ffffffffffffffffffffffffffffffffffffffff168273ffffffffffffffffffffffffffffffffffffffff16145b6112b357600080fd5b60008273ffffffffffffffffffffffffffffffffffffffff166323b872dd600260009054906101000a900473ffffffffffffffffffffffffffffffffffffffff1630856040518463ffffffff1660e01b8152600401808473ffffffffffffffffffffffffffffffffffffffff1673ffffffffffffffffffffffffffffffffffffffff1681526020018373ffffffffffffffffffffffffffffffffffffffff1673ffffffffffffffffffffffffffffffffffffffff1681526020018281526020019350505050602060405180830381600087803b15801561139257600080fd5b505af11580156113a6573d6000803e3d6000fd5b505050506040513d60208110156113bc57600080fd5b81019080805190602001909291905050509050806113d957600080fd5b81600760008573ffffffffffffffffffffffffffffffffffffffff1673ffffffffffffffffffffffffffffffffffffffff1681526020019081526020016000205401600760008573ffffffffffffffffffffffffffffffffffffffff1673ffffffffffffffffffffffffffffffffffffffff16815260200190815260200160002081905550505050565b600080600560003373ffffffffffffffffffffffffffffffffffffffff1673ffffffffffffffffffffffffffffffffffffffff16815260200190815260200160002054116114b057600080fd5b6000600560008573ffffffffffffffffffffffffffffffffffffffff1673ffffffffffffffffffffffffffffffffffffffff1681526020019081526020016000205411801561153e57506000600560008473ffffffffffffffffffffffffffffffffffffffff1673ffffffffffffffffffffffffffffffffffffffff16815260200190815260200160002054115b61154757600080fd5b600083905060008390508173ffffffffffffffffffffffffffffffffffffffff166314b80ae66040518163ffffffff1660e01b815260040160206040518083038186803b15801561159757600080fd5b505afa1580156115ab573d6000803e3d6000fd5b505050506040513d60208110156115c157600080fd5b81019080805190602001909291905050508273ffffffffffffffffffffffffffffffffffffffff1663c19d93fb6040518163ffffffff1660e01b815260040160206040518083038186803b15801561161857600080fd5b505afa15801561162c573d6000803e3d6000fd5b505050506040513d602081101561164257600080fd5b81019080805190602001909291905050501461165d57600080fd5b8073ffffffffffffffffffffffffffffffffffffffff1663c80c07386040518163ffffffff1660e01b815260040160206040518083038186803b1580156116a357600080fd5b505afa1580156116b7573d6000803e3d6000fd5b505050506040513d60208110156116cd57600080fd5b81019080805190602001909291905050508173ffffffffffffffffffffffffffffffffffffffff1663c19d93fb6040518163ffffffff1660e01b815260040160206040518083038186803b15801561172457600080fd5b505afa158015611738573d6000803e3d6000fd5b505050506040513d602081101561174e57600080fd5b81019080805190602001909291905050501461176957600080fd5b8173ffffffffffffffffffffffffffffffffffffffff1663879a031a6040518163ffffffff1660e01b815260040160206040518083038186803b1580156117af57600080fd5b505afa1580156117c3573d6000803e3d6000fd5b505050506040513d60208110156117d957600080fd5b81019080805190602001909291905050508173ffffffffffffffffffffffffffffffffffffffff1663879a031a6040518163ffffffff1660e01b815260040160206040518083038186803b15801561183057600080fd5b505afa158015611844573d6000803e3d6000fd5b505050506040513d602081101561185a57600080fd5b8101908080519060200190929190505050111561187657600080fd5b60008273ffffffffffffffffffffffffffffffffffffffff16635f7271896040518163ffffffff1660e01b815260040160206040518083038186803b1580156118be57600080fd5b505afa1580156118d2573d6000803e3d6000fd5b505050506040513d60208110156118e857600080fd5b8101908080519060200190929190505050905060008273ffffffffffffffffffffffffffffffffffffffff16631d1438486040518163ffffffff1660e01b815260040160206040518083038186803b15801561194357600080fd5b505afa158015611957573d6000803e3d6000fd5b505050506040513d602081101561196d57600080fd5b810190808051906020019092919050505073ffffffffffffffffffffffffffffffffffffffff16600260009054906101000a900473ffffffffffffffffffffffffffffffffffffffff1673ffffffffffffffffffffffffffffffffffffffff16148015611a8557508173ffffffffffffffffffffffffffffffffffffffff168373ffffffffffffffffffffffffffffffffffffffff1663a77f55996040518163ffffffff1660e01b815260040160206040518083038186803b158015611a3257600080fd5b505afa158015611a46573d6000803e3d6000fd5b505050506040513d6020811015611a5c57600080fd5b810190808051906020019092919050505073ffffffffffffffffffffffffffffffffffffffff16145b905060008373ffffffffffffffffffffffffffffffffffffffff16637150d8ae6040518163ffffffff1660e01b815260040160206040518083038186803b158015611acf57600080fd5b505afa158015611ae3573d6000803e3d6000fd5b505050506040513d6020811015611af957600080fd5b810190808051906020019092919050505073ffffffffffffffffffffffffffffffffffffffff16600260009054906101000a900473ffffffffffffffffffffffffffffffffffffffff1673ffffffffffffffffffffffffffffffffffffffff16148015611c1157508273ffffffffffffffffffffffffffffffffffffffff168473ffffffffffffffffffffffffffffffffffffffff16635f7271896040518163ffffffff1660e01b815260040160206040518083038186803b158015611bbe57600080fd5b505afa158015611bd2573d6000803e3d6000fd5b505050506040513d6020811015611be857600080fd5b810190808051906020019092919050505073ffffffffffffffffffffffffffffffffffffffff16145b90508180611c1c5750805b611c2557600080fd5b600082611cb2578473ffffffffffffffffffffffffffffffffffffffff166362fcb8236040518163ffffffff1660e01b815260040160206040518083038186803b158015611c7257600080fd5b505afa158015611c86573d6000803e3d6000fd5b505050506040513d6020811015611c9c57600080fd5b8101908080519060200190929190505050611d34565b8473ffffffffffffffffffffffffffffffffffffffff166302b2c2b06040518163ffffffff1660e01b815260040160206040518083038186803b158015611cf857600080fd5b505afa158015611d0c573d6000803e3d6000fd5b505050506040513d6020811015611d2257600080fd5b81019080805190602001909291905050505b905060008673ffffffffffffffffffffffffffffffffffffffff1663c618a1e46040518163ffffffff1660e01b815260040160206040518083038186803b158015611d7e57600080fd5b505afa158015611d92573d6000803e3d6000fd5b505050506040513d6020811015611da857600080fd5b810190808051906020019092919050505090506000828211611dca5781611dcc565b825b905080600760008a73ffffffffffffffffffffffffffffffffffffffff16635f7271896040518163ffffffff1660e01b815260040160206040518083038186803b158015611e1957600080fd5b505afa158015611e2d573d6000803e3d6000fd5b505050506040513d6020811015611e4357600080fd5b810190808051906020019092919050505073ffffffffffffffffffffffffffffffffffffffff1673ffffffffffffffffffffffffffffffffffffffff168152602001908152602001600020600082825401925050819055508415611f13578673ffffffffffffffffffffffffffffffffffffffff16635b463c918285036040518263ffffffff1660e01b815260040180828152602001915050600060405180830381600087803b158015611ef657600080fd5b505af1158015611f0a573d6000803e3d6000fd5b50505050611f81565b8673ffffffffffffffffffffffffffffffffffffffff1663c7853a8b8285036040518263ffffffff1660e01b815260040180828152602001915050600060405180830381600087803b158015611f6857600080fd5b505af1158015611f7c573d6000803e3d6000fd5b505050505b60019850505050505050505092915050565b600160009054906101000a900473ffffffffffffffffffffffffffffffffffffffff1681565b600460009054906101000a900473ffffffffffffffffffffffffffffffffffffffff1681565b600260009054906101000a900473ffffffffffffffffffffffffffffffffffffffff1681565b6000600760008373ffffffffffffffffffffffffffffffffffffffff1673ffffffffffffffffffffffffffffffffffffffff168152602001908152602001600020549050919050565b6000809054906101000a900473ffffffffffffffffffffffffffffffffffffffff1681565b600080600560003373ffffffffffffffffffffffffffffffffffffffff1673ffffffffffffffffffffffffffffffffffffffff16815260200190815260200160002054116120c057600080fd5b6000600560008573ffffffffffffffffffffffffffffffffffffffff1673ffffffffffffffffffffffffffffffffffffffff1681526020019081526020016000205411801561214e57506000600560008473ffffffffffffffffffffffffffffffffffffffff1673ffffffffffffffffffffffffffffffffffffffff16815260200190815260200160002054115b61215757600080fd5b600083905060008390508173ffffffffffffffffffffffffffffffffffffffff16635ab533ac6040518163ffffffff1660e01b815260040160206040518083038186803b1580156121a757600080fd5b505afa1580156121bb573d6000803e3d6000fd5b505050506040513d60208110156121d157600080fd5b81019080805190602001909291905050508273ffffffffffffffffffffffffffffffffffffffff1663c19d93fb6040518163ffffffff1660e01b815260040160206040518083038186803b15801561222857600080fd5b505afa15801561223c573d6000803e3d6000fd5b505050506040513d602081101561225257600080fd5b81019080805190602001909291905050501461226d57600080fd5b8073ffffffffffffffffffffffffffffffffffffffff1663c80c07386040518163ffffffff1660e01b815260040160206040518083038186803b1580156122b357600080fd5b505afa1580156122c7573d6000803e3d6000fd5b505050506040513d60208110156122dd57600080fd5b81019080805190602001909291905050508173ffffffffffffffffffffffffffffffffffffffff1663c19d93fb6040518163ffffffff1660e01b815260040160206040518083038186803b15801561233457600080fd5b505afa158015612348573d6000803e3d6000fd5b505050506040513d602081101561235e57600080fd5b81019080805190602001909291905050501461237957600080fd5b8173ffffffffffffffffffffffffffffffffffffffff1663879a031a6040518163ffffffff1660e01b815260040160206040518083038186803b1580156123bf57600080fd5b505afa1580156123d3573d6000803e3d6000fd5b505050506040513d60208110156123e957600080fd5b81019080805190602001909291905050508173ffffffffffffffffffffffffffffffffffffffff1663879a031a6040518163ffffffff1660e01b815260040160206040518083038186803b15801561244057600080fd5b505afa158015612454573d6000803e3d6000fd5b505050506040513d602081101561246a57600080fd5b8101908080519060200190929190505050111561248657600080fd5b60008273ffffffffffffffffffffffffffffffffffffffff1663a77f55996040518163ffffffff1660e01b815260040160206040518083038186803b1580156124ce57600080fd5b505afa1580156124e2573d6000803e3d6000fd5b505050506040513d60208110156124f857600080fd5b8101908080519060200190929190505050905060008273ffffffffffffffffffffffffffffffffffffffff16631d1438486040518163ffffffff1660e01b815260040160206040518083038186803b15801561255357600080fd5b505afa158015612567573d6000803e3d6000fd5b505050506040513d602081101561257d57600080fd5b810190808051906020019092919050505073ffffffffffffffffffffffffffffffffffffffff16600260009054906101000a900473ffffffffffffffffffffffffffffffffffffffff1673ffffffffffffffffffffffffffffffffffffffff1614801561269557508173ffffffffffffffffffffffffffffffffffffffff168373ffffffffffffffffffffffffffffffffffffffff1663a77f55996040518163ffffffff1660e01b815260040160206040518083038186803b15801561264257600080fd5b505afa158015612656573d6000803e3d6000fd5b505050506040513d602081101561266c57600080fd5b810190808051906020019092919050505073ffffffffffffffffffffffffffffffffffffffff16145b905060008373ffffffffffffffffffffffffffffffffffffffff16637150d8ae6040518163ffffffff1660e01b815260040160206040518083038186803b1580156126df57600080fd5b505afa1580156126f3573d6000803e3d6000fd5b505050506040513d602081101561270957600080fd5b810190808051906020019092919050505073ffffffffffffffffffffffffffffffffffffffff16600260009054906101000a900473ffffffffffffffffffffffffffffffffffffffff1673ffffffffffffffffffffffffffffffffffffffff1614801561282157508273ffffffffffffffffffffffffffffffffffffffff168473ffffffffffffffffffffffffffffffffffffffff16635f7271896040518163ffffffff1660e01b815260040160206040518083038186803b1580156127ce57600080fd5b505afa1580156127e2573d6000803e3d6000fd5b505050506040513d60208110156127f857600080fd5b810190808051906020019092919050505073ffffffffffffffffffffffffffffffffffffffff16145b9050818061282c5750805b61283557600080fd5b6000826128c2578473ffffffffffffffffffffffffffffffffffffffff166362fcb8236040518163ffffffff1660e01b815260040160206040518083038186803b15801561288257600080fd5b505afa158015612896573d6000803e3d6000fd5b505050506040513d60208110156128ac57600080fd5b8101908080519060200190929190505050612944565b8473ffffffffffffffffffffffffffffffffffffffff166302b2c2b06040518163ffffffff1660e01b815260040160206040518083038186803b15801561290857600080fd5b505afa15801561291c573d6000803e3d6000fd5b505050506040513d602081101561293257600080fd5b81019080805190602001909291905050505b905060008673ffffffffffffffffffffffffffffffffffffffff166316b818446040518163ffffffff1660e01b815260040160206040518083038186803b15801561298e57600080fd5b505afa1580156129a2573d6000803e3d6000fd5b505050506040513d60208110156129b857600080fd5b8101908080519060200190929190505050905060008282116129da57816129dc565b825b905080600760008a73ffffffffffffffffffffffffffffffffffffffff1663a77f55996040518163ffffffff1660e01b815260040160206040518083038186803b158015612a2957600080fd5b505afa158015612a3d573d6000803e3d6000fd5b505050506040513d6020811015612a5357600080fd5b810190808051906020019092919050505073ffffffffffffffffffffffffffffffffffffffff1673ffffffffffffffffffffffffffffffffffffffff16815260200190815260200160002060008282540192505081905550505050505050505092915050565b60076020528060005260406000206000915090505481565b60068181548110612ade57fe5b906000526020600020016000915054906101000a900473ffffffffffffffffffffffffffffffffffffffff1681565b600260009054906101000a900473ffffffffffffffffffffffffffffffffffffffff1673ffffffffffffffffffffffffffffffffffffffff163373ffffffffffffffffffffffffffffffffffffffff1614612b6757600080fd5b80600760008473ffffffffffffffffffffffffffffffffffffffff1673ffffffffffffffffffffffffffffffffffffffff168152602001908152602001600020541015612bb357600080fd5b60008273ffffffffffffffffffffffffffffffffffffffff1663a9059cbb600260009054906101000a900473ffffffffffffffffffffffffffffffffffffffff16846040518363ffffffff1660e01b8152600401808373ffffffffffffffffffffffffffffffffffffffff1673ffffffffffffffffffffffffffffffffffffffff16815260200182815260200192505050602060405180830381600087803b158015612c5e57600080fd5b505af1158015612c72573d6000803e3d6000fd5b505050506040513d6020811015612c8857600080fd5b8101908080519060200190929190505050905080612ca557600080fd5b81600760008573ffffffffffffffffffffffffffffffffffffffff1673ffffffffffffffffffffffffffffffffffffffff1681526020019081526020016000205403600760008573ffffffffffffffffffffffffffffffffffffffff1673ffffffffffffffffffffffffffffffffffffffff1681526020019081526020016000208190555050505056fea165627a7a7230582006a1066fd328675b518fd89a6ef32bb81dfadaa895a5a7f2a87b374992833ab60029",
  "source": "pragma solidity >=0.4.21 <0.6.0;\n\nimport \"../forwards/ManagedForward.sol\";\nimport \"../factories/ManagedForwardFactory.sol\";\n\ncontract Portfolio {\n\n  // The two tokens this portfolio matches trades on\n  address public base_addr;\n  address public asset_addr;\n\n  // Information on owner and where this portfolio's forwards are minted\n  address public owner;\n  address public managed_forward_factory_addr;\n  ManagedForwardFactory public managed_forward_factory;\n\n  // Map stores indices, list stores the actual forwards\n  mapping(address => uint256) public my_forward_indices;\n  address[] public my_forwards;\n\n  // How much volume of each token is available?\n  mapping(address => uint256) public volume_available;\n\n  constructor(address _base_addr, address _asset_addr,\n              address _owner, address _managed_forward_factory_addr) public {\n    require(_base_addr != _asset_addr);\n    base_addr = _base_addr;\n    asset_addr = _asset_addr;\n\n    owner = _owner;\n    managed_forward_factory_addr = _managed_forward_factory_addr;\n    managed_forward_factory = ManagedForwardFactory(managed_forward_factory_addr);\n    my_forwards.push(address(0));\n  }\n\n  function add_managed_forward(address managed_forward_addr) public {\n    require(msg.sender == owner);\n\n    bool is_from_factory = managed_forward_factory.get_created_forward(managed_forward_addr);\n    require(is_from_factory);\n\n    ManagedForward managed_forward = ManagedForward(managed_forward_addr);\n    bool owner_party = ((owner == managed_forward.issuer()) || (owner == managed_forward.buyer()));\n    bool portfolio_party = ((address(this) == managed_forward.issuer_portfolio_addr()) ||\n                            (address(this) == managed_forward.buyer_portfolio_addr()));\n    require(owner_party && portfolio_party);\n\n    address fwd_base_addr = managed_forward.base_addr();\n    address fwd_asset_addr = managed_forward.asset_addr();\n    bool my_base_traded = (base_addr == fwd_base_addr) || (base_addr == fwd_asset_addr);\n    bool my_asset_traded = (asset_addr == fwd_base_addr) || (asset_addr == fwd_asset_addr);\n    require(my_base_traded && my_asset_traded && (fwd_base_addr != fwd_asset_addr));\n\n    uint index = my_forwards.push(managed_forward_addr) - 1;\n    my_forward_indices[managed_forward_addr] = index;\n  }\n\n  function approve_managed_forward(address token_addr, uint256 value) public returns (bool) {\n    require(token_addr == base_addr || token_addr == asset_addr);\n    require(my_forward_indices[msg.sender] > 0);\n    bool approve_call = ERC20(token_addr).approve(msg.sender, value);\n    require(approve_call);\n    return true;\n  }\n\n  function set_volume_available(address token_addr, uint256 value) public {\n    require(my_forward_indices[msg.sender] > 0);\n    volume_available[token_addr] = value;\n  }\n\n  // // NOTE: Under new architecture, can't just match retroactively.\n\n  // old_fwd is already active, and pays out at the same time as or before new_fwd does, in new_fwd's asset currency\n  function match_collateralize(address new_fwd_addr, address old_fwd_addr) public returns (bool) {\n    require(my_forward_indices[msg.sender] > 0);\n    require((my_forward_indices[new_fwd_addr] > 0) && (my_forward_indices[old_fwd_addr] > 0));\n\n    ManagedForward new_fwd = ManagedForward(new_fwd_addr);\n    ManagedForward old_fwd = ManagedForward(old_fwd_addr);\n    // new_fwd is being collateralized\n    require(new_fwd.state() == new_fwd.STATE_INITIALIZED());\n    // old_fwd is already active\n    require(old_fwd.state() == old_fwd.STATE_ACTIVE());\n    // and pays out at the same time as or before new_fwd does\n    require(old_fwd.maturity_time() <= new_fwd.maturity_time());\n    // in new_fwd's asset currency\n    address new_asset = new_fwd.asset_addr();\n    bool base_to_asset = ((owner == old_fwd.issuer()) && (old_fwd.base_addr() == new_asset));\n    bool asset_to_asset = ((owner == old_fwd.buyer()) && (old_fwd.asset_addr() == new_asset));\n    require(base_to_asset || asset_to_asset);\n\n    // Credit you in advance with old_fwd's payout, up to a limit of new_fwd's volume\n    uint256 old_unmatched = (base_to_asset ?\n                            old_fwd.unmatched_base_volume() :\n                            old_fwd.unmatched_asset_volume());\n    uint256 new_volume = new_fwd.volume();\n    uint256 additional_credit = (new_volume > old_unmatched ?\n                                              old_unmatched :\n                                              new_volume);\n    volume_available[new_fwd.asset_addr()] += additional_credit;\n\n    // Update the old_fwd unmatched volume\n    if (base_to_asset) {\n      old_fwd.set_unmatched_base_volume(old_unmatched - additional_credit);\n    } else {\n      old_fwd.set_unmatched_asset_volume(old_unmatched - additional_credit);\n    }\n\n   return true;\n  }\n\n  // old_fwd is already active, and pays out at the same time as or before new_fwd does, in new_fwd's base currency\n  function match_activate(address new_fwd_addr, address old_fwd_addr) public returns (bool) {\n    require(my_forward_indices[msg.sender] > 0);\n    require((my_forward_indices[new_fwd_addr] > 0) && (my_forward_indices[old_fwd_addr] > 0));\n\n    ManagedForward new_fwd = ManagedForward(new_fwd_addr);\n    ManagedForward old_fwd = ManagedForward(old_fwd_addr);\n    // new_fwd is being activated\n    require(new_fwd.state() == new_fwd.STATE_COLLATERALIZED());\n    // old_fwd is already active\n    require(old_fwd.state() == old_fwd.STATE_ACTIVE());\n    // and pays out at the same time as or before new_fwd does\n    require(old_fwd.maturity_time() <= new_fwd.maturity_time());\n    // in new_fwd's base currency\n    address new_base = new_fwd.base_addr();\n    bool base_to_base = ((owner == old_fwd.issuer()) && (old_fwd.base_addr() == new_base));\n    bool asset_to_base = ((owner == old_fwd.buyer()) && (old_fwd.asset_addr() == new_base));\n    require(base_to_base || asset_to_base);\n\n    // Credit you in advance with old_fwd's payout, up to a limit of new_fwd's base_volume\n    uint256 old_unmatched = (base_to_base ?\n                            old_fwd.unmatched_base_volume() :\n                            old_fwd.unmatched_asset_volume());\n    uint256 new_volume = new_fwd.base_volume();\n    uint256 additional_credit = (new_volume > old_unmatched ?\n                                              old_unmatched :\n                                              new_volume);\n    volume_available[new_fwd.base_addr()] += additional_credit;\n  }\n\n  // Deposit a token into this Portfolio\n  function deposit(address token_addr, uint256 value) public {\n    require(msg.sender == owner);\n    require((token_addr == base_addr) || (token_addr == asset_addr));\n    bool token_transfer = ERC20(token_addr).transferFrom(owner, address(this), value);\n    require(token_transfer);\n    volume_available[token_addr] = volume_available[token_addr] + value;\n  }\n\n  // Withdraw a token from this Portfolio\n  function withdraw(address token_addr, uint256 value) public {\n    require(msg.sender == owner);\n    require(volume_available[token_addr] >= value);\n    bool token_transfer = ERC20(token_addr).transfer(owner, value);\n    require(token_transfer);\n    volume_available[token_addr] = volume_available[token_addr] - value;\n  }\n\n  function get_volume_available(address token_addr) public view returns (uint256) {\n    return volume_available[token_addr];\n  }\n\n  function get_forward_index(address forward_address) public view returns (uint256) {\n    return my_forward_indices[forward_address];\n  }\n}\n",
  "sourcePath": "/Users/Karim/Desktop/atomicoptions/contracts/src/auxiliary/Portfolio.sol",
  "compiler": {
    "name": "solc",
    "version": "0.5.8+commit.23d335f2.Emscripten.clang"
  },
  "schemaVersion": "3.0.16",
  "updatedAt": "2019-10-22T16:38:27.425Z",
  "devdoc": {
    "methods": {}
  },
  "userdoc": {
    "methods": {}
  }
}