{
  "contractName": "SilentOptionFactory",
  "abi": [
    {
      "constant": false,
      "inputs": [
        {
          "name": "_issuer",
          "type": "address"
        },
        {
          "name": "_buyer",
          "type": "address"
        },
        {
          "name": "_base_addr",
          "type": "address"
        },
        {
          "name": "_asset_addr",
          "type": "address"
        },
        {
          "name": "_fee",
          "type": "uint256"
        },
        {
          "name": "_strike_price_base_hash",
          "type": "bytes32"
        },
        {
          "name": "_strike_price_quote_hash",
          "type": "bytes32"
        },
        {
          "name": "_volume",
          "type": "uint256"
        },
        {
          "name": "_maturity_time",
          "type": "uint256"
        },
        {
          "name": "_expiry_time",
          "type": "uint256"
        }
      ],
      "name": "create_standard_option",
      "outputs": [
        {
          "name": "",
          "type": "address"
        }
      ],
      "payable": false,
      "stateMutability": "nonpayable",
      "type": "function"
    }
  ],
  "bytecode": "0x608060405234801561001057600080fd5b506118e6806100206000396000f3fe608060405234801561001057600080fd5b506004361061002b5760003560e01c8063bde534ca14610030575b600080fd5b61010f600480360361014081101561004757600080fd5b81019080803573ffffffffffffffffffffffffffffffffffffffff169060200190929190803573ffffffffffffffffffffffffffffffffffffffff169060200190929190803573ffffffffffffffffffffffffffffffffffffffff169060200190929190803573ffffffffffffffffffffffffffffffffffffffff169060200190929190803590602001909291908035906020019092919080359060200190929190803590602001909291908035906020019092919080359060200190929190505050610151565b604051808273ffffffffffffffffffffffffffffffffffffffff1673ffffffffffffffffffffffffffffffffffffffff16815260200191505060405180910390f35b6000808b8b8b8b8b8b8b8b8b8b60405161016a90610294565b808b73ffffffffffffffffffffffffffffffffffffffff1673ffffffffffffffffffffffffffffffffffffffff1681526020018a73ffffffffffffffffffffffffffffffffffffffff1673ffffffffffffffffffffffffffffffffffffffff1681526020018973ffffffffffffffffffffffffffffffffffffffff1673ffffffffffffffffffffffffffffffffffffffff1681526020018873ffffffffffffffffffffffffffffffffffffffff1673ffffffffffffffffffffffffffffffffffffffff1681526020018781526020018681526020018581526020018481526020018381526020018281526020019a5050505050505050505050604051809103906000f08015801561027f573d6000803e3d6000fd5b509050809150509a9950505050505050505050565b611619806102a28339019056fe608060405234801561001057600080fd5b5060405161014080611619833981018060405261014081101561003257600080fd5b810190808051906020019092919080519060200190929190805190602001909291908051906020019092919080519060200190929190805190602001909291908051906020019092919080519060200190929190805190602001909291908051906020019092919050505089898989898787878473ffffffffffffffffffffffffffffffffffffffff168673ffffffffffffffffffffffffffffffffffffffff1614156100de57600080fd5b42811180156100ec57508181115b6100f557600080fd5b876000806101000a81548173ffffffffffffffffffffffffffffffffffffffff021916908373ffffffffffffffffffffffffffffffffffffffff16021790555086600160006101000a81548173ffffffffffffffffffffffffffffffffffffffff021916908373ffffffffffffffffffffffffffffffffffffffff16021790555085600260006101000a81548173ffffffffffffffffffffffffffffffffffffffff021916908373ffffffffffffffffffffffffffffffffffffffff16021790555084600360006101000a81548173ffffffffffffffffffffffffffffffffffffffff021916908373ffffffffffffffffffffffffffffffffffffffff1602179055508360048190555082600581905550816006819055508060078190555085600960006101000a81548173ffffffffffffffffffffffffffffffffffffffff021916908373ffffffffffffffffffffffffffffffffffffffff16021790555084600a60006101000a81548173ffffffffffffffffffffffffffffffffffffffff021916908373ffffffffffffffffffffffffffffffffffffffff1602179055506001600881905550505050505050505084600b8190555083600c819055505050505050505050505061134c806102cd6000396000f3fe608060405234801561001057600080fd5b506004361061018e5760003560e01c806379599f96116100de578063c618a1e411610097578063d34ab68d11610071578063d34ab68d14610695578063ddca3f43146106b3578063eef9a8d5146106d1578063fe3f3b81146106db5761018e565b8063c618a1e41461060d578063c80c07381461062b578063cf440500146106495761018e565b806379599f9614610519578063879a031a146105235780639f4c3a41146105415780639f771e1e1461059b578063a77f5599146105a5578063c19d93fb146105ef5761018e565b806344f3891e1161014b5780635b508edf116101255780635b508edf146103535780635f7271891461037157806360583488146103bb5780637150d8ae146104cf5761018e565b806344f3891e1461029f5780635001f3b5146102eb5780635ab533ac146103355761018e565b80630fa9f5e11461019357806314b80ae6146101b157806319d83c71146101cf5780631be0fadd146101ed5780631d1438481461020b57806338d52e0f14610255575b600080fd5b61019b6106f9565b6040518082815260200191505060405180910390f35b6101b96106fe565b6040518082815260200191505060405180910390f35b6101d7610703565b6040518082815260200191505060405180910390f35b6101f5610708565b6040518082815260200191505060405180910390f35b61021361070e565b604051808273ffffffffffffffffffffffffffffffffffffffff1673ffffffffffffffffffffffffffffffffffffffff16815260200191505060405180910390f35b61025d610733565b604051808273ffffffffffffffffffffffffffffffffffffffff1673ffffffffffffffffffffffffffffffffffffffff16815260200191505060405180910390f35b6102e9600480360360808110156102b557600080fd5b8101908080359060200190929190803590602001909291908035906020019092919080359060200190929190505050610759565b005b6102f36107eb565b604051808273ffffffffffffffffffffffffffffffffffffffff1673ffffffffffffffffffffffffffffffffffffffff16815260200191505060405180910390f35b61033d610811565b6040518082815260200191505060405180910390f35b61035b610816565b6040518082815260200191505060405180910390f35b61037961081c565b604051808273ffffffffffffffffffffffffffffffffffffffff1673ffffffffffffffffffffffffffffffffffffffff16815260200191505060405180910390f35b6103c3610842565b604051808c73ffffffffffffffffffffffffffffffffffffffff1673ffffffffffffffffffffffffffffffffffffffff1681526020018b73ffffffffffffffffffffffffffffffffffffffff1673ffffffffffffffffffffffffffffffffffffffff1681526020018a73ffffffffffffffffffffffffffffffffffffffff1673ffffffffffffffffffffffffffffffffffffffff1681526020018973ffffffffffffffffffffffffffffffffffffffff1673ffffffffffffffffffffffffffffffffffffffff1681526020018881526020018781526020018681526020018581526020018481526020018381526020018281526020019b50505050505050505050505060405180910390f35b6104d7610916565b604051808273ffffffffffffffffffffffffffffffffffffffff1673ffffffffffffffffffffffffffffffffffffffff16815260200191505060405180910390f35b61052161093c565b005b61052b610aee565b6040518082815260200191505060405180910390f35b6105816004803603606081101561055757600080fd5b81019080803590602001909291908035906020019092919080359060200190929190505050610af4565b604051808215151515815260200191505060405180910390f35b6105a3610b96565b005b6105ad610d83565b604051808273ffffffffffffffffffffffffffffffffffffffff1673ffffffffffffffffffffffffffffffffffffffff16815260200191505060405180910390f35b6105f7610da9565b6040518082815260200191505060405180910390f35b610615610daf565b6040518082815260200191505060405180910390f35b610633610db5565b6040518082815260200191505060405180910390f35b6106936004803603608081101561065f57600080fd5b8101908080359060200190929190803590602001909291908035906020019092919080359060200190929190505050610dba565b005b61069d610e4f565b6040518082815260200191505060405180910390f35b6106bb610e54565b6040518082815260200191505060405180910390f35b6106d9610e5a565b005b6106e3611024565b6040518082815260200191505060405180910390f35b600581565b600181565b600481565b600b5481565b6000809054906101000a900473ffffffffffffffffffffffffffffffffffffffff1681565b600a60009054906101000a900473ffffffffffffffffffffffffffffffffffffffff1681565b600160009054906101000a900473ffffffffffffffffffffffffffffffffffffffff1673ffffffffffffffffffffffffffffffffffffffff163373ffffffffffffffffffffffffffffffffffffffff16146107b057fe5b60006107bd848484610af4565b9050806107c957600080fd5b600084848702816107d657fe5b0490506107e3868261102a565b505050505050565b600960009054906101000a900473ffffffffffffffffffffffffffffffffffffffff1681565b600281565b600c5481565b600360009054906101000a900473ffffffffffffffffffffffffffffffffffffffff1681565b60008060008060008060008060008060008060009054906101000a900473ffffffffffffffffffffffffffffffffffffffff16600160009054906101000a900473ffffffffffffffffffffffffffffffffffffffff16600260009054906101000a900473ffffffffffffffffffffffffffffffffffffffff16600360009054906101000a900473ffffffffffffffffffffffffffffffffffffffff16600454600b54600c546005546006546007546008549a509a509a509a509a509a509a509a509a509a509a50909192939495969798999a565b600160009054906101000a900473ffffffffffffffffffffffffffffffffffffffff1681565b6000809054906101000a900473ffffffffffffffffffffffffffffffffffffffff1673ffffffffffffffffffffffffffffffffffffffff163373ffffffffffffffffffffffffffffffffffffffff161461099557600080fd5b426007541115806109a857506002600854145b806109b557506000600554145b6109be57600080fd5b600560085414156109ce57600080fd5b6000600a60009054906101000a900473ffffffffffffffffffffffffffffffffffffffff1673ffffffffffffffffffffffffffffffffffffffff1663a9059cbb6000809054906101000a900473ffffffffffffffffffffffffffffffffffffffff166005546040518363ffffffff1660e01b8152600401808373ffffffffffffffffffffffffffffffffffffffff1673ffffffffffffffffffffffffffffffffffffffff16815260200182815260200192505050602060405180830381600087803b158015610a9c57600080fd5b505af1158015610ab0573d6000803e3d6000fd5b505050506040513d6020811015610ac657600080fd5b8101908080519060200190929190505050905080610ae357600080fd5b600560088190555050565b60065481565b6000808460001b905060008460001b9050600082856040516020018083815260200182815260200192505050604051602081830303815290604052805190602001209050600082866040516020018083815260200182815260200192505050604051602081830303815290604052805190602001209050600b548214610b7957600080fd5b600c548114610b8757600080fd5b60019450505050509392505050565b600160009054906101000a900473ffffffffffffffffffffffffffffffffffffffff1673ffffffffffffffffffffffffffffffffffffffff163373ffffffffffffffffffffffffffffffffffffffff1614610bf057600080fd5b600260085414610bff57600080fd5b4260075411610c0d57600080fd5b6000600960009054906101000a900473ffffffffffffffffffffffffffffffffffffffff1673ffffffffffffffffffffffffffffffffffffffff166323b872dd600160009054906101000a900473ffffffffffffffffffffffffffffffffffffffff166000809054906101000a900473ffffffffffffffffffffffffffffffffffffffff166004546040518463ffffffff1660e01b8152600401808473ffffffffffffffffffffffffffffffffffffffff1673ffffffffffffffffffffffffffffffffffffffff1681526020018373ffffffffffffffffffffffffffffffffffffffff1673ffffffffffffffffffffffffffffffffffffffff1681526020018281526020019350505050602060405180830381600087803b158015610d3157600080fd5b505af1158015610d45573d6000803e3d6000fd5b505050506040513d6020811015610d5b57600080fd5b8101908080519060200190929190505050905080610d7857600080fd5b600360088190555050565b600260009054906101000a900473ffffffffffffffffffffffffffffffffffffffff1681565b60085481565b60055481565b600381565b600160009054906101000a900473ffffffffffffffffffffffffffffffffffffffff1673ffffffffffffffffffffffffffffffffffffffff163373ffffffffffffffffffffffffffffffffffffffff1614610e1457600080fd5b6000610e21848484610af4565b905080610e2d57600080fd5b60008385870281610e3a57fe5b049050610e47818761102a565b505050505050565b600081565b60045481565b6000809054906101000a900473ffffffffffffffffffffffffffffffffffffffff1673ffffffffffffffffffffffffffffffffffffffff163373ffffffffffffffffffffffffffffffffffffffff1614610eb357600080fd5b600160085414610ec257600080fd5b4260075411610ed057600080fd5b6000600a60009054906101000a900473ffffffffffffffffffffffffffffffffffffffff1673ffffffffffffffffffffffffffffffffffffffff166323b872dd6000809054906101000a900473ffffffffffffffffffffffffffffffffffffffff16306005546040518463ffffffff1660e01b8152600401808473ffffffffffffffffffffffffffffffffffffffff1673ffffffffffffffffffffffffffffffffffffffff1681526020018373ffffffffffffffffffffffffffffffffffffffff1673ffffffffffffffffffffffffffffffffffffffff1681526020018281526020019350505050602060405180830381600087803b158015610fd257600080fd5b505af1158015610fe6573d6000803e3d6000fd5b505050506040513d6020811015610ffc57600080fd5b810190808051906020019092919050505090508061101957600080fd5b600260088190555050565b60075481565b4260075411801561103d57504260065411155b61104657600080fd5b6003600854148061105957506004600854145b61106257600080fd5b6000821161106f57600080fd5b60008111801561108157506005548111155b61108a57600080fd5b6000600960009054906101000a900473ffffffffffffffffffffffffffffffffffffffff1673ffffffffffffffffffffffffffffffffffffffff166323b872dd600160009054906101000a900473ffffffffffffffffffffffffffffffffffffffff166000809054906101000a900473ffffffffffffffffffffffffffffffffffffffff16866040518463ffffffff1660e01b8152600401808473ffffffffffffffffffffffffffffffffffffffff1673ffffffffffffffffffffffffffffffffffffffff1681526020018373ffffffffffffffffffffffffffffffffffffffff1673ffffffffffffffffffffffffffffffffffffffff1681526020018281526020019350505050602060405180830381600087803b1580156111ac57600080fd5b505af11580156111c0573d6000803e3d6000fd5b505050506040513d60208110156111d657600080fd5b81019080805190602001909291905050509050806111f357600080fd5b6000600a60009054906101000a900473ffffffffffffffffffffffffffffffffffffffff1673ffffffffffffffffffffffffffffffffffffffff1663a9059cbb600160009054906101000a900473ffffffffffffffffffffffffffffffffffffffff16856040518363ffffffff1660e01b8152600401808373ffffffffffffffffffffffffffffffffffffffff1673ffffffffffffffffffffffffffffffffffffffff16815260200182815260200192505050602060405180830381600087803b1580156112c057600080fd5b505af11580156112d4573d6000803e3d6000fd5b505050506040513d60208110156112ea57600080fd5b810190808051906020019092919050505090508061130757600080fd5b826005540360058190555060046008819055505050505056fea165627a7a723058200a219d002ecb395d1ac953a40d8eee7ed5510d71c0aa3aad49a179e6cb51f3ce0029a165627a7a72305820239fc481dd50f1fe44115ae3fac19eca68c75beb3d4360bc99ef8fe02a7885d20029",
  "source": "pragma solidity >=0.4.21 <0.6.0;\n\nimport \"../options/SilentOption.sol\";\n\ncontract SilentOptionFactory {\n  function create_standard_option(address _issuer, address _buyer,\n                                  address _base_addr, address _asset_addr,\n                                  uint256 _fee,\n                                  bytes32 _strike_price_base_hash, bytes32 _strike_price_quote_hash,\n                                  uint256 _volume,\n                                  uint256 _maturity_time, uint256 _expiry_time)\n                                    public returns (address) {\n    SilentOption silent_option = new SilentOption(\n                                    _issuer, _buyer,\n                                    _base_addr, _asset_addr,\n                                    _fee,\n                                    _strike_price_base_hash, _strike_price_quote_hash,\n                                    _volume,\n                                    _maturity_time, _expiry_time);\n    return address(silent_option);\n  }\n}\n",
  "sourcePath": "/Users/Karim/Desktop/atomicoptions/contracts/v0-2/factories/SilentOptionFactory.sol",
  "compiler": {
    "name": "solc",
    "version": "0.5.8+commit.23d335f2.Emscripten.clang"
  },
  "schemaVersion": "3.0.16",
  "updatedAt": "2019-10-14T21:11:16.248Z",
  "devdoc": {
    "methods": {}
  },
  "userdoc": {
    "methods": {}
  }
}