{
  "contractName": "SilentOption",
  "abi": [
    {
      "constant": true,
      "inputs": [],
      "name": "STATE_EXPIRED",
      "outputs": [
        {
          "name": "",
          "type": "uint256"
        }
      ],
      "payable": false,
      "stateMutability": "view",
      "type": "function"
    },
    {
      "constant": true,
      "inputs": [],
      "name": "STATE_INITIALIZED",
      "outputs": [
        {
          "name": "",
          "type": "uint256"
        }
      ],
      "payable": false,
      "stateMutability": "view",
      "type": "function"
    },
    {
      "constant": true,
      "inputs": [],
      "name": "STATE_EXERCISED",
      "outputs": [
        {
          "name": "",
          "type": "uint256"
        }
      ],
      "payable": false,
      "stateMutability": "view",
      "type": "function"
    },
    {
      "constant": true,
      "inputs": [],
      "name": "strike_price_base_hash",
      "outputs": [
        {
          "name": "",
          "type": "bytes32"
        }
      ],
      "payable": false,
      "stateMutability": "view",
      "type": "function"
    },
    {
      "constant": true,
      "inputs": [],
      "name": "issuer",
      "outputs": [
        {
          "name": "",
          "type": "address"
        }
      ],
      "payable": false,
      "stateMutability": "view",
      "type": "function"
    },
    {
      "constant": true,
      "inputs": [],
      "name": "asset",
      "outputs": [
        {
          "name": "",
          "type": "address"
        }
      ],
      "payable": false,
      "stateMutability": "view",
      "type": "function"
    },
    {
      "constant": true,
      "inputs": [],
      "name": "base",
      "outputs": [
        {
          "name": "",
          "type": "address"
        }
      ],
      "payable": false,
      "stateMutability": "view",
      "type": "function"
    },
    {
      "constant": true,
      "inputs": [],
      "name": "STATE_COLLATERALIZED",
      "outputs": [
        {
          "name": "",
          "type": "uint256"
        }
      ],
      "payable": false,
      "stateMutability": "view",
      "type": "function"
    },
    {
      "constant": true,
      "inputs": [],
      "name": "strike_price_quote_hash",
      "outputs": [
        {
          "name": "",
          "type": "bytes32"
        }
      ],
      "payable": false,
      "stateMutability": "view",
      "type": "function"
    },
    {
      "constant": true,
      "inputs": [],
      "name": "asset_addr",
      "outputs": [
        {
          "name": "",
          "type": "address"
        }
      ],
      "payable": false,
      "stateMutability": "view",
      "type": "function"
    },
    {
      "constant": true,
      "inputs": [],
      "name": "buyer",
      "outputs": [
        {
          "name": "",
          "type": "address"
        }
      ],
      "payable": false,
      "stateMutability": "view",
      "type": "function"
    },
    {
      "constant": false,
      "inputs": [],
      "name": "expire",
      "outputs": [],
      "payable": false,
      "stateMutability": "nonpayable",
      "type": "function"
    },
    {
      "constant": true,
      "inputs": [],
      "name": "maturity_time",
      "outputs": [
        {
          "name": "",
          "type": "uint256"
        }
      ],
      "payable": false,
      "stateMutability": "view",
      "type": "function"
    },
    {
      "constant": false,
      "inputs": [],
      "name": "pay_fee",
      "outputs": [],
      "payable": false,
      "stateMutability": "nonpayable",
      "type": "function"
    },
    {
      "constant": true,
      "inputs": [],
      "name": "base_addr",
      "outputs": [
        {
          "name": "",
          "type": "address"
        }
      ],
      "payable": false,
      "stateMutability": "view",
      "type": "function"
    },
    {
      "constant": true,
      "inputs": [],
      "name": "state",
      "outputs": [
        {
          "name": "",
          "type": "uint256"
        }
      ],
      "payable": false,
      "stateMutability": "view",
      "type": "function"
    },
    {
      "constant": true,
      "inputs": [],
      "name": "volume",
      "outputs": [
        {
          "name": "",
          "type": "uint256"
        }
      ],
      "payable": false,
      "stateMutability": "view",
      "type": "function"
    },
    {
      "constant": true,
      "inputs": [],
      "name": "STATE_ACTIVE",
      "outputs": [
        {
          "name": "",
          "type": "uint256"
        }
      ],
      "payable": false,
      "stateMutability": "view",
      "type": "function"
    },
    {
      "constant": true,
      "inputs": [],
      "name": "STATE_UNINITIALIZED",
      "outputs": [
        {
          "name": "",
          "type": "uint256"
        }
      ],
      "payable": false,
      "stateMutability": "view",
      "type": "function"
    },
    {
      "constant": true,
      "inputs": [],
      "name": "fee",
      "outputs": [
        {
          "name": "",
          "type": "uint256"
        }
      ],
      "payable": false,
      "stateMutability": "view",
      "type": "function"
    },
    {
      "constant": false,
      "inputs": [],
      "name": "collateralize",
      "outputs": [],
      "payable": false,
      "stateMutability": "nonpayable",
      "type": "function"
    },
    {
      "constant": true,
      "inputs": [],
      "name": "expiry_time",
      "outputs": [
        {
          "name": "",
          "type": "uint256"
        }
      ],
      "payable": false,
      "stateMutability": "view",
      "type": "function"
    },
    {
      "inputs": [
        {
          "name": "_issuer",
          "type": "address"
        },
        {
          "name": "_buyer",
          "type": "address"
        },
        {
          "name": "_base_addr",
          "type": "address"
        },
        {
          "name": "_asset_addr",
          "type": "address"
        },
        {
          "name": "_fee",
          "type": "uint256"
        },
        {
          "name": "_strike_price_base_hash",
          "type": "bytes32"
        },
        {
          "name": "_strike_price_quote_hash",
          "type": "bytes32"
        },
        {
          "name": "_volume",
          "type": "uint256"
        },
        {
          "name": "_maturity_time",
          "type": "uint256"
        },
        {
          "name": "_expiry_time",
          "type": "uint256"
        }
      ],
      "payable": false,
      "stateMutability": "nonpayable",
      "type": "constructor"
    },
    {
      "constant": true,
      "inputs": [
        {
          "name": "strike_price_base",
          "type": "uint256"
        },
        {
          "name": "strike_price_quote",
          "type": "uint256"
        },
        {
          "name": "salt",
          "type": "bytes32"
        }
      ],
      "name": "check_hashes",
      "outputs": [
        {
          "name": "",
          "type": "bool"
        }
      ],
      "payable": false,
      "stateMutability": "view",
      "type": "function"
    },
    {
      "constant": false,
      "inputs": [
        {
          "name": "asset_volume_exercised",
          "type": "uint256"
        },
        {
          "name": "strike_price_base",
          "type": "uint256"
        },
        {
          "name": "strike_price_quote",
          "type": "uint256"
        },
        {
          "name": "salt",
          "type": "bytes32"
        }
      ],
      "name": "exercise_from_asset",
      "outputs": [],
      "payable": false,
      "stateMutability": "nonpayable",
      "type": "function"
    },
    {
      "constant": false,
      "inputs": [
        {
          "name": "base_volume_exercised",
          "type": "uint256"
        },
        {
          "name": "strike_price_base",
          "type": "uint256"
        },
        {
          "name": "strike_price_quote",
          "type": "uint256"
        },
        {
          "name": "salt",
          "type": "bytes32"
        }
      ],
      "name": "exercise_from_base",
      "outputs": [],
      "payable": false,
      "stateMutability": "nonpayable",
      "type": "function"
    }
  ],
  "bytecode": "0x608060405234801561001057600080fd5b5060405161014080611415833981018060405261014081101561003257600080fd5b81019080805190602001909291908051906020019092919080519060200190929190805190602001909291908051906020019092919080519060200190929190805190602001909291908051906020019092919080519060200190929190805190602001909291905050506000600854146100ac57600080fd5b8673ffffffffffffffffffffffffffffffffffffffff168873ffffffffffffffffffffffffffffffffffffffff1614156100e557600080fd5b42811180156100f357508181115b6100fc57600080fd5b896000806101000a81548173ffffffffffffffffffffffffffffffffffffffff021916908373ffffffffffffffffffffffffffffffffffffffff16021790555088600160006101000a81548173ffffffffffffffffffffffffffffffffffffffff021916908373ffffffffffffffffffffffffffffffffffffffff16021790555087600260006101000a81548173ffffffffffffffffffffffffffffffffffffffff021916908373ffffffffffffffffffffffffffffffffffffffff16021790555086600360006101000a81548173ffffffffffffffffffffffffffffffffffffffff021916908373ffffffffffffffffffffffffffffffffffffffff1602179055508560048190555084600b8190555083600c8190555082600581905550816006819055508060078190555087600960006101000a81548173ffffffffffffffffffffffffffffffffffffffff021916908373ffffffffffffffffffffffffffffffffffffffff16021790555086600a60006101000a81548173ffffffffffffffffffffffffffffffffffffffff021916908373ffffffffffffffffffffffffffffffffffffffff160217905550600160088190555050505050505050505050611149806102cc6000396000f3fe608060405234801561001057600080fd5b50600436106101735760003560e01c806379599f96116100de578063c618a1e411610097578063d34ab68d11610071578063d34ab68d14610566578063ddca3f4314610584578063eef9a8d5146105a2578063fe3f3b81146105ac57610173565b8063c618a1e4146104de578063c80c0738146104fc578063cf4405001461051a57610173565b806379599f96146103ea578063879a031a146103f45780639f4c3a41146104125780639f771e1e1461046c578063a77f559914610476578063c19d93fb146104c057610173565b806344f3891e1161013057806344f3891e146102845780635001f3b5146102d05780635ab533ac1461031a5780635b508edf146103385780635f727189146103565780637150d8ae146103a057610173565b80630fa9f5e11461017857806314b80ae61461019657806319d83c71146101b45780631be0fadd146101d25780631d143848146101f057806338d52e0f1461023a575b600080fd5b6101806105ca565b6040518082815260200191505060405180910390f35b61019e6105cf565b6040518082815260200191505060405180910390f35b6101bc6105d4565b6040518082815260200191505060405180910390f35b6101da6105d9565b6040518082815260200191505060405180910390f35b6101f86105df565b604051808273ffffffffffffffffffffffffffffffffffffffff1673ffffffffffffffffffffffffffffffffffffffff16815260200191505060405180910390f35b610242610604565b604051808273ffffffffffffffffffffffffffffffffffffffff1673ffffffffffffffffffffffffffffffffffffffff16815260200191505060405180910390f35b6102ce6004803603608081101561029a57600080fd5b810190808035906020019092919080359060200190929190803590602001909291908035906020019092919050505061062a565b005b6102d86106bc565b604051808273ffffffffffffffffffffffffffffffffffffffff1673ffffffffffffffffffffffffffffffffffffffff16815260200191505060405180910390f35b6103226106e2565b6040518082815260200191505060405180910390f35b6103406106e7565b6040518082815260200191505060405180910390f35b61035e6106ed565b604051808273ffffffffffffffffffffffffffffffffffffffff1673ffffffffffffffffffffffffffffffffffffffff16815260200191505060405180910390f35b6103a8610713565b604051808273ffffffffffffffffffffffffffffffffffffffff1673ffffffffffffffffffffffffffffffffffffffff16815260200191505060405180910390f35b6103f2610739565b005b6103fc6108eb565b6040518082815260200191505060405180910390f35b6104526004803603606081101561042857600080fd5b810190808035906020019092919080359060200190929190803590602001909291905050506108f1565b604051808215151515815260200191505060405180910390f35b610474610993565b005b61047e610b80565b604051808273ffffffffffffffffffffffffffffffffffffffff1673ffffffffffffffffffffffffffffffffffffffff16815260200191505060405180910390f35b6104c8610ba6565b6040518082815260200191505060405180910390f35b6104e6610bac565b6040518082815260200191505060405180910390f35b610504610bb2565b6040518082815260200191505060405180910390f35b6105646004803603608081101561053057600080fd5b8101908080359060200190929190803590602001909291908035906020019092919080359060200190929190505050610bb7565b005b61056e610c4c565b6040518082815260200191505060405180910390f35b61058c610c51565b6040518082815260200191505060405180910390f35b6105aa610c57565b005b6105b4610e21565b6040518082815260200191505060405180910390f35b600581565b600181565b600481565b600b5481565b6000809054906101000a900473ffffffffffffffffffffffffffffffffffffffff1681565b600a60009054906101000a900473ffffffffffffffffffffffffffffffffffffffff1681565b600160009054906101000a900473ffffffffffffffffffffffffffffffffffffffff1673ffffffffffffffffffffffffffffffffffffffff163373ffffffffffffffffffffffffffffffffffffffff161461068157fe5b600061068e8484846108f1565b90508061069a57600080fd5b600084848702816106a757fe5b0490506106b48682610e27565b505050505050565b600960009054906101000a900473ffffffffffffffffffffffffffffffffffffffff1681565b600281565b600c5481565b600360009054906101000a900473ffffffffffffffffffffffffffffffffffffffff1681565b600160009054906101000a900473ffffffffffffffffffffffffffffffffffffffff1681565b6000809054906101000a900473ffffffffffffffffffffffffffffffffffffffff1673ffffffffffffffffffffffffffffffffffffffff163373ffffffffffffffffffffffffffffffffffffffff161461079257600080fd5b426007541115806107a557506002600854145b806107b257506000600554145b6107bb57600080fd5b600560085414156107cb57600080fd5b6000600a60009054906101000a900473ffffffffffffffffffffffffffffffffffffffff1673ffffffffffffffffffffffffffffffffffffffff1663a9059cbb6000809054906101000a900473ffffffffffffffffffffffffffffffffffffffff166005546040518363ffffffff1660e01b8152600401808373ffffffffffffffffffffffffffffffffffffffff1673ffffffffffffffffffffffffffffffffffffffff16815260200182815260200192505050602060405180830381600087803b15801561089957600080fd5b505af11580156108ad573d6000803e3d6000fd5b505050506040513d60208110156108c357600080fd5b81019080805190602001909291905050509050806108e057600080fd5b600560088190555050565b60065481565b6000808460001b905060008460001b9050600082856040516020018083815260200182815260200192505050604051602081830303815290604052805190602001209050600082866040516020018083815260200182815260200192505050604051602081830303815290604052805190602001209050600b54821461097657600080fd5b600c54811461098457600080fd5b60019450505050509392505050565b600160009054906101000a900473ffffffffffffffffffffffffffffffffffffffff1673ffffffffffffffffffffffffffffffffffffffff163373ffffffffffffffffffffffffffffffffffffffff16146109ed57600080fd5b6002600854146109fc57600080fd5b4260075411610a0a57600080fd5b6000600960009054906101000a900473ffffffffffffffffffffffffffffffffffffffff1673ffffffffffffffffffffffffffffffffffffffff166323b872dd600160009054906101000a900473ffffffffffffffffffffffffffffffffffffffff166000809054906101000a900473ffffffffffffffffffffffffffffffffffffffff166004546040518463ffffffff1660e01b8152600401808473ffffffffffffffffffffffffffffffffffffffff1673ffffffffffffffffffffffffffffffffffffffff1681526020018373ffffffffffffffffffffffffffffffffffffffff1673ffffffffffffffffffffffffffffffffffffffff1681526020018281526020019350505050602060405180830381600087803b158015610b2e57600080fd5b505af1158015610b42573d6000803e3d6000fd5b505050506040513d6020811015610b5857600080fd5b8101908080519060200190929190505050905080610b7557600080fd5b600360088190555050565b600260009054906101000a900473ffffffffffffffffffffffffffffffffffffffff1681565b60085481565b60055481565b600381565b600160009054906101000a900473ffffffffffffffffffffffffffffffffffffffff1673ffffffffffffffffffffffffffffffffffffffff163373ffffffffffffffffffffffffffffffffffffffff1614610c1157600080fd5b6000610c1e8484846108f1565b905080610c2a57600080fd5b60008385870281610c3757fe5b049050610c448187610e27565b505050505050565b600081565b60045481565b6000809054906101000a900473ffffffffffffffffffffffffffffffffffffffff1673ffffffffffffffffffffffffffffffffffffffff163373ffffffffffffffffffffffffffffffffffffffff1614610cb057600080fd5b600160085414610cbf57600080fd5b4260075411610ccd57600080fd5b6000600a60009054906101000a900473ffffffffffffffffffffffffffffffffffffffff1673ffffffffffffffffffffffffffffffffffffffff166323b872dd6000809054906101000a900473ffffffffffffffffffffffffffffffffffffffff16306005546040518463ffffffff1660e01b8152600401808473ffffffffffffffffffffffffffffffffffffffff1673ffffffffffffffffffffffffffffffffffffffff1681526020018373ffffffffffffffffffffffffffffffffffffffff1673ffffffffffffffffffffffffffffffffffffffff1681526020018281526020019350505050602060405180830381600087803b158015610dcf57600080fd5b505af1158015610de3573d6000803e3d6000fd5b505050506040513d6020811015610df957600080fd5b8101908080519060200190929190505050905080610e1657600080fd5b600260088190555050565b60075481565b42600754118015610e3a57504260065411155b610e4357600080fd5b60036008541480610e5657506004600854145b610e5f57600080fd5b60008211610e6c57600080fd5b600081118015610e7e57506005548111155b610e8757600080fd5b6000600960009054906101000a900473ffffffffffffffffffffffffffffffffffffffff1673ffffffffffffffffffffffffffffffffffffffff166323b872dd600160009054906101000a900473ffffffffffffffffffffffffffffffffffffffff166000809054906101000a900473ffffffffffffffffffffffffffffffffffffffff16866040518463ffffffff1660e01b8152600401808473ffffffffffffffffffffffffffffffffffffffff1673ffffffffffffffffffffffffffffffffffffffff1681526020018373ffffffffffffffffffffffffffffffffffffffff1673ffffffffffffffffffffffffffffffffffffffff1681526020018281526020019350505050602060405180830381600087803b158015610fa957600080fd5b505af1158015610fbd573d6000803e3d6000fd5b505050506040513d6020811015610fd357600080fd5b8101908080519060200190929190505050905080610ff057600080fd5b6000600a60009054906101000a900473ffffffffffffffffffffffffffffffffffffffff1673ffffffffffffffffffffffffffffffffffffffff1663a9059cbb600160009054906101000a900473ffffffffffffffffffffffffffffffffffffffff16856040518363ffffffff1660e01b8152600401808373ffffffffffffffffffffffffffffffffffffffff1673ffffffffffffffffffffffffffffffffffffffff16815260200182815260200192505050602060405180830381600087803b1580156110bd57600080fd5b505af11580156110d1573d6000803e3d6000fd5b505050506040513d60208110156110e757600080fd5b810190808051906020019092919050505090508061110457600080fd5b826005540360058190555060046008819055505050505056fea165627a7a723058203dcb13fb5b9bacea88f18f49457dee3cf8c3194c2afea80cca76c222c69a33800029",
  "source": "pragma solidity >=0.4.21 <0.6.0;\n\nimport \"../lib/ERC20.sol\";\nimport \"./parent_contracts/IndivisibleCommon.sol\";\n\n/**\n * @title SilentOption\n * @dev Option that doesn't reveal strike price until exercised\n */\ncontract SilentOption is IndivisibleCommon {\n  // // Strike price [i.e. (strike_price_quote * base_volume) / strike_price_base  = asset_volume]\n  bytes32 public strike_price_base_hash;\n  bytes32 public strike_price_quote_hash;\n\n  constructor(address _issuer, address _buyer,\n              address _base_addr, address _asset_addr,\n              uint256 _fee,\n              bytes32 _strike_price_base_hash, bytes32 _strike_price_quote_hash,\n              uint256 _volume,\n              uint256 _maturity_time, uint256 _expiry_time) public {\n    require(state == STATE_UNINITIALIZED);\n    require(_base_addr != _asset_addr);\n    require((_expiry_time > block.timestamp) && (_expiry_time > _maturity_time));\n\n    issuer = _issuer;\n    buyer = _buyer;\n    base_addr = _base_addr;\n    asset_addr = _asset_addr;\n    fee = _fee;\n    strike_price_base_hash = _strike_price_base_hash;\n    strike_price_quote_hash = _strike_price_quote_hash;\n    volume = _volume;\n    maturity_time = _maturity_time;\n    expiry_time = _expiry_time;\n\n    base = ERC20(_base_addr);\n    asset = ERC20(_asset_addr);\n\n    state = STATE_INITIALIZED;\n  }\n\n  /*\n  strike_price_base_bytes: bytes32 = convert(strike_price_base, bytes32)\n  strike_price_quote_bytes: bytes32 = convert(strike_price_quote, bytes32)\n  strike_price_base_hash_claimed: bytes32 = keccak256(concat(strike_price_base_bytes, salt))\n  strike_price_quote_hash_claimed: bytes32 = keccak256(concat(strike_price_quote_bytes, salt))\n  assert (strike_price_base_hash_claimed == self.strike_price_base_hash)\n  assert (strike_price_quote_hash_claimed == self.strike_price_quote_hash)\n  */\n  function check_hashes(uint256 strike_price_base,\n                        uint256 strike_price_quote,\n                        bytes32 salt) public view returns (bool) {\n    bytes32 strike_price_base_bytes = bytes32(strike_price_base);\n    bytes32 strike_price_quote_bytes = bytes32(strike_price_quote);\n    bytes32 strike_price_base_hash_claimed = keccak256(abi.encodePacked(strike_price_base_bytes, salt));\n    bytes32 strike_price_quote_hash_claimed = keccak256(abi.encodePacked(strike_price_quote_bytes, salt));\n\n    require(strike_price_base_hash_claimed == strike_price_base_hash);\n    require(strike_price_quote_hash_claimed == strike_price_quote_hash);\n\n    return true;\n  }\n\n  // // Exercise wrappers: can only be called by buyer.\n  // Specify how many to buy\n  function exercise_from_asset(uint256 asset_volume_exercised,\n                                uint256 strike_price_base,\n                                uint256 strike_price_quote,\n                                bytes32 salt) public {\n    require(msg.sender == buyer);\n\n    bool hashes_valid = check_hashes(strike_price_base, strike_price_quote, salt);\n    require(hashes_valid);\n\n    uint256 base_volume_exercised = (asset_volume_exercised * strike_price_base) / strike_price_quote;\n    exercise_internal(base_volume_exercised, asset_volume_exercised);\n  }\n\n  // Specify how many to sell\n  function exercise_from_base(uint256 base_volume_exercised,\n                                uint256 strike_price_base,\n                                uint256 strike_price_quote,\n                                bytes32 salt) public {\n    assert(msg.sender == buyer);\n\n    bool hashes_valid = check_hashes(strike_price_base, strike_price_quote, salt);\n    require(hashes_valid);\n\n    uint256 asset_volume_exercised = (base_volume_exercised * strike_price_quote) / strike_price_base;\n\n    exercise_internal(base_volume_exercised, asset_volume_exercised);\n  }\n}\n",
  "sourcePath": "/Users/Karim/Desktop/atomicoptions/contracts/v0-2/SilentOption.sol",
  "compiler": {
    "name": "solc",
    "version": "0.5.8+commit.23d335f2.Emscripten.clang"
  },
  "schemaVersion": "3.0.16",
  "updatedAt": "2019-10-14T17:42:13.197Z",
  "devdoc": {
    "details": "Option that doesn't reveal strike price until exercised",
    "methods": {},
    "title": "SilentOption"
  },
  "userdoc": {
    "methods": {}
  }
}