{
  "contractName": "SilentOptionFactory",
  "abi": [
    {
      "anonymous": false,
      "inputs": [
        {
          "indexed": false,
          "name": "silent_option",
          "type": "address"
        }
      ],
      "name": "NewSilentOption",
      "type": "event"
    },
    {
      "constant": false,
      "inputs": [
        {
          "name": "_issuer",
          "type": "address"
        },
        {
          "name": "_buyer",
          "type": "address"
        },
        {
          "name": "_base_addr",
          "type": "address"
        },
        {
          "name": "_asset_addr",
          "type": "address"
        },
        {
          "name": "_fee",
          "type": "uint256"
        },
        {
          "name": "_strike_price_base_hash",
          "type": "bytes32"
        },
        {
          "name": "_strike_price_quote_hash",
          "type": "bytes32"
        },
        {
          "name": "_volume",
          "type": "uint256"
        },
        {
          "name": "_maturity_time",
          "type": "uint256"
        },
        {
          "name": "_expiry_time",
          "type": "uint256"
        }
      ],
      "name": "create_silent_option",
      "outputs": [
        {
          "name": "",
          "type": "address"
        }
      ],
      "payable": false,
      "stateMutability": "nonpayable",
      "type": "function"
    }
  ],
  "bytecode": "0x608060405234801561001057600080fd5b50611988806100206000396000f3fe608060405234801561001057600080fd5b506004361061002b5760003560e01c80636c0b644314610030575b600080fd5b61010f600480360361014081101561004757600080fd5b81019080803573ffffffffffffffffffffffffffffffffffffffff169060200190929190803573ffffffffffffffffffffffffffffffffffffffff169060200190929190803573ffffffffffffffffffffffffffffffffffffffff169060200190929190803573ffffffffffffffffffffffffffffffffffffffff169060200190929190803590602001909291908035906020019092919080359060200190929190803590602001909291908035906020019092919080359060200190929190505050610151565b604051808273ffffffffffffffffffffffffffffffffffffffff1673ffffffffffffffffffffffffffffffffffffffff16815260200191505060405180910390f35b6000808b8b8b8b8b8b8b8b8b8b60405161016a906102f7565b808b73ffffffffffffffffffffffffffffffffffffffff1673ffffffffffffffffffffffffffffffffffffffff1681526020018a73ffffffffffffffffffffffffffffffffffffffff1673ffffffffffffffffffffffffffffffffffffffff1681526020018973ffffffffffffffffffffffffffffffffffffffff1673ffffffffffffffffffffffffffffffffffffffff1681526020018873ffffffffffffffffffffffffffffffffffffffff1673ffffffffffffffffffffffffffffffffffffffff1681526020018781526020018681526020018581526020018481526020018381526020018281526020019a5050505050505050505050604051809103906000f08015801561027f573d6000803e3d6000fd5b5090507ffaa68c609961515d6a428850f037e3720721a5e3f5b11d218df762fed1ac8c2481604051808273ffffffffffffffffffffffffffffffffffffffff1673ffffffffffffffffffffffffffffffffffffffff16815260200191505060405180910390a1809150509a9950505050505050505050565b611658806103058339019056fe608060405234801561001057600080fd5b5060405161014080611658833981018060405261014081101561003257600080fd5b81019080805190602001909291908051906020019092919080519060200190929190805190602001909291908051906020019092919080519060200190929190805190602001909291908051906020019092919080519060200190929190805190602001909291905050508989898989878787878787878787878373ffffffffffffffffffffffffffffffffffffffff168573ffffffffffffffffffffffffffffffffffffffff1614156100e557600080fd5b866000806101000a81548173ffffffffffffffffffffffffffffffffffffffff021916908373ffffffffffffffffffffffffffffffffffffffff16021790555085600160006101000a81548173ffffffffffffffffffffffffffffffffffffffff021916908373ffffffffffffffffffffffffffffffffffffffff16021790555084600260006101000a81548173ffffffffffffffffffffffffffffffffffffffff021916908373ffffffffffffffffffffffffffffffffffffffff16021790555083600360006101000a81548173ffffffffffffffffffffffffffffffffffffffff021916908373ffffffffffffffffffffffffffffffffffffffff16021790555082600481905550816005819055508060068190555084600860006101000a81548173ffffffffffffffffffffffffffffffffffffffff021916908373ffffffffffffffffffffffffffffffffffffffff16021790555083600960006101000a81548173ffffffffffffffffffffffffffffffffffffffff021916908373ffffffffffffffffffffffffffffffffffffffff1602179055506001600781905550505050505050508473ffffffffffffffffffffffffffffffffffffffff168673ffffffffffffffffffffffffffffffffffffffff1614156102c757600080fd5b42811180156102d557508181115b6102de57600080fd5b80600e81905550505050505050505084600f819055508360108190555050505050505050505050611344806103146000396000f3fe608060405234801561001057600080fd5b506004361061018e5760003560e01c80637adce175116100de578063c19d93fb11610097578063d34ab68d11610071578063d34ab68d14610695578063ddca3f43146106b3578063eef9a8d5146106d1578063fe3f3b81146106db5761018e565b8063c19d93fb1461063b578063c618a1e414610659578063c80c0738146106775761018e565b80637adce175146104d75780638096292814610523578063879a031a1461056f5780639f4c3a411461058d5780639f771e1e146105e7578063a77f5599146105f15761018e565b80635001f3b51161014b5780635f727189116101255780635f72718914610325578063605834881461036f5780637150d8ae1461048357806379599f96146104cd5761018e565b80635001f3b51461029f5780635ab533ac146102e95780635b508edf146103075761018e565b80630fa9f5e11461019357806314b80ae6146101b157806319d83c71146101cf5780631be0fadd146101ed5780631d1438481461020b57806338d52e0f14610255575b600080fd5b61019b6106f9565b6040518082815260200191505060405180910390f35b6101b96106fe565b6040518082815260200191505060405180910390f35b6101d7610703565b6040518082815260200191505060405180910390f35b6101f5610708565b6040518082815260200191505060405180910390f35b61021361070e565b604051808273ffffffffffffffffffffffffffffffffffffffff1673ffffffffffffffffffffffffffffffffffffffff16815260200191505060405180910390f35b61025d610734565b604051808273ffffffffffffffffffffffffffffffffffffffff1673ffffffffffffffffffffffffffffffffffffffff16815260200191505060405180910390f35b6102a761075a565b604051808273ffffffffffffffffffffffffffffffffffffffff1673ffffffffffffffffffffffffffffffffffffffff16815260200191505060405180910390f35b6102f1610780565b6040518082815260200191505060405180910390f35b61030f610785565b6040518082815260200191505060405180910390f35b61032d61078b565b604051808273ffffffffffffffffffffffffffffffffffffffff1673ffffffffffffffffffffffffffffffffffffffff16815260200191505060405180910390f35b6103776107b1565b604051808c73ffffffffffffffffffffffffffffffffffffffff1673ffffffffffffffffffffffffffffffffffffffff1681526020018b73ffffffffffffffffffffffffffffffffffffffff1673ffffffffffffffffffffffffffffffffffffffff1681526020018a73ffffffffffffffffffffffffffffffffffffffff1673ffffffffffffffffffffffffffffffffffffffff1681526020018973ffffffffffffffffffffffffffffffffffffffff1673ffffffffffffffffffffffffffffffffffffffff1681526020018881526020018781526020018681526020018581526020018481526020018381526020018281526020019b50505050505050505050505060405180910390f35b61048b610886565b604051808273ffffffffffffffffffffffffffffffffffffffff1673ffffffffffffffffffffffffffffffffffffffff16815260200191505060405180910390f35b6104d56108ac565b005b610521600480360360808110156104ed57600080fd5b8101908080359060200190929190803590602001909291908035906020019092919080359060200190929190505050610a60565b005b61056d6004803603608081101561053957600080fd5b8101908080359060200190929190803590602001909291908035906020019092919080359060200190929190505050610af5565b005b610577610b87565b6040518082815260200191505060405180910390f35b6105cd600480360360608110156105a357600080fd5b81019080803590602001909291908035906020019092919080359060200190929190505050610b8d565b604051808215151515815260200191505060405180910390f35b6105ef610c2f565b005b6105f9610e1d565b604051808273ffffffffffffffffffffffffffffffffffffffff1673ffffffffffffffffffffffffffffffffffffffff16815260200191505060405180910390f35b610643610e43565b6040518082815260200191505060405180910390f35b610661610e49565b6040518082815260200191505060405180910390f35b61067f610e4f565b6040518082815260200191505060405180910390f35b61069d610e54565b6040518082815260200191505060405180910390f35b6106bb610e59565b6040518082815260200191505060405180910390f35b6106d9610e5f565b005b6106e361101b565b6040518082815260200191505060405180910390f35b600581565b600181565b600481565b600f5481565b600a60009054906101000a900473ffffffffffffffffffffffffffffffffffffffff1681565b600960009054906101000a900473ffffffffffffffffffffffffffffffffffffffff1681565b600860009054906101000a900473ffffffffffffffffffffffffffffffffffffffff1681565b600281565b60105481565b600d60009054906101000a900473ffffffffffffffffffffffffffffffffffffffff1681565b6000806000806000806000806000806000600a60009054906101000a900473ffffffffffffffffffffffffffffffffffffffff16600b60009054906101000a900473ffffffffffffffffffffffffffffffffffffffff16600c60009054906101000a900473ffffffffffffffffffffffffffffffffffffffff16600d60009054906101000a900473ffffffffffffffffffffffffffffffffffffffff16600454600f54601054600554600654600e546007549a509a509a509a509a509a509a509a509a509a509a50909192939495969798999a565b600b60009054906101000a900473ffffffffffffffffffffffffffffffffffffffff1681565b600a60009054906101000a900473ffffffffffffffffffffffffffffffffffffffff1673ffffffffffffffffffffffffffffffffffffffff163373ffffffffffffffffffffffffffffffffffffffff161461090657600080fd5b42600e5411158061091957506002600754145b8061092657506000600554145b61092f57600080fd5b6005600754141561093f57600080fd5b6000600960009054906101000a900473ffffffffffffffffffffffffffffffffffffffff1673ffffffffffffffffffffffffffffffffffffffff1663a9059cbb600a60009054906101000a900473ffffffffffffffffffffffffffffffffffffffff166005546040518363ffffffff1660e01b8152600401808373ffffffffffffffffffffffffffffffffffffffff1673ffffffffffffffffffffffffffffffffffffffff16815260200182815260200192505050602060405180830381600087803b158015610a0e57600080fd5b505af1158015610a22573d6000803e3d6000fd5b505050506040513d6020811015610a3857600080fd5b8101908080519060200190929190505050905080610a5557600080fd5b600560078190555050565b600b60009054906101000a900473ffffffffffffffffffffffffffffffffffffffff1673ffffffffffffffffffffffffffffffffffffffff163373ffffffffffffffffffffffffffffffffffffffff1614610aba57600080fd5b6000610ac7858585610b8d565b905080610ad357600080fd5b60008486840281610ae057fe5b049050610aed8184611021565b505050505050565b600b60009054906101000a900473ffffffffffffffffffffffffffffffffffffffff1673ffffffffffffffffffffffffffffffffffffffff163373ffffffffffffffffffffffffffffffffffffffff1614610b4c57fe5b6000610b59858585610b8d565b905080610b6557600080fd5b60008585840281610b7257fe5b049050610b7f8382611021565b505050505050565b60065481565b6000808460001b905060008460001b9050600082856040516020018083815260200182815260200192505050604051602081830303815290604052805190602001209050600082866040516020018083815260200182815260200192505050604051602081830303815290604052805190602001209050600f548214610c1257600080fd5b6010548114610c2057600080fd5b60019450505050509392505050565b600b60009054906101000a900473ffffffffffffffffffffffffffffffffffffffff1673ffffffffffffffffffffffffffffffffffffffff163373ffffffffffffffffffffffffffffffffffffffff1614610c8957600080fd5b600260075414610c9857600080fd5b42600e5411610ca657600080fd5b6000600860009054906101000a900473ffffffffffffffffffffffffffffffffffffffff1673ffffffffffffffffffffffffffffffffffffffff166323b872dd600b60009054906101000a900473ffffffffffffffffffffffffffffffffffffffff16600a60009054906101000a900473ffffffffffffffffffffffffffffffffffffffff166004546040518463ffffffff1660e01b8152600401808473ffffffffffffffffffffffffffffffffffffffff1673ffffffffffffffffffffffffffffffffffffffff1681526020018373ffffffffffffffffffffffffffffffffffffffff1673ffffffffffffffffffffffffffffffffffffffff1681526020018281526020019350505050602060405180830381600087803b158015610dcb57600080fd5b505af1158015610ddf573d6000803e3d6000fd5b505050506040513d6020811015610df557600080fd5b8101908080519060200190929190505050905080610e1257600080fd5b600360078190555050565b600c60009054906101000a900473ffffffffffffffffffffffffffffffffffffffff1681565b60075481565b60055481565b600381565b600081565b60045481565b6000809054906101000a900473ffffffffffffffffffffffffffffffffffffffff1673ffffffffffffffffffffffffffffffffffffffff163373ffffffffffffffffffffffffffffffffffffffff1614610eb857600080fd5b600160075414610ec757600080fd5b6000600960009054906101000a900473ffffffffffffffffffffffffffffffffffffffff1673ffffffffffffffffffffffffffffffffffffffff166323b872dd6000809054906101000a900473ffffffffffffffffffffffffffffffffffffffff16306005546040518463ffffffff1660e01b8152600401808473ffffffffffffffffffffffffffffffffffffffff1673ffffffffffffffffffffffffffffffffffffffff1681526020018373ffffffffffffffffffffffffffffffffffffffff1673ffffffffffffffffffffffffffffffffffffffff1681526020018281526020019350505050602060405180830381600087803b158015610fc957600080fd5b505af1158015610fdd573d6000803e3d6000fd5b505050506040513d6020811015610ff357600080fd5b810190808051906020019092919050505090508061101057600080fd5b600260078190555050565b600e5481565b42600e5411801561103457504260065411155b61103d57600080fd5b6003600754148061105057506004600754145b61105957600080fd5b6000821161106657600080fd5b60008111801561107857506005548111155b61108157600080fd5b6000600860009054906101000a900473ffffffffffffffffffffffffffffffffffffffff1673ffffffffffffffffffffffffffffffffffffffff166323b872dd600b60009054906101000a900473ffffffffffffffffffffffffffffffffffffffff16600a60009054906101000a900473ffffffffffffffffffffffffffffffffffffffff16866040518463ffffffff1660e01b8152600401808473ffffffffffffffffffffffffffffffffffffffff1673ffffffffffffffffffffffffffffffffffffffff1681526020018373ffffffffffffffffffffffffffffffffffffffff1673ffffffffffffffffffffffffffffffffffffffff1681526020018281526020019350505050602060405180830381600087803b1580156111a457600080fd5b505af11580156111b8573d6000803e3d6000fd5b505050506040513d60208110156111ce57600080fd5b81019080805190602001909291905050509050806111eb57600080fd5b6000600960009054906101000a900473ffffffffffffffffffffffffffffffffffffffff1673ffffffffffffffffffffffffffffffffffffffff1663a9059cbb600b60009054906101000a900473ffffffffffffffffffffffffffffffffffffffff16856040518363ffffffff1660e01b8152600401808373ffffffffffffffffffffffffffffffffffffffff1673ffffffffffffffffffffffffffffffffffffffff16815260200182815260200192505050602060405180830381600087803b1580156112b857600080fd5b505af11580156112cc573d6000803e3d6000fd5b505050506040513d60208110156112e257600080fd5b81019080805190602001909291905050509050806112ff57600080fd5b826005540360058190555060046007819055505050505056fea165627a7a72305820882b656782f8eba879230f09a0dd4b23945de9729bf1c97a8923a9c7f170005f0029a165627a7a723058208a58d9c92264e7c8934a33c9cebe3de3de2543c2cebea1346feae199412287360029",
  "source": "pragma solidity >=0.4.21 <0.6.0;\n\nimport \"../options/SilentOption.sol\";\n\ncontract SilentOptionFactory {\n  event NewSilentOption(address silent_option);\n  function create_silent_option(address _issuer, address _buyer,\n                                  address _base_addr, address _asset_addr,\n                                  uint256 _fee,\n                                  bytes32 _strike_price_base_hash, bytes32 _strike_price_quote_hash,\n                                  uint256 _volume,\n                                  uint256 _maturity_time, uint256 _expiry_time)\n                                    public returns (address) {\n    SilentOption silent_option = new SilentOption(\n                                    _issuer, _buyer,\n                                    _base_addr, _asset_addr,\n                                    _fee,\n                                    _strike_price_base_hash, _strike_price_quote_hash,\n                                    _volume,\n                                    _maturity_time, _expiry_time);\n    emit NewSilentOption(address(silent_option));\n    return address(silent_option);\n  }\n}\n",
  "sourcePath": "/Users/Karim/Desktop/atomicoptions/contracts/src/factories/SilentOptionFactory.sol",
  "compiler": {
    "name": "solc",
    "version": "0.5.8+commit.23d335f2.Emscripten.clang"
  },
  "schemaVersion": "3.0.16",
  "updatedAt": "2019-10-15T22:56:08.982Z",
  "devdoc": {
    "methods": {}
  },
  "userdoc": {
    "methods": {}
  }
}