{
  "contractName": "SilentOptionFactory",
  "abi": [
    {
      "constant": true,
      "inputs": [
        {
          "name": "",
          "type": "address"
        }
      ],
      "name": "created_silent_options",
      "outputs": [
        {
          "name": "",
          "type": "bool"
        }
      ],
      "payable": false,
      "stateMutability": "view",
      "type": "function"
    },
    {
      "anonymous": false,
      "inputs": [
        {
          "indexed": false,
          "name": "silent_option",
          "type": "address"
        }
      ],
      "name": "NewSilentOption",
      "type": "event"
    },
    {
      "constant": false,
      "inputs": [
        {
          "name": "_issuer",
          "type": "address"
        },
        {
          "name": "_buyer",
          "type": "address"
        },
        {
          "name": "_base_addr",
          "type": "address"
        },
        {
          "name": "_asset_addr",
          "type": "address"
        },
        {
          "name": "_fee",
          "type": "uint256"
        },
        {
          "name": "_strike_price_base_hash",
          "type": "bytes32"
        },
        {
          "name": "_strike_price_quote_hash",
          "type": "bytes32"
        },
        {
          "name": "_volume",
          "type": "uint256"
        },
        {
          "name": "_maturity_time",
          "type": "uint256"
        },
        {
          "name": "_expiry_time",
          "type": "uint256"
        }
      ],
      "name": "create_silent_option",
      "outputs": [
        {
          "name": "",
          "type": "address"
        }
      ],
      "payable": false,
      "stateMutability": "nonpayable",
      "type": "function"
    },
    {
      "constant": true,
      "inputs": [
        {
          "name": "created_option_address",
          "type": "address"
        }
      ],
      "name": "get_created_option",
      "outputs": [
        {
          "name": "",
          "type": "bool"
        }
      ],
      "payable": false,
      "stateMutability": "view",
      "type": "function"
    }
  ],
  "bytecode": "0x608060405234801561001057600080fd5b50611da3806100206000396000f3fe608060405234801561001057600080fd5b50600436106100415760003560e01c80636c0b64431461004657806370b869f714610167578063c287ecc5146101c3575b600080fd5b610125600480360361014081101561005d57600080fd5b81019080803573ffffffffffffffffffffffffffffffffffffffff169060200190929190803573ffffffffffffffffffffffffffffffffffffffff169060200190929190803573ffffffffffffffffffffffffffffffffffffffff169060200190929190803573ffffffffffffffffffffffffffffffffffffffff16906020019092919080359060200190929190803590602001909291908035906020019092919080359060200190929190803590602001909291908035906020019092919050505061021f565b604051808273ffffffffffffffffffffffffffffffffffffffff1673ffffffffffffffffffffffffffffffffffffffff16815260200191505060405180910390f35b6101a96004803603602081101561017d57600080fd5b81019080803573ffffffffffffffffffffffffffffffffffffffff16906020019092919050505061041c565b604051808215151515815260200191505060405180910390f35b610205600480360360208110156101d957600080fd5b81019080803573ffffffffffffffffffffffffffffffffffffffff169060200190929190505050610471565b604051808215151515815260200191505060405180910390f35b6000808b8b8b8b8b8b8b8b8b8b60405161023890610491565b808b73ffffffffffffffffffffffffffffffffffffffff1673ffffffffffffffffffffffffffffffffffffffff1681526020018a73ffffffffffffffffffffffffffffffffffffffff1673ffffffffffffffffffffffffffffffffffffffff1681526020018973ffffffffffffffffffffffffffffffffffffffff1673ffffffffffffffffffffffffffffffffffffffff1681526020018873ffffffffffffffffffffffffffffffffffffffff1673ffffffffffffffffffffffffffffffffffffffff1681526020018781526020018681526020018581526020018481526020018381526020018281526020019a5050505050505050505050604051809103906000f08015801561034d573d6000803e3d6000fd5b5090507ffaa68c609961515d6a428850f037e3720721a5e3f5b11d218df762fed1ac8c2481604051808273ffffffffffffffffffffffffffffffffffffffff1673ffffffffffffffffffffffffffffffffffffffff16815260200191505060405180910390a160016000808373ffffffffffffffffffffffffffffffffffffffff1673ffffffffffffffffffffffffffffffffffffffff16815260200190815260200160002060006101000a81548160ff021916908315150217905550809150509a9950505050505050505050565b60008060008373ffffffffffffffffffffffffffffffffffffffff1673ffffffffffffffffffffffffffffffffffffffff16815260200190815260200160002060009054906101000a900460ff169050919050565b60006020528060005260406000206000915054906101000a900460ff1681565b6118d98061049f8339019056fe608060405234801561001057600080fd5b50604051610140806118d9833981018060405261014081101561003257600080fd5b810190808051906020019092919080519060200190929190805190602001909291908051906020019092919080519060200190929190805190602001909291908051906020019092919080519060200190929190805190602001909291908051906020019092919050505089898989898787878787878786868273ffffffffffffffffffffffffffffffffffffffff168473ffffffffffffffffffffffffffffffffffffffff1614156100e457600080fd5b856000806101000a81548173ffffffffffffffffffffffffffffffffffffffff021916908373ffffffffffffffffffffffffffffffffffffffff16021790555084600160006101000a81548173ffffffffffffffffffffffffffffffffffffffff021916908373ffffffffffffffffffffffffffffffffffffffff16021790555083600260006101000a81548173ffffffffffffffffffffffffffffffffffffffff021916908373ffffffffffffffffffffffffffffffffffffffff16021790555082600360006101000a81548173ffffffffffffffffffffffffffffffffffffffff021916908373ffffffffffffffffffffffffffffffffffffffff160217905550816004819055508060058190555083600760006101000a81548173ffffffffffffffffffffffffffffffffffffffff021916908373ffffffffffffffffffffffffffffffffffffffff16021790555082600860006101000a81548173ffffffffffffffffffffffffffffffffffffffff021916908373ffffffffffffffffffffffffffffffffffffffff16021790555060016006819055505050505050508473ffffffffffffffffffffffffffffffffffffffff168673ffffffffffffffffffffffffffffffffffffffff1614156102be57600080fd5b42811180156102cc57508181115b6102d557600080fd5b8360098190555080600a81905550505050505050505084600b8190555083600c81905550505050505050505050506115c7806103126000396000f3fe608060405234801561001057600080fd5b50600436106101da5760003560e01c80638096292811610104578063c19d93fb116100a2578063ddb0c86c11610071578063ddb0c86c1461079f578063ddca3f43146107e3578063eef9a8d514610801578063fe3f3b811461080b576101da565b8063c19d93fb14610727578063c618a1e414610745578063c80c073814610763578063d34ab68d14610781576101da565b80639ce0c9bd116100de5780639ce0c9bd1461064b5780639f4c3a41146106795780639f771e1e146106d3578063a77f5599146106dd576101da565b806380962928146105b3578063879a031a146105ff57806396f5a49f1461061d576101da565b80635001f3b51161017c578063605834881161014b57806360583488146103ff5780637150d8ae1461051357806379599f961461055d5780637adce17514610567576101da565b80635001f3b51461032f5780635ab533ac146103795780635b508edf146103975780635f727189146103b5576101da565b80631be0fadd116101b85780631be0fadd146102395780631d1438481461025757806335fe7702146102a157806338d52e0f146102e5576101da565b80630fa9f5e1146101df57806314b80ae6146101fd57806319d83c711461021b575b600080fd5b6101e7610829565b6040518082815260200191505060405180910390f35b61020561082e565b6040518082815260200191505060405180910390f35b610223610833565b6040518082815260200191505060405180910390f35b610241610838565b6040518082815260200191505060405180910390f35b61025f61083e565b604051808273ffffffffffffffffffffffffffffffffffffffff1673ffffffffffffffffffffffffffffffffffffffff16815260200191505060405180910390f35b6102e3600480360360208110156102b757600080fd5b81019080803573ffffffffffffffffffffffffffffffffffffffff169060200190929190505050610863565b005b6102ed6108ff565b604051808273ffffffffffffffffffffffffffffffffffffffff1673ffffffffffffffffffffffffffffffffffffffff16815260200191505060405180910390f35b610337610925565b604051808273ffffffffffffffffffffffffffffffffffffffff1673ffffffffffffffffffffffffffffffffffffffff16815260200191505060405180910390f35b61038161094b565b6040518082815260200191505060405180910390f35b61039f610950565b6040518082815260200191505060405180910390f35b6103bd610956565b604051808273ffffffffffffffffffffffffffffffffffffffff1673ffffffffffffffffffffffffffffffffffffffff16815260200191505060405180910390f35b61040761097c565b604051808c73ffffffffffffffffffffffffffffffffffffffff1673ffffffffffffffffffffffffffffffffffffffff1681526020018b73ffffffffffffffffffffffffffffffffffffffff1673ffffffffffffffffffffffffffffffffffffffff1681526020018a73ffffffffffffffffffffffffffffffffffffffff1673ffffffffffffffffffffffffffffffffffffffff1681526020018973ffffffffffffffffffffffffffffffffffffffff1673ffffffffffffffffffffffffffffffffffffffff1681526020018881526020018781526020018681526020018581526020018481526020018381526020018281526020019b50505050505050505050505060405180910390f35b61051b610a50565b604051808273ffffffffffffffffffffffffffffffffffffffff1673ffffffffffffffffffffffffffffffffffffffff16815260200191505060405180910390f35b610565610a76565b005b6105b16004803603608081101561057d57600080fd5b8101908080359060200190929190803590602001909291908035906020019092919080359060200190929190505050610c28565b005b6105fd600480360360808110156105c957600080fd5b8101908080359060200190929190803590602001909291908035906020019092919080359060200190929190505050610cbd565b005b610607610d52565b6040518082815260200191505060405180910390f35b6106496004803603602081101561063357600080fd5b8101908080359060200190929190505050610d58565b005b6106776004803603602081101561066157600080fd5b8101908080359060200190929190505050610d66565b005b6106b96004803603606081101561068f57600080fd5b81019080803590602001909291908035906020019092919080359060200190929190505050610d74565b604051808215151515815260200191505060405180910390f35b6106db610e16565b005b6106e5611003565b604051808273ffffffffffffffffffffffffffffffffffffffff1673ffffffffffffffffffffffffffffffffffffffff16815260200191505060405180910390f35b61072f611029565b6040518082815260200191505060405180910390f35b61074d61102f565b6040518082815260200191505060405180910390f35b61076b611035565b6040518082815260200191505060405180910390f35b61078961103a565b6040518082815260200191505060405180910390f35b6107e1600480360360208110156107b557600080fd5b81019080803573ffffffffffffffffffffffffffffffffffffffff16906020019092919050505061103f565b005b6107eb6110dd565b6040518082815260200191505060405180910390f35b6108096110e3565b005b61081361129f565b6040518082815260200191505060405180910390f35b600581565b600181565b600481565b600b5481565b6000809054906101000a900473ffffffffffffffffffffffffffffffffffffffff1681565b6000809054906101000a900473ffffffffffffffffffffffffffffffffffffffff1673ffffffffffffffffffffffffffffffffffffffff163373ffffffffffffffffffffffffffffffffffffffff16146108bc57600080fd5b806000806101000a81548173ffffffffffffffffffffffffffffffffffffffff021916908373ffffffffffffffffffffffffffffffffffffffff16021790555050565b600860009054906101000a900473ffffffffffffffffffffffffffffffffffffffff1681565b600760009054906101000a900473ffffffffffffffffffffffffffffffffffffffff1681565b600281565b600c5481565b600360009054906101000a900473ffffffffffffffffffffffffffffffffffffffff1681565b60008060008060008060008060008060008060009054906101000a900473ffffffffffffffffffffffffffffffffffffffff16600160009054906101000a900473ffffffffffffffffffffffffffffffffffffffff16600260009054906101000a900473ffffffffffffffffffffffffffffffffffffffff16600360009054906101000a900473ffffffffffffffffffffffffffffffffffffffff16600954600b54600c54600454600554600a546006549a509a509a509a509a509a509a509a509a509a509a50909192939495969798999a565b600160009054906101000a900473ffffffffffffffffffffffffffffffffffffffff1681565b6000809054906101000a900473ffffffffffffffffffffffffffffffffffffffff1673ffffffffffffffffffffffffffffffffffffffff163373ffffffffffffffffffffffffffffffffffffffff1614610acf57600080fd5b42600a54111580610ae257506002600654145b80610aef57506000600454145b610af857600080fd5b60056006541415610b0857600080fd5b6000600860009054906101000a900473ffffffffffffffffffffffffffffffffffffffff1673ffffffffffffffffffffffffffffffffffffffff1663a9059cbb6000809054906101000a900473ffffffffffffffffffffffffffffffffffffffff166004546040518363ffffffff1660e01b8152600401808373ffffffffffffffffffffffffffffffffffffffff1673ffffffffffffffffffffffffffffffffffffffff16815260200182815260200192505050602060405180830381600087803b158015610bd657600080fd5b505af1158015610bea573d6000803e3d6000fd5b505050506040513d6020811015610c0057600080fd5b8101908080519060200190929190505050905080610c1d57600080fd5b600560068190555050565b600160009054906101000a900473ffffffffffffffffffffffffffffffffffffffff1673ffffffffffffffffffffffffffffffffffffffff163373ffffffffffffffffffffffffffffffffffffffff1614610c8257600080fd5b6000610c8f858585610d74565b905080610c9b57600080fd5b60008486840281610ca857fe5b049050610cb581846112a5565b505050505050565b600160009054906101000a900473ffffffffffffffffffffffffffffffffffffffff1673ffffffffffffffffffffffffffffffffffffffff163373ffffffffffffffffffffffffffffffffffffffff1614610d1757600080fd5b6000610d24858585610d74565b905080610d3057600080fd5b60008585840281610d3d57fe5b049050610d4a83826112a5565b505050505050565b60055481565b6000610d6357600080fd5b50565b6000610d7157600080fd5b50565b6000808460001b905060008460001b9050600082856040516020018083815260200182815260200192505050604051602081830303815290604052805190602001209050600082866040516020018083815260200182815260200192505050604051602081830303815290604052805190602001209050600b548214610df957600080fd5b600c548114610e0757600080fd5b60019450505050509392505050565b600160009054906101000a900473ffffffffffffffffffffffffffffffffffffffff1673ffffffffffffffffffffffffffffffffffffffff163373ffffffffffffffffffffffffffffffffffffffff1614610e7057600080fd5b600260065414610e7f57600080fd5b42600a5411610e8d57600080fd5b6000600760009054906101000a900473ffffffffffffffffffffffffffffffffffffffff1673ffffffffffffffffffffffffffffffffffffffff166323b872dd600160009054906101000a900473ffffffffffffffffffffffffffffffffffffffff166000809054906101000a900473ffffffffffffffffffffffffffffffffffffffff166009546040518463ffffffff1660e01b8152600401808473ffffffffffffffffffffffffffffffffffffffff1673ffffffffffffffffffffffffffffffffffffffff1681526020018373ffffffffffffffffffffffffffffffffffffffff1673ffffffffffffffffffffffffffffffffffffffff1681526020018281526020019350505050602060405180830381600087803b158015610fb157600080fd5b505af1158015610fc5573d6000803e3d6000fd5b505050506040513d6020811015610fdb57600080fd5b8101908080519060200190929190505050905080610ff857600080fd5b600360068190555050565b600260009054906101000a900473ffffffffffffffffffffffffffffffffffffffff1681565b60065481565b60045481565b600381565b600081565b600160009054906101000a900473ffffffffffffffffffffffffffffffffffffffff1673ffffffffffffffffffffffffffffffffffffffff163373ffffffffffffffffffffffffffffffffffffffff161461109957600080fd5b80600160006101000a81548173ffffffffffffffffffffffffffffffffffffffff021916908373ffffffffffffffffffffffffffffffffffffffff16021790555050565b60095481565b6000809054906101000a900473ffffffffffffffffffffffffffffffffffffffff1673ffffffffffffffffffffffffffffffffffffffff163373ffffffffffffffffffffffffffffffffffffffff161461113c57600080fd5b60016006541461114b57600080fd5b6000600860009054906101000a900473ffffffffffffffffffffffffffffffffffffffff1673ffffffffffffffffffffffffffffffffffffffff166323b872dd6000809054906101000a900473ffffffffffffffffffffffffffffffffffffffff16306004546040518463ffffffff1660e01b8152600401808473ffffffffffffffffffffffffffffffffffffffff1673ffffffffffffffffffffffffffffffffffffffff1681526020018373ffffffffffffffffffffffffffffffffffffffff1673ffffffffffffffffffffffffffffffffffffffff1681526020018281526020019350505050602060405180830381600087803b15801561124d57600080fd5b505af1158015611261573d6000803e3d6000fd5b505050506040513d602081101561127757600080fd5b810190808051906020019092919050505090508061129457600080fd5b600260068190555050565b600a5481565b42600a541180156112b857504260055411155b6112c157600080fd5b600360065414806112d457506004600654145b6112dd57600080fd5b600082116112ea57600080fd5b6000811180156112fc57506004548111155b61130557600080fd5b6000600760009054906101000a900473ffffffffffffffffffffffffffffffffffffffff1673ffffffffffffffffffffffffffffffffffffffff166323b872dd600160009054906101000a900473ffffffffffffffffffffffffffffffffffffffff166000809054906101000a900473ffffffffffffffffffffffffffffffffffffffff16866040518463ffffffff1660e01b8152600401808473ffffffffffffffffffffffffffffffffffffffff1673ffffffffffffffffffffffffffffffffffffffff1681526020018373ffffffffffffffffffffffffffffffffffffffff1673ffffffffffffffffffffffffffffffffffffffff1681526020018281526020019350505050602060405180830381600087803b15801561142757600080fd5b505af115801561143b573d6000803e3d6000fd5b505050506040513d602081101561145157600080fd5b810190808051906020019092919050505090508061146e57600080fd5b6000600860009054906101000a900473ffffffffffffffffffffffffffffffffffffffff1673ffffffffffffffffffffffffffffffffffffffff1663a9059cbb600160009054906101000a900473ffffffffffffffffffffffffffffffffffffffff16856040518363ffffffff1660e01b8152600401808373ffffffffffffffffffffffffffffffffffffffff1673ffffffffffffffffffffffffffffffffffffffff16815260200182815260200192505050602060405180830381600087803b15801561153b57600080fd5b505af115801561154f573d6000803e3d6000fd5b505050506040513d602081101561156557600080fd5b810190808051906020019092919050505090508061158257600080fd5b826004540360048190555060046006819055505050505056fea165627a7a723058202ee93e62b6d08b755d9dbb2d7ebae5ce5e1dec9369636e0a5f1ca6781406e6f50029a165627a7a7230582051d609f2872eaf51c79206b1c52fcdb757ef56698365b9568ec6e0284f56d1720029",
  "source": "pragma solidity >=0.4.21 <0.6.0;\n\nimport \"../options/SilentOption.sol\";\n\ncontract SilentOptionFactory {\n  event NewSilentOption(address silent_option);\n\n  mapping(address => bool) public created_silent_options;\n\n  function create_silent_option(address _issuer, address _buyer,\n                                  address _base_addr, address _asset_addr,\n                                  uint256 _fee,\n                                  bytes32 _strike_price_base_hash, bytes32 _strike_price_quote_hash,\n                                  uint256 _volume,\n                                  uint256 _maturity_time, uint256 _expiry_time)\n                                    public returns (address) {\n    SilentOption silent_option = new SilentOption(\n                                    _issuer, _buyer,\n                                    _base_addr, _asset_addr,\n                                    _fee,\n                                    _strike_price_base_hash, _strike_price_quote_hash,\n                                    _volume,\n                                    _maturity_time, _expiry_time);\n    emit NewSilentOption(address(silent_option));\n    created_silent_options[address(silent_option)] = true;\n    return address(silent_option);\n  }\n\n  function get_created_option(address created_option_address) public view returns (bool) {\n    return created_silent_options[created_option_address];\n  }\n}\n",
  "sourcePath": "/Users/Karim/Desktop/atomicoptions/contracts/src/factories/SilentOptionFactory.sol",
  "compiler": {
    "name": "solc",
    "version": "0.5.8+commit.23d335f2.Emscripten.clang"
  },
  "schemaVersion": "3.0.16",
  "updatedAt": "2019-11-11T18:42:59.774Z",
  "devdoc": {
    "methods": {}
  },
  "userdoc": {
    "methods": {}
  }
}