{
  "contractName": "StandardOption",
  "abi": [
    {
      "constant": true,
      "inputs": [],
      "name": "STATE_EXPIRED",
      "outputs": [
        {
          "name": "",
          "type": "uint256"
        }
      ],
      "payable": false,
      "stateMutability": "view",
      "type": "function"
    },
    {
      "constant": true,
      "inputs": [],
      "name": "STATE_INITIALIZED",
      "outputs": [
        {
          "name": "",
          "type": "uint256"
        }
      ],
      "payable": false,
      "stateMutability": "view",
      "type": "function"
    },
    {
      "constant": true,
      "inputs": [],
      "name": "STATE_EXERCISED",
      "outputs": [
        {
          "name": "",
          "type": "uint256"
        }
      ],
      "payable": false,
      "stateMutability": "view",
      "type": "function"
    },
    {
      "constant": true,
      "inputs": [],
      "name": "issuer",
      "outputs": [
        {
          "name": "",
          "type": "address"
        }
      ],
      "payable": false,
      "stateMutability": "view",
      "type": "function"
    },
    {
      "constant": true,
      "inputs": [],
      "name": "asset",
      "outputs": [
        {
          "name": "",
          "type": "address"
        }
      ],
      "payable": false,
      "stateMutability": "view",
      "type": "function"
    },
    {
      "constant": true,
      "inputs": [],
      "name": "base",
      "outputs": [
        {
          "name": "",
          "type": "address"
        }
      ],
      "payable": false,
      "stateMutability": "view",
      "type": "function"
    },
    {
      "constant": true,
      "inputs": [],
      "name": "STATE_COLLATERALIZED",
      "outputs": [
        {
          "name": "",
          "type": "uint256"
        }
      ],
      "payable": false,
      "stateMutability": "view",
      "type": "function"
    },
    {
      "constant": true,
      "inputs": [],
      "name": "asset_addr",
      "outputs": [
        {
          "name": "",
          "type": "address"
        }
      ],
      "payable": false,
      "stateMutability": "view",
      "type": "function"
    },
    {
      "constant": true,
      "inputs": [],
      "name": "buyer",
      "outputs": [
        {
          "name": "",
          "type": "address"
        }
      ],
      "payable": false,
      "stateMutability": "view",
      "type": "function"
    },
    {
      "constant": true,
      "inputs": [],
      "name": "maturity_time",
      "outputs": [
        {
          "name": "",
          "type": "uint256"
        }
      ],
      "payable": false,
      "stateMutability": "view",
      "type": "function"
    },
    {
      "constant": false,
      "inputs": [],
      "name": "pay_fee",
      "outputs": [],
      "payable": false,
      "stateMutability": "nonpayable",
      "type": "function"
    },
    {
      "constant": true,
      "inputs": [],
      "name": "base_addr",
      "outputs": [
        {
          "name": "",
          "type": "address"
        }
      ],
      "payable": false,
      "stateMutability": "view",
      "type": "function"
    },
    {
      "constant": true,
      "inputs": [],
      "name": "strike_price_base",
      "outputs": [
        {
          "name": "",
          "type": "uint256"
        }
      ],
      "payable": false,
      "stateMutability": "view",
      "type": "function"
    },
    {
      "constant": true,
      "inputs": [],
      "name": "state",
      "outputs": [
        {
          "name": "",
          "type": "uint256"
        }
      ],
      "payable": false,
      "stateMutability": "view",
      "type": "function"
    },
    {
      "constant": true,
      "inputs": [],
      "name": "volume",
      "outputs": [
        {
          "name": "",
          "type": "uint256"
        }
      ],
      "payable": false,
      "stateMutability": "view",
      "type": "function"
    },
    {
      "constant": true,
      "inputs": [],
      "name": "STATE_ACTIVE",
      "outputs": [
        {
          "name": "",
          "type": "uint256"
        }
      ],
      "payable": false,
      "stateMutability": "view",
      "type": "function"
    },
    {
      "constant": true,
      "inputs": [],
      "name": "STATE_UNINITIALIZED",
      "outputs": [
        {
          "name": "",
          "type": "uint256"
        }
      ],
      "payable": false,
      "stateMutability": "view",
      "type": "function"
    },
    {
      "constant": true,
      "inputs": [],
      "name": "fee",
      "outputs": [
        {
          "name": "",
          "type": "uint256"
        }
      ],
      "payable": false,
      "stateMutability": "view",
      "type": "function"
    },
    {
      "constant": true,
      "inputs": [],
      "name": "strike_price_quote",
      "outputs": [
        {
          "name": "",
          "type": "uint256"
        }
      ],
      "payable": false,
      "stateMutability": "view",
      "type": "function"
    },
    {
      "constant": false,
      "inputs": [],
      "name": "collateralize",
      "outputs": [],
      "payable": false,
      "stateMutability": "nonpayable",
      "type": "function"
    },
    {
      "constant": true,
      "inputs": [],
      "name": "expiry_time",
      "outputs": [
        {
          "name": "",
          "type": "uint256"
        }
      ],
      "payable": false,
      "stateMutability": "view",
      "type": "function"
    },
    {
      "inputs": [
        {
          "name": "_issuer",
          "type": "address"
        },
        {
          "name": "_buyer",
          "type": "address"
        },
        {
          "name": "_base_addr",
          "type": "address"
        },
        {
          "name": "_asset_addr",
          "type": "address"
        },
        {
          "name": "_fee",
          "type": "uint256"
        },
        {
          "name": "_strike_price_base",
          "type": "uint256"
        },
        {
          "name": "_strike_price_quote",
          "type": "uint256"
        },
        {
          "name": "_volume",
          "type": "uint256"
        },
        {
          "name": "_maturity_time",
          "type": "uint256"
        },
        {
          "name": "_expiry_time",
          "type": "uint256"
        }
      ],
      "payable": false,
      "stateMutability": "nonpayable",
      "type": "constructor"
    }
  ],
  "bytecode": "0x608060405234801561001057600080fd5b5060405161014080610c6c833981018060405261014081101561003257600080fd5b81019080805190602001909291908051906020019092919080519060200190929190805190602001909291908051906020019092919080519060200190929190805190602001909291908051906020019092919080519060200190929190805190602001909291905050506000600854146100ac57600080fd5b8673ffffffffffffffffffffffffffffffffffffffff168873ffffffffffffffffffffffffffffffffffffffff1614156100e557600080fd5b42811180156100f357508181115b6100fc57600080fd5b896000806101000a81548173ffffffffffffffffffffffffffffffffffffffff021916908373ffffffffffffffffffffffffffffffffffffffff16021790555088600160006101000a81548173ffffffffffffffffffffffffffffffffffffffff021916908373ffffffffffffffffffffffffffffffffffffffff16021790555087600260006101000a81548173ffffffffffffffffffffffffffffffffffffffff021916908373ffffffffffffffffffffffffffffffffffffffff16021790555086600360006101000a81548173ffffffffffffffffffffffffffffffffffffffff021916908373ffffffffffffffffffffffffffffffffffffffff1602179055508560048190555084600b8190555083600c8190555082600581905550816006819055508060078190555087600960006101000a81548173ffffffffffffffffffffffffffffffffffffffff021916908373ffffffffffffffffffffffffffffffffffffffff16021790555086600a60006101000a81548173ffffffffffffffffffffffffffffffffffffffff021916908373ffffffffffffffffffffffffffffffffffffffff1602179055506001600881905550505050505050505050506109a0806102cc6000396000f3fe608060405234801561001057600080fd5b50600436106101375760003560e01c80639f771e1e116100b8578063c80c07381161007c578063c80c0738146103f2578063d34ab68d14610410578063ddca3f431461042e578063e1b8d40f1461044c578063eef9a8d51461046a578063fe3f3b811461047457610137565b80639f771e1e14610344578063a77f55991461034e578063ba22158514610398578063c19d93fb146103b6578063c618a1e4146103d457610137565b80635001f3b5116100ff5780635001f3b51461022a5780635ab533ac146102745780635f727189146102925780637150d8ae146102dc578063879a031a1461032657610137565b80630fa9f5e11461013c57806314b80ae61461015a57806319d83c71146101785780631d1438481461019657806338d52e0f146101e0575b600080fd5b610144610492565b6040518082815260200191505060405180910390f35b610162610497565b6040518082815260200191505060405180910390f35b61018061049c565b6040518082815260200191505060405180910390f35b61019e6104a1565b604051808273ffffffffffffffffffffffffffffffffffffffff1673ffffffffffffffffffffffffffffffffffffffff16815260200191505060405180910390f35b6101e86104c6565b604051808273ffffffffffffffffffffffffffffffffffffffff1673ffffffffffffffffffffffffffffffffffffffff16815260200191505060405180910390f35b6102326104ec565b604051808273ffffffffffffffffffffffffffffffffffffffff1673ffffffffffffffffffffffffffffffffffffffff16815260200191505060405180910390f35b61027c610512565b6040518082815260200191505060405180910390f35b61029a610517565b604051808273ffffffffffffffffffffffffffffffffffffffff1673ffffffffffffffffffffffffffffffffffffffff16815260200191505060405180910390f35b6102e461053d565b604051808273ffffffffffffffffffffffffffffffffffffffff1673ffffffffffffffffffffffffffffffffffffffff16815260200191505060405180910390f35b61032e610563565b6040518082815260200191505060405180910390f35b61034c610569565b005b610356610756565b604051808273ffffffffffffffffffffffffffffffffffffffff1673ffffffffffffffffffffffffffffffffffffffff16815260200191505060405180910390f35b6103a061077c565b6040518082815260200191505060405180910390f35b6103be610782565b6040518082815260200191505060405180910390f35b6103dc610788565b6040518082815260200191505060405180910390f35b6103fa61078e565b6040518082815260200191505060405180910390f35b610418610793565b6040518082815260200191505060405180910390f35b610436610798565b6040518082815260200191505060405180910390f35b61045461079e565b6040518082815260200191505060405180910390f35b6104726107a4565b005b61047c61096e565b6040518082815260200191505060405180910390f35b600581565b600181565b600481565b6000809054906101000a900473ffffffffffffffffffffffffffffffffffffffff1681565b600a60009054906101000a900473ffffffffffffffffffffffffffffffffffffffff1681565b600960009054906101000a900473ffffffffffffffffffffffffffffffffffffffff1681565b600281565b600360009054906101000a900473ffffffffffffffffffffffffffffffffffffffff1681565b600160009054906101000a900473ffffffffffffffffffffffffffffffffffffffff1681565b60065481565b600160009054906101000a900473ffffffffffffffffffffffffffffffffffffffff1673ffffffffffffffffffffffffffffffffffffffff163373ffffffffffffffffffffffffffffffffffffffff16146105c357600080fd5b6002600854146105d257600080fd5b42600754116105e057600080fd5b6000600960009054906101000a900473ffffffffffffffffffffffffffffffffffffffff1673ffffffffffffffffffffffffffffffffffffffff166323b872dd600160009054906101000a900473ffffffffffffffffffffffffffffffffffffffff166000809054906101000a900473ffffffffffffffffffffffffffffffffffffffff166004546040518463ffffffff1660e01b8152600401808473ffffffffffffffffffffffffffffffffffffffff1673ffffffffffffffffffffffffffffffffffffffff1681526020018373ffffffffffffffffffffffffffffffffffffffff1673ffffffffffffffffffffffffffffffffffffffff1681526020018281526020019350505050602060405180830381600087803b15801561070457600080fd5b505af1158015610718573d6000803e3d6000fd5b505050506040513d602081101561072e57600080fd5b810190808051906020019092919050505090508061074b57600080fd5b600360088190555050565b600260009054906101000a900473ffffffffffffffffffffffffffffffffffffffff1681565b600b5481565b60085481565b60055481565b600381565b600081565b60045481565b600c5481565b6000809054906101000a900473ffffffffffffffffffffffffffffffffffffffff1673ffffffffffffffffffffffffffffffffffffffff163373ffffffffffffffffffffffffffffffffffffffff16146107fd57600080fd5b60016008541461080c57600080fd5b426007541161081a57600080fd5b6000600a60009054906101000a900473ffffffffffffffffffffffffffffffffffffffff1673ffffffffffffffffffffffffffffffffffffffff166323b872dd6000809054906101000a900473ffffffffffffffffffffffffffffffffffffffff16306005546040518463ffffffff1660e01b8152600401808473ffffffffffffffffffffffffffffffffffffffff1673ffffffffffffffffffffffffffffffffffffffff1681526020018373ffffffffffffffffffffffffffffffffffffffff1673ffffffffffffffffffffffffffffffffffffffff1681526020018281526020019350505050602060405180830381600087803b15801561091c57600080fd5b505af1158015610930573d6000803e3d6000fd5b505050506040513d602081101561094657600080fd5b810190808051906020019092919050505090508061096357600080fd5b600260088190555050565b6007548156fea165627a7a72305820bd8aa6912787d915f4d6de89d562346f694eb3c3cdcbe890741d6350dc6392250029",
  "source": "pragma solidity >=0.4.21 <0.6.0;\n\nimport \"../lib/ERC20.sol\";\nimport \"./OptionCommon.sol\";\n\n/**\n * @title StandardOption\n * @dev Basic Option\n */\ncontract StandardOption is OptionCommon {\n  // // Strike price [i.e. (strike_price_quote * base_volume) / strike_price_base  = asset_volume]\n  uint256 public strike_price_base;\n  uint256 public strike_price_quote;\n\n  constructor(address _issuer, address _buyer,\n              address _base_addr, address _asset_addr,\n              uint256 _fee,\n              uint256 _strike_price_base, uint256 _strike_price_quote,\n              uint256 _volume,\n              uint256 _maturity_time, uint256 _expiry_time) public {\n    require(state == STATE_UNINITIALIZED);\n    require(_base_addr != _asset_addr);\n    require((_expiry_time > block.timestamp) && (_expiry_time > _maturity_time));\n\n    issuer = _issuer;\n    buyer = _buyer;\n    base_addr = _base_addr;\n    asset_addr = _asset_addr;\n    fee = _fee;\n    strike_price_base = _strike_price_base;\n    strike_price_quote = _strike_price_quote;\n    volume = _volume;\n    maturity_time = _maturity_time;\n    expiry_time = _expiry_time;\n\n    base = ERC20(_base_addr);\n    asset = ERC20(_asset_addr);\n\n    state = STATE_INITIALIZED;\n  }\n}\n",
  "sourcePath": "/Users/Karim/Desktop/atomicoptions/contracts/v0-2/StandardOption.sol",
  "compiler": {
    "name": "solc",
    "version": "0.5.8+commit.23d335f2.Emscripten.clang"
  },
  "schemaVersion": "3.0.16",
  "updatedAt": "2019-10-14T16:55:03.666Z",
  "devdoc": {
    "details": "Basic Option",
    "methods": {},
    "title": "StandardOption"
  },
  "userdoc": {
    "methods": {}
  }
}