{
  "contractName": "TokenizedOption",
  "abi": [
    {
      "constant": true,
      "inputs": [],
      "name": "STATE_EXPIRED",
      "outputs": [
        {
          "name": "",
          "type": "uint256"
        }
      ],
      "payable": false,
      "stateMutability": "view",
      "type": "function"
    },
    {
      "constant": true,
      "inputs": [],
      "name": "STATE_INITIALIZED",
      "outputs": [
        {
          "name": "",
          "type": "uint256"
        }
      ],
      "payable": false,
      "stateMutability": "view",
      "type": "function"
    },
    {
      "constant": true,
      "inputs": [],
      "name": "STATE_EXERCISED",
      "outputs": [
        {
          "name": "",
          "type": "uint256"
        }
      ],
      "payable": false,
      "stateMutability": "view",
      "type": "function"
    },
    {
      "constant": true,
      "inputs": [],
      "name": "issuer",
      "outputs": [
        {
          "name": "",
          "type": "address"
        }
      ],
      "payable": false,
      "stateMutability": "view",
      "type": "function"
    },
    {
      "constant": true,
      "inputs": [],
      "name": "option_claim_addr",
      "outputs": [
        {
          "name": "",
          "type": "address"
        }
      ],
      "payable": false,
      "stateMutability": "view",
      "type": "function"
    },
    {
      "constant": false,
      "inputs": [
        {
          "name": "_to",
          "type": "address"
        }
      ],
      "name": "transfer_issuer",
      "outputs": [],
      "payable": false,
      "stateMutability": "nonpayable",
      "type": "function"
    },
    {
      "constant": true,
      "inputs": [],
      "name": "asset",
      "outputs": [
        {
          "name": "",
          "type": "address"
        }
      ],
      "payable": false,
      "stateMutability": "view",
      "type": "function"
    },
    {
      "constant": true,
      "inputs": [],
      "name": "base",
      "outputs": [
        {
          "name": "",
          "type": "address"
        }
      ],
      "payable": false,
      "stateMutability": "view",
      "type": "function"
    },
    {
      "constant": true,
      "inputs": [],
      "name": "collateral_claim_supply",
      "outputs": [
        {
          "name": "",
          "type": "uint256"
        }
      ],
      "payable": false,
      "stateMutability": "view",
      "type": "function"
    },
    {
      "constant": true,
      "inputs": [],
      "name": "STATE_COLLATERALIZED",
      "outputs": [
        {
          "name": "",
          "type": "uint256"
        }
      ],
      "payable": false,
      "stateMutability": "view",
      "type": "function"
    },
    {
      "constant": true,
      "inputs": [],
      "name": "asset_addr",
      "outputs": [
        {
          "name": "",
          "type": "address"
        }
      ],
      "payable": false,
      "stateMutability": "view",
      "type": "function"
    },
    {
      "constant": true,
      "inputs": [],
      "name": "get_info",
      "outputs": [
        {
          "name": "",
          "type": "address"
        },
        {
          "name": "",
          "type": "address"
        },
        {
          "name": "",
          "type": "address"
        },
        {
          "name": "",
          "type": "address"
        },
        {
          "name": "",
          "type": "uint256"
        },
        {
          "name": "",
          "type": "uint256"
        },
        {
          "name": "",
          "type": "uint256"
        },
        {
          "name": "",
          "type": "uint256"
        },
        {
          "name": "",
          "type": "uint256"
        },
        {
          "name": "",
          "type": "uint256"
        },
        {
          "name": "",
          "type": "uint256"
        }
      ],
      "payable": false,
      "stateMutability": "view",
      "type": "function"
    },
    {
      "constant": true,
      "inputs": [],
      "name": "option_claim",
      "outputs": [
        {
          "name": "",
          "type": "address"
        }
      ],
      "payable": false,
      "stateMutability": "view",
      "type": "function"
    },
    {
      "constant": true,
      "inputs": [],
      "name": "buyer",
      "outputs": [
        {
          "name": "",
          "type": "address"
        }
      ],
      "payable": false,
      "stateMutability": "view",
      "type": "function"
    },
    {
      "constant": true,
      "inputs": [],
      "name": "maturity_time",
      "outputs": [
        {
          "name": "",
          "type": "uint256"
        }
      ],
      "payable": false,
      "stateMutability": "view",
      "type": "function"
    },
    {
      "constant": false,
      "inputs": [],
      "name": "pay_fee",
      "outputs": [],
      "payable": false,
      "stateMutability": "nonpayable",
      "type": "function"
    },
    {
      "constant": true,
      "inputs": [],
      "name": "base_addr",
      "outputs": [
        {
          "name": "",
          "type": "address"
        }
      ],
      "payable": false,
      "stateMutability": "view",
      "type": "function"
    },
    {
      "constant": true,
      "inputs": [],
      "name": "strike_price_base",
      "outputs": [
        {
          "name": "",
          "type": "uint256"
        }
      ],
      "payable": false,
      "stateMutability": "view",
      "type": "function"
    },
    {
      "constant": true,
      "inputs": [],
      "name": "state",
      "outputs": [
        {
          "name": "",
          "type": "uint256"
        }
      ],
      "payable": false,
      "stateMutability": "view",
      "type": "function"
    },
    {
      "constant": true,
      "inputs": [],
      "name": "collateral_claim_addr",
      "outputs": [
        {
          "name": "",
          "type": "address"
        }
      ],
      "payable": false,
      "stateMutability": "view",
      "type": "function"
    },
    {
      "constant": true,
      "inputs": [],
      "name": "volume",
      "outputs": [
        {
          "name": "",
          "type": "uint256"
        }
      ],
      "payable": false,
      "stateMutability": "view",
      "type": "function"
    },
    {
      "constant": true,
      "inputs": [],
      "name": "STATE_ACTIVE",
      "outputs": [
        {
          "name": "",
          "type": "uint256"
        }
      ],
      "payable": false,
      "stateMutability": "view",
      "type": "function"
    },
    {
      "constant": true,
      "inputs": [],
      "name": "collateral_claim",
      "outputs": [
        {
          "name": "",
          "type": "address"
        }
      ],
      "payable": false,
      "stateMutability": "view",
      "type": "function"
    },
    {
      "constant": true,
      "inputs": [],
      "name": "STATE_UNINITIALIZED",
      "outputs": [
        {
          "name": "",
          "type": "uint256"
        }
      ],
      "payable": false,
      "stateMutability": "view",
      "type": "function"
    },
    {
      "constant": false,
      "inputs": [
        {
          "name": "_to",
          "type": "address"
        }
      ],
      "name": "transfer_buyer",
      "outputs": [],
      "payable": false,
      "stateMutability": "nonpayable",
      "type": "function"
    },
    {
      "constant": true,
      "inputs": [],
      "name": "fee",
      "outputs": [
        {
          "name": "",
          "type": "uint256"
        }
      ],
      "payable": false,
      "stateMutability": "view",
      "type": "function"
    },
    {
      "constant": true,
      "inputs": [],
      "name": "strike_price_quote",
      "outputs": [
        {
          "name": "",
          "type": "uint256"
        }
      ],
      "payable": false,
      "stateMutability": "view",
      "type": "function"
    },
    {
      "constant": false,
      "inputs": [],
      "name": "collateralize",
      "outputs": [],
      "payable": false,
      "stateMutability": "nonpayable",
      "type": "function"
    },
    {
      "constant": true,
      "inputs": [],
      "name": "option_claim_supply",
      "outputs": [
        {
          "name": "",
          "type": "uint256"
        }
      ],
      "payable": false,
      "stateMutability": "view",
      "type": "function"
    },
    {
      "constant": true,
      "inputs": [],
      "name": "expiry_time",
      "outputs": [
        {
          "name": "",
          "type": "uint256"
        }
      ],
      "payable": false,
      "stateMutability": "view",
      "type": "function"
    },
    {
      "inputs": [
        {
          "name": "_issuer",
          "type": "address"
        },
        {
          "name": "_buyer",
          "type": "address"
        },
        {
          "name": "_base_addr",
          "type": "address"
        },
        {
          "name": "_asset_addr",
          "type": "address"
        },
        {
          "name": "_fee",
          "type": "uint256"
        },
        {
          "name": "_strike_price_base",
          "type": "uint256"
        },
        {
          "name": "_strike_price_quote",
          "type": "uint256"
        },
        {
          "name": "_volume",
          "type": "uint256"
        },
        {
          "name": "_maturity_time",
          "type": "uint256"
        },
        {
          "name": "_expiry_time",
          "type": "uint256"
        }
      ],
      "payable": false,
      "stateMutability": "nonpayable",
      "type": "constructor"
    },
    {
      "constant": false,
      "inputs": [
        {
          "name": "option_claim_name",
          "type": "string"
        },
        {
          "name": "option_claim_symbol",
          "type": "string"
        },
        {
          "name": "collateral_claim_name",
          "type": "string"
        },
        {
          "name": "collateral_claim_symbol",
          "type": "string"
        }
      ],
      "name": "initialize_tokens",
      "outputs": [],
      "payable": false,
      "stateMutability": "nonpayable",
      "type": "function"
    },
    {
      "constant": false,
      "inputs": [
        {
          "name": "strike_price_base",
          "type": "uint256"
        },
        {
          "name": "strike_price_quote",
          "type": "uint256"
        },
        {
          "name": "salt",
          "type": "bytes32"
        },
        {
          "name": "asset_volume_exercised",
          "type": "uint256"
        }
      ],
      "name": "exercise_from_asset",
      "outputs": [
        {
          "name": "",
          "type": "uint256"
        }
      ],
      "payable": false,
      "stateMutability": "nonpayable",
      "type": "function"
    },
    {
      "constant": false,
      "inputs": [
        {
          "name": "asset_volume_exercised",
          "type": "uint256"
        }
      ],
      "name": "exercise_from_asset",
      "outputs": [
        {
          "name": "",
          "type": "uint256"
        }
      ],
      "payable": false,
      "stateMutability": "nonpayable",
      "type": "function"
    },
    {
      "constant": false,
      "inputs": [
        {
          "name": "strike_price_base",
          "type": "uint256"
        },
        {
          "name": "strike_price_quote",
          "type": "uint256"
        },
        {
          "name": "salt",
          "type": "bytes32"
        },
        {
          "name": "base_volume_exercised",
          "type": "uint256"
        }
      ],
      "name": "exercise_from_base",
      "outputs": [
        {
          "name": "",
          "type": "uint256"
        }
      ],
      "payable": false,
      "stateMutability": "nonpayable",
      "type": "function"
    },
    {
      "constant": false,
      "inputs": [
        {
          "name": "base_volume_exercised",
          "type": "uint256"
        }
      ],
      "name": "exercise_from_base",
      "outputs": [
        {
          "name": "",
          "type": "uint256"
        }
      ],
      "payable": false,
      "stateMutability": "nonpayable",
      "type": "function"
    },
    {
      "constant": false,
      "inputs": [],
      "name": "expire",
      "outputs": [],
      "payable": false,
      "stateMutability": "nonpayable",
      "type": "function"
    },
    {
      "constant": true,
      "inputs": [],
      "name": "get_token_info",
      "outputs": [
        {
          "name": "",
          "type": "address"
        },
        {
          "name": "",
          "type": "address"
        },
        {
          "name": "",
          "type": "uint256"
        },
        {
          "name": "",
          "type": "uint256"
        },
        {
          "name": "",
          "type": "uint256"
        },
        {
          "name": "",
          "type": "uint256"
        }
      ],
      "payable": false,
      "stateMutability": "view",
      "type": "function"
    }
  ],
  "bytecode": "0x60806040523480156200001157600080fd5b50604051610140806200419a83398101806040526101408110156200003557600080fd5b81019080805190602001909291908051906020019092919080519060200190929190805190602001909291908051906020019092919080519060200190929190805190602001909291908051906020019092919080519060200190929190805190602001909291905050508989898989898989898989898989898787878787878786868273ffffffffffffffffffffffffffffffffffffffff168473ffffffffffffffffffffffffffffffffffffffff161415620000f257600080fd5b856000806101000a81548173ffffffffffffffffffffffffffffffffffffffff021916908373ffffffffffffffffffffffffffffffffffffffff16021790555084600160006101000a81548173ffffffffffffffffffffffffffffffffffffffff021916908373ffffffffffffffffffffffffffffffffffffffff16021790555083600260006101000a81548173ffffffffffffffffffffffffffffffffffffffff021916908373ffffffffffffffffffffffffffffffffffffffff16021790555082600360006101000a81548173ffffffffffffffffffffffffffffffffffffffff021916908373ffffffffffffffffffffffffffffffffffffffff160217905550816004819055508060058190555083600760006101000a81548173ffffffffffffffffffffffffffffffffffffffff021916908373ffffffffffffffffffffffffffffffffffffffff16021790555082600860006101000a81548173ffffffffffffffffffffffffffffffffffffffff021916908373ffffffffffffffffffffffffffffffffffffffff16021790555060016006819055505050505050508473ffffffffffffffffffffffffffffffffffffffff168673ffffffffffffffffffffffffffffffffffffffff161415620002cd57600080fd5b4281118015620002dc57508181115b620002e657600080fd5b8360098190555080600a81905550505050505050505084600b8190555083600c819055505050505050505050505083858402816200032057fe5b04600f8190555082601081905550600060068190555050505050505050505050613e4a80620003506000396000f3fe60806040523480156200001157600080fd5b50600436106200025c5760003560e01c8063879a031a116200014d578063c618a1e411620000c9578063ddca3f431162000087578063ddca3f431462000cef578063e1b8d40f1462000d0f578063eef9a8d51462000d2f578063fad090291462000d3b578063fe3f3b811462000d5b576200025c565b8063c618a1e41462000bfc578063c80c07381462000c1c578063c920de461462000c3c578063d34ab68d1462000c88578063ddb0c86c1462000ca8576200025c565b8063a77f55991162000117578063a77f55991462000a89578063ba2215851462000ad5578063bf1718801462000af5578063c19d93fb1462000b90578063c1cf8e1e1462000bb0576200025c565b8063879a031a14620009d357806396f5a49f14620009f35780639ce0c9bd1462000a385780639f771e1e1462000a7d576200025c565b80635a11e96011620001dd578063699dc95311620001a7578063699dc95314620008695780637150d8ae14620008b557806379599f9614620009015780637adce175146200090d578063809629281462000970576200025c565b80635a11e96014620006c75780635ab533ac14620006e75780635f7271891462000707578063605834881462000753576200025c565b80631d6216a3116200022b5780631d6216a3146200030d57806335fe7702146200035957806338d52e0f14620003a05780634773e9e414620003ec5780635001f3b5146200067b576200025c565b80630fa9f5e1146200026157806314b80ae6146200028157806319d83c7114620002a15780631d14384814620002c1575b600080fd5b6200026b62000d7b565b6040518082815260200191505060405180910390f35b6200028b62000d80565b6040518082815260200191505060405180910390f35b620002ab62000d85565b6040518082815260200191505060405180910390f35b620002cb62000d8a565b604051808273ffffffffffffffffffffffffffffffffffffffff1673ffffffffffffffffffffffffffffffffffffffff16815260200191505060405180910390f35b6200031762000daf565b604051808273ffffffffffffffffffffffffffffffffffffffff1673ffffffffffffffffffffffffffffffffffffffff16815260200191505060405180910390f35b6200039e600480360360208110156200037157600080fd5b81019080803573ffffffffffffffffffffffffffffffffffffffff16906020019092919050505062000dd5565b005b620003aa62000e72565b604051808273ffffffffffffffffffffffffffffffffffffffff1673ffffffffffffffffffffffffffffffffffffffff16815260200191505060405180910390f35b62000679600480360360808110156200040457600080fd5b81019080803590602001906401000000008111156200042257600080fd5b8201836020820111156200043557600080fd5b803590602001918460018302840111640100000000831117156200045857600080fd5b91908080601f016020809104026020016040519081016040528093929190818152602001838380828437600081840152601f19601f82011690508083019250505050505050919291929080359060200190640100000000811115620004bc57600080fd5b820183602082011115620004cf57600080fd5b80359060200191846001830284011164010000000083111715620004f257600080fd5b91908080601f016020809104026020016040519081016040528093929190818152602001838380828437600081840152601f19601f820116905080830192505050505050509192919290803590602001906401000000008111156200055657600080fd5b8201836020820111156200056957600080fd5b803590602001918460018302840111640100000000831117156200058c57600080fd5b91908080601f016020809104026020016040519081016040528093929190818152602001838380828437600081840152601f19601f82011690508083019250505050505050919291929080359060200190640100000000811115620005f057600080fd5b8201836020820111156200060357600080fd5b803590602001918460018302840111640100000000831117156200062657600080fd5b91908080601f016020809104026020016040519081016040528093929190818152602001838380828437600081840152601f19601f82011690508083019250505050505050919291929050505062000e98565b005b6200068562001463565b604051808273ffffffffffffffffffffffffffffffffffffffff1673ffffffffffffffffffffffffffffffffffffffff16815260200191505060405180910390f35b620006d162001489565b6040518082815260200191505060405180910390f35b620006f16200148f565b6040518082815260200191505060405180910390f35b6200071162001494565b604051808273ffffffffffffffffffffffffffffffffffffffff1673ffffffffffffffffffffffffffffffffffffffff16815260200191505060405180910390f35b6200075d620014ba565b604051808c73ffffffffffffffffffffffffffffffffffffffff1673ffffffffffffffffffffffffffffffffffffffff1681526020018b73ffffffffffffffffffffffffffffffffffffffff1673ffffffffffffffffffffffffffffffffffffffff1681526020018a73ffffffffffffffffffffffffffffffffffffffff1673ffffffffffffffffffffffffffffffffffffffff1681526020018973ffffffffffffffffffffffffffffffffffffffff1673ffffffffffffffffffffffffffffffffffffffff1681526020018881526020018781526020018681526020018581526020018481526020018381526020018281526020019b50505050505050505050505060405180910390f35b620008736200158e565b604051808273ffffffffffffffffffffffffffffffffffffffff1673ffffffffffffffffffffffffffffffffffffffff16815260200191505060405180910390f35b620008bf620015b4565b604051808273ffffffffffffffffffffffffffffffffffffffff1673ffffffffffffffffffffffffffffffffffffffff16815260200191505060405180910390f35b6200090b620015da565b005b6200095a600480360360808110156200092557600080fd5b810190808035906020019092919080359060200190929190803590602001909291908035906020019092919050505062001b8f565b6040518082815260200191505060405180910390f35b620009bd600480360360808110156200098857600080fd5b810190808035906020019092919080359060200190929190803590602001909291908035906020019092919050505062001ba8565b6040518082815260200191505060405180910390f35b620009dd62001bc1565b6040518082815260200191505060405180910390f35b62000a226004803603602081101562000a0b57600080fd5b810190808035906020019092919050505062001bc7565b6040518082815260200191505060405180910390f35b62000a676004803603602081101562000a5057600080fd5b810190808035906020019092919050505062001bf3565b6040518082815260200191505060405180910390f35b62000a8762001c1f565b005b62000a9362001e13565b604051808273ffffffffffffffffffffffffffffffffffffffff1673ffffffffffffffffffffffffffffffffffffffff16815260200191505060405180910390f35b62000adf62001e39565b6040518082815260200191505060405180910390f35b62000aff62001e3f565b604051808773ffffffffffffffffffffffffffffffffffffffff1673ffffffffffffffffffffffffffffffffffffffff1681526020018673ffffffffffffffffffffffffffffffffffffffff1673ffffffffffffffffffffffffffffffffffffffff168152602001858152602001848152602001838152602001828152602001965050505050505060405180910390f35b62000b9a6200206e565b6040518082815260200191505060405180910390f35b62000bba62002074565b604051808273ffffffffffffffffffffffffffffffffffffffff1673ffffffffffffffffffffffffffffffffffffffff16815260200191505060405180910390f35b62000c066200209a565b6040518082815260200191505060405180910390f35b62000c26620020a0565b6040518082815260200191505060405180910390f35b62000c46620020a5565b604051808273ffffffffffffffffffffffffffffffffffffffff1673ffffffffffffffffffffffffffffffffffffffff16815260200191505060405180910390f35b62000c92620020cb565b6040518082815260200191505060405180910390f35b62000ced6004803603602081101562000cc057600080fd5b81019080803573ffffffffffffffffffffffffffffffffffffffff169060200190929190505050620020d0565b005b62000cf96200216f565b6040518082815260200191505060405180910390f35b62000d1962002175565b6040518082815260200191505060405180910390f35b62000d396200217b565b005b62000d456200233d565b6040518082815260200191505060405180910390f35b62000d6562002343565b6040518082815260200191505060405180910390f35b600581565b600181565b600481565b6000809054906101000a900473ffffffffffffffffffffffffffffffffffffffff1681565b600d60009054906101000a900473ffffffffffffffffffffffffffffffffffffffff1681565b6000809054906101000a900473ffffffffffffffffffffffffffffffffffffffff1673ffffffffffffffffffffffffffffffffffffffff163373ffffffffffffffffffffffffffffffffffffffff161462000e2f57600080fd5b806000806101000a81548173ffffffffffffffffffffffffffffffffffffffff021916908373ffffffffffffffffffffffffffffffffffffffff16021790555050565b600860009054906101000a900473ffffffffffffffffffffffffffffffffffffffff1681565b60006006541462000ea857600080fd5b600f54848460405162000ebb906200278d565b808481526020018060200180602001838103835285818151815260200191508051906020019080838360005b8381101562000f0457808201518184015260208101905062000ee7565b50505050905090810190601f16801562000f325780820380516001836020036101000a031916815260200191505b50838103825284818151815260200191508051906020019080838360005b8381101562000f6d57808201518184015260208101905062000f50565b50505050905090810190601f16801562000f9b5780820380516001836020036101000a031916815260200191505b5095505050505050604051809103906000f08015801562000fc0573d6000803e3d6000fd5b50601160006101000a81548173ffffffffffffffffffffffffffffffffffffffff021916908373ffffffffffffffffffffffffffffffffffffffff160217905550601054828260405162001014906200278d565b808481526020018060200180602001838103835285818151815260200191508051906020019080838360005b838110156200105d57808201518184015260208101905062001040565b50505050905090810190601f1680156200108b5780820380516001836020036101000a031916815260200191505b50838103825284818151815260200191508051906020019080838360005b83811015620010c6578082015181840152602081019050620010a9565b50505050905090810190601f168015620010f45780820380516001836020036101000a031916815260200191505b5095505050505050604051809103906000f08015801562001119573d6000803e3d6000fd5b50601260006101000a81548173ffffffffffffffffffffffffffffffffffffffff021916908373ffffffffffffffffffffffffffffffffffffffff1602179055506000601160009054906101000a900473ffffffffffffffffffffffffffffffffffffffff1673ffffffffffffffffffffffffffffffffffffffff1663a9059cbb600160009054906101000a900473ffffffffffffffffffffffffffffffffffffffff16600f546040518363ffffffff1660e01b8152600401808373ffffffffffffffffffffffffffffffffffffffff1673ffffffffffffffffffffffffffffffffffffffff16815260200182815260200192505050602060405180830381600087803b1580156200122a57600080fd5b505af11580156200123f573d6000803e3d6000fd5b505050506040513d60208110156200125657600080fd5b81019080805190602001909291905050509050806200127457600080fd5b6000601260009054906101000a900473ffffffffffffffffffffffffffffffffffffffff1673ffffffffffffffffffffffffffffffffffffffff1663a9059cbb6000809054906101000a900473ffffffffffffffffffffffffffffffffffffffff166010546040518363ffffffff1660e01b8152600401808373ffffffffffffffffffffffffffffffffffffffff1673ffffffffffffffffffffffffffffffffffffffff16815260200182815260200192505050602060405180830381600087803b1580156200134357600080fd5b505af115801562001358573d6000803e3d6000fd5b505050506040513d60208110156200136f57600080fd5b81019080805190602001909291905050509050806200138d57600080fd5b601160009054906101000a900473ffffffffffffffffffffffffffffffffffffffff16600d60006101000a81548173ffffffffffffffffffffffffffffffffffffffff021916908373ffffffffffffffffffffffffffffffffffffffff160217905550601260009054906101000a900473ffffffffffffffffffffffffffffffffffffffff16600e60006101000a81548173ffffffffffffffffffffffffffffffffffffffff021916908373ffffffffffffffffffffffffffffffffffffffff1602179055506001600681905550505050505050565b600760009054906101000a900473ffffffffffffffffffffffffffffffffffffffff1681565b60105481565b600281565b600360009054906101000a900473ffffffffffffffffffffffffffffffffffffffff1681565b60008060008060008060008060008060008060009054906101000a900473ffffffffffffffffffffffffffffffffffffffff16600160009054906101000a900473ffffffffffffffffffffffffffffffffffffffff16600260009054906101000a900473ffffffffffffffffffffffffffffffffffffffff16600360009054906101000a900473ffffffffffffffffffffffffffffffffffffffff16600954600b54600c54600454600554600a546006549a509a509a509a509a509a509a509a509a509a509a50909192939495969798999a565b601160009054906101000a900473ffffffffffffffffffffffffffffffffffffffff1681565b600160009054906101000a900473ffffffffffffffffffffffffffffffffffffffff1681565b42600a54111580620015ee57506002600654145b80620015fc57506000600454145b6200160657600080fd5b6000601260009054906101000a900473ffffffffffffffffffffffffffffffffffffffff1673ffffffffffffffffffffffffffffffffffffffff166370a08231336040518263ffffffff1660e01b8152600401808273ffffffffffffffffffffffffffffffffffffffff1673ffffffffffffffffffffffffffffffffffffffff16815260200191505060206040518083038186803b158015620016a857600080fd5b505afa158015620016bd573d6000803e3d6000fd5b505050506040513d6020811015620016d457600080fd5b810190808051906020019092919050505090506000601054600454830281620016f957fe5b0490506000600760009054906101000a900473ffffffffffffffffffffffffffffffffffffffff1673ffffffffffffffffffffffffffffffffffffffff166370a08231306040518263ffffffff1660e01b8152600401808273ffffffffffffffffffffffffffffffffffffffff1673ffffffffffffffffffffffffffffffffffffffff16815260200191505060206040518083038186803b1580156200179e57600080fd5b505afa158015620017b3573d6000803e3d6000fd5b505050506040513d6020811015620017ca57600080fd5b81019080805190602001909291905050509050600060105482850281620017ed57fe5b0490506000601260009054906101000a900473ffffffffffffffffffffffffffffffffffffffff1673ffffffffffffffffffffffffffffffffffffffff16639dc29fac33876040518363ffffffff1660e01b8152600401808373ffffffffffffffffffffffffffffffffffffffff1673ffffffffffffffffffffffffffffffffffffffff16815260200182815260200192505050602060405180830381600087803b1580156200189c57600080fd5b505af1158015620018b1573d6000803e3d6000fd5b505050506040513d6020811015620018c857600080fd5b8101908080519060200190929190505050905080620018e657600080fd5b6000600760009054906101000a900473ffffffffffffffffffffffffffffffffffffffff1673ffffffffffffffffffffffffffffffffffffffff1663a9059cbb33856040518363ffffffff1660e01b8152600401808373ffffffffffffffffffffffffffffffffffffffff1673ffffffffffffffffffffffffffffffffffffffff16815260200182815260200192505050602060405180830381600087803b1580156200199257600080fd5b505af1158015620019a7573d6000803e3d6000fd5b505050506040513d6020811015620019be57600080fd5b8101908080519060200190929190505050905080620019dc57600080fd5b6000600860009054906101000a900473ffffffffffffffffffffffffffffffffffffffff1673ffffffffffffffffffffffffffffffffffffffff1663a9059cbb33886040518363ffffffff1660e01b8152600401808373ffffffffffffffffffffffffffffffffffffffff1673ffffffffffffffffffffffffffffffffffffffff16815260200182815260200192505050602060405180830381600087803b15801562001a8857600080fd5b505af115801562001a9d573d6000803e3d6000fd5b505050506040513d602081101562001ab457600080fd5b810190808051906020019092919050505090508062001ad257600080fd5b601260009054906101000a900473ffffffffffffffffffffffffffffffffffffffff1673ffffffffffffffffffffffffffffffffffffffff166318160ddd6040518163ffffffff1660e01b815260040160206040518083038186803b15801562001b3b57600080fd5b505afa15801562001b50573d6000803e3d6000fd5b505050506040513d602081101562001b6757600080fd5b8101908080519060200190929190505050601081905550600560068190555050505050505050565b60008062001b9c57600080fd5b60009050949350505050565b60008062001bb557600080fd5b60009050949350505050565b60055481565b600080600c54600b5484028162001bda57fe5b04905062001bea33828562002349565b80915050919050565b600080600b54600c5484028162001c0657fe5b04905062001c1633848362002349565b80915050919050565b600160009054906101000a900473ffffffffffffffffffffffffffffffffffffffff1673ffffffffffffffffffffffffffffffffffffffff163373ffffffffffffffffffffffffffffffffffffffff161462001c7a57600080fd5b60026006541462001c8a57600080fd5b42600a541162001c9957600080fd5b6000600760009054906101000a900473ffffffffffffffffffffffffffffffffffffffff1673ffffffffffffffffffffffffffffffffffffffff166323b872dd600160009054906101000a900473ffffffffffffffffffffffffffffffffffffffff166000809054906101000a900473ffffffffffffffffffffffffffffffffffffffff166009546040518463ffffffff1660e01b8152600401808473ffffffffffffffffffffffffffffffffffffffff1673ffffffffffffffffffffffffffffffffffffffff1681526020018373ffffffffffffffffffffffffffffffffffffffff1673ffffffffffffffffffffffffffffffffffffffff1681526020018281526020019350505050602060405180830381600087803b15801562001dbe57600080fd5b505af115801562001dd3573d6000803e3d6000fd5b505050506040513d602081101562001dea57600080fd5b810190808051906020019092919050505090508062001e0857600080fd5b600360068190555050565b600260009054906101000a900473ffffffffffffffffffffffffffffffffffffffff1681565b600b5481565b6000806000806000806000601160009054906101000a900473ffffffffffffffffffffffffffffffffffffffff1673ffffffffffffffffffffffffffffffffffffffff166370a08231336040518263ffffffff1660e01b8152600401808273ffffffffffffffffffffffffffffffffffffffff1673ffffffffffffffffffffffffffffffffffffffff16815260200191505060206040518083038186803b15801562001eea57600080fd5b505afa15801562001eff573d6000803e3d6000fd5b505050506040513d602081101562001f1657600080fd5b810190808051906020019092919050505090506000601260009054906101000a900473ffffffffffffffffffffffffffffffffffffffff1673ffffffffffffffffffffffffffffffffffffffff166370a08231336040518263ffffffff1660e01b8152600401808273ffffffffffffffffffffffffffffffffffffffff1673ffffffffffffffffffffffffffffffffffffffff16815260200191505060206040518083038186803b15801562001fcb57600080fd5b505afa15801562001fe0573d6000803e3d6000fd5b505050506040513d602081101562001ff757600080fd5b81019080805190602001909291905050509050600d60009054906101000a900473ffffffffffffffffffffffffffffffffffffffff16600e60009054906101000a900473ffffffffffffffffffffffffffffffffffffffff16600f5460105485859750975097509750975097505050909192939495565b60065481565b600e60009054906101000a900473ffffffffffffffffffffffffffffffffffffffff1681565b60045481565b600381565b601260009054906101000a900473ffffffffffffffffffffffffffffffffffffffff1681565b600081565b600160009054906101000a900473ffffffffffffffffffffffffffffffffffffffff1673ffffffffffffffffffffffffffffffffffffffff163373ffffffffffffffffffffffffffffffffffffffff16146200212b57600080fd5b80600160006101000a81548173ffffffffffffffffffffffffffffffffffffffff021916908373ffffffffffffffffffffffffffffffffffffffff16021790555050565b60095481565b600c5481565b6000809054906101000a900473ffffffffffffffffffffffffffffffffffffffff1673ffffffffffffffffffffffffffffffffffffffff163373ffffffffffffffffffffffffffffffffffffffff1614620021d557600080fd5b600160065414620021e557600080fd5b6000600860009054906101000a900473ffffffffffffffffffffffffffffffffffffffff1673ffffffffffffffffffffffffffffffffffffffff166323b872dd6000809054906101000a900473ffffffffffffffffffffffffffffffffffffffff16306004546040518463ffffffff1660e01b8152600401808473ffffffffffffffffffffffffffffffffffffffff1673ffffffffffffffffffffffffffffffffffffffff1681526020018373ffffffffffffffffffffffffffffffffffffffff1673ffffffffffffffffffffffffffffffffffffffff1681526020018281526020019350505050602060405180830381600087803b158015620022e857600080fd5b505af1158015620022fd573d6000803e3d6000fd5b505050506040513d60208110156200231457600080fd5b81019080805190602001909291905050509050806200233257600080fd5b600260068190555050565b600f5481565b600a5481565b42600a541180156200235d57504260055411155b6200236757600080fd5b600360065414806200237b57506004600654145b6200238557600080fd5b600082116200239357600080fd5b600081118015620023a657506004548111155b620023b057600080fd5b6000600760009054906101000a900473ffffffffffffffffffffffffffffffffffffffff1673ffffffffffffffffffffffffffffffffffffffff166323b872dd8530866040518463ffffffff1660e01b8152600401808473ffffffffffffffffffffffffffffffffffffffff1673ffffffffffffffffffffffffffffffffffffffff1681526020018373ffffffffffffffffffffffffffffffffffffffff1673ffffffffffffffffffffffffffffffffffffffff1681526020018281526020019350505050602060405180830381600087803b1580156200249057600080fd5b505af1158015620024a5573d6000803e3d6000fd5b505050506040513d6020811015620024bc57600080fd5b8101908080519060200190929190505050905080620024da57600080fd5b6000601160009054906101000a900473ffffffffffffffffffffffffffffffffffffffff1673ffffffffffffffffffffffffffffffffffffffff16639dc29fac86866040518363ffffffff1660e01b8152600401808373ffffffffffffffffffffffffffffffffffffffff1673ffffffffffffffffffffffffffffffffffffffff16815260200182815260200192505050602060405180830381600087803b1580156200258657600080fd5b505af11580156200259b573d6000803e3d6000fd5b505050506040513d6020811015620025b257600080fd5b8101908080519060200190929190505050905080620025d057600080fd5b6000600860009054906101000a900473ffffffffffffffffffffffffffffffffffffffff1673ffffffffffffffffffffffffffffffffffffffff1663a9059cbb87866040518363ffffffff1660e01b8152600401808373ffffffffffffffffffffffffffffffffffffffff1673ffffffffffffffffffffffffffffffffffffffff16815260200182815260200192505050602060405180830381600087803b1580156200267c57600080fd5b505af115801562002691573d6000803e3d6000fd5b505050506040513d6020811015620026a857600080fd5b8101908080519060200190929190505050905080620026c657600080fd5b601160009054906101000a900473ffffffffffffffffffffffffffffffffffffffff1673ffffffffffffffffffffffffffffffffffffffff166318160ddd6040518163ffffffff1660e01b815260040160206040518083038186803b1580156200272f57600080fd5b505afa15801562002744573d6000803e3d6000fd5b505050506040513d60208110156200275b57600080fd5b8101908080519060200190929190505050600f8190555083600454036004819055506004600681905550505050505050565b611683806200279c8339019056fe60806040523480156200001157600080fd5b506040516200168338038062001683833981018060405260608110156200003757600080fd5b810190808051906020019092919080516401000000008111156200005a57600080fd5b828101905060208101848111156200007157600080fd5b81518560018202830111640100000000821117156200008f57600080fd5b50509291906020018051640100000000811115620000ac57600080fd5b82810190506020810184811115620000c357600080fd5b8151856001820283011164010000000082111715620000e157600080fd5b50509291905050508260008190555082600160003373ffffffffffffffffffffffffffffffffffffffff1673ffffffffffffffffffffffffffffffffffffffff1681526020019081526020016000208190555033600560006101000a81548173ffffffffffffffffffffffffffffffffffffffff021916908373ffffffffffffffffffffffffffffffffffffffff16021790555081600390805190602001906200018d929190620001b0565b508060049080519060200190620001a6929190620001b0565b505050506200025f565b828054600181600116156101000203166002900490600052602060002090601f016020900481019282601f10620001f357805160ff191683800117855562000224565b8280016001018555821562000224579182015b828111156200022357825182559160200191906001019062000206565b5b50905062000233919062000237565b5090565b6200025c91905b80821115620002585760008160009055506001016200023e565b5090565b90565b611414806200026f6000396000f3fe608060405234801561001057600080fd5b50600436106100cf5760003560e01c806370a082311161008c5780639dc29fac116100665780639dc29fac14610410578063a9059cbb14610476578063d73dd623146104dc578063dd62ed3e14610542576100cf565b806370a08231146102eb5780638da5cb5b1461034357806395d89b411461038d576100cf565b806306fdde03146100d4578063095ea7b31461015757806318160ddd146101bd57806323b872dd146101db578063313ce567146102615780636618846314610285575b600080fd5b6100dc6105ba565b6040518080602001828103825283818151815260200191508051906020019080838360005b8381101561011c578082015181840152602081019050610101565b50505050905090810190601f1680156101495780820380516001836020036101000a031916815260200191505b509250505060405180910390f35b6101a36004803603604081101561016d57600080fd5b81019080803573ffffffffffffffffffffffffffffffffffffffff16906020019092919080359060200190929190505050610658565b604051808215151515815260200191505060405180910390f35b6101c561074a565b6040518082815260200191505060405180910390f35b610247600480360360608110156101f157600080fd5b81019080803573ffffffffffffffffffffffffffffffffffffffff169060200190929190803573ffffffffffffffffffffffffffffffffffffffff16906020019092919080359060200190929190505050610750565b604051808215151515815260200191505060405180910390f35b610269610a3a565b604051808260ff1660ff16815260200191505060405180910390f35b6102d16004803603604081101561029b57600080fd5b81019080803573ffffffffffffffffffffffffffffffffffffffff16906020019092919080359060200190929190505050610a3f565b604051808215151515815260200191505060405180910390f35b61032d6004803603602081101561030157600080fd5b81019080803573ffffffffffffffffffffffffffffffffffffffff169060200190929190505050610cd0565b6040518082815260200191505060405180910390f35b61034b610d19565b604051808273ffffffffffffffffffffffffffffffffffffffff1673ffffffffffffffffffffffffffffffffffffffff16815260200191505060405180910390f35b610395610d3f565b6040518080602001828103825283818151815260200191508051906020019080838360005b838110156103d55780820151818401526020810190506103ba565b50505050905090810190601f1680156104025780820380516001836020036101000a031916815260200191505b509250505060405180910390f35b61045c6004803603604081101561042657600080fd5b81019080803573ffffffffffffffffffffffffffffffffffffffff16906020019092919080359060200190929190505050610ddd565b604051808215151515815260200191505060405180910390f35b6104c26004803603604081101561048c57600080fd5b81019080803573ffffffffffffffffffffffffffffffffffffffff16906020019092919080359060200190929190505050610f5e565b604051808215151515815260200191505060405180910390f35b610528600480360360408110156104f257600080fd5b81019080803573ffffffffffffffffffffffffffffffffffffffff16906020019092919080359060200190929190505050611132565b604051808215151515815260200191505060405180910390f35b6105a46004803603604081101561055857600080fd5b81019080803573ffffffffffffffffffffffffffffffffffffffff169060200190929190803573ffffffffffffffffffffffffffffffffffffffff16906020019092919050505061132e565b6040518082815260200191505060405180910390f35b60038054600181600116156101000203166002900480601f0160208091040260200160405190810160405280929190818152602001828054600181600116156101000203166002900480156106505780601f1061062557610100808354040283529160200191610650565b820191906000526020600020905b81548152906001019060200180831161063357829003601f168201915b505050505081565b600081600260003373ffffffffffffffffffffffffffffffffffffffff1673ffffffffffffffffffffffffffffffffffffffff16815260200190815260200160002060008573ffffffffffffffffffffffffffffffffffffffff1673ffffffffffffffffffffffffffffffffffffffff168152602001908152602001600020819055508273ffffffffffffffffffffffffffffffffffffffff163373ffffffffffffffffffffffffffffffffffffffff167f8c5be1e5ebec7d5bd14f71427d1e84f3dd0314c0f7b2291e5b200ac8c7c3b925846040518082815260200191505060405180910390a36001905092915050565b60005481565b60008073ffffffffffffffffffffffffffffffffffffffff168373ffffffffffffffffffffffffffffffffffffffff16141561078b57600080fd5b6000600260008673ffffffffffffffffffffffffffffffffffffffff1673ffffffffffffffffffffffffffffffffffffffff16815260200190815260200160002060003373ffffffffffffffffffffffffffffffffffffffff1673ffffffffffffffffffffffffffffffffffffffff16815260200190815260200160002054905061085e83600160008873ffffffffffffffffffffffffffffffffffffffff1673ffffffffffffffffffffffffffffffffffffffff168152602001908152602001600020546113b590919063ffffffff16565b600160008773ffffffffffffffffffffffffffffffffffffffff1673ffffffffffffffffffffffffffffffffffffffff168152602001908152602001600020819055506108f383600160008773ffffffffffffffffffffffffffffffffffffffff1673ffffffffffffffffffffffffffffffffffffffff168152602001908152602001600020546113cc90919063ffffffff16565b600160008673ffffffffffffffffffffffffffffffffffffffff1673ffffffffffffffffffffffffffffffffffffffff1681526020019081526020016000208190555061094983826113b590919063ffffffff16565b600260008773ffffffffffffffffffffffffffffffffffffffff1673ffffffffffffffffffffffffffffffffffffffff16815260200190815260200160002060003373ffffffffffffffffffffffffffffffffffffffff1673ffffffffffffffffffffffffffffffffffffffff168152602001908152602001600020819055508373ffffffffffffffffffffffffffffffffffffffff168573ffffffffffffffffffffffffffffffffffffffff167fddf252ad1be2c89b69c2b068fc378daa952ba7f163c4a11628f55a4df523b3ef856040518082815260200191505060405180910390a360019150509392505050565b601281565b600080600260003373ffffffffffffffffffffffffffffffffffffffff1673ffffffffffffffffffffffffffffffffffffffff16815260200190815260200160002060008573ffffffffffffffffffffffffffffffffffffffff1673ffffffffffffffffffffffffffffffffffffffff16815260200190815260200160002054905080831115610b50576000600260003373ffffffffffffffffffffffffffffffffffffffff1673ffffffffffffffffffffffffffffffffffffffff16815260200190815260200160002060008673ffffffffffffffffffffffffffffffffffffffff1673ffffffffffffffffffffffffffffffffffffffff16815260200190815260200160002081905550610be4565b610b6383826113b590919063ffffffff16565b600260003373ffffffffffffffffffffffffffffffffffffffff1673ffffffffffffffffffffffffffffffffffffffff16815260200190815260200160002060008673ffffffffffffffffffffffffffffffffffffffff1673ffffffffffffffffffffffffffffffffffffffff168152602001908152602001600020819055505b8373ffffffffffffffffffffffffffffffffffffffff163373ffffffffffffffffffffffffffffffffffffffff167f8c5be1e5ebec7d5bd14f71427d1e84f3dd0314c0f7b2291e5b200ac8c7c3b925600260003373ffffffffffffffffffffffffffffffffffffffff1673ffffffffffffffffffffffffffffffffffffffff16815260200190815260200160002060008873ffffffffffffffffffffffffffffffffffffffff1673ffffffffffffffffffffffffffffffffffffffff168152602001908152602001600020546040518082815260200191505060405180910390a3600191505092915050565b6000600160008373ffffffffffffffffffffffffffffffffffffffff1673ffffffffffffffffffffffffffffffffffffffff168152602001908152602001600020549050919050565b600560009054906101000a900473ffffffffffffffffffffffffffffffffffffffff1681565b60048054600181600116156101000203166002900480601f016020809104026020016040519081016040528092919081815260200182805460018160011615610100020316600290048015610dd55780601f10610daa57610100808354040283529160200191610dd5565b820191906000526020600020905b815481529060010190602001808311610db857829003601f168201915b505050505081565b6000600560009054906101000a900473ffffffffffffffffffffffffffffffffffffffff1673ffffffffffffffffffffffffffffffffffffffff163373ffffffffffffffffffffffffffffffffffffffff1614610e3957600080fd5b610e8b82600160008673ffffffffffffffffffffffffffffffffffffffff1673ffffffffffffffffffffffffffffffffffffffff168152602001908152602001600020546113b590919063ffffffff16565b600160008573ffffffffffffffffffffffffffffffffffffffff1673ffffffffffffffffffffffffffffffffffffffff16815260200190815260200160002081905550610ee3826000546113b590919063ffffffff16565b6000819055507fcc16f5dbb4873280815c1ee09dbd06736cffcc184412cf7a71a0fdb75d397ca58383604051808373ffffffffffffffffffffffffffffffffffffffff1673ffffffffffffffffffffffffffffffffffffffff1681526020018281526020019250505060405180910390a16001905092915050565b60008073ffffffffffffffffffffffffffffffffffffffff168373ffffffffffffffffffffffffffffffffffffffff161415610f9957600080fd5b610feb82600160003373ffffffffffffffffffffffffffffffffffffffff1673ffffffffffffffffffffffffffffffffffffffff168152602001908152602001600020546113b590919063ffffffff16565b600160003373ffffffffffffffffffffffffffffffffffffffff1673ffffffffffffffffffffffffffffffffffffffff1681526020019081526020016000208190555061108082600160008673ffffffffffffffffffffffffffffffffffffffff1673ffffffffffffffffffffffffffffffffffffffff168152602001908152602001600020546113cc90919063ffffffff16565b600160008573ffffffffffffffffffffffffffffffffffffffff1673ffffffffffffffffffffffffffffffffffffffff168152602001908152602001600020819055508273ffffffffffffffffffffffffffffffffffffffff163373ffffffffffffffffffffffffffffffffffffffff167fddf252ad1be2c89b69c2b068fc378daa952ba7f163c4a11628f55a4df523b3ef846040518082815260200191505060405180910390a36001905092915050565b60006111c382600260003373ffffffffffffffffffffffffffffffffffffffff1673ffffffffffffffffffffffffffffffffffffffff16815260200190815260200160002060008673ffffffffffffffffffffffffffffffffffffffff1673ffffffffffffffffffffffffffffffffffffffff168152602001908152602001600020546113cc90919063ffffffff16565b600260003373ffffffffffffffffffffffffffffffffffffffff1673ffffffffffffffffffffffffffffffffffffffff16815260200190815260200160002060008573ffffffffffffffffffffffffffffffffffffffff1673ffffffffffffffffffffffffffffffffffffffff168152602001908152602001600020819055508273ffffffffffffffffffffffffffffffffffffffff163373ffffffffffffffffffffffffffffffffffffffff167f8c5be1e5ebec7d5bd14f71427d1e84f3dd0314c0f7b2291e5b200ac8c7c3b925600260003373ffffffffffffffffffffffffffffffffffffffff1673ffffffffffffffffffffffffffffffffffffffff16815260200190815260200160002060008773ffffffffffffffffffffffffffffffffffffffff1673ffffffffffffffffffffffffffffffffffffffff168152602001908152602001600020546040518082815260200191505060405180910390a36001905092915050565b6000600260008473ffffffffffffffffffffffffffffffffffffffff1673ffffffffffffffffffffffffffffffffffffffff16815260200190815260200160002060008373ffffffffffffffffffffffffffffffffffffffff1673ffffffffffffffffffffffffffffffffffffffff16815260200190815260200160002054905092915050565b6000828211156113c157fe5b818303905092915050565b6000808284019050838110156113de57fe5b809150509291505056fea165627a7a72305820f15d00a41c3f99b6de8ea9a4e4c17d9f847d82a219fb64679702ed51a55d2b680029a165627a7a723058202f36ce44a4da510ffb6f791762fec2fc7ff430e0d8dd48912f50acd2c00b6b8c0029",
  "source": "pragma solidity >=0.4.21 <0.6.0;\n\nimport \"./Option.sol\";\nimport \"../auxiliary/PoolToken.sol\";\n\n/**\n * @title TokenizedOption\n * @dev Option where you can trade claims on the collateral and options\n */\ncontract TokenizedOption is Option {\n  // Addresses of the pool tokens\n  address public option_claim_addr;\n  address public collateral_claim_addr;\n\n  // Number of option/collateral claims outstanding\n  uint256 public option_claim_supply;\n  uint256 public collateral_claim_supply;\n\n  // Tokens representing a claim on options and collateral, respectively\n  PoolToken public option_claim;\n  PoolToken public collateral_claim;\n\n  constructor(address _issuer, address _buyer,\n              address _base_addr, address _asset_addr,\n              uint256 _fee,\n              uint256 _strike_price_base, uint256 _strike_price_quote,\n              uint256 _volume,\n              uint256 _maturity_time, uint256 _expiry_time)\n    Option(_issuer, _buyer,\n            _base_addr, _asset_addr,\n            _fee,\n            _strike_price_base, _strike_price_quote,\n            _volume,\n            _maturity_time, _expiry_time) public {\n    option_claim_supply = (_volume * _strike_price_base) / _strike_price_quote;\n    collateral_claim_supply = _volume;\n\n    state = STATE_UNINITIALIZED;\n  }\n\n  // Too many variables to initialize in one go :(\n  function initialize_tokens(string memory option_claim_name, string memory option_claim_symbol,\n                              string memory collateral_claim_name, string memory collateral_claim_symbol) public {\n    require(state == STATE_UNINITIALIZED);\n\n    option_claim = new PoolToken(option_claim_supply, option_claim_name, option_claim_symbol);\n    collateral_claim = new PoolToken(collateral_claim_supply, collateral_claim_name, collateral_claim_symbol);\n\n    bool option_claim_transferred = option_claim.transfer(buyer, option_claim_supply);\n    require(option_claim_transferred);\n    bool collateral_claim_transferred = collateral_claim.transfer(issuer, collateral_claim_supply);\n    require(collateral_claim_transferred);\n\n    option_claim_addr = address(option_claim);\n    collateral_claim_addr = address(collateral_claim);\n\n    state = STATE_INITIALIZED;\n  }\n\n  function exercise_internal(address exerciser, uint256 base_volume_exercised, uint256 asset_volume_exercised)\n      internal {\n    require((expiry_time > block.timestamp) && (maturity_time <= block.timestamp));\n    require((state == STATE_ACTIVE) || (state == STATE_EXERCISED));\n    require(base_volume_exercised > 0);\n    require((asset_volume_exercised > 0) && (asset_volume_exercised <= volume));\n\n    bool base_transfer = base.transferFrom(exerciser, address(this), base_volume_exercised);\n    require(base_transfer);\n    bool option_claim_burn = option_claim.burn(exerciser, base_volume_exercised);\n    require(option_claim_burn);\n    bool asset_transfer = asset.transfer(exerciser, asset_volume_exercised);\n    require(asset_transfer);\n\n    option_claim_supply = option_claim.totalSupply();\n    volume = volume - asset_volume_exercised;\n\n    state = STATE_EXERCISED;\n  }\n\n  // // Exercise wrappers\n  // Specify how many to buy\n  function exercise_from_asset(uint256 asset_volume_exercised) public returns (uint256) {\n    uint256 base_volume_exercised = (asset_volume_exercised * strike_price_base) / strike_price_quote;\n\n    exercise_internal(msg.sender, base_volume_exercised, asset_volume_exercised);\n    return base_volume_exercised;\n  }\n\n  // Specify how many to sell\n  function exercise_from_base(uint256 base_volume_exercised) public returns (uint256) {\n    uint256 asset_volume_exercised = (base_volume_exercised * strike_price_quote) / strike_price_base;\n\n    exercise_internal(msg.sender, base_volume_exercised, asset_volume_exercised);\n    return asset_volume_exercised;\n  }\n\n  // // Marks option as expired and refunds claim.\n  // Can call either before activation (to abort) or after expiry time\n  // OR can call after all options have been exercised\n  function expire() public {\n    require((expiry_time <= block.timestamp) ||\n            (state == STATE_COLLATERALIZED) ||\n            (volume == 0));\n\n    uint256 collateral_claim_balance = collateral_claim.balanceOf(msg.sender);\n    uint256 asset_claimed = (collateral_claim_balance * volume) / collateral_claim_supply;\n    uint256 my_base_balance = base.balanceOf(address(this));\n    uint256 base_claimed = (collateral_claim_balance * my_base_balance) / collateral_claim_supply;\n\n    bool collateral_claim_burn = collateral_claim.burn(msg.sender, collateral_claim_balance);\n    require(collateral_claim_burn);\n    bool base_transfer = base.transfer(msg.sender, base_claimed);\n    require(base_transfer);\n    bool asset_transfer = asset.transfer(msg.sender, asset_claimed);\n    require(asset_transfer);\n\n    collateral_claim_supply = collateral_claim.totalSupply();\n\n    state = STATE_EXPIRED;\n  }\n\n  // Returns information about the tokens\n  function get_token_info() public view returns (address, address,\n                                                  uint256, uint256,\n                                                  uint256, uint256) {\n    uint256 option_claim_balance = option_claim.balanceOf(msg.sender);\n    uint256 collateral_claim_balance = collateral_claim.balanceOf(msg.sender);\n    return(option_claim_addr, collateral_claim_addr,\n            option_claim_supply, collateral_claim_supply,\n            option_claim_balance, collateral_claim_balance);\n  }\n}\n",
  "sourcePath": "/Users/Karim/Desktop/atomicoptions/contracts/src/options/TokenizedOption.sol",
  "compiler": {
    "name": "solc",
    "version": "0.5.8+commit.23d335f2.Emscripten.clang"
  },
  "schemaVersion": "3.0.16",
  "updatedAt": "2019-11-13T15:12:11.015Z",
  "devdoc": {
    "details": "Option where you can trade claims on the collateral and options",
    "methods": {},
    "title": "TokenizedOption"
  },
  "userdoc": {
    "methods": {}
  }
}