{
  "contractName": "TokenizedOption",
  "abi": [
    {
      "constant": true,
      "inputs": [],
      "name": "STATE_EXPIRED",
      "outputs": [
        {
          "name": "",
          "type": "uint256"
        }
      ],
      "payable": false,
      "stateMutability": "view",
      "type": "function"
    },
    {
      "constant": true,
      "inputs": [],
      "name": "STATE_INITIALIZED",
      "outputs": [
        {
          "name": "",
          "type": "uint256"
        }
      ],
      "payable": false,
      "stateMutability": "view",
      "type": "function"
    },
    {
      "constant": true,
      "inputs": [],
      "name": "STATE_EXERCISED",
      "outputs": [
        {
          "name": "",
          "type": "uint256"
        }
      ],
      "payable": false,
      "stateMutability": "view",
      "type": "function"
    },
    {
      "constant": true,
      "inputs": [],
      "name": "issuer",
      "outputs": [
        {
          "name": "",
          "type": "address"
        }
      ],
      "payable": false,
      "stateMutability": "view",
      "type": "function"
    },
    {
      "constant": true,
      "inputs": [],
      "name": "option_claim_addr",
      "outputs": [
        {
          "name": "",
          "type": "address"
        }
      ],
      "payable": false,
      "stateMutability": "view",
      "type": "function"
    },
    {
      "constant": false,
      "inputs": [
        {
          "name": "_to",
          "type": "address"
        }
      ],
      "name": "transfer_issuer",
      "outputs": [],
      "payable": false,
      "stateMutability": "nonpayable",
      "type": "function"
    },
    {
      "constant": true,
      "inputs": [],
      "name": "asset",
      "outputs": [
        {
          "name": "",
          "type": "address"
        }
      ],
      "payable": false,
      "stateMutability": "view",
      "type": "function"
    },
    {
      "constant": true,
      "inputs": [],
      "name": "base",
      "outputs": [
        {
          "name": "",
          "type": "address"
        }
      ],
      "payable": false,
      "stateMutability": "view",
      "type": "function"
    },
    {
      "constant": true,
      "inputs": [],
      "name": "collateral_claim_supply",
      "outputs": [
        {
          "name": "",
          "type": "uint256"
        }
      ],
      "payable": false,
      "stateMutability": "view",
      "type": "function"
    },
    {
      "constant": true,
      "inputs": [],
      "name": "STATE_COLLATERALIZED",
      "outputs": [
        {
          "name": "",
          "type": "uint256"
        }
      ],
      "payable": false,
      "stateMutability": "view",
      "type": "function"
    },
    {
      "constant": true,
      "inputs": [],
      "name": "asset_addr",
      "outputs": [
        {
          "name": "",
          "type": "address"
        }
      ],
      "payable": false,
      "stateMutability": "view",
      "type": "function"
    },
    {
      "constant": true,
      "inputs": [],
      "name": "get_info",
      "outputs": [
        {
          "name": "",
          "type": "address"
        },
        {
          "name": "",
          "type": "address"
        },
        {
          "name": "",
          "type": "address"
        },
        {
          "name": "",
          "type": "address"
        },
        {
          "name": "",
          "type": "uint256"
        },
        {
          "name": "",
          "type": "uint256"
        },
        {
          "name": "",
          "type": "uint256"
        },
        {
          "name": "",
          "type": "uint256"
        },
        {
          "name": "",
          "type": "uint256"
        },
        {
          "name": "",
          "type": "uint256"
        },
        {
          "name": "",
          "type": "uint256"
        }
      ],
      "payable": false,
      "stateMutability": "view",
      "type": "function"
    },
    {
      "constant": true,
      "inputs": [],
      "name": "option_claim",
      "outputs": [
        {
          "name": "",
          "type": "address"
        }
      ],
      "payable": false,
      "stateMutability": "view",
      "type": "function"
    },
    {
      "constant": true,
      "inputs": [],
      "name": "buyer",
      "outputs": [
        {
          "name": "",
          "type": "address"
        }
      ],
      "payable": false,
      "stateMutability": "view",
      "type": "function"
    },
    {
      "constant": true,
      "inputs": [],
      "name": "maturity_time",
      "outputs": [
        {
          "name": "",
          "type": "uint256"
        }
      ],
      "payable": false,
      "stateMutability": "view",
      "type": "function"
    },
    {
      "constant": false,
      "inputs": [],
      "name": "pay_fee",
      "outputs": [],
      "payable": false,
      "stateMutability": "nonpayable",
      "type": "function"
    },
    {
      "constant": true,
      "inputs": [],
      "name": "base_addr",
      "outputs": [
        {
          "name": "",
          "type": "address"
        }
      ],
      "payable": false,
      "stateMutability": "view",
      "type": "function"
    },
    {
      "constant": true,
      "inputs": [],
      "name": "strike_price_base",
      "outputs": [
        {
          "name": "",
          "type": "uint256"
        }
      ],
      "payable": false,
      "stateMutability": "view",
      "type": "function"
    },
    {
      "constant": true,
      "inputs": [],
      "name": "state",
      "outputs": [
        {
          "name": "",
          "type": "uint256"
        }
      ],
      "payable": false,
      "stateMutability": "view",
      "type": "function"
    },
    {
      "constant": true,
      "inputs": [],
      "name": "collateral_claim_addr",
      "outputs": [
        {
          "name": "",
          "type": "address"
        }
      ],
      "payable": false,
      "stateMutability": "view",
      "type": "function"
    },
    {
      "constant": true,
      "inputs": [],
      "name": "volume",
      "outputs": [
        {
          "name": "",
          "type": "uint256"
        }
      ],
      "payable": false,
      "stateMutability": "view",
      "type": "function"
    },
    {
      "constant": true,
      "inputs": [],
      "name": "STATE_ACTIVE",
      "outputs": [
        {
          "name": "",
          "type": "uint256"
        }
      ],
      "payable": false,
      "stateMutability": "view",
      "type": "function"
    },
    {
      "constant": true,
      "inputs": [],
      "name": "collateral_claim",
      "outputs": [
        {
          "name": "",
          "type": "address"
        }
      ],
      "payable": false,
      "stateMutability": "view",
      "type": "function"
    },
    {
      "constant": true,
      "inputs": [],
      "name": "STATE_UNINITIALIZED",
      "outputs": [
        {
          "name": "",
          "type": "uint256"
        }
      ],
      "payable": false,
      "stateMutability": "view",
      "type": "function"
    },
    {
      "constant": false,
      "inputs": [
        {
          "name": "_to",
          "type": "address"
        }
      ],
      "name": "transfer_buyer",
      "outputs": [],
      "payable": false,
      "stateMutability": "nonpayable",
      "type": "function"
    },
    {
      "constant": true,
      "inputs": [],
      "name": "fee",
      "outputs": [
        {
          "name": "",
          "type": "uint256"
        }
      ],
      "payable": false,
      "stateMutability": "view",
      "type": "function"
    },
    {
      "constant": true,
      "inputs": [],
      "name": "strike_price_quote",
      "outputs": [
        {
          "name": "",
          "type": "uint256"
        }
      ],
      "payable": false,
      "stateMutability": "view",
      "type": "function"
    },
    {
      "constant": false,
      "inputs": [],
      "name": "collateralize",
      "outputs": [],
      "payable": false,
      "stateMutability": "nonpayable",
      "type": "function"
    },
    {
      "constant": true,
      "inputs": [],
      "name": "option_claim_supply",
      "outputs": [
        {
          "name": "",
          "type": "uint256"
        }
      ],
      "payable": false,
      "stateMutability": "view",
      "type": "function"
    },
    {
      "constant": true,
      "inputs": [],
      "name": "expiry_time",
      "outputs": [
        {
          "name": "",
          "type": "uint256"
        }
      ],
      "payable": false,
      "stateMutability": "view",
      "type": "function"
    },
    {
      "inputs": [
        {
          "name": "_issuer",
          "type": "address"
        },
        {
          "name": "_buyer",
          "type": "address"
        },
        {
          "name": "_base_addr",
          "type": "address"
        },
        {
          "name": "_asset_addr",
          "type": "address"
        },
        {
          "name": "_fee",
          "type": "uint256"
        },
        {
          "name": "_strike_price_base",
          "type": "uint256"
        },
        {
          "name": "_strike_price_quote",
          "type": "uint256"
        },
        {
          "name": "_volume",
          "type": "uint256"
        },
        {
          "name": "_maturity_time",
          "type": "uint256"
        },
        {
          "name": "_expiry_time",
          "type": "uint256"
        }
      ],
      "payable": false,
      "stateMutability": "nonpayable",
      "type": "constructor"
    },
    {
      "constant": false,
      "inputs": [
        {
          "name": "option_claim_name",
          "type": "string"
        },
        {
          "name": "option_claim_symbol",
          "type": "string"
        },
        {
          "name": "collateral_claim_name",
          "type": "string"
        },
        {
          "name": "collateral_claim_symbol",
          "type": "string"
        }
      ],
      "name": "initialize_tokens",
      "outputs": [],
      "payable": false,
      "stateMutability": "nonpayable",
      "type": "function"
    },
    {
      "constant": false,
      "inputs": [
        {
          "name": "asset_volume_exercised",
          "type": "uint256"
        }
      ],
      "name": "exercise_from_asset",
      "outputs": [],
      "payable": false,
      "stateMutability": "nonpayable",
      "type": "function"
    },
    {
      "constant": false,
      "inputs": [
        {
          "name": "base_volume_exercised",
          "type": "uint256"
        }
      ],
      "name": "exercise_from_base",
      "outputs": [],
      "payable": false,
      "stateMutability": "nonpayable",
      "type": "function"
    },
    {
      "constant": false,
      "inputs": [],
      "name": "expire",
      "outputs": [],
      "payable": false,
      "stateMutability": "nonpayable",
      "type": "function"
    },
    {
      "constant": true,
      "inputs": [],
      "name": "get_token_info",
      "outputs": [
        {
          "name": "",
          "type": "address"
        },
        {
          "name": "",
          "type": "address"
        },
        {
          "name": "",
          "type": "uint256"
        },
        {
          "name": "",
          "type": "uint256"
        },
        {
          "name": "",
          "type": "uint256"
        },
        {
          "name": "",
          "type": "uint256"
        }
      ],
      "payable": false,
      "stateMutability": "view",
      "type": "function"
    }
  ],
  "bytecode": "0x60806040523480156200001157600080fd5b50604051610140806200405683398101806040526101408110156200003557600080fd5b81019080805190602001909291908051906020019092919080519060200190929190805190602001909291908051906020019092919080519060200190929190805190602001909291908051906020019092919080519060200190929190805190602001909291905050508989898989898989898989898989898787878787878786868273ffffffffffffffffffffffffffffffffffffffff168473ffffffffffffffffffffffffffffffffffffffff161415620000f257600080fd5b856000806101000a81548173ffffffffffffffffffffffffffffffffffffffff021916908373ffffffffffffffffffffffffffffffffffffffff16021790555084600160006101000a81548173ffffffffffffffffffffffffffffffffffffffff021916908373ffffffffffffffffffffffffffffffffffffffff16021790555083600260006101000a81548173ffffffffffffffffffffffffffffffffffffffff021916908373ffffffffffffffffffffffffffffffffffffffff16021790555082600360006101000a81548173ffffffffffffffffffffffffffffffffffffffff021916908373ffffffffffffffffffffffffffffffffffffffff160217905550816004819055508060058190555083600760006101000a81548173ffffffffffffffffffffffffffffffffffffffff021916908373ffffffffffffffffffffffffffffffffffffffff16021790555082600860006101000a81548173ffffffffffffffffffffffffffffffffffffffff021916908373ffffffffffffffffffffffffffffffffffffffff16021790555060016006819055505050505050508473ffffffffffffffffffffffffffffffffffffffff168673ffffffffffffffffffffffffffffffffffffffff161415620002cd57600080fd5b4281118015620002dc57508181115b620002e657600080fd5b8360098190555080600a81905550505050505050505084600b8190555083600c819055505050505050505050505083858402816200032057fe5b04600f8190555082601081905550600060068190555050505050505050505050613d0680620003506000396000f3fe60806040523480156200001157600080fd5b5060043610620002445760003560e01c806396f5a49f1162000141578063c80c073811620000bd578063ddca3f431162000087578063ddca3f431462000be9578063e1b8d40f1462000c09578063eef9a8d51462000c29578063fad090291462000c35578063fe3f3b811462000c555762000244565b8063c80c07381462000b16578063c920de461462000b36578063d34ab68d1462000b82578063ddb0c86c1462000ba25762000244565b8063ba221585116200010b578063ba22158514620009cf578063bf17188014620009ef578063c19d93fb1462000a8a578063c1cf8e1e1462000aaa578063c618a1e41462000af65762000244565b806396f5a49f14620009155780639ce0c9bd14620009465780639f771e1e1462000977578063a77f559914620009835762000244565b80635001f3b511620001d157806360583488116200019b57806360583488146200073b578063699dc95314620008515780637150d8ae146200089d57806379599f9614620008e9578063879a031a14620008f55762000244565b80635001f3b514620006635780635a11e96014620006af5780635ab533ac14620006cf5780635f72718914620006ef5762000244565b80631d6216a311620002135780631d6216a314620002f557806335fe7702146200034157806338d52e0f14620003885780634773e9e414620003d45762000244565b80630fa9f5e1146200024957806314b80ae6146200026957806319d83c7114620002895780631d14384814620002a9575b600080fd5b6200025362000c75565b6040518082815260200191505060405180910390f35b6200027362000c7a565b6040518082815260200191505060405180910390f35b6200029362000c7f565b6040518082815260200191505060405180910390f35b620002b362000c84565b604051808273ffffffffffffffffffffffffffffffffffffffff1673ffffffffffffffffffffffffffffffffffffffff16815260200191505060405180910390f35b620002ff62000ca9565b604051808273ffffffffffffffffffffffffffffffffffffffff1673ffffffffffffffffffffffffffffffffffffffff16815260200191505060405180910390f35b62000386600480360360208110156200035957600080fd5b81019080803573ffffffffffffffffffffffffffffffffffffffff16906020019092919050505062000ccf565b005b6200039262000d6c565b604051808273ffffffffffffffffffffffffffffffffffffffff1673ffffffffffffffffffffffffffffffffffffffff16815260200191505060405180910390f35b6200066160048036036080811015620003ec57600080fd5b81019080803590602001906401000000008111156200040a57600080fd5b8201836020820111156200041d57600080fd5b803590602001918460018302840111640100000000831117156200044057600080fd5b91908080601f016020809104026020016040519081016040528093929190818152602001838380828437600081840152601f19601f82011690508083019250505050505050919291929080359060200190640100000000811115620004a457600080fd5b820183602082011115620004b757600080fd5b80359060200191846001830284011164010000000083111715620004da57600080fd5b91908080601f016020809104026020016040519081016040528093929190818152602001838380828437600081840152601f19601f820116905080830192505050505050509192919290803590602001906401000000008111156200053e57600080fd5b8201836020820111156200055157600080fd5b803590602001918460018302840111640100000000831117156200057457600080fd5b91908080601f016020809104026020016040519081016040528093929190818152602001838380828437600081840152601f19601f82011690508083019250505050505050919291929080359060200190640100000000811115620005d857600080fd5b820183602082011115620005eb57600080fd5b803590602001918460018302840111640100000000831117156200060e57600080fd5b91908080601f016020809104026020016040519081016040528093929190818152602001838380828437600081840152601f19601f82011690508083019250505050505050919291929050505062000d92565b005b6200066d6200135d565b604051808273ffffffffffffffffffffffffffffffffffffffff1673ffffffffffffffffffffffffffffffffffffffff16815260200191505060405180910390f35b620006b962001383565b6040518082815260200191505060405180910390f35b620006d962001389565b6040518082815260200191505060405180910390f35b620006f96200138e565b604051808273ffffffffffffffffffffffffffffffffffffffff1673ffffffffffffffffffffffffffffffffffffffff16815260200191505060405180910390f35b62000745620013b4565b604051808c73ffffffffffffffffffffffffffffffffffffffff1673ffffffffffffffffffffffffffffffffffffffff1681526020018b73ffffffffffffffffffffffffffffffffffffffff1673ffffffffffffffffffffffffffffffffffffffff1681526020018a73ffffffffffffffffffffffffffffffffffffffff1673ffffffffffffffffffffffffffffffffffffffff1681526020018973ffffffffffffffffffffffffffffffffffffffff1673ffffffffffffffffffffffffffffffffffffffff1681526020018881526020018781526020018681526020018581526020018481526020018381526020018281526020019b50505050505050505050505060405180910390f35b6200085b62001488565b604051808273ffffffffffffffffffffffffffffffffffffffff1673ffffffffffffffffffffffffffffffffffffffff16815260200191505060405180910390f35b620008a7620014ae565b604051808273ffffffffffffffffffffffffffffffffffffffff1673ffffffffffffffffffffffffffffffffffffffff16815260200191505060405180910390f35b620008f3620014d4565b005b620008ff62001a89565b6040518082815260200191505060405180910390f35b62000944600480360360208110156200092d57600080fd5b810190808035906020019092919050505062001a8f565b005b62000975600480360360208110156200095e57600080fd5b810190808035906020019092919050505062001ab5565b005b6200098162001adb565b005b6200098d62001ccf565b604051808273ffffffffffffffffffffffffffffffffffffffff1673ffffffffffffffffffffffffffffffffffffffff16815260200191505060405180910390f35b620009d962001cf5565b6040518082815260200191505060405180910390f35b620009f962001cfb565b604051808773ffffffffffffffffffffffffffffffffffffffff1673ffffffffffffffffffffffffffffffffffffffff1681526020018673ffffffffffffffffffffffffffffffffffffffff1673ffffffffffffffffffffffffffffffffffffffff168152602001858152602001848152602001838152602001828152602001965050505050505060405180910390f35b62000a9462001f2a565b6040518082815260200191505060405180910390f35b62000ab462001f30565b604051808273ffffffffffffffffffffffffffffffffffffffff1673ffffffffffffffffffffffffffffffffffffffff16815260200191505060405180910390f35b62000b0062001f56565b6040518082815260200191505060405180910390f35b62000b2062001f5c565b6040518082815260200191505060405180910390f35b62000b4062001f61565b604051808273ffffffffffffffffffffffffffffffffffffffff1673ffffffffffffffffffffffffffffffffffffffff16815260200191505060405180910390f35b62000b8c62001f87565b6040518082815260200191505060405180910390f35b62000be76004803603602081101562000bba57600080fd5b81019080803573ffffffffffffffffffffffffffffffffffffffff16906020019092919050505062001f8c565b005b62000bf36200202b565b6040518082815260200191505060405180910390f35b62000c1362002031565b6040518082815260200191505060405180910390f35b62000c3362002037565b005b62000c3f620021f9565b6040518082815260200191505060405180910390f35b62000c5f620021ff565b6040518082815260200191505060405180910390f35b600581565b600181565b600481565b6000809054906101000a900473ffffffffffffffffffffffffffffffffffffffff1681565b600d60009054906101000a900473ffffffffffffffffffffffffffffffffffffffff1681565b6000809054906101000a900473ffffffffffffffffffffffffffffffffffffffff1673ffffffffffffffffffffffffffffffffffffffff163373ffffffffffffffffffffffffffffffffffffffff161462000d2957600080fd5b806000806101000a81548173ffffffffffffffffffffffffffffffffffffffff021916908373ffffffffffffffffffffffffffffffffffffffff16021790555050565b600860009054906101000a900473ffffffffffffffffffffffffffffffffffffffff1681565b60006006541462000da257600080fd5b600f54848460405162000db59062002649565b808481526020018060200180602001838103835285818151815260200191508051906020019080838360005b8381101562000dfe57808201518184015260208101905062000de1565b50505050905090810190601f16801562000e2c5780820380516001836020036101000a031916815260200191505b50838103825284818151815260200191508051906020019080838360005b8381101562000e6757808201518184015260208101905062000e4a565b50505050905090810190601f16801562000e955780820380516001836020036101000a031916815260200191505b5095505050505050604051809103906000f08015801562000eba573d6000803e3d6000fd5b50601160006101000a81548173ffffffffffffffffffffffffffffffffffffffff021916908373ffffffffffffffffffffffffffffffffffffffff160217905550601054828260405162000f0e9062002649565b808481526020018060200180602001838103835285818151815260200191508051906020019080838360005b8381101562000f5757808201518184015260208101905062000f3a565b50505050905090810190601f16801562000f855780820380516001836020036101000a031916815260200191505b50838103825284818151815260200191508051906020019080838360005b8381101562000fc057808201518184015260208101905062000fa3565b50505050905090810190601f16801562000fee5780820380516001836020036101000a031916815260200191505b5095505050505050604051809103906000f08015801562001013573d6000803e3d6000fd5b50601260006101000a81548173ffffffffffffffffffffffffffffffffffffffff021916908373ffffffffffffffffffffffffffffffffffffffff1602179055506000601160009054906101000a900473ffffffffffffffffffffffffffffffffffffffff1673ffffffffffffffffffffffffffffffffffffffff1663a9059cbb600160009054906101000a900473ffffffffffffffffffffffffffffffffffffffff16600f546040518363ffffffff1660e01b8152600401808373ffffffffffffffffffffffffffffffffffffffff1673ffffffffffffffffffffffffffffffffffffffff16815260200182815260200192505050602060405180830381600087803b1580156200112457600080fd5b505af115801562001139573d6000803e3d6000fd5b505050506040513d60208110156200115057600080fd5b81019080805190602001909291905050509050806200116e57600080fd5b6000601260009054906101000a900473ffffffffffffffffffffffffffffffffffffffff1673ffffffffffffffffffffffffffffffffffffffff1663a9059cbb6000809054906101000a900473ffffffffffffffffffffffffffffffffffffffff166010546040518363ffffffff1660e01b8152600401808373ffffffffffffffffffffffffffffffffffffffff1673ffffffffffffffffffffffffffffffffffffffff16815260200182815260200192505050602060405180830381600087803b1580156200123d57600080fd5b505af115801562001252573d6000803e3d6000fd5b505050506040513d60208110156200126957600080fd5b81019080805190602001909291905050509050806200128757600080fd5b601160009054906101000a900473ffffffffffffffffffffffffffffffffffffffff16600d60006101000a81548173ffffffffffffffffffffffffffffffffffffffff021916908373ffffffffffffffffffffffffffffffffffffffff160217905550601260009054906101000a900473ffffffffffffffffffffffffffffffffffffffff16600e60006101000a81548173ffffffffffffffffffffffffffffffffffffffff021916908373ffffffffffffffffffffffffffffffffffffffff1602179055506001600681905550505050505050565b600760009054906101000a900473ffffffffffffffffffffffffffffffffffffffff1681565b60105481565b600281565b600360009054906101000a900473ffffffffffffffffffffffffffffffffffffffff1681565b60008060008060008060008060008060008060009054906101000a900473ffffffffffffffffffffffffffffffffffffffff16600160009054906101000a900473ffffffffffffffffffffffffffffffffffffffff16600260009054906101000a900473ffffffffffffffffffffffffffffffffffffffff16600360009054906101000a900473ffffffffffffffffffffffffffffffffffffffff16600954600b54600c54600454600554600a546006549a509a509a509a509a509a509a509a509a509a509a50909192939495969798999a565b601160009054906101000a900473ffffffffffffffffffffffffffffffffffffffff1681565b600160009054906101000a900473ffffffffffffffffffffffffffffffffffffffff1681565b42600a54111580620014e857506002600654145b80620014f657506000600454145b6200150057600080fd5b6000601260009054906101000a900473ffffffffffffffffffffffffffffffffffffffff1673ffffffffffffffffffffffffffffffffffffffff166370a08231336040518263ffffffff1660e01b8152600401808273ffffffffffffffffffffffffffffffffffffffff1673ffffffffffffffffffffffffffffffffffffffff16815260200191505060206040518083038186803b158015620015a257600080fd5b505afa158015620015b7573d6000803e3d6000fd5b505050506040513d6020811015620015ce57600080fd5b810190808051906020019092919050505090506000601054600454830281620015f357fe5b0490506000600760009054906101000a900473ffffffffffffffffffffffffffffffffffffffff1673ffffffffffffffffffffffffffffffffffffffff166370a08231306040518263ffffffff1660e01b8152600401808273ffffffffffffffffffffffffffffffffffffffff1673ffffffffffffffffffffffffffffffffffffffff16815260200191505060206040518083038186803b1580156200169857600080fd5b505afa158015620016ad573d6000803e3d6000fd5b505050506040513d6020811015620016c457600080fd5b81019080805190602001909291905050509050600060105482850281620016e757fe5b0490506000601260009054906101000a900473ffffffffffffffffffffffffffffffffffffffff1673ffffffffffffffffffffffffffffffffffffffff16639dc29fac33876040518363ffffffff1660e01b8152600401808373ffffffffffffffffffffffffffffffffffffffff1673ffffffffffffffffffffffffffffffffffffffff16815260200182815260200192505050602060405180830381600087803b1580156200179657600080fd5b505af1158015620017ab573d6000803e3d6000fd5b505050506040513d6020811015620017c257600080fd5b8101908080519060200190929190505050905080620017e057600080fd5b6000600760009054906101000a900473ffffffffffffffffffffffffffffffffffffffff1673ffffffffffffffffffffffffffffffffffffffff1663a9059cbb33856040518363ffffffff1660e01b8152600401808373ffffffffffffffffffffffffffffffffffffffff1673ffffffffffffffffffffffffffffffffffffffff16815260200182815260200192505050602060405180830381600087803b1580156200188c57600080fd5b505af1158015620018a1573d6000803e3d6000fd5b505050506040513d6020811015620018b857600080fd5b8101908080519060200190929190505050905080620018d657600080fd5b6000600860009054906101000a900473ffffffffffffffffffffffffffffffffffffffff1673ffffffffffffffffffffffffffffffffffffffff1663a9059cbb33886040518363ffffffff1660e01b8152600401808373ffffffffffffffffffffffffffffffffffffffff1673ffffffffffffffffffffffffffffffffffffffff16815260200182815260200192505050602060405180830381600087803b1580156200198257600080fd5b505af115801562001997573d6000803e3d6000fd5b505050506040513d6020811015620019ae57600080fd5b8101908080519060200190929190505050905080620019cc57600080fd5b601260009054906101000a900473ffffffffffffffffffffffffffffffffffffffff1673ffffffffffffffffffffffffffffffffffffffff166318160ddd6040518163ffffffff1660e01b815260040160206040518083038186803b15801562001a3557600080fd5b505afa15801562001a4a573d6000803e3d6000fd5b505050506040513d602081101562001a6157600080fd5b8101908080519060200190929190505050601081905550600560068190555050505050505050565b60055481565b6000600c54600b5483028162001aa157fe5b04905062001ab133828462002205565b5050565b6000600b54600c5483028162001ac757fe5b04905062001ad733838362002205565b5050565b600160009054906101000a900473ffffffffffffffffffffffffffffffffffffffff1673ffffffffffffffffffffffffffffffffffffffff163373ffffffffffffffffffffffffffffffffffffffff161462001b3657600080fd5b60026006541462001b4657600080fd5b42600a541162001b5557600080fd5b6000600760009054906101000a900473ffffffffffffffffffffffffffffffffffffffff1673ffffffffffffffffffffffffffffffffffffffff166323b872dd600160009054906101000a900473ffffffffffffffffffffffffffffffffffffffff166000809054906101000a900473ffffffffffffffffffffffffffffffffffffffff166009546040518463ffffffff1660e01b8152600401808473ffffffffffffffffffffffffffffffffffffffff1673ffffffffffffffffffffffffffffffffffffffff1681526020018373ffffffffffffffffffffffffffffffffffffffff1673ffffffffffffffffffffffffffffffffffffffff1681526020018281526020019350505050602060405180830381600087803b15801562001c7a57600080fd5b505af115801562001c8f573d6000803e3d6000fd5b505050506040513d602081101562001ca657600080fd5b810190808051906020019092919050505090508062001cc457600080fd5b600360068190555050565b600260009054906101000a900473ffffffffffffffffffffffffffffffffffffffff1681565b600b5481565b6000806000806000806000601160009054906101000a900473ffffffffffffffffffffffffffffffffffffffff1673ffffffffffffffffffffffffffffffffffffffff166370a08231336040518263ffffffff1660e01b8152600401808273ffffffffffffffffffffffffffffffffffffffff1673ffffffffffffffffffffffffffffffffffffffff16815260200191505060206040518083038186803b15801562001da657600080fd5b505afa15801562001dbb573d6000803e3d6000fd5b505050506040513d602081101562001dd257600080fd5b810190808051906020019092919050505090506000601260009054906101000a900473ffffffffffffffffffffffffffffffffffffffff1673ffffffffffffffffffffffffffffffffffffffff166370a08231336040518263ffffffff1660e01b8152600401808273ffffffffffffffffffffffffffffffffffffffff1673ffffffffffffffffffffffffffffffffffffffff16815260200191505060206040518083038186803b15801562001e8757600080fd5b505afa15801562001e9c573d6000803e3d6000fd5b505050506040513d602081101562001eb357600080fd5b81019080805190602001909291905050509050600d60009054906101000a900473ffffffffffffffffffffffffffffffffffffffff16600e60009054906101000a900473ffffffffffffffffffffffffffffffffffffffff16600f5460105485859750975097509750975097505050909192939495565b60065481565b600e60009054906101000a900473ffffffffffffffffffffffffffffffffffffffff1681565b60045481565b600381565b601260009054906101000a900473ffffffffffffffffffffffffffffffffffffffff1681565b600081565b600160009054906101000a900473ffffffffffffffffffffffffffffffffffffffff1673ffffffffffffffffffffffffffffffffffffffff163373ffffffffffffffffffffffffffffffffffffffff161462001fe757600080fd5b80600160006101000a81548173ffffffffffffffffffffffffffffffffffffffff021916908373ffffffffffffffffffffffffffffffffffffffff16021790555050565b60095481565b600c5481565b6000809054906101000a900473ffffffffffffffffffffffffffffffffffffffff1673ffffffffffffffffffffffffffffffffffffffff163373ffffffffffffffffffffffffffffffffffffffff16146200209157600080fd5b600160065414620020a157600080fd5b6000600860009054906101000a900473ffffffffffffffffffffffffffffffffffffffff1673ffffffffffffffffffffffffffffffffffffffff166323b872dd6000809054906101000a900473ffffffffffffffffffffffffffffffffffffffff16306004546040518463ffffffff1660e01b8152600401808473ffffffffffffffffffffffffffffffffffffffff1673ffffffffffffffffffffffffffffffffffffffff1681526020018373ffffffffffffffffffffffffffffffffffffffff1673ffffffffffffffffffffffffffffffffffffffff1681526020018281526020019350505050602060405180830381600087803b158015620021a457600080fd5b505af1158015620021b9573d6000803e3d6000fd5b505050506040513d6020811015620021d057600080fd5b8101908080519060200190929190505050905080620021ee57600080fd5b600260068190555050565b600f5481565b600a5481565b42600a541180156200221957504260055411155b6200222357600080fd5b600360065414806200223757506004600654145b6200224157600080fd5b600082116200224f57600080fd5b6000811180156200226257506004548111155b6200226c57600080fd5b6000600760009054906101000a900473ffffffffffffffffffffffffffffffffffffffff1673ffffffffffffffffffffffffffffffffffffffff166323b872dd8530866040518463ffffffff1660e01b8152600401808473ffffffffffffffffffffffffffffffffffffffff1673ffffffffffffffffffffffffffffffffffffffff1681526020018373ffffffffffffffffffffffffffffffffffffffff1673ffffffffffffffffffffffffffffffffffffffff1681526020018281526020019350505050602060405180830381600087803b1580156200234c57600080fd5b505af115801562002361573d6000803e3d6000fd5b505050506040513d60208110156200237857600080fd5b81019080805190602001909291905050509050806200239657600080fd5b6000601160009054906101000a900473ffffffffffffffffffffffffffffffffffffffff1673ffffffffffffffffffffffffffffffffffffffff16639dc29fac86866040518363ffffffff1660e01b8152600401808373ffffffffffffffffffffffffffffffffffffffff1673ffffffffffffffffffffffffffffffffffffffff16815260200182815260200192505050602060405180830381600087803b1580156200244257600080fd5b505af115801562002457573d6000803e3d6000fd5b505050506040513d60208110156200246e57600080fd5b81019080805190602001909291905050509050806200248c57600080fd5b6000600860009054906101000a900473ffffffffffffffffffffffffffffffffffffffff1673ffffffffffffffffffffffffffffffffffffffff1663a9059cbb87866040518363ffffffff1660e01b8152600401808373ffffffffffffffffffffffffffffffffffffffff1673ffffffffffffffffffffffffffffffffffffffff16815260200182815260200192505050602060405180830381600087803b1580156200253857600080fd5b505af11580156200254d573d6000803e3d6000fd5b505050506040513d60208110156200256457600080fd5b81019080805190602001909291905050509050806200258257600080fd5b601160009054906101000a900473ffffffffffffffffffffffffffffffffffffffff1673ffffffffffffffffffffffffffffffffffffffff166318160ddd6040518163ffffffff1660e01b815260040160206040518083038186803b158015620025eb57600080fd5b505afa15801562002600573d6000803e3d6000fd5b505050506040513d60208110156200261757600080fd5b8101908080519060200190929190505050600f8190555083600454036004819055506004600681905550505050505050565b61168380620026588339019056fe60806040523480156200001157600080fd5b506040516200168338038062001683833981018060405260608110156200003757600080fd5b810190808051906020019092919080516401000000008111156200005a57600080fd5b828101905060208101848111156200007157600080fd5b81518560018202830111640100000000821117156200008f57600080fd5b50509291906020018051640100000000811115620000ac57600080fd5b82810190506020810184811115620000c357600080fd5b8151856001820283011164010000000082111715620000e157600080fd5b50509291905050508260008190555082600160003373ffffffffffffffffffffffffffffffffffffffff1673ffffffffffffffffffffffffffffffffffffffff1681526020019081526020016000208190555033600560006101000a81548173ffffffffffffffffffffffffffffffffffffffff021916908373ffffffffffffffffffffffffffffffffffffffff16021790555081600390805190602001906200018d929190620001b0565b508060049080519060200190620001a6929190620001b0565b505050506200025f565b828054600181600116156101000203166002900490600052602060002090601f016020900481019282601f10620001f357805160ff191683800117855562000224565b8280016001018555821562000224579182015b828111156200022357825182559160200191906001019062000206565b5b50905062000233919062000237565b5090565b6200025c91905b80821115620002585760008160009055506001016200023e565b5090565b90565b611414806200026f6000396000f3fe608060405234801561001057600080fd5b50600436106100cf5760003560e01c806370a082311161008c5780639dc29fac116100665780639dc29fac14610410578063a9059cbb14610476578063d73dd623146104dc578063dd62ed3e14610542576100cf565b806370a08231146102eb5780638da5cb5b1461034357806395d89b411461038d576100cf565b806306fdde03146100d4578063095ea7b31461015757806318160ddd146101bd57806323b872dd146101db578063313ce567146102615780636618846314610285575b600080fd5b6100dc6105ba565b6040518080602001828103825283818151815260200191508051906020019080838360005b8381101561011c578082015181840152602081019050610101565b50505050905090810190601f1680156101495780820380516001836020036101000a031916815260200191505b509250505060405180910390f35b6101a36004803603604081101561016d57600080fd5b81019080803573ffffffffffffffffffffffffffffffffffffffff16906020019092919080359060200190929190505050610658565b604051808215151515815260200191505060405180910390f35b6101c561074a565b6040518082815260200191505060405180910390f35b610247600480360360608110156101f157600080fd5b81019080803573ffffffffffffffffffffffffffffffffffffffff169060200190929190803573ffffffffffffffffffffffffffffffffffffffff16906020019092919080359060200190929190505050610750565b604051808215151515815260200191505060405180910390f35b610269610a3a565b604051808260ff1660ff16815260200191505060405180910390f35b6102d16004803603604081101561029b57600080fd5b81019080803573ffffffffffffffffffffffffffffffffffffffff16906020019092919080359060200190929190505050610a3f565b604051808215151515815260200191505060405180910390f35b61032d6004803603602081101561030157600080fd5b81019080803573ffffffffffffffffffffffffffffffffffffffff169060200190929190505050610cd0565b6040518082815260200191505060405180910390f35b61034b610d19565b604051808273ffffffffffffffffffffffffffffffffffffffff1673ffffffffffffffffffffffffffffffffffffffff16815260200191505060405180910390f35b610395610d3f565b6040518080602001828103825283818151815260200191508051906020019080838360005b838110156103d55780820151818401526020810190506103ba565b50505050905090810190601f1680156104025780820380516001836020036101000a031916815260200191505b509250505060405180910390f35b61045c6004803603604081101561042657600080fd5b81019080803573ffffffffffffffffffffffffffffffffffffffff16906020019092919080359060200190929190505050610ddd565b604051808215151515815260200191505060405180910390f35b6104c26004803603604081101561048c57600080fd5b81019080803573ffffffffffffffffffffffffffffffffffffffff16906020019092919080359060200190929190505050610f5e565b604051808215151515815260200191505060405180910390f35b610528600480360360408110156104f257600080fd5b81019080803573ffffffffffffffffffffffffffffffffffffffff16906020019092919080359060200190929190505050611132565b604051808215151515815260200191505060405180910390f35b6105a46004803603604081101561055857600080fd5b81019080803573ffffffffffffffffffffffffffffffffffffffff169060200190929190803573ffffffffffffffffffffffffffffffffffffffff16906020019092919050505061132e565b6040518082815260200191505060405180910390f35b60038054600181600116156101000203166002900480601f0160208091040260200160405190810160405280929190818152602001828054600181600116156101000203166002900480156106505780601f1061062557610100808354040283529160200191610650565b820191906000526020600020905b81548152906001019060200180831161063357829003601f168201915b505050505081565b600081600260003373ffffffffffffffffffffffffffffffffffffffff1673ffffffffffffffffffffffffffffffffffffffff16815260200190815260200160002060008573ffffffffffffffffffffffffffffffffffffffff1673ffffffffffffffffffffffffffffffffffffffff168152602001908152602001600020819055508273ffffffffffffffffffffffffffffffffffffffff163373ffffffffffffffffffffffffffffffffffffffff167f8c5be1e5ebec7d5bd14f71427d1e84f3dd0314c0f7b2291e5b200ac8c7c3b925846040518082815260200191505060405180910390a36001905092915050565b60005481565b60008073ffffffffffffffffffffffffffffffffffffffff168373ffffffffffffffffffffffffffffffffffffffff16141561078b57600080fd5b6000600260008673ffffffffffffffffffffffffffffffffffffffff1673ffffffffffffffffffffffffffffffffffffffff16815260200190815260200160002060003373ffffffffffffffffffffffffffffffffffffffff1673ffffffffffffffffffffffffffffffffffffffff16815260200190815260200160002054905061085e83600160008873ffffffffffffffffffffffffffffffffffffffff1673ffffffffffffffffffffffffffffffffffffffff168152602001908152602001600020546113b590919063ffffffff16565b600160008773ffffffffffffffffffffffffffffffffffffffff1673ffffffffffffffffffffffffffffffffffffffff168152602001908152602001600020819055506108f383600160008773ffffffffffffffffffffffffffffffffffffffff1673ffffffffffffffffffffffffffffffffffffffff168152602001908152602001600020546113cc90919063ffffffff16565b600160008673ffffffffffffffffffffffffffffffffffffffff1673ffffffffffffffffffffffffffffffffffffffff1681526020019081526020016000208190555061094983826113b590919063ffffffff16565b600260008773ffffffffffffffffffffffffffffffffffffffff1673ffffffffffffffffffffffffffffffffffffffff16815260200190815260200160002060003373ffffffffffffffffffffffffffffffffffffffff1673ffffffffffffffffffffffffffffffffffffffff168152602001908152602001600020819055508373ffffffffffffffffffffffffffffffffffffffff168573ffffffffffffffffffffffffffffffffffffffff167fddf252ad1be2c89b69c2b068fc378daa952ba7f163c4a11628f55a4df523b3ef856040518082815260200191505060405180910390a360019150509392505050565b601281565b600080600260003373ffffffffffffffffffffffffffffffffffffffff1673ffffffffffffffffffffffffffffffffffffffff16815260200190815260200160002060008573ffffffffffffffffffffffffffffffffffffffff1673ffffffffffffffffffffffffffffffffffffffff16815260200190815260200160002054905080831115610b50576000600260003373ffffffffffffffffffffffffffffffffffffffff1673ffffffffffffffffffffffffffffffffffffffff16815260200190815260200160002060008673ffffffffffffffffffffffffffffffffffffffff1673ffffffffffffffffffffffffffffffffffffffff16815260200190815260200160002081905550610be4565b610b6383826113b590919063ffffffff16565b600260003373ffffffffffffffffffffffffffffffffffffffff1673ffffffffffffffffffffffffffffffffffffffff16815260200190815260200160002060008673ffffffffffffffffffffffffffffffffffffffff1673ffffffffffffffffffffffffffffffffffffffff168152602001908152602001600020819055505b8373ffffffffffffffffffffffffffffffffffffffff163373ffffffffffffffffffffffffffffffffffffffff167f8c5be1e5ebec7d5bd14f71427d1e84f3dd0314c0f7b2291e5b200ac8c7c3b925600260003373ffffffffffffffffffffffffffffffffffffffff1673ffffffffffffffffffffffffffffffffffffffff16815260200190815260200160002060008873ffffffffffffffffffffffffffffffffffffffff1673ffffffffffffffffffffffffffffffffffffffff168152602001908152602001600020546040518082815260200191505060405180910390a3600191505092915050565b6000600160008373ffffffffffffffffffffffffffffffffffffffff1673ffffffffffffffffffffffffffffffffffffffff168152602001908152602001600020549050919050565b600560009054906101000a900473ffffffffffffffffffffffffffffffffffffffff1681565b60048054600181600116156101000203166002900480601f016020809104026020016040519081016040528092919081815260200182805460018160011615610100020316600290048015610dd55780601f10610daa57610100808354040283529160200191610dd5565b820191906000526020600020905b815481529060010190602001808311610db857829003601f168201915b505050505081565b6000600560009054906101000a900473ffffffffffffffffffffffffffffffffffffffff1673ffffffffffffffffffffffffffffffffffffffff163373ffffffffffffffffffffffffffffffffffffffff1614610e3957600080fd5b610e8b82600160008673ffffffffffffffffffffffffffffffffffffffff1673ffffffffffffffffffffffffffffffffffffffff168152602001908152602001600020546113b590919063ffffffff16565b600160008573ffffffffffffffffffffffffffffffffffffffff1673ffffffffffffffffffffffffffffffffffffffff16815260200190815260200160002081905550610ee3826000546113b590919063ffffffff16565b6000819055507fcc16f5dbb4873280815c1ee09dbd06736cffcc184412cf7a71a0fdb75d397ca58383604051808373ffffffffffffffffffffffffffffffffffffffff1673ffffffffffffffffffffffffffffffffffffffff1681526020018281526020019250505060405180910390a16001905092915050565b60008073ffffffffffffffffffffffffffffffffffffffff168373ffffffffffffffffffffffffffffffffffffffff161415610f9957600080fd5b610feb82600160003373ffffffffffffffffffffffffffffffffffffffff1673ffffffffffffffffffffffffffffffffffffffff168152602001908152602001600020546113b590919063ffffffff16565b600160003373ffffffffffffffffffffffffffffffffffffffff1673ffffffffffffffffffffffffffffffffffffffff1681526020019081526020016000208190555061108082600160008673ffffffffffffffffffffffffffffffffffffffff1673ffffffffffffffffffffffffffffffffffffffff168152602001908152602001600020546113cc90919063ffffffff16565b600160008573ffffffffffffffffffffffffffffffffffffffff1673ffffffffffffffffffffffffffffffffffffffff168152602001908152602001600020819055508273ffffffffffffffffffffffffffffffffffffffff163373ffffffffffffffffffffffffffffffffffffffff167fddf252ad1be2c89b69c2b068fc378daa952ba7f163c4a11628f55a4df523b3ef846040518082815260200191505060405180910390a36001905092915050565b60006111c382600260003373ffffffffffffffffffffffffffffffffffffffff1673ffffffffffffffffffffffffffffffffffffffff16815260200190815260200160002060008673ffffffffffffffffffffffffffffffffffffffff1673ffffffffffffffffffffffffffffffffffffffff168152602001908152602001600020546113cc90919063ffffffff16565b600260003373ffffffffffffffffffffffffffffffffffffffff1673ffffffffffffffffffffffffffffffffffffffff16815260200190815260200160002060008573ffffffffffffffffffffffffffffffffffffffff1673ffffffffffffffffffffffffffffffffffffffff168152602001908152602001600020819055508273ffffffffffffffffffffffffffffffffffffffff163373ffffffffffffffffffffffffffffffffffffffff167f8c5be1e5ebec7d5bd14f71427d1e84f3dd0314c0f7b2291e5b200ac8c7c3b925600260003373ffffffffffffffffffffffffffffffffffffffff1673ffffffffffffffffffffffffffffffffffffffff16815260200190815260200160002060008773ffffffffffffffffffffffffffffffffffffffff1673ffffffffffffffffffffffffffffffffffffffff168152602001908152602001600020546040518082815260200191505060405180910390a36001905092915050565b6000600260008473ffffffffffffffffffffffffffffffffffffffff1673ffffffffffffffffffffffffffffffffffffffff16815260200190815260200160002060008373ffffffffffffffffffffffffffffffffffffffff1673ffffffffffffffffffffffffffffffffffffffff16815260200190815260200160002054905092915050565b6000828211156113c157fe5b818303905092915050565b6000808284019050838110156113de57fe5b809150509291505056fea165627a7a72305820c99741abf768d9f003013fb7ca94df8386423128bf4ad069b5838967ff08027b0029a165627a7a723058201e267d75848ae8f98861b9be4eedf9869168fdf7970cfd45c390e0321534e5b20029",
  "source": "pragma solidity >=0.4.21 <0.6.0;\n\nimport \"./Option.sol\";\nimport \"../auxiliary/PoolToken.sol\";\n\n/**\n * @title TokenizedOption\n * @dev Option where you can trade claims on the collateral and options\n */\ncontract TokenizedOption is Option {\n  // Addresses of the pool tokens\n  address public option_claim_addr;\n  address public collateral_claim_addr;\n\n  // Number of option/collateral claims outstanding\n  uint256 public option_claim_supply;\n  uint256 public collateral_claim_supply;\n\n  // Tokens representing a claim on options and collateral, respectively\n  PoolToken public option_claim;\n  PoolToken public collateral_claim;\n\n  constructor(address _issuer, address _buyer,\n              address _base_addr, address _asset_addr,\n              uint256 _fee,\n              uint256 _strike_price_base, uint256 _strike_price_quote,\n              uint256 _volume,\n              uint256 _maturity_time, uint256 _expiry_time)\n    Option(_issuer, _buyer,\n            _base_addr, _asset_addr,\n            _fee,\n            _strike_price_base, _strike_price_quote,\n            _volume,\n            _maturity_time, _expiry_time) public {\n    option_claim_supply = (_volume * _strike_price_base) / _strike_price_quote;\n    collateral_claim_supply = _volume;\n\n    state = STATE_UNINITIALIZED;\n  }\n\n  // Too many variables to initialize in one go :(\n  function initialize_tokens(string memory option_claim_name, string memory option_claim_symbol,\n                              string memory collateral_claim_name, string memory collateral_claim_symbol) public {\n    require(state == STATE_UNINITIALIZED);\n\n    option_claim = new PoolToken(option_claim_supply, option_claim_name, option_claim_symbol);\n    collateral_claim = new PoolToken(collateral_claim_supply, collateral_claim_name, collateral_claim_symbol);\n\n    bool option_claim_transferred = option_claim.transfer(buyer, option_claim_supply);\n    require(option_claim_transferred);\n    bool collateral_claim_transferred = collateral_claim.transfer(issuer, collateral_claim_supply);\n    require(collateral_claim_transferred);\n\n    option_claim_addr = address(option_claim);\n    collateral_claim_addr = address(collateral_claim);\n\n    state = STATE_INITIALIZED;\n  }\n\n  function exercise_internal(address exerciser, uint256 base_volume_exercised, uint256 asset_volume_exercised)\n      internal {\n    require((expiry_time > block.timestamp) && (maturity_time <= block.timestamp));\n    require((state == STATE_ACTIVE) || (state == STATE_EXERCISED));\n    require(base_volume_exercised > 0);\n    require((asset_volume_exercised > 0) && (asset_volume_exercised <= volume));\n\n    bool base_transfer = base.transferFrom(exerciser, address(this), base_volume_exercised);\n    require(base_transfer);\n    bool option_claim_burn = option_claim.burn(exerciser, base_volume_exercised);\n    require(option_claim_burn);\n    bool asset_transfer = asset.transfer(exerciser, asset_volume_exercised);\n    require(asset_transfer);\n\n    option_claim_supply = option_claim.totalSupply();\n    volume = volume - asset_volume_exercised;\n\n    state = STATE_EXERCISED;\n  }\n\n  // // Exercise wrappers\n  // Specify how many to buy\n  function exercise_from_asset(uint256 asset_volume_exercised) public {\n    uint256 base_volume_exercised = (asset_volume_exercised * strike_price_base) / strike_price_quote;\n\n    exercise_internal(msg.sender, base_volume_exercised, asset_volume_exercised);\n  }\n\n  // Specify how many to sell\n  function exercise_from_base(uint256 base_volume_exercised) public {\n    uint256 asset_volume_exercised = (base_volume_exercised * strike_price_quote) / strike_price_base;\n\n    exercise_internal(msg.sender, base_volume_exercised, asset_volume_exercised);\n  }\n\n  // // Marks option as expired and refunds claim.\n  // Can call either before activation (to abort) or after expiry time\n  // OR can call after all options have been exercised\n  function expire() public {\n    require((expiry_time <= block.timestamp) ||\n            (state == STATE_COLLATERALIZED) ||\n            (volume == 0));\n\n    uint256 collateral_claim_balance = collateral_claim.balanceOf(msg.sender);\n    uint256 asset_claimed = (collateral_claim_balance * volume) / collateral_claim_supply;\n    uint256 my_base_balance = base.balanceOf(address(this));\n    uint256 base_claimed = (collateral_claim_balance * my_base_balance) / collateral_claim_supply;\n\n    bool collateral_claim_burn = collateral_claim.burn(msg.sender, collateral_claim_balance);\n    require(collateral_claim_burn);\n    bool base_transfer = base.transfer(msg.sender, base_claimed);\n    require(base_transfer);\n    bool asset_transfer = asset.transfer(msg.sender, asset_claimed);\n    require(asset_transfer);\n\n    collateral_claim_supply = collateral_claim.totalSupply();\n\n    state = STATE_EXPIRED;\n  }\n\n  // Returns information about the tokens\n  function get_token_info() public view returns (address, address,\n                                                  uint256, uint256,\n                                                  uint256, uint256) {\n    uint256 option_claim_balance = option_claim.balanceOf(msg.sender);\n    uint256 collateral_claim_balance = collateral_claim.balanceOf(msg.sender);\n    return(option_claim_addr, collateral_claim_addr,\n            option_claim_supply, collateral_claim_supply,\n            option_claim_balance, collateral_claim_balance);\n  }\n}\n",
  "sourcePath": "/Users/Karim/Desktop/atomicoptions/contracts/src/options/TokenizedOption.sol",
  "compiler": {
    "name": "solc",
    "version": "0.5.8+commit.23d335f2.Emscripten.clang"
  },
  "schemaVersion": "3.0.16",
  "updatedAt": "2019-11-06T16:27:22.503Z",
  "devdoc": {
    "details": "Option where you can trade claims on the collateral and options",
    "methods": {},
    "title": "TokenizedOption"
  },
  "userdoc": {
    "methods": {}
  }
}