{
  "contractName": "Transfer",
  "abi": [
    {
      "constant": true,
      "inputs": [],
      "name": "ETH",
      "outputs": [
        {
          "name": "",
          "type": "address"
        }
      ],
      "payable": false,
      "stateMutability": "view",
      "type": "function"
    }
  ],
  "bytecode": "0x608060405234801561001057600080fd5b5060a68061001f6000396000f3fe6080604052348015600f57600080fd5b506004361060285760003560e01c80638322fff214602d575b600080fd5b60336075565b604051808273ffffffffffffffffffffffffffffffffffffffff1673ffffffffffffffffffffffffffffffffffffffff16815260200191505060405180910390f35b60008156fea165627a7a72305820e05843a96b1842960497e067144665277abd6174cda3cd250fdf78832c68a7f20029",
  "source": "// Modified from Marble: https://github.com/marbleprotocol/flash-lending\n/*\n  Copyright 2018 Contra Labs Inc.\n  Licensed under the Apache License, Version 2.0 (the \"License\");\n  you may not use this file except in compliance with the License.\n  You may obtain a copy of the License at\n  http://www.apache.org/licenses/LICENSE-2.0\n  Unless required by applicable law or agreed to in writing, software\n  distributed under the License is distributed on an \"AS IS\" BASIS,\n  WITHOUT WARRANTIES OR CONDITIONS OF ANY KIND, either express or implied.\n  See the License for the specific language governing permissions and\n  limitations under the License.\n*/\n\npragma solidity >=0.4.21 <0.6.0;\n\nimport \"../openzeppelin-solidity/ERC20.sol\";\n\n\ncontract Transfer {\n\n    address constant public ETH = address(0x0);\n\n    /**\n    * @dev Transfer tokens from this contract to an account.\n    * @param token Address of token to transfer. 0x0 for ETH\n    * @param to Address to send tokens to.\n    * @param amount Amount of token to send.\n    */\n    function transfer(address token, address to, uint256 amount) internal returns (bool) {\n        if (token == ETH) {\n            address payable to_payable = address(uint160(to));\n            to_payable.transfer(amount);\n        } else {\n            require(ERC20(token).transfer(to, amount));\n        }\n        return true;\n    }\n\n    /**\n    * @dev Transfer tokens from an account to this contract.\n    * @param token Address of token to transfer. 0x0 for ETH\n    * @param from Address to send tokens from.\n    * @param to Address to send tokens to.\n    * @param amount Amount of token to send.\n    */\n    function transferFrom(\n        address token,\n        address from,\n        address to,\n        uint256 amount\n    )\n        internal\n        returns (bool)\n    {\n        require(token == ETH && msg.value == amount || msg.value == 0);\n\n        if (token != ETH) {\n            // Remember to approve first\n            require(ERC20(token).transferFrom(from, to, amount));\n        }\n        return true;\n    }\n\n}\n",
  "sourcePath": "/Users/Karim 1/Desktop/atomicoptions/contracts/lib/flash-lending/Transfer.sol",
  "compiler": {
    "name": "solc",
    "version": "0.5.8+commit.23d335f2.Emscripten.clang"
  },
  "schemaVersion": "3.0.16",
  "updatedAt": "2019-12-17T19:06:29.662Z",
  "devdoc": {
    "methods": {}
  },
  "userdoc": {
    "methods": {}
  }
}